:020000040800F2
:10000000005000208D630008516200085362000810
:10001000556200085762000859620008000000009D
:100020000000000000000000000000005B6200080B
:100030005D620008000000005F6200086162000865
:10004000D5630008D5630008D5630008D5630008B0
:10005000D5630008D5630008515900085B590008B2
:1000600065590008D56300086F590008D56300087A
:10007000D5630008D563000845730008D5720008F1
:10008000D5630008D5630008D5630008D563000870
:10009000D5630008D5630008D563000879590008C6
:1000A000D5630008D5630008D5630008D563000850
:1000B000D5630008D5630008D5630008D563000840
:1000C000D5630008D5630008D5630008D563000830
:1000D000D5630008D5630008D5630008D563000820
:1000E000D5630008D5630008D56300080000000050
:1000F0000000000000000000000000000000000000
:0C01000000000000000000005FF808F1A3
:1001100010B5054C237833B9044B13B10448AFF341
:1001200000800123237010BD480100200000000062
:1001300030B6000808B5034B1BB103490348AFF3C1
:10014000008008BD000000004C01002030B600080F
:1001500081F0004102E000BF83F0004330B54FEA78
:1001600041044FEA430594EA050F08BF90EA020FE5
:100170001FBF54EA000C55EA020C7FEA645C7FEA78
:10018000655C00F0E2804FEA5454D4EB5555B8BF9B
:100190006D420CDD2C4480EA020281EA030382EA0C
:1001A000000083EA010180EA020281EA0303362D9E
:1001B00088BF30BD11F0004F4FEA01314FF4801C71
:1001C0004CEA113102D0404261EB410113F0004F83
:1001D0004FEA03334CEA133302D0524263EB43033A
:1001E00094EA050F00F0A780A4F10104D5F1200ED8
:1001F0000DDB02FA0EFC22FA05F2801841F1000133
:1002000003FA0EF2801843FA05F359410EE0A5F106
:1002100020050EF1200E012A03FA0EFC28BF4CF037
:10022000020C43FA05F3C01851EBE37101F00045ED
:1002300007D54FF0000EDCF1000C7EEB00006EEBFA
:100240000101B1F5801F1BD3B1F5001F0CD3490884
:100250005FEA30004FEA3C0C04F101044FEA4452DB
:1002600012F5800F80F09A80BCF1004F08BF5FEA62
:10027000500C50F1000041EB045141EA050130BD42
:100280005FEA4C0C404141EB0101013C28BFB1F554
:10029000801FE9D291F0000F04BF01460020B1FA9F
:1002A00081F308BF2033A3F10B03B3F120020CDA72
:1002B0000C3208DD02F1140CC2F10C0201FA0CF050
:1002C00021FA02F10CE002F11402D8BFC2F1200CB5
:1002D00001FA02F120FA0CFCDCBF41EA0C0190406B
:1002E000E41AA2BF01EB0451294330BD6FEA0404B4
:1002F0001F3C1CDA0C340EDC04F11404C4F120029F
:1003000020FA04F001FA02F340EA030021FA04F3B0
:1003100045EA030130BDC4F10C04C4F1200220FA07
:1003200002F001FA04F340EA0300294630BD21FA45
:1003300004F0294630BD94F0000F83F4801306BF0B
:1003400081F480110134013D4EE77FEA645C18BFFF
:100350007FEA655C29D094EA050F08BF90EA020F96
:1003600005D054EA000C04BF1946104630BD91EA8E
:10037000030F1EBF0021002030BD5FEA545C05D191
:100380004000494128BF41F0004130BD14F58004D0
:100390003CBF01F5801130BD01F0004545F0FE4144
:1003A00041F470014FF0000030BD7FEA645C1ABF79
:1003B000194610467FEA655C1CBF0B46024650EAB0
:1003C000013406BF52EA033591EA030F41F40021DC
:1003D00030BD00BF90F0000F04BF0021704730B562
:1003E0004FF4806404F132044FF000054FF0000137
:1003F00050E700BF90F0000F04BF0021704730B5F8
:100400004FF4806404F1320410F0004548BF4042CC
:100410004FF000013EE700BF42004FEAE2014FEA21
:1004200031014FEA02701FBF12F07F4393F07F4FFC
:1004300081F06051704732F07F4208BF704793F0FF
:100440007F4F04BF41F40021704730B54FF4607412
:1004500001F0004521F000411CE700BF50EA010215
:1004600008BF704730B54FF000050AE050EA0102BE
:1004700008BF704730B511F0004502D5404261EB2E
:1004800041014FF4806404F132045FEA915C3FF46F
:10049000D8AE4FF003025FEADC0C18BF03325FEA0C
:1004A000DC0C18BF033202EBDC02C2F1200300FABD
:1004B00003FC20FA02F001FA03FE40EA0E0021FAE2
:1004C00002F11444BDE600BF70B54FF0FF0C4CF4D0
:1004D000E06C1CEA11541DBF1CEA135594EA0C0F82
:1004E00095EA0C0F00F0DEF82C4481EA030621EABD
:1004F0004C5123EA4C5350EA013518BF52EA0335F8
:1005000041F4801143F4801338D0A0FB02CE4FF0A9
:100510000005E1FB02E506F00042E0FB03E54FF0D9
:100520000006E1FB03569CF0000F18BF4EF0010ED1
:10053000A4F1FF04B6F5007F64F5407404D25FEACD
:100540004E0E6D4146EB060642EAC62141EA555180
:100550004FEAC52040EA5E504FEACE2EB4F1FD0CC2
:1005600088BFBCF5E06F1ED8BEF1004F08BF5FEA40
:10057000500E50F1000041EB045170BD06F00046F2
:1005800046EA010140EA020081EA0301B4EB5C049F
:10059000C2BFD4EB0C0541EA045170BD41F4801197
:1005A0004FF0000E013C00F3AB8014F1360FDEBFBC
:1005B000002001F0004170BDC4F10004203C35DA98
:1005C0000C341BDC04F11404C4F1200500FA05F31B
:1005D00020FA04F001FA05F240EA020001F00042BC
:1005E00021F0004110EBD37021FA04F642EB060132
:1005F0005EEA430E08BF20EAD37070BDC4F10C045C
:10060000C4F1200500FA04F320FA05F001FA04F21F
:1006100040EA020001F0004110EBD37041F100010B
:100620005EEA430E08BF20EAD37070BDC4F1200516
:1006300000FA05F24EEA020E20FA04F301FA05F27E
:1006400043EA020321FA04F001F0004121FA04F226
:1006500020EA020000EBD3705EEA430E08BF20EAF6
:10066000D37070BD94F0000F0FD101F00046400030
:1006700041EB010111F4801F08BF013CF7D041EAB2
:10068000060195F0000F18BF704703F000465200B6
:1006900043EB030313F4801F08BF013DF7D043EA87
:1006A0000603704794EA0C0F0CEA135518BF95EA3D
:1006B0000C0F0CD050EA410618BF52EA4306D1D1C4
:1006C00081EA030101F000414FF0000070BD50EAE3
:1006D000410606BF1046194652EA430619D094EA6D
:1006E0000C0F02D150EA013613D195EA0C0F05D157
:1006F00052EA03361CBF104619460AD181EA0301AB
:1007000001F0004141F0FE4141F470014FF0000062
:1007100070BD41F0FE4141F4780170BD70B54FF0FD
:10072000FF0C4CF4E06C1CEA11541DBF1CEA13557D
:1007300094EA0C0F95EA0C0F00F0A7F8A4EB05045F
:1007400081EA030E52EA03354FEA013100F0888056
:100750004FEA03334FF0805545EA131343EA12631F
:100760004FEA022245EA111545EA10654FEA0026D4
:100770000EF000419D4208BF964244F1FD0404F58D
:10078000407402D25B084FEA3202B61A65EB0305E9
:100790005B084FEA32024FF480104FF4002CB6EBA6
:1007A000020E75EB030E22BFB61A754640EA0C0026
:1007B0005B084FEA3202B6EB020E75EB030E22BF66
:1007C000B61A754640EA5C005B084FEA3202B6EBA7
:1007D000020E75EB030E22BFB61A754640EA9C0066
:1007E0005B084FEA3202B6EB020E75EB030E22BF36
:1007F000B61A754640EADC0055EA060E18D04FEAF4
:10080000051545EA16754FEA06164FEAC30343EA93
:1008100052734FEAC2025FEA1C1CC0D111F4801F60
:100820000BD141EA00014FF000004FF0004CB6E759
:1008300011F4801F04BF01430020B4F1FD0C88BFF8
:10084000BCF5E06F3FF6AFAEB5EB030C04BFB6EB03
:10085000020C5FEA500C50F1000041EB045170BDF6
:100860000EF0004E4EEA113114EB5C04C2BFD4EB23
:100870000C0541EA045170BD41F480114FF0000EA7
:10088000013C90E645EA060E8DE60CEA135594EA23
:100890000C0F08BF95EA0C0F3FF43BAF94EA0C0F26
:1008A0000AD150EA01347FF434AF95EA0C0F7FF49B
:1008B00025AF104619462CE795EA0C0F06D152EAEF
:1008C00003353FF4FDAE1046194622E750EA4106D3
:1008D00018BF52EA43067FF4C5AE50EA41047FF4E4
:1008E0000DAF52EA43057FF4EBAE12E74FEA410247
:1008F000B2F1E04324BFB3F5001CDCF1FE5C0DD97E
:1009000001F0004C4FEAC0024CEA5070B2F1004FC7
:1009100040EB830008BF20F00100704711F0804FCA
:1009200021D113F13872BCBF01F00040704741F48F
:1009300080114FEA5252C2F11802C2F1200C10FA93
:100940000CF320FA02F018BF40F001004FEAC12377
:100950004FEAD32303FA0CFC40EA0C0023FA02F31B
:100960004FEA4303CCE77FEA625307D150EA0133F1
:100970001EBF4FF0FE4040F44000704701F00040C1
:1009800040F0FE4040F40000704700BF80F000409F
:1009900002E000BF81F0004142001FBF5FEA410357
:1009A00092EA030F7FEA226C7FEA236C6AD04FEA57
:1009B0001262D2EB1363C1BFD2184140484041409C
:1009C000B8BF5B42192B88BF704710F0004F40F44E
:1009D000000020F07F4018BF404211F0004F41F46A
:1009E000000121F07F4118BF494292EA030F3FD036
:1009F000A2F1010241FA03FC10EB0C00C3F1200349
:100A000001FA03F100F0004302D5494260EB4000D7
:100A1000B0F5000F13D3B0F1807F06D340084FEA42
:100A2000310102F10102FE2A51D2B1F1004F40EB37
:100A3000C25008BF20F0010040EA0300704749009F
:100A400040EB0000013A28BFB0F5000FEDD2B0FA3C
:100A500080FCACF1080CB2EB0C0200FA0CF0AABF5F
:100A600000EBC25052421843BCBFD04018437047FD
:100A700092F0000F81F4000106BF80F40000013203
:100A8000013BB5E74FEA41037FEA226C18BF7FEADA
:100A9000236C21D092EA030F04D092F0000F08BF1C
:100AA0000846704790EA010F1CBF0020704712F003
:100AB0007F4F04D1400028BF40F00040704712F142
:100AC00000723CBF00F50000704700F0004343F0A7
:100AD000FE4040F4000070477FEA226216BF0846DD
:100AE0007FEA23630146420206BF5FEA412390EAA0
:100AF000010F40F4800070474FF0000304E000BF96
:100B000010F0004348BF40425FEA000C08BF704746
:100B100043F0964301464FF000001CE050EA01020A
:100B200008BF70474FF000030AE000BF50EA01021F
:100B300008BF704711F0004302D5404261EB41010C
:100B40005FEA010C02BF84460146002043F0B64331
:100B500008BFA3F18053A3F50003BCFA8CF2083A56
:100B6000A3EBC25310DB01FA02FC634400FA02FC5F
:100B7000C2F12002BCF1004F20FA02F243EB020066
:100B800008BF20F00100704702F1200201FA02FCC8
:100B9000C2F1200250EA4C0021FA02F243EB0200BB
:100BA00008BF20EADC7070474FF0FF0C1CEAD052FF
:100BB0001EBF1CEAD15392EA0C0F93EA0C0F6FD0C0
:100BC0001A4480EA010C400218BF5FEA41211ED09E
:100BD0004FF0006343EA501043EA5111A0FB01318A
:100BE0000CF00040B1F5000F3EBF490041EAD3715F
:100BF0005B0040EA010062F17F02FD2A1DD8B3F1DB
:100C0000004F40EBC25008BF20F00100704790F049
:100C1000000F0CF0004C08BF49024CEA502040EA9B
:100C200051207F3AC2BFD2F1FF0340EAC250704761
:100C300040F400004FF00003013A5DDC12F1190F9F
:100C4000DCBF00F000407047C2F10002410021FA11
:100C500002F1C2F1200200FA02FC5FEA310040F129
:100C6000000053EA4C0308BF20EADC70704792F0A2
:100C7000000F00F0004C02BF400010F4000F013ADA
:100C8000F9D040EA0C0093F0000F01F0004C02BFD5
:100C9000490011F4000F013BF9D041EA0C018FE744
:100CA0000CEAD15392EA0C0F18BF93EA0C0F0AD04A
:100CB00030F0004C18BF31F0004CD8D180EA010070
:100CC00000F00040704790F0000F17BF90F0004F09
:100CD000084691F0000F91F0004F14D092EA0C0FEB
:100CE00001D142020FD193EA0C0F03D14B0218BF7E
:100CF000084608D180EA010000F0004040F0FE40C4
:100D000040F40000704740F0FE4040F4400070475F
:100D10004FF0FF0C1CEAD0521EBF1CEAD15392EADE
:100D20000C0F93EA0C0F69D0A2EB030280EA010CCE
:100D300049024FEA402037D04FF0805343EA111167
:100D400043EA10130CF000408B4238BF5B0042F1C5
:100D50007D024FF4000C8B4224BF5B1A40EA0C006A
:100D6000B3EB510F24BFA3EB510340EA5C00B3EB9C
:100D7000910F24BFA3EB910340EA9C00B3EBD10F8A
:100D800024BFA3EBD10340EADC001B0118BF5FEADC
:100D90001C1CE0D1FD2A3FF650AF8B4240EBC25005
:100DA00008BF20F0010070470CF0004C4CEA5020C6
:100DB0007F32C2BFD2F1FF0340EAC250704740F415
:100DC00000004FF00003013A37E792F0000F00F007
:100DD000004C02BF400010F4000F013AF9D040EA85
:100DE0000C0093F0000F01F0004C02BF490011F419
:100DF000000F013BF9D041EA0C0195E70CEAD15311
:100E000092EA0C0F08D142027FF47DAF93EA0C0FF7
:100E10007FF470AF084676E793EA0C0F04D14B02DB
:100E20003FF44CAF08466EE730F0004C18BF31F08D
:100E3000004CCAD130F000427FF45CAF31F0004387
:100E40007FF43CAF5FE700BF4FEA4002B2F1FE4FD4
:100E50000FD34FF09E03B3EB12620DD94FEA00237C
:100E600043F0004310F0004F23FA02F018BF404255
:100E700070474FF00000704712F1610F01D142023C
:100E800005D110F0004008BF6FF0004070474FF0F0
:100E90000000704742000ED2B2F1FE4F0BD34FF06C
:100EA0009E03B3EB126209D44FEA002343F00043E0
:100EB00023FA02F070474FF00000704712F1610F03
:100EC00001D1420202D14FF0FF3070474FF00000D5
:100ED000704700BF40F6E44303FB00F0000B70478F
:100EE0007047000038B50546074C204606F0A8FFBD
:100EF0006421204606F0F8FD204606F0B7FE286083
:100F0000204607F0C1F838BDD008002000B583B0F6
:100F10000023009301936846FFF7E4FF0098FFF772
:100F2000D9FF80B2800080B203B05DF804FB0000FE
:100F300008B5FFF7EBFF064B83FB00230344C01704
:100F4000C0EBA310C0B2642800D808BD6420FCE741
:100F5000C5859A9310B50446037F5BB9037B43BBF9
:100F600090F82C30002B43D190F83C30002B5ED110
:100F7000002010BDB0F84410006C07F081FB80B970
:100F80004834204600F0DAFF38B9384809F00AFD45
:100F9000374809F08DFD0720EBE7204600F0C9FF38
:100FA000F3E7324809F0FEFC324809F081FD0220E7
:100FB000DFE7B0F84410006C07F062FB38B12B4853
:100FC00009F0F0FC2C4809F073FD0120D1E748340A
:100FD000204600F0B3FF38B9244809F0E3FC274865
:100FE00009F066FD0620C4E7204600F0A2FFF3E703
:100FF000B0F84410006C07F043FB80B94834204639
:1010000000F09CFF38B9194809F0CCFC1C4809F0E5
:101010004FFD0820ADE7204600F08BFFF3E71348B3
:1010200009F0C0FC174809F043FD0320A1E7B0F820
:101030004410006C07F024FB80B94834204600F0CF
:101040007DFF38B9094809F0ADFC0F4809F030FDC3
:1010500009208EE7204600F06CFFF3E7034809F013
:10106000A1FC0A4809F024FD042082E76079010808
:10107000707901088C790108B8790108A079010814
:10108000C8790108E4790108F8790108147A01089F
:1010900090F84C300BB90020704710B50446818A97
:1010A000006907F0EDFAF0B1A188206807F0E8FACE
:1010B00050B3A18C206A07F0E3FA002835D0A18E46
:1010C000206B07F0DDFA002844D13834204600F0C8
:1010D00035FF00283AD1234809F064FC224809F082
:1010E000E7FC092010BD1834204600F027FF38B96E
:1010F0001C4809F057FC1D4809F0DAFC0720F1E70D
:10110000204600F016FFF3E70834204600F016FFF3
:1011100038B9144809F046FC154809F0C9FC062006
:10112000E0E7204600F005FFF3E72834204600F012
:1011300005FF38B90B4809F035FC0E4809F0B8FC3A
:101140000820CFE7204600F0F4FEF3E7204600F049
:10115000F0FEC0E7034809F025FC074809F0A8FCA9
:101160000520BFE760790108787A0108287A01082C
:10117000447A01085C7A0108947A010838B504467B
:10118000124809F00FFC124809F092FC114B236140
:101190000222A28223600122A2800F4A2262102131
:1011A000A18422632022A28623640423A4F844306D
:1011B000002507E004F1080000F0BBFE00232373C4
:1011C00010340135042DF5D938BD00BF6079010810
:1011D000A87A0108000C0140001001402DE9F041FF
:1011E0008CB0804607460446002504E0304600F0F7
:1011F000A0FE10340135042D12D804F10806304643
:1012000000F09EFE304600F0A9FE0028F1D0A18833
:10121000206807F035FA0028E8D101232373E5E7B9
:1012200000238DF8043002228DF8052001228DF86C
:1012300006208DF807304046FFF78CFE8DF804003D
:1012400038B94046FFF724FF8DF8040038B9002371
:101250000FE001F0CBF801A901F0E8F8F1E701F0A7
:10126000C5F801A901F0E2F8F1E700223A7310375E
:101270000133042BF9D90CB0BDE8F08108B5012287
:101280004FF48071014807F002FA08BD000C0140DC
:1012900008B500224FF48071014807F0F8F908BD45
:1012A000000C01404FF480738382194B036180224C
:1012B000028143604FF4805202861649C1624FF4A6
:1012C000007CA0F824C003624FF4806CA0F84CC0EE
:1012D00083644FF4004CA0F840C0C163A0F86820BC
:1012E00043664FF40062A0F85C20836500220BE0A7
:1012F000C2EBC2034FEA830C00EB83030021197693
:10130000197300F80C100132032AF1D9704700BF9D
:10131000001001400008014038B5054600240EE0E9
:10132000C4EBC40305EB830300221A7319E0C4EB7A
:10133000C40305EB830300221A7622E00134032C58
:101340004BD8C4EBC40305EB83031989586807F035
:1013500097F90028E4D1C4EBC40305EB8303012211
:101360001A73C4EBC40305EB8303998A186907F069
:1013700087F90028DBD1C4EBC40305EB830301220A
:101380001A76C4EBC40305EB83031B7E53B9C4EB8D
:10139000C40205EB8202127B22B1C4EBC40201211C
:1013A00005F8221053B1C4EBC40205EB8202127B94
:1013B00022B9C4EBC402022105F82210002BBDD1D2
:1013C000C4EBC40305EB83031B7B002BB6D1C4EB3A
:1013D000C4039B000022EA54B0E738BD08B5FFF70C
:1013E0009BFF08BDC0EBC000044B13F82030012B5D
:1013F00001D0002070470120704700BFB4010020D9
:10140000C0EBC000044B13F82030022B01D00020A9
:1014100070470120704700BFB401002010B504469A
:101420000846114600F0B6FA20600023237110BD73
:101430000079704770B505460E460422006800F03A
:1014400041FB0446F2782AB954B92B7901332B7148
:10145000204670BD311D286800F034FB0446F3E7D8
:10146000054D286809F09EFA044809F021FBE86957
:1014700009F098FAECE700BF20000020C87A0108C4
:1014800070B506460C46FFF7D3FF054608B9284657
:1014900070BD04222146306800F044FB0546E27826
:1014A00022B94DB93379013B3371F0E7211D306822
:1014B00000F038FB0546F4E7054C206809F072FAA5
:1014C000044809F0F5FAE06909F06CFADFE700BFBB
:1014D00020000020E87A010800B587B000230293BD
:1014E000094B04930123059306F09AFE01A902A873
:1014F00006F062FF20B906F0ADFE07B05DF804FB10
:1015000004F052FDF7E700BF00FC0108F8B50546FE
:101510000F461646FFF7E0FF06F082FE002401E0CA
:1015200004350134A6420BDD57F824200023294658
:10153000022006F0CDFE0028F2D004F035FDF1E7E0
:1015400006F088FE0020F8BD08B50A4601460248AC
:10155000FFF7DCFF08BD00BF00FC010850F8043BAA
:1015600041F8043B1346013A92B2002BF6D1704782
:1015700008B50A4601460248FFF7F0FF08BD00BF64
:1015800000FC010800B58FB000230A930B930C9365
:101590000D93089309930193029303930493059386
:1015A000069307932F48304A02604F2242608360BF
:1015B0001322C2600361836108F028FB002839D13F
:1015C0004FF480530A930AA9264808F01DFC00280E
:1015D00033D1244808F046FB002831D1002308937A
:1015E000099308A91F4808F03BFD60BB60230193E5
:1015F000002202920392059201A91A4808F090FB7A
:1016000020BB04220DEB0201164808F089FB00BB49
:10161000082201A9134808F083FBE8B90C2201A9AC
:10162000104808F07DFBD0B90E4804F0ABFD0FB0B8
:101630005DF804FB04F0B8FCC2E704F0B5FCC8E7B1
:1016400004F0B2FCCAE704F0AFFCCFE704F0ACFC56
:10165000D7E704F0A9FCDBE704F0A6FCDEE704F022
:10166000A3FCE1E724020020002C014000B58FB06C
:1016700000230A930B930C930D9303930493059308
:1016800006930793089309930193029330484FF010
:10169000804202604F22426083601322C260036175
:1016A000836108F0B3FA002839D14FF480530A93CC
:1016B0000AA9274808F0A8FB002833D1244808F0DD
:1016C000D1FA002831D100230193029301A92048C7
:1016D00008F0C6FC60BB60230393002204920592CD
:1016E000079203A91A4808F01BFB20BB042203A998
:1016F000174808F015FB08BB082203A9144808F096
:101700000FFBF0B90C220DEB0201114808F008FBA9
:10171000D0B90F4804F036FD0FB05DF804FB04F0BB
:1017200043FCC2E704F040FCC8E704F03DFCCAE714
:1017300004F03AFCCFE704F037FCD7E704F034FCC0
:10174000DAE704F031FCDDE704F02EFCE1E700BF4E
:101750006C02002038B50C4B00245C6004229A60B7
:101760000A4D1D60082018610C215961DD60DC61A3
:101770001A62074A9A619862D9625A62FFF702FFB9
:10178000FFF774FF38BD00BFB40200206C020020D8
:101790002402002070B504460E461B4B00EB4002AD
:1017A00003EB8205A96853F8220008F017FC69686A
:1017B00071B904EB4403144A52F823301B685E638A
:1017C00004EB4404104B53F8240008F099FB70BD5F
:1017D000042909D008290FD004EB44030A4A52F81F
:1017E00023301B681E64EBE704EB4403064A52F8FF
:1017F00023301B689E63E3E704EB4403024A52F87C
:1018000023301B68DE63DBE7B402002070B50446BA
:101810000E461B4B00EB400203EB8205696853F850
:10182000220008F0DBFBA96871B904EB4403144AF9
:1018300052F823301B685E6304EB4404104B53F8EA
:10184000240008F05DFB70BD042909D008290FD0E1
:1018500004EB44030A4A52F823301B681E64EBE78A
:1018600004EB4403064A52F823301B689E63E3E707
:1018700004EB4403024A52F823301B68DE63DBE7C3
:10188000B4020020F8B50446084D460000EB4003C2
:1018900005EB8307B96855F8230008F09FFB344433
:1018A000796855F8240008F099FBF8BDB4020020CF
:1018B0001046704708B5C8B10246037C3BB1836847
:1018C0000133C168B3FBF1F001FB1033936053683F
:1018D0000133D168B3FBF1F001FB10335360916821
:1018E0008B4214BF00230123137408BD024B034A2B
:1018F0002621034808F0EAFB487B01087C7C0108AC
:101900004C7B010808B558B1024600230374836874
:101910000133C168B3FBF1F001FB1033936008BDE4
:10192000024B034A3921034808F0D0FB487B0108E9
:10193000587C01084C7B010808B538B1027C5AB9C3
:10194000826843689A4209D0002006E0044B054AA9
:101950004E21054808F0BAFB002008BD0120FCE735
:10196000487B01082C7C01084C7B010808B520B19C
:10197000002242608260027408BD034B034A892141
:10198000034808F0A3FB00BF487B0108047C010862
:101990004C7B010870B588B10D46064671B1142024
:1019A00008F0EEFB044678B10660C560FFF7DEFF85
:1019B0002046FFF7C1FF68B1204670BD084B094AB9
:1019C0006921094808F082FB084B064A6C21064849
:1019D00008F07CFB064B034A7221034808F076FBB3
:1019E000787B0108187C01084C7B0108487B0108C2
:1019F000887B010808B548B10346C0681A7C22B943
:101A00005A689B689A4207D3D01A08BD044B054A0E
:101A10009721054808F05AFB1044C01AF5E700BFAB
:101A2000487B0108BC7C01084C7B010810B520B143
:101A3000C468FFF7DFFF201A10BD034B034ABE2125
:101A4000034808F043FB00BF487B0108A07C010865
:101A50004C7B010808B540B1034602682AB14068D2
:101A600011541846FFF726FF08BD034B034ACA214D
:101A7000034808F02BFB00BFA47B0108907C010801
:101A80004C7B010870B548B10C46054631B106687B
:101A900026B1FFF751FF38B1002070BD064B074A51
:101AA000DA21074808F012FBAB68F35C2370284684
:101AB000FFF728FF0120F0E7B87B01086C7C0108E4
:101AC0004C7B01082DE9F04170B10E4614460546E5
:101AD00003684BB190F81080B8F1000F0AD04FF0B6
:101AE00001084046BDE8F0810B4B0C4AF3210C483D
:101AF00008F0ECFAFFF79AFFA0420AD3002305E0B2
:101B00005F1CF15C2846FFF7A5FF3B469C42F7D8D7
:101B1000E7E74FF00208E4E7A47B0108447C0108F2
:101B20004C7B0108F8B580B10D46164607460368A0
:101B30005BB151B10021B1420ED24C1C2944384650
:101B4000FFF7A0FF50B12146F5E7054B054A40F2EB
:101B50001511054808F0BAFA0020F8BD0320FCE78B
:101B6000D47B0108F07B01084C7B010800B587B0ED
:101B7000024600238DF8173064230293012301935A
:101B80000DF117010091D121034807F071F99DF87B
:101B9000170007B05DF804FB3009002000B587B0DE
:101BA00002468DF8171064230293012301930DF16F
:101BB00017010091D021034807F0A8F8002007B0D2
:101BC0005DF804FB3009002008B500210846FFF746
:101BD000E5FF0020FFF7CAFF08BD0000054BA3FB8F
:101BE0000023DB0803EB8302A0EB420000EB0310B1
:101BF000C0B27047CDCCCCCC84B008B50DF1080C88
:101C00008CE80F0000210846FFF7C8FF9DF80E0082
:101C1000FFF7E4FF01460020FFF7C0FF9DF80D002D
:101C2000FFF7DCFF01460120FFF7B8FF9DF81930F0
:101C3000B3BB9DF80C00FFF7D1FF9DF81830022BC5
:101C40002AD000F0DF0040F040010220FFF7A6FF9D
:101C50009DF81400FFF7C2FF01460320FFF79EFF27
:101C60009DF81600FFF7BAFF01460420FFF796FF24
:101C70009DF80A00FFF7B2FF01460520FFF78EFF2F
:101C80009DF80800FFF7AAFF01460620FFF786FF30
:101C9000BDE8084004B0704740F06000C1B2D4E72E
:101CA0009DF80C00FFF79AFF01460220FFF776FF30
:101CB000CEE700F00F03000900EB800003EB4000CB
:101CC000C0B2704710B504460020FFF74FFF00F088
:101CD0007F00FFF7EEFFA0710120FFF747FFFFF73E
:101CE000E8FF60710220FFF741FF00F01F00FFF7DF
:101CF000E0FF20710320FFF739FFFFF7DAFFA08133
:101D00000420FFF733FFFFF7D4FFE0810320FFF744
:101D10002DFFFFF7CEFFE0700520FFF727FFFFF74D
:101D2000C8FFA0700620FFF721FFFFF7C2FF208049
:101D30000220FFF71BFF00F02000FFF7BAFF20741E
:101D400010B10223237410BD01232374FBE70000AC
:101D500008B5024B1B681B68984708BD4C00002063
:101D600084B010B582B004AC84E80F00074B1B6848
:101D70005C68BDF82030ADF8003004AB0FCBA04755
:101D800002B0BDE8104004B0704700BF4C00002016
:101D900008B5024B1B689B68984708BD4C000020A3
:101DA00010B588B003A8FFF7F3FFBDF81A109DF82F
:101DB0000E209DF810309DF811009DF81C40012C5C
:101DC00007D0054C01940090044808F0EBFD08B0E2
:101DD00010BD034CF6E700BFD87C0108E07C010889
:101DE000DC7C01080E4B18810023184605E00C4AE4
:101DF00032F8132010440133DBB2042BF7D9094B1E
:101E0000A3FB00308008002306E05A1C044931F887
:101E100012C021F813C0D3B2042BF6D980B2704798
:101E2000E4020020CDCCCCCCE1283BD98446B0F5EF
:101E30007C6F3AD800B54FF4B47200219646531A1D
:101E4000012B0BDD5318C3F34F03194830F813006F
:101E5000844501D91A46F1E71946EFE7144B33F8E8
:101E600011309C4517D2124931F812E0A3EB0E0352
:101E70009BB202EB8202A2F2262291B210B27BB197
:101E8000ACEB0E0C0CEB8C0C0CEB530090FBF3F05A
:101E9000081A00B204E001EB8100A0F2262000B293
:101EA0005DF804FB40F2E24070470248704700BF13
:101EB000287D0108DAFDFFFF38B5154C204605F0F6
:101EC000BFFF4FF0FF31204605F00EFE204605F023
:101ED000CDFE0546204606F0D7F8A8B2FFF7A4FFCE
:101EE000FEF70EFEFEF798FA07A3D3E90023FEF7EC
:101EF000EBFAFEF7FBFCFEF7CDFF80B2FFF772FFB7
:101F0000FEF7FAFD38BD00BF9A9999999999B93FA2
:101F10000009002010B5002402E0FFF7CDFF0134D6
:101F2000042CFAD910BD0180012383700023C370F3
:101F3000704700238370C3700380704780787047B8
:101F40000346807800B970471A880AB1013A1A80AE
:101F50001A88002AF7D10122DA70F4E7C0787047B6
:101F6000014B1870704700BFEE020020014B18783B
:101F7000704700BFEE02002008B50120FFF7F0FF18
:101F800008BD000008B5FFF7F1FF00B908BD0F4814
:101F9000FFF724F90E48FFF721FA03F0FFFB03F0E7
:101FA00074FC01F0CFF801F0EFF800F055FC00F000
:101FB0007CFC00F04BFE00F09BFE00F09DFF00F06B
:101FC000B0FF0020FFF7CCFFE0E700BF6401002076
:101FD000B401002010B5084C00222188606806F08A
:101FE00056FB4FF4967005F06BFD01222188606866
:101FF00006F04DFB10BD00BF5000002008B5054B9A
:102000000022198A586906F042FB4FF47A7005F0F5
:1020100057FD08BD5000002008B5034B0122198A66
:10202000586906F034FB08BD5000002010B5084C7C
:1020300000222189E06806F02AFB4FF4967005F033
:102040003FFD01222189E06806F021FB10BD00BFA1
:102050005000002008B5034B0122198BD86906F007
:1020600016FB08BD500000200170002343708370F0
:102070007047000010B50446054808F093FC054879
:1020800008F016FD01212046FFF7EEFF10BD00BF4E
:10209000FC7F01080C80010808B50A21FFF7B6FB98
:1020A00008BD08B5FFF7EEFB08BD08B50A21FFF72C
:1020B00071FB08BD70B5054600240EE02046FFF711
:1020C0009FF9E0B104EB44032B441B7A1BB1032BB3
:1020D00020D0012B41D00134E4B2032C5ED820463D
:1020E000FFF78EF90028E9D02046FFF77BF900289A
:1020F000E4D104EB44032B440322DA71E2E72046E7
:10210000FFF770F90028DDD004EB44032B440122D3
:10211000DA71D7E704EB44032B44DB79032B0AD0B5
:10212000042BD8D004EB44062E440423F37120463C
:10213000FFF7B2FFCFE704EB44032B4400221A72EF
:1021400001229A712A4808F02DFC611C294808F0E8
:1021500029FC2046FFF7A5FFBDE704EB44032B4411
:10216000DB79012B0AD0022BB5D02046FFF79DFF6B
:1021700004EB44062E440223F371ACE704EB440362
:102180002B4400221A721A4808F00CFC611C1A48F1
:1021900008F008FC2046FFF784FF9CE705F08AFC66
:1021A000164B1B68C01AB0F5FA6F00D870BD05F069
:1021B00081FC124B1860002408E00D4808F0F2FB87
:1021C000611C0F4808F0EEFB0134E4B2032CEDD89B
:1021D00004EB44032B44DB79022BEED0042BF3D128
:1021E000034808F0DFFB611C064808F0DBFBEBE767
:1021F000FC7F0108248001084C80010804030020B2
:1022000074800108A080010808B5FFF753FF08BDDE
:1022100070B504468378012B05D0022B26D02046CA
:10222000FFF7F2FF70BDC57805EB45030344DE7987
:1022300002799A71731EDBB2012B0ED91C4808F08B
:10224000B1FB691C1B4808F0ADFB05EB45052544B7
:1022500001232B720023A370E1E7154808F0A2FBCD
:102260003246691C144808F09DFBF3E7C57805EB7E
:1022700045030344DE79F31EDBB2012B0ED90C4873
:1022800008F090FB691C0D4808F08CFB05EB450538
:10229000254403232B720023A370C0E7044808F0F1
:1022A00081FB3246691C064808F07CFBF3E700BF5F
:1022B000FC7F0108FC800108CC8001084C810108EA
:1022C0001C81010800487047F002002000EB40002C
:1022D000014B184406307047F002002008B5002377
:1022E000437108E003EB4302024400219171032192
:1022F00011720133DBB2032BF4D9FFF7BBFE08BD2B
:1023000008B50378012B00D008BDFFF781FFFBE77C
:102310000A78531EDBB2012B00D9704782700B790B
:10232000C3704B790371F8E7017000234370704765
:1023300008B50121FFF7F8FF08BD08B54378022B67
:1023400000D008BDFFF7F4FFFBE708B5011D3030F2
:10235000FFF796F808BD10B504468379013B052BBD
:1023600009D8DFE803F00308110B171D03F016FA74
:10237000211D03F096FA0223637010BD00F06CFA81
:10238000211D00F09EFAF6E7FFF79CFF211DFFF7E5
:10239000BFFFF0E700F0D6FE211D00F001FFEAE7E5
:1023A00000F054FC211D00F081FCE4E710B5044668
:1023B0000221FFF7B9FF2046FFF7CDFF10BD10B592
:1023C00004463030FFF734F808B10123637010BDC4
:1023D00010B504464378012B02D0FFF7F0FF10BD83
:1023E000FFF7B3FF2046FFF7E1FFF8E7004870472B
:1023F0000803002008B50378012B02D0022B03D07C
:1024000008BDFFF7E5FFFBE7FFF797FFF8E70000E0
:1024100010B50446C82204493030FEF7FFFF2046BD
:10242000FFF786FF10BD00BF4003002038B50C4603
:102430008B78013BDBB2062B04D84B78013BDBB237
:10244000062B0CD9084D286808F0ACFAA278617800
:10245000064808F0A7FAE86908F0A4FA38BD303059
:10246000FEF7E8FFFAE700BF200000206C810108BA
:102470000170002303710376704702780B789A424B
:1024800005D142784B789A4203D000207047002053
:1024900070470120704702780B789A4209D1427840
:1024A0004B789A4207D182788B789A4205D00020E7
:1024B00070470020704700207047012070470023BC
:1024C00000E00133032B36D8C3EBC302C2EBC202D8
:1024D000024492F83020013AD2B2012A2DD80021CC
:1024E0000529EED8C3EBC302C2EBC20202EBC10264
:1024F000024492791F2A22D8C3EBC302C2EBC20264
:1025000002EBC1020244D2790C2A1AD8C3EBC302EF
:10251000C2EBC20202EBC1020244D2780C2A12D8EA
:10252000C3EBC302C2EBC20202EBC102825C0C2A03
:102530000BD80131D4E701207047002070470020FC
:10254000704700207047002070470020704770B52A
:10255000044603F007FF054615F8143BCBB304F11E
:1025600020062846FFF7ABFF08B9002023E0C4226D
:102570002946304607F01CFE2BE0C0EBC003C3EB3E
:10258000C30303EBC1032344002283F8262083F80E
:10259000272083F8232083F824204FF0020C83F8AF
:1025A00025C083F8202083F8212083F822C0013140
:1025B0000529E2D90130032809D8C0EBC003C3EBD9
:1025C000C3032344012283F850200021F0E703F0E5
:1025D0009FFE002070BD08B548F6B8011A30FFF71D
:1025E000A2FC08BD10B504460121FFF741FF2046BB
:1025F000FFF7F1FF10BD08B5FFF7F4FF08BD08B500
:10260000FFF7F0FF08BD00B589B0012380F8E53081
:10261000C37AADF81A30037B8DF80E30037A8DF84B
:102620001030437A8DF81130837A8DF81C300023F6
:102630008DF81D30BDF81C30ADF8003003AB0FCB6A
:10264000FFF78EFBFFF7ACFB09B05DF804FB10B59C
:1026500004460221FFF70CFF2046FFF7D4FF10BD10
:1026600038B5047C4569C4EBC404C4EBC40420340D
:10267000044431222946204607F08AFD00B938BDBE
:102680002B4620463035D3F800C05C689968DA687C
:10269000C0F800C044608160C26010331030AB42AB
:1026A000F1D11B78037003F033FEE8E710B5044660
:1026B0000321FFF7DDFE2046FFF7D2FF10BD00B576
:1026C0008DB000F0C7FAC378012B02D00DB05DF8D1
:1026D00004FB04238DF804308DF8053006238DF8B3
:1026E000063000238DF80730FFF780FE01A9FFF7C1
:1026F0009DFEEBE700B58DB08DF8040004238DF846
:10270000053003238DF8063002238DF807308DF84D
:10271000081001238DF80930FFF768FE01A9FFF7C3
:1027200085FE0DB05DF804FB2DE9F04188B006464A
:1027300003A8FFF72DFBBDF81A308DF808309DF87F
:102740000E308DF809309DF810308DF804309DF86A
:1027500011308DF805309DF81C308DF806300024BE
:102760004CE0C4EBC403C3EBC30000EBC500203056
:10277000304402A90630FFF780FE58B90135052D17
:102780003BDCC4EBC403C3EBC303334493F85030C6
:10279000012BE6D0C4EBC400C0EBC00000EBC500C9
:1027A000203001A93044FFF776FEC0B9C4EBC40362
:1027B000C3EBC30000EBC5002030304401A9033057
:1027C000FFF769FE0028D9D07B78012BD6D1BB78E2
:1027D000002BD3D141460220FFF78CFFCEE73046D5
:1027E000FFF76DFF7B78032BE0D1BB78002BDDD1A9
:1027F00041460120FFF77EFFD8E70134032C0ADCB5
:102800005FFA84F84046FFF761FD07460378022B24
:10281000F3D00025B3E708B0BDE8F08110B5044659
:102820000379012B07D0022B08D004F11A00FFF71F
:1028300095FB30B910BDFFF70AFFF6E7FFF736FF4B
:10284000F3E72046FFF770FF2046FFF7CBFEF1E7E6
:102850000048704728040020004870470804002002
:1028600010B50446C4220021203007F0C9FC2046E0
:10287000FFF76DFE002384F8E43084F8E53020464D
:10288000FFF7B0FE10BD08B50378022B07D0032B6D
:1028900008D0012B00D008BDFFF7C0FFFBE7FFF712
:1028A000AAFEF8E7FFF7ABFEF5E738B500F11A042A
:1028B000002505B138BD2046FFF742FB0434013541
:1028C000F7E7F8B506460C460D78012D02D0022D2B
:1028D00012D0F8BD00F108070431384607F058FC63
:1028E0000028F6D035716068A168E2682369B0609D
:1028F000F16032617361ECE705710B6943610B7B39
:102900000374E6E701700023C370837070470223ED
:1029100043747047012343747047000010B50446A8
:10292000064808F03FF8064808F0C2F802212046A1
:10293000FFF7E8FF2046FFF7EDFF10BD1C820108FE
:102940002882010810B50446064808F02BF806480E
:1029500008F0AEF801212046FFF7D4FF2046FFF72C
:10296000D6FF10BD1C8201084882010808B5034843
:1029700008F018F8024808F09BF808BD1C8201080E
:102980006882010838B50446204808F00BF8204852
:1029900008F08EF803F0E6FCC27C531EDBB2012B7C
:1029A00004D8837C013BDBB2012B0FD9174807F019
:1029B000F9FF184808F07CF802236374012323749C
:1029C0000023A373E37303F0A3FC38BD6274837C1C
:1029D00023740023A373E3730C4D284607F0E2FF32
:1029E0000D4808F065F8284607F0DCFF637C012BF2
:1029F00008D00A49237C012B06D0094A094807F070
:102A0000D1FFE2E70849F5E7084AF7E71C82010829
:102A10009C82010834830108D48201087C82010869
:102A20009082010808830108848201088C820108D1
:102A300038B50446094D284607F0B4FF084808F0A9
:102A400037F802232374FFF7D9FA284607F0AAFFC4
:102A5000044808F02DF803F05BFC38BD1C82010827
:102A6000708301088883010810B50446FFF7E0FF72
:102A70004FF4FA5104F10A00FFF755FA10BD0000B7
:102A800010B50446064807F08DFF064808F010F818
:102A900003212046FFF736FF2046FFF7E5FF10BD74
:102AA0001C820108A883010808B5044807F07AFFD2
:102AB000034807F0FDFFFFF78DFA08BD1C820108EF
:102AC000C083010810B50446FFF7EEFF2379042BFD
:102AD00005D047F23051A01DFFF725FA10BD42F294
:102AE0001071A01DFFF71FFAF8E7000010B50446AB
:102AF000064807F057FF064807F0DAFF0421204692
:102B0000FFF700FF2046FFF7DDFF10BD1C82010824
:102B1000D483010838B50446094D284607F042FF22
:102B2000084807F0C5FFFFF781FA01232374284600
:102B300007F038FF044807F0BBFF03F0E9FB38BD9E
:102B40001C820108EC8301088883010810B5044643
:102B5000C378022B06D0062B07D0042B08D0012BFC
:102B600009D010BDFFF7DAFEFBE7FFF789FFF8E7B2
:102B7000FFF7BCFFF5E7FFF7CDFF0023E370F0E7B9
:102B800010B50446C378032B06D0062B07D0042BC0
:102B900008D0012B09D010BDFFF7D4FEFBE7FFF7EB
:102BA0006FFFF8E7FFF7A2FFF5E7FFF7B3FF00239A
:102BB000E370F0E710B504460630FFF7CFF918B917
:102BC000E378072B0ED010BD2046FFF7CFFE637CC5
:102BD000012B03D02046FFF7B5FEF1E72046FFF7B3
:102BE0009DFEEDE72046FFF7C1FE637C012B03D07D
:102BF0002046FFF7A7FEE6E72046FFF78FFEE2E755
:102C000008B5044807F0CEFE034807F051FFFFF770
:102C100003FA08BD1C8201080C84010810B50446A3
:102C2000C378072B03D00A30FFF798F940B120464C
:102C3000FFF7E6FF637C012B03D02046FFF782FEFF
:102C400010BD2046FFF76AFEFAE700000048704713
:102C5000F8040020004870470605002010B504461F
:102C6000FFF790FE238AB3F5817F05D02046FFF75A
:102C700069FEFFF7EFF910BD2046FFF74FFEF8E7BA
:102C800008B50378013B032B05D8DFE803F0020504
:102C9000080BFFF75BFF08BDFFF772FFFBE7FFF7CD
:102CA000BDFFF8E7FFF786FFF5E7000008B50A78F3
:102CB000531EDBB2062B06D8C2704B780371931EED
:102CC000DBB2012B00D908BD022A0AD002234374CB
:102CD000054807F067FE054807F0EAFE03F018FB19
:102CE000F1E701234374F3E71C820108888301089C
:102CF00038B5841D002504E02046FFF721F904348F
:102D00000135012DF8D938BD01700023837170475A
:102D100008B5FEF7FBF808BD38B5FEF7F7F804462E
:102D2000084B1B8883420BD80325064B1C80FEF7FB
:102D3000FFF8132800D8022504B90125284638BD1C
:102D40000425F2E70A05002008B5FEF7F1F808BDF2
:102D500010B50446FFF7E0FFA070FFF7D9FFA08091
:102D6000FFF7F2FFE0700C4807F01CFEA2780B4B57
:102D700053F82230E278A188094807F013FEE3787F
:102D8000142B01D80223A37144F6206104F108003A
:102D9000FFF7C9F810BD00BF248401087C000020A3
:102DA0002C84010810B50446064807F0FBFD0648D0
:102DB00007F07EFE01212046FFF7A6FF2046FFF721
:102DC000C7FF10BD248401086484010810B50446BF
:102DD000FFF7A2FFA070FFF79BFFA080FFF7B4FFF3
:102DE000E0700C4807F0DEFDA2780B4B53F8223060
:102DF000E278A188094807F0D5FDE378192B01D9BD
:102E00000323A37144F6206104F10800FFF78BF857
:102E100010BD00BF248401087C0000202C84010820
:102E200010B50446064807F0BDFD064807F040FE11
:102E300002212046FFF768FF2046FFF7C7FF10BDBD
:102E4000248401087C84010808B5054807F0AAFD20
:102E5000044807F02DFE1E2004F008F808BD00BF4E
:102E6000248401089884010808B5FFF7EDFF08BD28
:102E700010B504468379022B05D004F10800FFF752
:102E80006DF830B910BDFFF7EFFF2046FFF7C8FF20
:102E9000F3E72046FFF786FFF4E7000008B5054892
:102EA00007F080FD044807F003FE5A2003F0DEFF20
:102EB00008BD00BF24840108B484010808B5FFF7E9
:102EC000EDFF08BD10B504468379032B05D004F14E
:102ED0000800FFF743F830B910BDFFF7EFFF2046B9
:102EE000FFF760FFF3E72046FFF79AFFF4E70000E3
:102EF000004870470E050020004870470C05002070
:102F000008B5FFF74FFF08BD08B50378012B02D0C5
:102F1000022B03D008BDFFF7ABFFFBE7FFF7D2FFA3
:102F2000F8E738B500F10804002505B138BD2046A2
:102F3000FFF706F804340135F7E7437B012B0AD08D
:102F40000269836803F109018A4212DC093B9A4253
:102F500011DB0020704702698368191D8A4204DC76
:102F6000043B9A4203DB0020704701207047012098
:102F70007047012070470120704701700023837063
:102F800070470379013BDBB2012B01D90020704768
:102F90004379013BDBB2012B01D9002070470120AE
:102FA000704708B5437B012B0DD002698368A3F1FC
:102FB00009018A4215DA0223837041F28831043014
:102FC000FEF7B1FF08BD02698368191F8A4202DA61
:102FD00002238370F1E704339A42EEDD032383700A
:102FE000EBE709339A42E8DD03238370E5E710B588
:102FF00004460221FFF7C1FF2046FFF7D2FF10BDB4
:1030000008B541F288310430FEF78DFF08BD10B5D8
:1030100004460121FFF7B1FF2046FFF7F1FF10BD85
:1030200008B5FEF749FFFDF70FFF08BD08B5FEF72D
:1030300043FF0649FDF7B8FD0549FDF769FE4FF06E
:103040008441FDF7A9FCFDF7FFFE08BD000010411B
:103050000000A04010B50446437B012B03D0FFF7CE
:10306000E5FF206110BDFFF7DBFF2061FAE738B50F
:103070000446051D2846FEF771FF00B938BD2046FD
:10308000FFF7E8FF2046FFF758FF40B1237B012BF5
:103090000BD02846FEF74DFF2046FFF7B8FF41F260
:1030A00088312846FEF73FFFE8E72846FEF741FF54
:1030B0002046FFF79CFFF2E738B504468378022BE1
:1030C00007D0032B0AD0251D2846FEF747FF50B92D
:1030D00038BDFEF7DDF80023A370F4E7FEF7CEF865
:1030E0000023A370EFE72046FFF7B4FF2046FFF769
:1030F00024FF30B92846FEF71CFF2046FFF787FF64
:10310000E6E741F288312846FEF70DFFE0E738B5E3
:10311000044603F027F9054610F8043B13B1FFF706
:1031200030FF40B90123237363731423A36003F0BA
:10313000EFF8002038BD2B7A23736B7A63736B68CA
:10314000A360F7E700487047180500200048704763
:103150002005002008B50378012B02D0022B03D0F4
:1031600008BDFFF784FFFBE7FFF7A6FFF8E710B500
:103170000446FFF7CCFF2046FFF76CFFFEF788F808
:103180002046FFF744FF10BD38B5041D002505B1EA
:1031900038BD2046FEF7D4FE04340135F7E70000C1
:1031A00070B50D78012D00D070BD06460C46081D87
:1031B000FFF7E7FE88B1B26863689A4203D1B2892B
:1031C00023899A42F0D0F5706368B360237A337331
:1031D000637A737303F09CF8E6E7054C206807F008
:1031E000E1FB044807F064FCE06907F0DBFBDBE788
:1031F000200000202C85010808B54268418800881D
:1032000003F0AEFC08BD10B504464FF6FF7003F0A6
:103210008DFBE388A2886188208803F0BBFD002035
:1032200003F084FB10BD10B50446084603F07EFB96
:10323000E388A2886188208803F0ACFD002003F0B9
:1032400075FB10BD10B5044662B1084603F06EFB75
:10325000E388A2886188208803F0F2FB002003F055
:1032600065FB10BD4FF6FF7003F060FBE388A2889A
:103270006188208803F0E4FB002003F057FBF0E7AF
:1032800070B504460D461646184603F04FFB30460F
:1032900003F058FB03232A466188208803F028FDA9
:1032A000034803F04FFB4FF6FF7003F045FB70BD82
:1032B000180000202DE9F04182B005460C46B0F818
:1032C0000C800846FDF796F800222C4BFDF726FAF5
:1032D00006460F464046FDF78DF832463B46FDF761
:1032E000F3F8FDF703FB0746002300938DF8043045
:1032F00022462349684607F0F3FBAE893846FDF7BE
:10330000A3FDA881631EDBB20F2B0DD9A4F111031D
:10331000DBB2342B16D9463CE4B21E2C20D9F6B2CF
:10332000AE8102B0BDE8F0814FF4784105F10800AC
:10333000FFF779FF0023134A694605F12800FFF7DC
:103340009FFFE3E74FF6E07105F10800FFF76BFF21
:1033500000230C4A694605F12800FFF791FFDAE7E0
:103360004FF4FC6105F10800FFF75DFF0023054AFB
:10337000694605F12800FFF783FFD0E700005940B8
:10338000F48501080000002070B504460D4616467D
:10339000184603F0CBFA304603F0D4FABDF810001B
:1033A00003F0CAFA03232A466188208803F0A0FCB0
:1033B000034803F0C7FA4FF6FF7003F0BDFA70BD83
:1033C0001800002070B504460E4615464DF6FB6009
:1033D00003F0B2FA284603F0A9FA2B463246618878
:1033E000208803F04BFE4FF6FF7003F0A5FA70BD86
:1033F00038B504460D46104603F098FA2A4661880F
:10340000208803F03BFB002003F090FA38BD38B56C
:1034100004460D46104603F089FA2A466188208842
:1034200003F0C8FC002003F081FA38BD0000000062
:103430002DE9F04385B004460D461646C78B084675
:10344000FCF7D8FF32A3D3E90023FDF767F98046E4
:1034500089463846FCF7CEFF42464B46FDF734F826
:10346000FDF744FA8046002302938DF80C302A4B76
:1034700053F826302A46294902A807F031FBE78B8A
:103480004046FDF7E1FC80B2E083012E2DD01F26DF
:10349000238B0133ADF80030638B0133ADF802307C
:1034A000A38B023BADF804300238ADF8060004F1FE
:1034B00020054FF6FF7207212846FFF7A8FF4FF6B9
:1034C000FF716846FFF7AFFE324607212846FFF737
:1034D0009EFF0023124A02A904F11000FFF7D0FE5C
:1034E000FFB2E78305B0BDE8F083A5F11403DBB2BA
:1034F000312B07D91F26463DEDB21E2DC8D84FF4FB
:103500007846C5E74FF6E076F5E700BFAFF30080F9
:103510000000000000C05840A8860108FC85010892
:103520000800002040F2631303800A2343805123E4
:10353000C38060238380114B436140F26712028293
:103540001A224282C36140F2771101832A22428308
:1035500043620184428440F26F120281222242813E
:10356000D3F81620103AC281D3F812301A3B838167
:1035700040F2791303852C2343857047F0EE000851
:1035800008B519B11030FFF737FE08BDFFF73BFE55
:10359000FBE738B504460D468B78012B10D000228E
:1035A0004FF6FF71FFF74EFE04F10800FFF72BFE08
:1035B0002B78022B0ED0032B11D0012B05D038BD58
:1035C00001221F21FFF73EFEEEE704F11800FFF78E
:1035D00013FEF4E704F12000FFF70EFEEFE7697831
:1035E0002046FFF767FEEAE70F2303800A234380A4
:1035F0005123C38084238380132303810E234381BB
:103600004923C3817C238381322383821923C3828C
:103610007047000030B587B00446002304938DF84E
:103620001430002944D0012219460830FFF70AFE61
:10363000002539E02289204B33F825100A442282E4
:10364000628903EB85035B881344638201220021B6
:1036500004F11000FFF7F6FD238A0133ADF80030C6
:10366000638A0133ADF80230A38A023BADF804301F
:10367000E38A023BADF806306846FFF7C4FD238AB3
:103680001233ADF80830638A0633ADF80A300135DD
:103690002A460A4904A807F023FA0023084A04A985
:1036A00002A8FFF7EDFDEDB2032DC3D907B030BD81
:1036B000FFF7A9FDFAE700BFC486010804860108E8
:1036C0000000002070B584B005460C460121FFF7CC
:1036D000A1FFA378012B0AD000221F212846FFF763
:1036E000B1FD1E4EE378012B08D004B070BD01225D
:1036F0001F212846FFF7A6FD194EF3E76278194B04
:103700001A7001212846FFF785FF2A896178164B38
:1037100033F821100A442A826A89617803EB810315
:103720005B8813446B8201221F2105F11000FFF713
:1037300089FD2B8A1233ADF808306B8A0433ADF85B
:103740000A30627801320949684607F0C9F91F2337
:103750003246694602A8FFF793FDC6E7080000203D
:10376000100000202C050020B48601080486010802
:1037700013230380622343804FF4DD738380CE23C1
:10378000C3804FF4CE730381802343811923838147
:103790001423C381002105292FDC10B500EB811310
:1037A00083221A820131C1EB01125200623292B2BD
:1037B0005A82A1241C835A83B5241C845A84EE2483
:1037C0001C855A854FF486741C865A864FF4907473
:1037D0001C875A874FEA811E00EB811C40F2591466
:1037E00020F80E40ACF8022040F2771CA3F848C045
:1037F000A3F84A200529D1DD10BD70472DE9F04717
:1038000082B00546002900F0878001220021FFF7E1
:1038100019FD0122002105F10800FFF713FD002426
:1038200014E02B883E4901EBC40290880344ADF8B4
:1038300000306B88D2881344ADF802300023394A37
:1038400051F834106846FFF71BFD0134032CE8DD06
:1038500000245CE02B880233ADF800306B88671CD5
:10386000C7EB071203EB4203ADF802302D4E0023E5
:1038700032462D4951F824106846FFF701FDDFF864
:10388000ACA0A40104F110000023324651462844A4
:10389000FFF7F6FCDFF8988004F1180000233246A9
:1038A00041462844FFF7ECFCDFF8889004F1200043
:1038B00000233246D9F804102844FFF7E1FC04F154
:1038C00028000023324651462844FFF7D9FC04F172
:1038D00030000023324641462844FFF7D1FC04F172
:1038E000380000233246D9F804102844FFF7C8FCFA
:1038F00048340023324641462819FFF7C1FC002313
:1039000032460D4905EB8710FFF7BAFC3C46052C03
:10391000A0DD02B0BDE8F087FFF775FCF9E700BF56
:10392000D486010800000020F486010808860108FA
:103930000C860108700000201086010870B584B064
:1039400005460C4691F83430012B0BD000266378E5
:10395000082B00F2BA80DFE803F0071A2C3B4D5F1A
:10396000806E92001F26F2E7237804EBC3039A7857
:10397000584902A807F0B4F8207880011030334687
:10398000554A02A92844FFF77BFC04B070BD237898
:1039900004EBC303DA784F4902A807F0A1F82078B6
:1039A0008001183033464C4A02A92844FFF768FCCE
:1039B000EBE7207804EBC004247980012030334603
:1039C000454A464951F824102844FFF759FCDCE7E2
:1039D000237804EBC3035A793E4902A807F080F824
:1039E00020788001283033463B4A02A92844FFF75B
:1039F00047FCCAE7237804EBC3039A79354902A848
:103A000007F06EF82078800130303346324A02A940
:103A10002844FFF735FCB8E7207804EBC004E479CC
:103A20008001383033462C4A2C4951F82410284460
:103A3000FFF726FCA9E7237804EBC3031A7A25498C
:103A400002A807F04DF82078800148303346224A1A
:103A500002A92844FFF714FC97E7237804EBC3037B
:103A60005A7A1C4902A807F03BF820780130334607
:103A7000194A02A905EB8010FFF702FC85E7012235
:103A8000314605F10800FFF7DDFB2B890133ADF866
:103A900000306B890133ADF80230AB89023BADF8E1
:103AA0000430EB89023BADF8063094F83230022B3B
:103AB00005D04FF6FF716846FFF7B5FB65E74FF499
:103AC000FC616846FFF7AFFB5FE7054806F06AFF59
:103AD0005BE700BF14860108000000207000002092
:103AE0001C86010811230380742343804FF4DD7387
:103AF0008380A123C3803923038191234381C6227C
:103B00000282438240F229130383C423438340F299
:103B100065130384A62343844FF4CB720285438547
:103B20004FF4BA730387E72343878E2202864386C6
:103B300070470000F0B583B00446002943D04DF62D
:103B4000FB61FFF770FB0022204904F10800FFF73A
:103B500039FC1F4F0022394604F11000FFF732FCF8
:103B60001C4E4DF6FB650095002332461A4904F1C0
:103B70001800FFF709FC009500233246394604F18E
:103B80002800FFF701FC009500233246134904F199
:103B90002000FFF7F9FB124E009500233246114931
:103BA00004F13000FFF7F0FB0095002332460E4988
:103BB00004F13800FFF7E8FB012200212046FFF75F
:103BC00041FB03B0F0BDFFF71EFBFAE74886010892
:103BD0004C86010810000020108201085086010860
:103BE00008000020548601085C86010870B584B086
:103BF00005460C46CB79012B11D00026A379012B69
:103C00000FD0002101222846FFF71CFB2378013B3F
:103C1000042B13D8DFE803F00714204232001F26DC
:103C2000ECE71F21EEE76278244902A806F058FF6E
:103C3000324602A905F10800FFF7C4FB04B070BDCD
:103C4000A2781E4902A806F04BFF324602A905F1F0
:103C50001000FFF7B7FBF1E7E278194B53F8221099
:103C600002A806F05DFF4DF6FB6300933346154A4C
:103C700002A905F11800FFF787FBDFE722790F495A
:103C800002A806F02DFF4DF6FB63009333460D4A64
:103C900002A905F12800FFF777FBCFE76279074912
:103CA00002A806F01DFF4DF6FB6300933346054A5C
:103CB00002A905F12000FFF767FBBFE714860108A2
:103CC0007000002010000020A52303800B234380F8
:103CD0005A2383805123C3800B4BC360A6230381E7
:103CE0000F234381B8230383162343833123C383E4
:103CF00006238383BA23038447234384C92303828F
:103D000024234382704700BFF04B010830B583B0D5
:103D1000044699B30830FFF76FFA238B0133ADF8EF
:103D20000030638B0133ADF80230A38B023BADF85A
:103D30000430E38B023BADF806300122002104F190
:103D40001800FFF77FFA04F1200500220821284619
:103D5000FFF74EFB4FF6FF7207212846FFF757FB90
:103D60004FF6FF716846FFF75EFA0023054A0649E1
:103D700004F11000FFF784FA03B030BDFFF743FAF7
:103D8000FAE700BF080000206486010838B5054640
:103D90000C46CB78012B09D04FF6FF710122284643
:103DA000FFF750FA2378012B02D038BD1F21F5E729
:103DB000A27861782846FFF73BFBF6E700B51123B0
:103DC000038074234380A123C3804FF4DD73838079
:103DD000F72303818C2242812823C3814A238381D4
:103DE0004FF4927CA0F818C04FF0B50EA0F81AE07E
:103DF00014238383C38340F2A1110182A0F812E04F
:103E00008382C3820185E72141858385C385A0F82C
:103E100020C041848384C384162303868823438679
:103E20004FF4D87383861E23C38640F21513A0F87F
:103E30004030A0F842205DF804FB000070B596B059
:103E400005460E46534B93E8070016AC04E90700FD
:103E50000FAC0C330FCB84E80F00002E00F09680DF
:103E60000024019402942B881933ADF804306B8838
:103E70001833ADF80630484E23463246474901A86C
:103E8000FFF7FEF9039404942B881933ADF80C3036
:103E90006B884633ADF80E3023463246404903A8BE
:103EA000FFF7EEF9059406942B881933ADF814301A
:103EB0006B887733ADF8163023463246394905A86A
:103EC000FFF7DEF9079408942B88A033ADF81C3077
:103ED0006B884633ADF81E30334E234632463349A5
:103EE00007A8FFF7CDF909940A942B8803F59B7373
:103EF000ADF824306B884633ADF826302346324681
:103F00002B4909A8FFF7BCF90B940C942B88C833F4
:103F1000ADF82C306B887733ADF82E30234632461F
:103F200024490BA8FFF7ACF90D940E942B8803F5E8
:103F3000A573ADF834306B887733ADF8363023464F
:103F400032461D490DA8FFF79BF90122214605F1D4
:103F50002800FFF777F90122214605F12000FFF73D
:103F600071F90122214605F11000FFF76BF90122DA
:103F7000214605F11800FFF765F9234632460F493F
:103F800005F14000FFF77CF916B070BD2846FFF739
:103F90003AF9F9E748B60008080000204C85010806
:103FA000608501086885010800000020748501080B
:103FB00080850108888501088C85010864860108D0
:103FC000F0B587B004460D464B7B012B13D04FF65E
:103FD000FF7600272B7B012B10D0002101222046E9
:103FE000FFF730F92B78022B24D0032B7FD0012B45
:103FF00006D007B0F0BD1F263746EBE71F21EDE7DF
:104000006388143363860122314604F13000FFF7E0
:1040100019F92A7A5C4B53F822306A685B4904A884
:1040200006F05EFD3B465A4A04A904F14000FFF742
:1040300027F9DEE763883D3363860122314604F1C8
:104040003000FFF7FFF8238B0133ADF80030638BAE
:104050000133ADF80230A38B023BADF80430E38BA3
:10406000023BADF80630238A0133ADF80830638A8D
:104070000133ADF80A30A38A023BADF80C30E38A75
:10408000023BADF80E302B7A012B12D0022B1FD041
:104090002A7A3D4B53F822306A683C4904A806F05E
:1040A0001FFD00233A4A04A904F14000FFF7E8F895
:1040B0009FE76846FFF7A7F80122002104F11000EE
:1040C000FFF7C0F84FF4FC6102A8FFF7ACF8DFE798
:1040D00002A8FFF798F80122002104F11800FFF769
:1040E000B1F84FF4FC616846FFF79DF8D0E76388AC
:1040F0006F3363860122314604F13000FFF7A2F8E6
:10410000238C0133ADF80030638C0133ADF80230FD
:10411000A38C023BADF80430E38C023BADF80630D3
:10412000238D0133ADF80830638D0133ADF80A30CB
:10413000A38D023BADF80C30E38D023BADF80E30A1
:104140006B7A012B11D0022B7FF453AF6846FFF737
:104150005AF80122002104F12800FFF773F84FF408
:10416000FC6102A8FFF75FF843E702A8FFF74BF8EE
:104170000122002104F12000FFF764F84FF4FC61F4
:104180006846FFF750F834E7A8860108FC85010867
:104190000800002040F2091303800B2343804023D2
:1041A00083805123C380054BC360054BC3604FF42C
:1041B0008973038114234381704700BFF04B0108CA
:1041C000B024010800B583B081B1002300930193AE
:1041D00003880F33ADF8003043881433ADF8023054
:1041E0000830FFF709F803B05DF804FBFFF70BF8A0
:1041F000F9E708B50B78012B05D04FF6FF710122C6
:10420000FFF720F808BD1F21F9E7000070B5112362
:104210000380742343804FF4DD738380A123C38024
:10422000432303834FF09C0CA0F81AC040228283E2
:104230005123C38339210184F6214184542404820B
:10424000B52444821E248482C4829D240486A0F85E
:1042500032C0048741878286C386A62404854FF036
:10426000A50EA0F82AE01B4CC462F824A0F8504028
:10427000A0F852C040F20114A0F85840A0F85A101B
:10428000A0F85420A0F856304FF48175A0F84050A3
:10429000AB24A0F84240104E4664A0F84850A0F865
:1042A0004A400E4CC4644FF4A974A0F86840A0F8CA
:1042B0006AC0A0F87040A0F87210A0F86C20A0F8B6
:1042C0006E3040F25913A0F86030A0F862E0044B61
:1042D000436670BDB024010880120108303B01081C
:1042E000905F010870B582B00446002945D00122D4
:1042F0000021FEF7A7FF0025009501952388643370
:10430000ADF8003063880F33ADF802302B461C4AFD
:104310001C496846FEF7B4FF04F16000FEF76CFF2D
:104320000122294604F11000FEF78CFF04F1280059
:10433000FEF762FF04F14000FEF75EFF124E2B46CF
:104340003246124904F12000FEF79AFF2B4632460E
:104350000F4904F13800FEF793FF2B4632460D4912
:1043600004F15800FEF78CFF2B4632460A4904F14F
:104370007000FEF785FF02B070BDFEF744FFFAE75C
:1043800008000020688601080000002078860108E7
:1043900080860108888601089086010830B583B0C0
:1043A00004460D468B78012B0AD04FF6FF712B780F
:1043B000013B042B23D8DFE803F0053A52A0B800F4
:1043C0001F21F4E7012204F11800FEF73BFFAB794F
:1043D000012B16D0238A0133ADF80030638A0133F4
:1043E000ADF80230A38A023BADF80430E38A023B09
:1043F000ADF806304FF6FF716846FEF714FF03B0C4
:1044000030BD238A0133ADF80030638A0133ADF843
:104410000230A38A023BADF80430E38A023BADF8D8
:1044200006304FF4FC616846FEF7FDFEE7E7012227
:1044300004F13000FEF706FF2B79012B07D0002393
:10444000414A424904F13800FEF71AFFD7E700233A
:104450003D4A3F4904F13800FEF712FFCFE7012241
:1044600004F15000FEF7EEFE6B79022B22D0B4F877
:1044700050300133ADF80030B4F852300133ADF8AC
:104480000230B4F85430023BADF80430B4F8563082
:10449000023BADF806306846FEF7B5FE04F1480071
:1044A000FEF7AAFE0023284A2A4904F15800FEF725
:1044B000E7FEA4E7B4F850300133ADF80030B4F8AB
:1044C00052300133ADF80230B4F85430023BADF84D
:1044D0000430B4F85630023BADF806306846FEF7BB
:1044E00092FE04F14000FEF787FE0023164A1A49A7
:1044F00004F15800FEF7C4FE81E7012204F16800D0
:10450000FEF7A0FEEB78022B07D000230E4A1349DA
:1045100004F17000FEF7B4FE71E700230A4A0F4968
:1045200004F17000FEF7ACFE69E74FF6FF739942A5
:1045300004D001222046FEF785FE60E7012200211B
:104540002046FEF77FFE5AE700000020988601080B
:1045500080860108A08601088886010890860108E7
:1045600011230380742343804FF4DD738380A123E0
:10457000C3802F230381B0234381704708B521B145
:1045800001220021FEF75EFE08BDFEF73CFEFBE7C0
:1045900008B50023024A0830FEF772FE08BD00BFCE
:1045A00010000020017000238370C37070470378EF
:1045B000622B02D8013303707047002303707047E9
:1045C000037813B1013B0370704763230370704796
:1045D00003780B2B02D8013303707047012303705B
:1045E00070470378012B02D9013B037070470C23FD
:1045F0000370704703783A2B02D801330370704779
:10460000002303707047037813B1013B03707047B8
:104610003B230370704703781D2B02D801330370CE
:1046200070470123037070470378012B02D9013BC7
:10463000037070471F23037070470378012B02D962
:10464000013B037070470C230370704703780B2BFA
:1046500002D80133037070470123037070470000D4
:1046600010B50446FEF744FC0323237743786377B1
:1046700004F11C010148FEF78CFF10BD300500203D
:1046800010B50446FEF762FD012384F821308368EB
:1046900084F82230437984F8233004F12101024860
:1046A000FFF774FB10BD00BF2808002070B586B06E
:1046B000054601A8FDF76CFB05F15A06BDF812305E
:1046C00085F85E309DF8063085F85F309DF808303B
:1046D00085F85B309DF8093085F85C309DF8143022
:1046E00085F85D30012406E085F85A4031460448DB
:1046F000FFF77CFA0134052CF6DD06B070BD00BF73
:104700006005002010B5044601210B48FFF712FA9E
:104710002046FFF7A5FF2046FFF7B2FF2046FFF730
:10472000C5FF4FF47A71201DFDF7FDFB04F1080071
:10473000FDF7FFFB10BD00BF6005002010B504466B
:104740000121FFF72FFF2046FFF7DCFF10BD00001F
:1047500010B50446012380F87C3080F85A3080F888
:10476000613000F15A010548FFF740FA41F2883103
:1047700004F10800FDF7D7FB10BD00BF6005002065
:1047800010B504460521FFF70DFF2046FFF7E0FFB7
:1047900010BD000038B5044600F15A05022380F828
:1047A000613029461548FFF721FAA378032B0DD075
:1047B000042B17D094F87C3084F85A30012384F805
:1047C000613029460D48FFF711FA38BD94F87C3066
:1047D000012B03D9013B84F87C30EBE7052384F8F7
:1047E0007C30E7E794F87C30042B03D8013384F85D
:1047F0007C30DFE7012384F87C30DBE760050020B4
:1048000010B500F15A048378012B0AD0002290F8E9
:104810007C30013B042B28D8DFE803F0050E203064
:1048200017000122F3E71AB15B30FFF7D1FE1CE05D
:104830005B30FFF7D6FE18E01AB15C30FFF7DAFE06
:1048400013E05C30FFF7DFFE0FE01AB15E30FFF7D8
:10485000E2FE0AE05E30FFF7E7FE06E090F85D302A
:10486000012B07D0012380F85D3021460848FFF76F
:10487000BDF910BD022380F85D30F6E71AB15F3054
:10488000FFF7E4FEF1E75F30FFF7D7FEEDE700BF8B
:104890006005002038B5044600F1180590F87C301A
:1048A00043760223C37629461348FEF70BFFA3780D
:1048B000032B0BD0042B14D094F87C3063760123A7
:1048C000E37629460C48FEF7FDFE38BD94F87C30AF
:1048D000013BDBB284F87C3003F0030384F87C30C6
:1048E000EAE794F87C300133DBB284F87C3003F0E3
:1048F000030384F87C30DFE7A005002070B505468F
:1049000000F16C06FEF722FC044600211848FFF770
:1049100011F901211748FFF791FA637985F874308E
:10492000237985F8753023682B67022385F8793061
:10493000012407E085F86C4031460E48FFF740FB44
:104940000134E4B2032CF5D9012385F87C3085F8D5
:104950006C3085F8783085F8793031460548FFF7B6
:104960002FFB41F2883105F10800FDF7DCFA70BD3C
:1049700060050020E007002010B504460721FFF77E
:1049800011FE2046FFF7BAFF10BD000010B500F180
:104990006C048378032B0DD0002290F87C30022B1E
:1049A00013D0032B38D0012B06D021462348FFF724
:1049B00007FB10BD0122F0E71AB17030FFF700FECF
:1049C000F3E77030FFF7F3FDEFE792B190F8743042
:1049D000012BEAD1036F03EBC303194A82FB0312D5
:1049E000DB17C3EB620320330367022380F87430C4
:1049F000DBE790F87430022BD7D1036F203B03EB39
:104A00008303104A82FB0312DB17C3EB62030367C5
:104A1000012380F87430C8E73AB190F87530022B62
:104A2000C3D1012380F87530BFE790F87530012BB2
:104A3000BBD1022380F87530B7E700BFE007002044
:104A400067666666398EE33838B5044600F16C0552
:104A5000022380F8793029461548FFF7B1FAA37888
:104A6000012B0DD0022B17D094F87C3084F86C30D9
:104A7000012384F8793029460D48FFF7A1FA38BDA3
:104A800094F87C30012B03D9013B84F87C30EBE7B0
:104A9000032384F87C30E7E794F87C30022B03D8BA
:104AA000013384F87C30DFE7012384F87C30DBE7D6
:104AB000E0070020F8B5044690F87C3080F86C30B0
:104AC000022580F8795080F878500A4E00F16C0188
:104AD0003046FFF775FA002784F8217084F82450D7
:104AE00004F121010448FFF751F939463046FFF738
:104AF000A5F9F8BDE00700202808002070B505469C
:104B000000211C48FFF716F801211B48FFF7EAFBBC
:104B1000FEF7A0F805F16206022385F8633085F8F8
:104B20006430C27885F8682085F86730012485F8FC
:104B30006640837885F8653004E031460E48FFF71B
:104B40002DFC0134052CF8D9012385F87C30022294
:104B500085F8632085F8643085F862303146064870
:104B6000FFF71CFC41F2883105F10800FDF7DBF985
:104B700070BD00BFB80500206807002010B50446CE
:104B80000621FFF70FFD2046FFF7B8FF10BD00001C
:104B900038B5044600F16205022380F864302946E6
:104BA0001548FFF7FBFBA378032B0DD0042B17D080
:104BB000012384F8643094F87C3084F8623029460C
:104BC0000D48FFF7EBFB38BD94F87C30012B03D97F
:104BD000013B84F87C30EBE7052384F87C30E7E781
:104BE00094F87C30042B03D8013384F87C30DFE761
:104BF000012384F87C30DBE76807002010B5044609
:104C000000210648FEF7FAFD94F87C3084F85A300B
:104C1000022384F8613084F8603010BDB8050020AC
:104C200008B500210148FEF7E9FD08BDB8050020E0
:104C300010B504460830FDF791F900B910BD2046C3
:104C4000FFF7EEFF2046FFF779FDF7E710B50446C2
:104C50000C30FDF783F900B910BD00210648FFF7BD
:104C60008DFC0223E37604F118010448FEF72AFDC7
:104C70002046FFF763FDEFE748070020A00500206E
:104C800038B5044600210948FEF7B8FD084D01215A
:104C90002846FFF773FC07492846FFF779FC4FF4D5
:104CA000FA6104F10800FDF73EF938BDB8050020AF
:104CB000480700200C87010810B504460821FFF7BB
:104CC00071FC2046FFF7DCFF10BD000010B594B06A
:104CD0000446407EFDF7FAFA00238DF804300123E4
:104CE0008DF8053003238DF8063002238DF8073048
:104CF0004378DA1ED2B2012A0CD9013BDBB2012B78
:104D000018D99DF8043023BB0CA91548FFF740FCC7
:104D100014B010BD627E013212490CA805F0E0FE0D
:104D200001238DF80430637E8DF8083002238DF85E
:104D30000930E6E7627E01320B490CA805F0D0FE8F
:104D400002238DF80430627E8DF808208DF809303A
:104D5000D7E7FDF74BFB01A9FDF768FBD4E700BFE0
:104D6000480700201C8701083487010838B504462D
:104D700000210F48FEF7DEFE01210E48FFF7FEFB83
:104D80002046FFF7A3FF04F11805607EFDF79EFAA9
:104D9000437823760123E37629460748FEF792FC01
:104DA00040F6B83104F10C00FDF7BDF838BD00BF86
:104DB0006005002048070020A005002010B504462B
:104DC0000421FFF7EFFB2046FFF7D0FF10BD0000E6
:104DD00030B58DB0044600211148FEF70FFD114D8E
:104DE00001212846FFF7CAFB0F492846FFF7D0FBF1
:104DF00002238DF8043001238DF8053004238DF84B
:104E0000063010238DF80730637E8DF8103027347C
:104E10000594FDF7EBFA01A9FDF708FB0DB030BDD5
:104E2000B8050020480700204C87010830B58DB038
:104E3000044600211348FFF701F8134D01212846CD
:104E4000FFF79CFB11492846FFF7A2FB01238DF8D1
:104E500004308DF8053005238DF806300C238DF8CD
:104E6000073094F875308DF80C30236F029394F866
:104E700074308DF80D30FDF7B9FA01A9FDF7D6FAB7
:104E80000DB030BDE007002048070020648701080E
:104E900010B5044683782BB3042B0ED8032B17D2FE
:104EA000013BDBB2012B1BD8FFF7CEFD41F288316D
:104EB00004F10800FDF737F812E0052B10D1FFF7D9
:104EC000B5FF4FF4FA6104F10800FDF72CF807E094
:104ED000FFF75CFD41F2883104F10800FDF723F88B
:104EE0000023A37004F10800FDF738F800B910BDE5
:104EF0002046FFF7DFFD2046FFF720FCF7E7000024
:104F000030B58DB0044600211248FEF777FC124DF3
:104F100001212846FFF732FB10492846FFF738FBEE
:104F200001238DF804308DF8053004238DF8063008
:104F300010238DF80730D4F85B00029094F85F30AE
:104F40008DF80C30FDF752FA01A9FDF76FFA0DB09C
:104F500030BD00BFB8050020480700207C8701084D
:104F600010B5044683782BB3042B0ED8032B17D22D
:104F7000013BDBB2012B1BD8FFF742FC41F2883129
:104F800004F10800FCF7CFFF12E0052B10D1FFF76A
:104F9000B7FF4FF4FA6104F10800FCF7C4FF07E023
:104FA000FFF7F8FB41F2883104F10800FCF7BBFF82
:104FB0000023A37004F10800FCF7D0FF00B910BD76
:104FC0002046FFF71BFE2046FFF7B8FBF7E700007F
:104FD00008B590F87C30042B0AD8DFE803F0030A08
:104FE00012192000817600F118011148FEF76AFBC2
:104FF00008BD80F8241000F121010E48FEF7C6FE1E
:10500000F6E7C17700F11F010B48FFF7F2F8EFE771
:10501000817700F11C010948FEF7BBFAE8E780F848
:10502000601000F15A010648FEF7E0FDE0E700BF1E
:10503000A005002028080020580700203005002087
:105040006005002010B504460221FFF7C1FFA378D8
:10505000032B0BD0042B14D001212046FFF7B8FFFF
:1050600094F87C100D4805F09DFC10BD94F87C3040
:105070001BB1013B84F87C30EEE7042384F87C30DC
:10508000EAE794F87C30032B03D8013384F87C30B2
:10509000E2E7002384F87C30DEE700BF9887010850
:1050A00010B504460221FFF793FF002384F87C30FB
:1050B00063760123E37604F118010548FEF702FB4D
:1050C00041F2883104F10800FCF72DFF10BD00BF4C
:1050D000A005002010B504460221FFF763FA204620
:1050E000FFF7DEFF10BD08B590F87C30042B07D821
:1050F000DFE803F0030A11171D00837E012B00D0A7
:1051000008BDFFF7E7FFFBE790F82430012BF7D14C
:10511000FFF732FCF4E7C37F012BF1D1FFF72EFD3F
:10512000EEE7837F012BEBD1FFF7C6FDE8E790F8B0
:105130006030012BE4D1FFF723FBE1E710B5044613
:105140008378033B062B0DD8DFE803F004040D1A27
:105150001F101500FFF776FF41F2883104F10800B7
:10516000FCF7E1FE10BDFFF7BEFFFBE7002343762F
:10517000FFF724FEF6E701234376FFF71FFEF1E772
:1051800002234376FFF71AFEECE703234376FFF78B
:1051900015FEE7E738B5044683785BB9251D284638
:1051A000FCF7DCFE58B904F108052846FCF7D6FEEA
:1051B000A0B938BDFFF7C2FF0023A370EEE74FF49C
:1051C0007A712846FCF7AFFE2046FFF749FA2046E1
:1051D000FFF76CFA2046FFF753FAE4E70221204676
:1051E000FFF7F6FE2846FCF7A4FE042384F87C3083
:1051F000DFE7000070B50446022580F8635080F8B0
:105200006450094E00F162013046FFF7C7F8E577B8
:1052100084F8205004F11F010448FEF7EAFF002142
:105220003046FFF75FF870BD680700205807002080
:1052300030B58DB0044600F16205FDF70BFD01238A
:105240008DF8053006238DF8063000238DF80430E4
:1052500094F87C30013B042B04D8DFE803F00519F7
:105260002D464E00002449E094F86830012B07D009
:10527000012384F8683002238DF8043000243DE0D7
:10528000022384F8683003238DF80430002435E0CD
:1052900094F86630012B07D0012384F86630072389
:1052A0008DF80430002429E0022384F866300623B8
:1052B0008DF80430002421E08378022B01D00024F3
:1052C0001CE094F86730022B07D0022384F8673083
:1052D00007238DF80430002410E0012384F86730A0
:1052E00004238DF80430002408E0022384F865309C
:1052F00001238DF80430002400E0012429460F48E2
:10530000FFF74CF89DF804301BB944B920460DB0A6
:1053100030BDFDF79BFC01A9FDF7C8FCF5E70021B6
:105320000648FEF7DFFF064D01212846FFF726F964
:1053300004492846FFF72CF9E8E700BF680700207A
:1053400048070020B087010810B5044683781BB3D6
:10535000042B0BD8032B15D2013BDBB2012B19D840
:1053600044F620610830FCF7DEFD13E0052B11D177
:10537000FFF75EFFB0B14FF4FA6104F10800FCF7EB
:10538000D2FD07E0FFF704FC44F6206104F10800B9
:10539000FCF7C9FD0023A37004F10800FCF7DEFD53
:1053A00038B910BD44F6206104F10800FCF7BBFDDC
:1053B000F0E72046FFF71EFF2046FFF7BFF9F0E7B2
:1053C00038B5044600F12505022380F859302946F6
:1053D0002948FEF7B3FAA378032B02D0042B24D07C
:1053E00038BD94F87C30C3B1013B84F87C3094F82C
:1053F0007C3084F82630012384F8593029461E4831
:10540000FEF79CFA94F87C30082BE9D194F825300B
:105410003BB1013B84F82530E2E7082384F87C3077
:10542000E5E7052384F82530DAE794F87C30072B8C
:1054300019D8013384F87C3094F87C3084F8263015
:10544000012384F8593029460B48FEF777FA94F87F
:105450007C30082BC4D194F82530042B07D80133B5
:1054600084F82530BCE7002384F87C30E4E700238F
:1054700084F82530B4E700BFB805002010B500F16E
:1054800025048378012B0BD0002290F87C30082B68
:1054900037D8DFE803F0071829415263887799006D
:1054A0000122F2E73AB110F8253F00EBC3000230C9
:1054B000FFF78EF825E010F8253F00EBC30002301F
:1054C000FFF78FF81DE03AB110F8253F00EBC3005D
:1054D0000330FFF78FF814E010F8253F00EBC3000E
:1054E0000330FFF790F80CE090F8253000EBC30292
:1054F00092F82920012A09D000EBC300012380F88B
:10550000293021463648FEF719FA10BD00EBC300DA
:10551000022380F82930F4E73AB110F8253F00EB78
:10552000C3000530FFF754F8EBE710F8253F00EB18
:10553000C3000530FFF755F8E3E73AB110F8253F0F
:1055400000EBC3000630FFF755F8DAE710F8253F07
:1055500000EBC3000630FFF756F8D2E790F825308D
:1055600000EBC30292F82C20012A05D000EBC30007
:10557000012380F82C30C4E700EBC300022380F83D
:105580002C30BEE73AB110F8253F00EBC3000830DD
:10559000FFF741F8B5E710F8253F00EBC3000830EE
:1055A000FFF739F8ADE73AB110F8253F00EBC3003B
:1055B0000930FFF74BF8A4E710F8253F00EBC300D4
:1055C0000930FFF73AF89CE790F85730012B03D0E9
:1055D000012380F8573094E7022380F8573090E792
:1055E000B805002038B5044683782BB3042B0ED8B9
:1055F000032B17D2013BDBB2012B1BD8FFF73EFF79
:1056000043F6982104F10800FCF78DFC12E0052B0D
:1056100010D1FFF7DDFB4FF4FA6104F10800FCF74D
:1056200082FC07E0FFF7CCFE43F6982104F1080066
:10563000FCF779FC0023A37004F108052846FCF769
:105640008DFC00B938BD0223E37604F11801064849
:10565000FEF738F82846FCF76CFC2046FFF7E0FA26
:105660002046FFF76BF8EDE7A0050020F8B50546EA
:1056700000212748FEF75EFA01212648FEF7BEF812
:1056800005F12506FDF7E4F8697EC1EBC101C1EB28
:10569000C10101440B4605F127023031D3F800C0A7
:1056A0005F689C68D868C2F800C057609460D0609A
:1056B000103310328B42F1D11B781370002709E0B0
:1056C00085F8254031461348FEF738F90134052C9A
:1056D000F6DD0137082F06DC85F82670022385F8F1
:1056E00059300024F3E7002385F87C3085F8253015
:1056F00085F82630012385F8593031460548FEF7F4
:105700001DF943F6982105F10800FCF70CFCF8BDE3
:1057100060050020B805002010B504460321FEF7FF
:1057200041FF2046FFF7A2FF10BD08B5C37E012B45
:1057300000D008BDFFF7F0FFFBE7000038B50446D6
:105740008378042B04D9052B04D1FFF7EEFF01E089
:10575000032B0AD2A3780BB10023A37004F1080530
:105760002846FCF7FBFB48B938BDFFF793F841F238
:10577000883104F10800FCF7D6FBEBE70223E3765F
:1057800004F118010448FDF79DFF2846FCF7D1FB02
:105790002046FEF7D3FFE7E7A0050020004870474A
:1057A000500800202DE9F8430446DFF8749048467D
:1057B000FDF7B8FEDFF86C804046FDF715FF1A4F85
:1057C0003846FEF781FA194E3046FEF7E3FC184DD5
:1057D0002846FEF787F91748FDF7CAFF1648FEF777
:1057E000BFFE1648FEF7EAFA1548FEF70FFD012145
:1057F0004846FDF7C5FE01214046FDF70BFF01219C
:105800003846FEF783FA01213046FEF7DBFC012122
:105810002846FEF78FF92046FEF790FFBDE8F88393
:1058200030050020A005002028080020580700208F
:1058300060050020B805002048070020E007002090
:105840006807002008B50378013B072B07D8DFE87D
:1058500003F004100D13070A1619FFF79BFC08BD8F
:10586000FFF77EFBFBE7FFF76FFDF8E7FFF7BAFEF8
:10587000F5E7FFF763FFF2E7FFF7E8F9EFE7FFF778
:1058800007FBECE7FFF7D4F9E9E738B5041D00257D
:1058900004E02046FCF754FB04340135022DF8D90E
:1058A00038BD4B78022B00D070470B788370FBE734
:1058B00008B501381F2822D8DFE800F01019211D93
:1058C00021212121212121212121212C21212121BD
:1058D0002121212121212121212121361748FCF7D5
:1058E0002DFB60B93C211548FCF71DFB07E014486F
:1058F000FCF724FB20B11348FCF720FB28B108BDBE
:105900003C210F48FCF70FFBF5E73C210D48FCF765
:105910000AFBF4E70C48FCF711FB0028EFD13C210F
:105920000948FCF700FBEAE70848FCF707FB0028FA
:10593000E5D13C210548FCF7F6FAE0E76C010020D0
:105940007C010020AC0100208C0100209C01002083
:1059500008B5012002F0A2FE08BD08B5022002F041
:105960009DFE08BD08B5042002F098FE08BD08B5EC
:10597000102002F093FE08BD08B5202002F08EFE34
:1059800008BD00B595B0282200210DEB020004F0FF
:1059900037FC00230593069307930893099301931B
:1059A00002930393049301220A924FF480330B93E2
:1059B0000E920222119212934FF4001313930AA82D
:1059C00003F010FCB8B90F230593022106910023C0
:1059D00007930893099305A803F044FE70B90223C6
:1059E00001934FF40043039301A803F017FF40B95C
:1059F00015B05DF804FB00F0D7FAE4E700F0D4FA44
:105A0000EDE700F0D1FAF3E770B584B0002400941C
:105A10000194029403944FF4FC53009302260396DE
:105A200069460C4802F01AFD4FF48053009301942C
:105A30000294094D6946284602F010FD4FF40043D8
:105A400000930194029403966946284602F006FDED
:105A500004B070BD00100140000801402DE9F04382
:105A600087B0304B9A6942F008029A619A6902F055
:105A700008020092009A9A6942F020029A619B699A
:105A800003F020030193019B274E0022082130469A
:105A900002F0FDFD254F00220421384602F0F7FDFB
:105AA000002502950395049505954FF00809CDF85A
:105AB00008904FF01108CDF80C80012405940DEBEF
:105AC0000901304602F0CAFC22464946304602F03F
:105AD000DEFD10230293CDF80C80049505940DEBA8
