:020000040800F2
:1000000000500020915400085D5300085F53000821
:1000100061530008635300086553000800000000A6
:10002000000000000000000000000000675300080E
:1000300069530008000000006B5300086D5300086E
:10004000D9540008D9540008D9540008D9540008DC
:10005000D9540008D9540008854D0008D954000827
:10006000D9540008D95400088B4D0008D954000811
:10007000D9540008D9540008A16400084564000858
:10008000D9540008D9540008D9540008D95400089C
:10009000D9540008D9540008D9540008914D0008DB
:1000A000D9540008D9540008D9540008D95400087C
:1000B000D9540008D9540008D9540008D95400086C
:1000C000D9540008D9540008D9540008D95400085C
:1000D000D9540008D9540008D9540008D95400084C
:1000E000D9540008D9540008D95400080000000071
:1000F0000000000000000000000000000000000000
:0C01000000000000000000005FF808F1A3
:1001100010B5054C237833B9044B13B10448AFF341
:1001200000800123237010BD30010020000000007A
:10013000BC9E000808B5034B1BB103490348AFF34D
:10014000008008BD0000000034010020BC9E0008B3
:1001500081F0004102E000BF83F0004330B54FEA78
:1001600041044FEA430594EA050F08BF90EA020FE5
:100170001FBF54EA000C55EA020C7FEA645C7FEA78
:10018000655C00F0E2804FEA5454D4EB5555B8BF9B
:100190006D420CDD2C4480EA020281EA030382EA0C
:1001A000000083EA010180EA020281EA0303362D9E
:1001B00088BF30BD11F0004F4FEA01314FF4801C71
:1001C0004CEA113102D0404261EB410113F0004F83
:1001D0004FEA03334CEA133302D0524263EB43033A
:1001E00094EA050F00F0A780A4F10104D5F1200ED8
:1001F0000DDB02FA0EFC22FA05F2801841F1000133
:1002000003FA0EF2801843FA05F359410EE0A5F106
:1002100020050EF1200E012A03FA0EFC28BF4CF037
:10022000020C43FA05F3C01851EBE37101F00045ED
:1002300007D54FF0000EDCF1000C7EEB00006EEBFA
:100240000101B1F5801F1BD3B1F5001F0CD3490884
:100250005FEA30004FEA3C0C04F101044FEA4452DB
:1002600012F5800F80F09A80BCF1004F08BF5FEA62
:10027000500C50F1000041EB045141EA050130BD42
:100280005FEA4C0C404141EB0101013C28BFB1F554
:10029000801FE9D291F0000F04BF01460020B1FA9F
:1002A00081F308BF2033A3F10B03B3F120020CDA72
:1002B0000C3208DD02F1140CC2F10C0201FA0CF050
:1002C00021FA02F10CE002F11402D8BFC2F1200CB5
:1002D00001FA02F120FA0CFCDCBF41EA0C0190406B
:1002E000E41AA2BF01EB0451294330BD6FEA0404B4
:1002F0001F3C1CDA0C340EDC04F11404C4F120029F
:1003000020FA04F001FA02F340EA030021FA04F3B0
:1003100045EA030130BDC4F10C04C4F1200220FA07
:1003200002F001FA04F340EA0300294630BD21FA45
:1003300004F0294630BD94F0000F83F4801306BF0B
:1003400081F480110134013D4EE77FEA645C18BFFF
:100350007FEA655C29D094EA050F08BF90EA020F96
:1003600005D054EA000C04BF1946104630BD91EA8E
:10037000030F1EBF0021002030BD5FEA545C05D191
:100380004000494128BF41F0004130BD14F58004D0
:100390003CBF01F5801130BD01F0004545F0FE4144
:1003A00041F470014FF0000030BD7FEA645C1ABF79
:1003B000194610467FEA655C1CBF0B46024650EAB0
:1003C000013406BF52EA033591EA030F41F40021DC
:1003D00030BD00BF90F0000F04BF0021704730B562
:1003E0004FF4806404F132044FF000054FF0000137
:1003F00050E700BF90F0000F04BF0021704730B5F8
:100400004FF4806404F1320410F0004548BF4042CC
:100410004FF000013EE700BF42004FEAE2014FEA21
:1004200031014FEA02701FBF12F07F4393F07F4FFC
:1004300081F06051704732F07F4208BF704793F0FF
:100440007F4F04BF41F40021704730B54FF4607412
:1004500001F0004521F000411CE700BF50EA010215
:1004600008BF704730B54FF000050AE050EA0102BE
:1004700008BF704730B511F0004502D5404261EB2E
:1004800041014FF4806404F132045FEA915C3FF46F
:10049000D8AE4FF003025FEADC0C18BF03325FEA0C
:1004A000DC0C18BF033202EBDC02C2F1200300FABD
:1004B00003FC20FA02F001FA03FE40EA0E0021FAE2
:1004C00002F11444BDE600BF70B54FF0FF0C4CF4D0
:1004D000E06C1CEA11541DBF1CEA135594EA0C0F82
:1004E00095EA0C0F00F0DEF82C4481EA030621EABD
:1004F0004C5123EA4C5350EA013518BF52EA0335F8
:1005000041F4801143F4801338D0A0FB02CE4FF0A9
:100510000005E1FB02E506F00042E0FB03E54FF0D9
:100520000006E1FB03569CF0000F18BF4EF0010ED1
:10053000A4F1FF04B6F5007F64F5407404D25FEACD
:100540004E0E6D4146EB060642EAC62141EA555180
:100550004FEAC52040EA5E504FEACE2EB4F1FD0CC2
:1005600088BFBCF5E06F1ED8BEF1004F08BF5FEA40
:10057000500E50F1000041EB045170BD06F00046F2
:1005800046EA010140EA020081EA0301B4EB5C049F
:10059000C2BFD4EB0C0541EA045170BD41F4801197
:1005A0004FF0000E013C00F3AB8014F1360FDEBFBC
:1005B000002001F0004170BDC4F10004203C35DA98
:1005C0000C341BDC04F11404C4F1200500FA05F31B
:1005D00020FA04F001FA05F240EA020001F00042BC
:1005E00021F0004110EBD37021FA04F642EB060132
:1005F0005EEA430E08BF20EAD37070BDC4F10C045C
:10060000C4F1200500FA04F320FA05F001FA04F21F
:1006100040EA020001F0004110EBD37041F100010B
:100620005EEA430E08BF20EAD37070BDC4F1200516
:1006300000FA05F24EEA020E20FA04F301FA05F27E
:1006400043EA020321FA04F001F0004121FA04F226
:1006500020EA020000EBD3705EEA430E08BF20EAF6
:10066000D37070BD94F0000F0FD101F00046400030
:1006700041EB010111F4801F08BF013CF7D041EAB2
:10068000060195F0000F18BF704703F000465200B6
:1006900043EB030313F4801F08BF013DF7D043EA87
:1006A0000603704794EA0C0F0CEA135518BF95EA3D
:1006B0000C0F0CD050EA410618BF52EA4306D1D1C4
:1006C00081EA030101F000414FF0000070BD50EAE3
:1006D000410606BF1046194652EA430619D094EA6D
:1006E0000C0F02D150EA013613D195EA0C0F05D157
:1006F00052EA03361CBF104619460AD181EA0301AB
:1007000001F0004141F0FE4141F470014FF0000062
:1007100070BD41F0FE4141F4780170BD70B54FF0FD
:10072000FF0C4CF4E06C1CEA11541DBF1CEA13557D
:1007300094EA0C0F95EA0C0F00F0A7F8A4EB05045F
:1007400081EA030E52EA03354FEA013100F0888056
:100750004FEA03334FF0805545EA131343EA12631F
:100760004FEA022245EA111545EA10654FEA0026D4
:100770000EF000419D4208BF964244F1FD0404F58D
:10078000407402D25B084FEA3202B61A65EB0305E9
:100790005B084FEA32024FF480104FF4002CB6EBA6
:1007A000020E75EB030E22BFB61A754640EA0C0026
:1007B0005B084FEA3202B6EB020E75EB030E22BF66
:1007C000B61A754640EA5C005B084FEA3202B6EBA7
:1007D000020E75EB030E22BFB61A754640EA9C0066
:1007E0005B084FEA3202B6EB020E75EB030E22BF36
:1007F000B61A754640EADC0055EA060E18D04FEAF4
:10080000051545EA16754FEA06164FEAC30343EA93
:1008100052734FEAC2025FEA1C1CC0D111F4801F60
:100820000BD141EA00014FF000004FF0004CB6E759
:1008300011F4801F04BF01430020B4F1FD0C88BFF8
:10084000BCF5E06F3FF6AFAEB5EB030C04BFB6EB03
:10085000020C5FEA500C50F1000041EB045170BDF6
:100860000EF0004E4EEA113114EB5C04C2BFD4EB23
:100870000C0541EA045170BD41F480114FF0000EA7
:10088000013C90E645EA060E8DE60CEA135594EA23
:100890000C0F08BF95EA0C0F3FF43BAF94EA0C0F26
:1008A0000AD150EA01347FF434AF95EA0C0F7FF49B
:1008B00025AF104619462CE795EA0C0F06D152EAEF
:1008C00003353FF4FDAE1046194622E750EA4106D3
:1008D00018BF52EA43067FF4C5AE50EA41047FF4E4
:1008E0000DAF52EA43057FF4EBAE12E74FEA410247
:1008F000B2F1E04324BFB3F5001CDCF1FE5C0DD97E
:1009000001F0004C4FEAC0024CEA5070B2F1004FC7
:1009100040EB830008BF20F00100704711F0804FCA
:1009200021D113F13872BCBF01F00040704741F48F
:1009300080114FEA5252C2F11802C2F1200C10FA93
:100940000CF320FA02F018BF40F001004FEAC12377
:100950004FEAD32303FA0CFC40EA0C0023FA02F31B
:100960004FEA4303CCE77FEA625307D150EA0133F1
:100970001EBF4FF0FE4040F44000704701F00040C1
:1009800040F0FE4040F40000704700BF80F000409F
:1009900002E000BF81F0004142001FBF5FEA410357
:1009A00092EA030F7FEA226C7FEA236C6AD04FEA57
:1009B0001262D2EB1363C1BFD2184140484041409C
:1009C000B8BF5B42192B88BF704710F0004F40F44E
:1009D000000020F07F4018BF404211F0004F41F46A
:1009E000000121F07F4118BF494292EA030F3FD036
:1009F000A2F1010241FA03FC10EB0C00C3F1200349
:100A000001FA03F100F0004302D5494260EB4000D7
:100A1000B0F5000F13D3B0F1807F06D340084FEA42
:100A2000310102F10102FE2A51D2B1F1004F40EB37
:100A3000C25008BF20F0010040EA0300704749009F
:100A400040EB0000013A28BFB0F5000FEDD2B0FA3C
:100A500080FCACF1080CB2EB0C0200FA0CF0AABF5F
:100A600000EBC25052421843BCBFD04018437047FD
:100A700092F0000F81F4000106BF80F40000013203
:100A8000013BB5E74FEA41037FEA226C18BF7FEADA
:100A9000236C21D092EA030F04D092F0000F08BF1C
:100AA0000846704790EA010F1CBF0020704712F003
:100AB0007F4F04D1400028BF40F00040704712F142
:100AC00000723CBF00F50000704700F0004343F0A7
:100AD000FE4040F4000070477FEA226216BF0846DD
:100AE0007FEA23630146420206BF5FEA412390EAA0
:100AF000010F40F4800070474FF0000304E000BF96
:100B000010F0004348BF40425FEA000C08BF704746
:100B100043F0964301464FF000001CE050EA01020A
:100B200008BF70474FF000030AE000BF50EA01021F
:100B300008BF704711F0004302D5404261EB41010C
:100B40005FEA010C02BF84460146002043F0B64331
:100B500008BFA3F18053A3F50003BCFA8CF2083A56
:100B6000A3EBC25310DB01FA02FC634400FA02FC5F
:100B7000C2F12002BCF1004F20FA02F243EB020066
:100B800008BF20F00100704702F1200201FA02FCC8
:100B9000C2F1200250EA4C0021FA02F243EB0200BB
:100BA00008BF20EADC7070474FF0FF0C1CEAD052FF
:100BB0001EBF1CEAD15392EA0C0F93EA0C0F6FD0C0
:100BC0001A4480EA010C400218BF5FEA41211ED09E
:100BD0004FF0006343EA501043EA5111A0FB01318A
:100BE0000CF00040B1F5000F3EBF490041EAD3715F
:100BF0005B0040EA010062F17F02FD2A1DD8B3F1DB
:100C0000004F40EBC25008BF20F00100704790F049
:100C1000000F0CF0004C08BF49024CEA502040EA9B
:100C200051207F3AC2BFD2F1FF0340EAC250704761
:100C300040F400004FF00003013A5DDC12F1190F9F
:100C4000DCBF00F000407047C2F10002410021FA11
:100C500002F1C2F1200200FA02FC5FEA310040F129
:100C6000000053EA4C0308BF20EADC70704792F0A2
:100C7000000F00F0004C02BF400010F4000F013ADA
:100C8000F9D040EA0C0093F0000F01F0004C02BFD5
:100C9000490011F4000F013BF9D041EA0C018FE744
:100CA0000CEAD15392EA0C0F18BF93EA0C0F0AD04A
:100CB00030F0004C18BF31F0004CD8D180EA010070
:100CC00000F00040704790F0000F17BF90F0004F09
:100CD000084691F0000F91F0004F14D092EA0C0FEB
:100CE00001D142020FD193EA0C0F03D14B0218BF7E
:100CF000084608D180EA010000F0004040F0FE40C4
:100D000040F40000704740F0FE4040F4400070475F
:100D10004FF0FF0C1CEAD0521EBF1CEAD15392EADE
:100D20000C0F93EA0C0F69D0A2EB030280EA010CCE
:100D300049024FEA402037D04FF0805343EA111167
:100D400043EA10130CF000408B4238BF5B0042F1C5
:100D50007D024FF4000C8B4224BF5B1A40EA0C006A
:100D6000B3EB510F24BFA3EB510340EA5C00B3EB9C
:100D7000910F24BFA3EB910340EA9C00B3EBD10F8A
:100D800024BFA3EBD10340EADC001B0118BF5FEADC
:100D90001C1CE0D1FD2A3FF650AF8B4240EBC25005
:100DA00008BF20F0010070470CF0004C4CEA5020C6
:100DB0007F32C2BFD2F1FF0340EAC250704740F415
:100DC00000004FF00003013A37E792F0000F00F007
:100DD000004C02BF400010F4000F013AF9D040EA85
:100DE0000C0093F0000F01F0004C02BF490011F419
:100DF000000F013BF9D041EA0C0195E70CEAD15311
:100E000092EA0C0F08D142027FF47DAF93EA0C0FF7
:100E10007FF470AF084676E793EA0C0F04D14B02DB
:100E20003FF44CAF08466EE730F0004C18BF31F08D
:100E3000004CCAD130F000427FF45CAF31F0004387
:100E40007FF43CAF5FE700BF4FEA4002B2F1FE4FD4
:100E50000FD34FF09E03B3EB12620DD94FEA00237C
:100E600043F0004310F0004F23FA02F018BF404255
:100E700070474FF00000704712F1610F01D142023C
:100E800005D110F0004008BF6FF0004070474FF0F0
:100E9000000070477047000038B5094C05462046F1
:100EA00005F0C8FE6421204605F05AFD204605F0F5
:100EB00003FE28602046BDE8384005F0C1BF00BFF2
:100EC00038080020002307B56846CDE90033FFF756
:100ED000E3FF40F6E440009B5843000B800080B2E3
:100EE00003B05DF804FB08B5FFF7ECFF42F65C3396
:100EF000B0FBF3F000EB800000EB8000800000F01E
:100F0000FC0008BD70B50446124808F091F912487B
:100F100008F014FA114B2022236123601023A380D0
:100F20000F4B0026236223638023A3860D4BA282EE
:100F300023640123A284A4F8443004F10805583442
:100F4000284601F091F9103505F80C6CAC42F7D148
:100F500070BD00BF182501082725010800100140B9
:100F600000080140000C01402DE9F0412021044619
:100F70008CB0A14806F0E2F9A04D2B7883420DD049
:100F800020219D4806F0DAF9287004F1180001F0DC
:100F90006FF918B91E219A4801F062F904F10805A9
:100FA0002E464FF0010804F15807284601F062F977
:100FB000284601F06DF958B135F8041C55F8080CB5
:100FC00006F0BCF908B985F80480284601F04CF910
:100FD0001035BD42E9D10023022701258DF80430E8
:100FE0008DF80730237F8DF805708DF80650002BA3
:100FF00052D0B4F84410206C06F0A0F990B904F176
:101000004805284601F034F910B1284601F02CF9C2
:101010007C4808F00DF97C4808F090F907238DF81A
:10102000043007E0774808F003F9784808F086F9BB
:101030008DF8047001F074FA01A901F0C7FA94F870
:101040004C30EBB1A18A206906F078F9002840F015
:101050008A8004F11805284601F00AF910B12846E3
:1010600001F002F9674808F0E3F8694808F066F90A
:1010700007238DF8043001F053FA01A901F0A6FA14
:1010800000232373237784F82C3084F83C3084F8D1
:101090004C300CB0BDE8F081237BFBB1B4F84410B8
:1010A000206C06F04BF980B904F14805284601F0A0
:1010B000DFF810B1284601F0D7F8524808F0B8F828
:1010C000544808F03BF90623A9E74E4808F0B0F869
:1010D000514808F033F98DF80450ABE794F82C3000
:1010E000F3B1B4F84410206C06F028F980B904F18B
:1010F0004805284601F0BCF810B1284601F0B4F8C4
:10110000404808F095F8454808F018F9082386E7A4
:101110003C4808F08DF8424808F010F903237EE7B8
:1011200094F83C30002B8AD0B4F84410206C06F0C0
:1011300005F980B904F14805284601F099F810B185
:10114000284601F091F82F4808F072F8354808F069
:10115000F5F8092363E72B4808F06AF8324808F0ED
:10116000EDF804235BE7A188206806F0E7F870B982
:10117000304601F07DF810B1304601F075F8214895
:1011800008F056F8294808F0D9F8062371E7A18C31
:10119000206A06F0D3F880B904F12805284601F04A
:1011A00067F810B1284601F05FF8164808F040F8DB
:1011B0001F4808F0C3F808235BE7A18E206B06F0F8
:1011C000BDF880B904F13805284601F051F810B196
:1011D000284601F049F80B4808F02AF8154808F0AD
:1011E000ADF8092345E7074808F022F8124808F04F
:1011F000A5F805233DE700BF0010014020000020B6
:101200006401002018250108442501085E25010815
:10121000F225010870250108882501089825010894
:10122000B2250108C4250108DF2501080C260108A4
:10123000242601083E260108592601080122022120
:10124000014806F081B800BF0010014000220221D1
:10125000014806F079B800BF00100140802210B5A7
:101260004FF400744FF48073028184844FF48052F1
:101270004FF480648382104B0286A0F84C40A0F8A3
:1012800068204FF400444FF400620361436003623E
:1012900083644366836500230849A0F85C20C1622B
:1012A000A0F84040C16300F170020376037300F8B8
:1012B0001C3B9042F9D110BD0010014000080140D4
:1012C000F8B504460226012700F1700521896068FF
:1012D00006F034F8B0FA80F040092073A18A206942
:1012E00006F02CF800280CBF012300232376237B73
:1012F00007D0002B18BF3B4623701C34A542E5D114
:10130000F8BD002BF9D12670F7E7FFF7D9BF000031
:101310001C235843024B185C431E584258417047E7
:101320009C0100201C235843024B185C831E58422A
:10133000584170479C01002010B5044600F044FA63
:101340002046CC2100F09AFA2046BDE81040442106
:1013500000F094BA2DE9FF410B780746282B0C4684
:10136000164603D0002004B0BDE8F08100F06BFA0F
:101370000028F7D0384600F027FA2146384600F01A
:1013800013FB01ADBE21384600F078FA0924A846C7
:10139000384600F083FA013C14F0FF0405F8010B15
:1013A000F6D10821404600F00CFB9DF80C3083423A
:1013B00050D1BDF80480384600F006FA18F4004F0A
:1013C00018BFC8F100089DF8083018BF1FFA88F848
:1013D000C3F341134FEA181707F0700214BF012539
:1013E000254648F30717022B03F1090147EA0207D4
:1013F00022D00C2927D00A2917D0C8F3C000FFF744
:101400007FFB4FF07C51FFF7CFFB04463846FFF7D8
:1014100077FB2146FFF7C0FA01461DB10020FFF718
:10142000B9FA0146012031609DE7C8F38100FFF75A
:1014300067FB4FF07A51E6E7C8F34200FFF760FB25
:101440004FF07851DFE708F00F00FFF759FB4FF03E
:101450007651D8E7204686E732232DE9F047224D22
:10146000064622482B80FFF767FF642005F066FAE6
:101470001E4C204600F0E7F948B12B8883B10027C5
:10148000DFF86CA0DFF86C80DFF860901DE00A20C8
:1014900005F054FA2B88013B9BB22B80002BE8D13E
:1014A000134B1B78B3B10022124B1A7312E0642065
:1014B000240105F043FA04F1080244442146484659
:1014C0004244FFF747FF013720739AF80030FCB21F
:1014D000A342ECD8074B28889B68003818BF01202E
:1014E0003360BDE8F08700BF0C020020100200202E
:1014F00021000020280200202DE9F8430B78044643
:10150000282B0E4691465CD100F05EF9314620460C
:1015100000F04AFABE21204600F0B0F9204600F063
:10152000BDF9204600F0BAF9204600F0B7F9804630
:10153000204600F0B3F90746204600F0AFF9B9F1B4
:10154000090F054626D100F09F05204600F03CF922
:101550003146204600F028FA4E21204600F08EF950
:101560004146204600F08AF93946204600F086F9C7
:101570002946204600F082F9204600F025F9314640
:10158000204600F011FA2046482100F077F90120AA
:10159000BDE8F883B9F10A0F04D100F0BF0545F0AA
:1015A0002005D2E7B9F10B0F04D100F0DF0545F0BB
:1015B0004005CAE7B9F10C0F04BF40F06005EDB279
:1015C000C3E70020E4E770B50B780446282B0D46EE
:1015D0003DD100F0F9F82946204600F0E5F9BE219A
:1015E000204600F04BF9204600F058F9204600F064
:1015F00055F9204600F052F9204600F04FF92046F8
:1016000000F04CF90646204600F0DEF82946204658
:1016100000F0CAF94E21204600F030F97D21204625
:1016200000F02CF9C921204600F028F93146204667
:1016300000F024F9204600F0C7F82946204600F0C3
:10164000B3F92046482100F019F9012070BD0020AF
:10165000FCE700002DE9F84305242C4F2C4E2D4DBE
:1016600040223946304600F089F8002340F6B7386A
:101670002B7005F05DF9404514D9304600F07BF938
:10168000DFF89490DFF8948089F8000099F8003032
:1016900063B92A78EAB9013C14F0FF04E0D120468E
:1016A000BDE8F883642005F049F9E2E7642005F01D
:1016B00045F9297830460131C9B22970013908EB62
:1016C000011100F073F9304600F05BF989F8000071
:1016D000DCE71C46DFF844800D4FE6B2322008EB11
:1016E000061605F02BF90C2231463846FFF704FFA9
:1016F000322005F023F931463846FFF764FF013404
:101700002A78E3B29A42E8D80120C9E700080140EC
:1017100010020020210000202402002028020020C6
:101720000022034B1B685A625A6A8242FCD97047F6
:10173000BC080020838802681B04136170471FB532
:101740000023CDE9013303230393838869460068AE
:10175000009305F019FD05B05DF804FB1FB51122DB
:101760000023CDE90123032303938388694600689E
:10177000009305F009FD05B05DF804FB70B5044663
:101780000E4615460F4806F03BFE20462660A58013
:10179000FFF7E4FF2368A2884FF47A701A6105F01E
:1017A000CDF82046FFF7C6FF4FF47A7005F0C6F873
:1017B0002368A2884FF4FA60BDE870401A6105F012
:1017C000BDB800BFBC08002010B50446FFF7B2FF4B
:1017D000FFF7C4FF4FF4F070FFF7A2FF1420FFF7EC
:1017E0009FFF2046FFF7ABFF4620FFF799FFA18838
:1017F000206805F0A3FD01464FF4CD70FFF790FF80
:10180000084610BD10B5044689B1FFF793FFFFF7F6
:10181000A5FF0A20FFF784FF2046FFF790FF37203F
:10182000FFF77EFF2046BDE81040FFF788BFFFF7B7
:1018300081FFFFF793FF4120FFF772FF2046FFF77C
:101840007EFF0520ECE710B50446FFF773FFFFF7B6
:1018500085FF0220FFF764FF2046FFF770FF0A2094
:10186000FFF75EFFA188206805F068FD0146322081
:10187000FFF756FF081E18BF012010BD70B50646C1
:101880000D460924013C14F0FF0400D170BD05F0A1
:1018900001013046FFF7B6FF6D08F3E770B5064665
:1018A00009250024013D15F0FF0501D1204670BD3A
:1018B0003046FFF7C8FF640844EAC014E4B2F1E719
:1018C0002DE9F047037A04460E461BB9FFF77CFF6B
:1018D000054620B10020E0802072BDE8F087012796
:1018E00031462046FFF7CAFFA9463E462046FFF78D
:1018F000AAFF804682462046FFF7A5FFB8F1010FF8
:101900000FD1012816D1402EE4D984F80690B9F100
:10191000000F01D101232372637A002BDAD001205A
:10192000DBE762198045537A21D1A179B14217D9F9
:101930003B4216D04FF0010A6219537A3B4353726F
:10194000514620467F00FFF75DFF013617F0FF0785
:10195000F6B2CBD10135EDB2082DD4D00127C5E7C1
:10196000E8D0082E00D8E6714FF0000AB14623EA0D
:1019700007035372E4E70022F021C2800272FFF7EE
:101980009FBFF021FFF79CBF70B50C46552106465E
:10199000FFF774FF651E073415F8011F3046FFF787
:1019A0006DFFA542F8D170BDFFF7EEBF00F109034E
:1019B0000139113013F8012B834201F8012FF9D1BD
:1019C000704703460144002030B58B4200D130BD42
:1019D000082213F8014B80EA040515F0010F4FEAC5
:1019E000500018BF80F08C0002F1FF3218BFC0B267
:1019F00012F0FF024FEA5404EDD1E6E710B50446B9
:101A00000846114600F014FA00232060237110BD2F
:101A10000079704770B50E4604220546006800F054
:101A2000B1FAF278044622B12868311D00F0AAFA12
:101A3000044624B92B7901332B71204670BD054D26
:101A4000286807F0F5FB044807F078FCE86907F020
:101A5000EFFBF2E7240000206C26010870B5047942
:101A600005460E467CB10422006800F0B3FAF27815
:101A7000044622B12868311D00F0ACFA044624B9AE
:101A80002B79013B2B71204670BD054D286807F06E
:101A9000CFFB044807F052FCE86907F0C9FBF2E706
:101AA000240000208A2601080023F0B587B00293A5
:101AB00001230F4613490446CDE90413164605F0E9
:101AC00067FA01A902A805F00BFB08B103F056FB69
:101AD00005F070FA002505F05BFAAE4204DC05F073
:101AE00069FA002007B0F0BD00232146022057F814
:101AF000252005F093FA10B904340135EDE703F021
:101B00003DFBEAE700FC01080A4601460148FFF7F1
:101B1000CBBF00BF00FC01084FF6FF7310B5401AA1
:101B2000013A0C5892B29A4241F8044BF8D110BDD8
:101B30000A4601460148FFF7EFBF00BF00FC01085D
:101B400010B500248AB01C22214603A8CDE9014427
:101B500006F09CFF4F234FF080422048C0E900234D
:101B600013238460C0E90334846106F0D5FC08B116
:101B700003F004FB194801A9CDE9014406F0BEFEBB
:101B800008B103F0FBFA00226023144803A9CDE951
:101B900003320592079206F017FD08B103F0EEFA42
:101BA00004220E4803A906F00FFD08B103F0E6FA7F
:101BB00008220A4803A906F007FD08B103F0DEFA7F
:101BC0000C2206480DEB020106F0FEFC08B103F002
:101BD000D5FA024803F08AFB0AB010BD3802002093
:101BE00010B500248AB01C22214603A8CDE9014487
:101BF00006F04CFF4F234FF080422048C0E90023FD
:101C000013238460C0E90334846106F085FC08B1C5
:101C100003F0B4FA194801A9CDE9014406F06EFEBB
:101C200008B103F0ABFA00226023144803A9CDE900
:101C300003320592079206F0C7FC08B103F09EFA42
:101C400004220E4803A906F0BFFC08B103F096FA7F
:101C500008220A4803A906F0B7FC08B103F08EFA7F
:101C60000C2206480DEB020106F0AEFC08B103F0B1
:101C700085FA024803F03AFB0AB010BD800200204A
:101C800038B50422002408200C210A4B0A4DC3E970
:101C90000142C3E90742094AC3E90401C3E90A0151
:101CA0001D60DD609A615A62FFF74AFFBDE8384067
:101CB000FFF796BFC80200208002002038020020F3
:101CC0002DE9F0410C2646430F4F044607EB06086A
:101CD0000D46B859D8F8081006F00EFEBB59D8F8D2
:101CE00004101B6839B95D630C2044433859BDE8C2
:101CF000F04106F0C3BD042901D19D63F4E7082932
:101D00000CBFDD631D64EFE7C80200202DE9F04140
:101D10000C2646430F4F044607EB06080D46B859FC
:101D2000D8F8041006F0E8FDBB59D8F808101B6875
:101D300039B95D630C2044433859BDE8F04106F0E1
:101D40009DBD042901D19D63F4E708290CBFDD6323
:101D50001D64EFE7C802002070B50C244443064D13
:101D60002E19B168285906F0C7FD71682859BDE8D9
:101D7000704006F0C1BD00BFC80200204FF0E02255
:101D8000D2F8FC3D43F08073C2F8FC3D4FF0604256
:101D9000D2F8003E43F00103C2F8003E704730B570
:101DA000002304464FF060420846834200DB30BD0A
:101DB000D2F8801ECD0707D5D2F8001EC90703D57B
:101DC000E15C156815B111700133EEE700BFF8E76B
:101DD00008461146FFF7E3BF08B528B94E21074B67
:101DE000074A084806F0B8FD037C2BB983684068B1
:101DF0001B1A5842584108BD0020FCE7D6260108AE
:101E0000A2270108D926010808B528B98921054B60
:101E1000054A064806F0A0FD00230374C0E901331B
:101E200008BD00BFD62601087F270108D926010872
:101E300070B50D46064600B129B969210D4B0E4A11
:101E40000E4806F089FD142006F0E0FD044618B99E
:101E50006C210B4B084AF3E70660C560FFF7D4FF1F
:101E60002046FFF7B9FF18B97221064B024AE7E78F
:101E7000204670BD0327010891270108D9260108D3
:101E8000D62601081227010808B5034628B997216C
:101E9000074B084A084806F05FFD1A7CC06832B953
:101EA000D3E901239A4236BF8018D01AC01A08BD60
:101EB000D626010804280108D926010810B50446D1
:101EC00028B9BE21044B054A054806F045FDFFF739
:101ED000DBFFE368181A10BDD6260108E9270108C0
:101EE000D926010808B508B103682BB9CA210F4BE0
:101EF0000F4A104806F030FD42689954037CC168CF
:101F000033B182680132B2FBF1F301FB132282602C
:101F100043680133B3FBF1F201FB12338268436083
:101F2000D21A53425341037408BD00BF2B27010846
:101F3000D9270108D926010870B50D46044610B10D
:101F400009B106682EB9DA210B4B0C4A0C4806F091
:101F500003FDFFF741FF68B9A368F35C2B70A3682A
:101F6000E2680133B3FBF2F12074012002FB11336C
:101F7000A36070BD0020FCE73C270108C9270108C9
:101F8000D9260108F8B50C461546064608B103687F
:101F90002BB9F3210C4B0D4A0D4806F0DDFC077CF4
:101FA00077B9FFF78BFFA8420CD32544AC4201D18F
:101FB0003846F8BD304614F8011BFFF793FFF5E7EC
:101FC0000127F5E70227F3E72B270108B7270108C8
:101FD000D926010870B50C46064638B103682BB106
:101FE00021B18D18AC4208D1002070BD40F215110E
:101FF000064B074A074806F0AFFC21463046FFF77C
:102000009BFF01340028EDD10320EEE7552701089E
:102010006E270108D92601087FB5002364218DF8B9
:1020200017300123CDE901310DF11701024600916E
:102030000448D12105F0AEFC9DF8170007B05DF80B
:1020400004FB00BF680800207FB501238DF817103E
:102050006421CDE901310DF11701024600910448D8
:10206000D02105F007FC002007B05DF804FB00BF9D
:1020700068080020002108B50846FFF7E5FFBDE825
:1020800008400020FFF7C8BF0A22B0FBF2F302FBB2
:10209000130000EB0310C0B2704784B038B504AC35
:1020A00084E80F00002108469DF81450FFF7CCFF8C
:1020B0009DF81600FFF7E8FF01460020FFF7C4FF78
:1020C0009DF81500FFF7E0FF01460120FFF7BCFF78
:1020D0002846FFF7D9FF9DF82140014654B99DF8E5
:1020E0002030022B0BBF40F0600101F0DF01C9B2CC
:1020F00041F040010220FFF7A7FF9DF81C00FFF709
:10210000C3FF01460320FFF79FFF9DF81E00FFF766
:10211000BBFF01460420FFF797FF9DF81200FFF771
:10212000B3FF01460520FFF78FFF9DF81000FFF772
:10213000ABFFBDE83840014604B00620FFF784BF7E
:10214000030903EB830300F00F0000EB4300C0B270
:10215000704710B504460020FFF75EFF00F07F00D7
:10216000FFF7EEFFA0710120FFF756FFFFF7E8FF32
:1021700060710220FFF750FF00F01F00FFF7E0FF43
:1021800020710320FFF748FFFFF7DAFFA08104204A
:10219000FFF742FFFFF7D4FFE0810320FFF73CFF8A
:1021A000FFF7CEFFE0700520FFF736FFFFF7C8FF0F
:1021B000A0700620FFF730FFFFF7C2FF208002204B
:1021C000FFF72AFF00F02000FFF7BAFF002814BF36
:1021D00002230123237410BD014B1B681B681847A1
:1021E0005000002084B013B504AC84E80F00074B06
:1021F0001C68BDF82030ADF8003004AB64680FCB2C
:10220000A04702B0BDE8104004B070475000002065
:10221000014B1B689B6818475000002000B589B02F
:1022200003A8FFF7F5FF9DF81C000A490A4B9DF82B
:102230001120012818BF0B46BDF81A10CDE9002364
:1022400006489DF810309DF80E2006F0F1FF09B009
:102250005DF804FB202801081D2801082328010837
:10226000012301804380704700230380438070472F
:10227000807870470246807848B1138813B90123EB
:10228000D3707047013B9BB21380002BF7D070478F
:10229000C0787047014B1870704700BFF8020020EB
:1022A000014B1878704700BFF80200200120FFF7AB
:1022B000F1BF000008B5FFF7F3FFD0B10D48FEF7FE
:1022C00053FE0D48FFF721F801F0FEFE02F00EFD6F
:1022D00000F0E0FC00F0E6FD00F0D0F900F0C2FBF9
:1022E00000F036FC00F06FFCBDE808400020FFF76E
:1022F000D1BF08BD4C0100209C0100200048704760
:10230000F9020020024B00EB40001844704700BF68
:10231000FF02002038B50025032304460372C37270
:10232000837343744571857145720573C5730548A0
:1023300006F07EFF044807F001F801236570237062
:10234000A57038BD68280108772801082DE9F047F5
:1023500003780446012B40F0A4808778012F4BD1ED
:10236000C178037901EB4106064496F80780B37102
:1023700008F1FF33012B5B4801F1010507D806F096
:1023800057FF42462946584806F052FF06E006F03D
:102390004FFF2946554806F04BFF37720023A370C4
:1023A00025460127DFF83C81DFF84491DFF844A19E
:1023B0007E1EF6B23046FEF7B5FF002838D0304614
:1023C000FEF7A6FFA0BB0323EB712B7A002B43D0B3
:1023D000032B68D1EB79032B36D100232B72012319
:1023E0004046AB7106F024FF3946504606F020FF08
:1023F0003046FFF7B1FC2FE0022FD1D1C17801EBBD
:1024000041060644F7793748FB1E012B01F101050F
:1024100005D806F00DFF3A4629463748B4E706F0DE
:1024200007FF2946354806F003FF03233372B5E75B
:102430003046FEF777FF0028C7D13046FEF768FF29
:102440000028C2D00123BFE7042B05D004230A21B2
:102450003046EB71FFF75AFC0137052F05F10305F4
:10246000A6D104F065FA264D2B68C01AB0F5FA6FB4
:1024700017D904F05DFA286001251A4E214FDFF8C4
:102480008880231D05EB45029B5C022B21D1304641
:1024900006F0CEFE2946404606F0CAFE0135052D5F
:1024A000EFD1BDE8F087012BD6D1EB79012B07D115
:1024B000002340462B7206F0BBFE3946484695E79E
:1024C000022BC9D00A213046FFF7FAFB0223EB7139
:1024D000C2E7042BE2D1304606F0AAFE2946384670
:1024E000DAE700BF682801088E280108BC28010827
:1024F0004D29010826290108D928010808290108C1
:102500000C0300209B290108722901080B785A1E30
:10251000012A04D883700B79C3704B79037170471B
:10252000004870471003002070B505780446012D5F
:1025300002D0022D38D070BD63783030012B2DD100
:102540000226251D2946FFF789FAA3792680013B3B
:10255000052B09D8DFE803F00308100A161C01F068
:10256000B3FD294602F0D1FB6670E4E700F086F87F
:10257000294600F07BFAF7E7FFF7C0FE2946FFF790
:10258000C5FFF1E700F086FB294600F08FFCEBE782
:1025900000F0A0FA294600F0A5FAE5E7FFF738FABF
:1025A0000028C8D06570C6E74378022B04BF01231A
:1025B0000380C0E710B5C822044603493030FFF756
:1025C0001DFA0123238010BD4803002038B58B7805
:1025D0000C46013B062B08D84B78013B062B04D850
:1025E000BDE838403030FFF715BA064D286806F0D0
:1025F0001FFEA2786178044806F01AFEE86906F02A
:1026000017FE38BD24000020C529010810B5044676
:10261000094806F00DFE094806F090FE01232370DC
:10262000002304F11A002371237648F6B801BDE8AF
:102630001040FFF715BE00BFEA290108F429010880
:10264000042300B58DB08DF8053003238DF80630D6
:1026500002238DF8073001238DF808108DF809301A
:102660008DF80400FFF75CFF01A9FFF7AFFF0DB085
:102670005DF804FB004870473004002000487047B4
:1026800010040020F8B500F12006A4220021044621
:10269000304606F0FBF9344806F0CAFD334806F030
:1026A0004DFE02F0E1FE03780546002B53D00246B2
:1026B000A43092F83C30013B012B22D81346002174
:1026C0009F7E1F2F1DD8DF7E0C2F1AD8DF7D0C2F89
:1026D00017D81F7D0C2F14D80131052903F10803E9
:1026E000EED129328242E4D11F4806F0A1FD2048F4
:1026F00006F024FEA422304605F1140106F09EF9EE
:1027000029E0194806F094FD1A4806F017FE012644
:1027100021460022022504F1A4070B46002081F87F
:1027200048600130052883F8262083F8272083F8A5
:10273000232083F8242083F8255083F8202083F871
:10274000212083F8225003F10803EAD12931B9424C
:10275000E3D102F05FFE00232046A4F8C430BDE8B8
:10276000F840FFF753BF00BFEA2901080C2A01080F
:102770008F2A01083D2A01082DE9F04F037804460D
:10278000012B91B008D0023B012B00F24A8111B01D
:10279000BDE8F04FFFF73ABF0579012D75D1A2488A
:1027A00006F046FDA14806F0C9FD002602239E481A
:1027B00023702671267606F03BFD9D4806F0BEFD8F
:1027C000E37A8DF83D60ADF83A30237B84F8C5504C
:1027D0008DF82E302389ADF83030A37A8DF83C3057
:1027E000BDF83C30ADF800300BAB0FCBFFF7FAFC77
:1027F000FFF714FD04F11A00FFF74AFD002800F06E
:10280000108100260BA8FFF703FD9DF83A3086489B
:1028100008939DF82E30DFF81CA209939DF8303004
:10282000DFF8048205939DF8313006939DF83C3023
:10283000079306F0FDFCDDE90812079B7E485AF875
:1028400023300193069B0093059B06F0F1FC04F1F5
:10285000280304935FFA86FB5846FFF753FD03787D
:102860000746022B06F1010644D1404606F0E0FC83
:1028700031467A78714806F0DBFC049B042E03F1A4
:1028800029030493E6D1204681E7022DB2D16648A0
:1028900006F0CEFC6A4806F051FD0323292223707E
:1028A0000023207C666902FB004000F120053146D0
:1028B00028462371237606F0B1F830B95A4806F05D
:1028C000B7FC604806F03AFD94E7574806F0B0FCC4
:1028D0005D4806F033FD3146284606F1280351F8DD
:1028E000042B994240F8042BF9D10B78037002F0C5
:1028F00091FD7FE7049BDFF85491A3F12805049B29
:1029000093F82030012B19D195F82630089A93427C
:1029100004D195F82730099A93420FD0404606F02B
:1029200087FC3146D9F80020494806F081FC049B19
:1029300008359D4209F10409E1D19EE795F8203060
:10294000059A93422BD195F82130069A934226D1CD
:1029500095F82230079A934221D1404606F068FC50
:10296000D9F8001095F8273095F82620039195F8AE
:10297000251038485AF82110029195F8211001913C
:1029800095F820100091314606F052FC7B78032B1D
:1029900037D1BB78ABBB59460120FFF751FE95F804
:1029A0002330059A9342C2D195F82430069A934277
:1029B000BDD195F82530079A9342B8D1404606F02C
:1029C00037FCD9F8001095F8273095F826200391A8
:1029D00095F8251020485AF82110029195F82410F6
:1029E000019195F823100091314606F021FC7B7887
:1029F000012B0ED1BB7863B959460220FFF720FEA8
:102A000095E7404606F014FC3146144806F010FCE9
:102A1000C5E7404606F00CFC3146114806F008FCBC
:102A200085E711B0BDE8F08FEA290108C52A010841
:102A3000E52A01085400002023280108742B01080E
:102A40000D2B01082D2B01085A2B010860000020D6
:102A5000A32B0108D52B0108552C01082B2C0108AC
:102A6000AC2C01081A30FFF705BC00002DE9F0413D
:102A700091F800800546B8F1010F0C461BD100F11A
:102A800008070E1D3146384605F0C8FF38B90F4813
:102A900006F0CEFBBDE8F0410D4806F04FBC3146D4
:102AA00085F80480143451F8043BA14247F8043BF4
:102AB000F9D1BDE8F081B8F1020FFAD180F80480B5
:102AC0000B6943610B7B0374F3E700BFEA2901083C
:102AD000D62C010800487047E004002000487047E9
:102AE000EC0400200B785A1E062A98BFC37070476A
:102AF00010B5FEF7E7F9074B1C881880844294BF95
:102B000003240424FEF7EFF913288CBF204602208B
:102B100010BD00BFF0040020012310B50370002396
:102B200083710446FFF7E4FFA070FEF7CBF9A080A5
:102B3000FEF7D9F9A378E070022B08BFA37104F166
:102B4000080044F62061BDE81040FFF789BB000093
:102B500000487047F2040020FFF7DEBF38B5037865
:102B60000446012B02D0022B25D038BD837900F119
:102B70000805022B15D1037000238371FFF7B8FFFE
:102B8000A070FEF79FF9A080FEF7ADF9322888BF4C
:102B90000323E07044F62061284688BFA371FFF745
:102BA0005FFB2846FFF774FB0028DED02046BDE817
:102BB0003840FFF7B1BF8379032B01D1FFF7ACFF9A
:102BC00004F10800EEE70830FFF754BB10B50446E7
:102BD000084806F02DFB084806F0B0FB01232370DF
:102BE0000023201DA3704EF66021BDE81040FFF7C2
:102BF00037BB00BF722D01087F2D01080269836871
:102C0000407B012808D1191D91420CDB043B934203
:102C1000D4BF00200120704703F10901914201DB7C
:102C2000093BF4E70120704713B5437B0446012BB1
:102C300001A80FD1FEF710FC0198FEF705F92061FD
:102C40000F4806F0F5FA21690E4802B0BDE81040C1
:102C500006F0EEBAFEF700FC0B490198FDF7A4FF61
:102C60000A49FEF755F84FF08441FDF795FEFEF74F
:102C7000EBF82061024806F0DBFA21690448E4E73A
:102C8000722D01089B2D0108000010410000A0409A
:102C9000C32D010800487047000500200048704718
:102CA0000805002038B503780446012B02D0022B1A
:102CB0004ED038BD051D2846FFF7EAFA0028F8D0A7
:102CC0002046FFF7B1FF2046FFF798FF20B3237B94
:102CD0002846012B32D1FFF7C7FA334806F0A8FA8D
:102CE000324806F02BFB022323700023A370637B82
:102CF0002269012BA3681BD1191F8A4213DA022310
:102D0000A3704EF660212846FFF7AAFA264806F07F
:102D10008FFA274806F012FB2846BDE838404EF6E9
:102D20006021FFF79DBA04339A42EADD0323E7E707
:102D3000A3F109018A42E2DB0933F5E7FFF794FAD0
:102D40002046FFF743FF184806F072FA1948E1E7FA
:102D50008378022B1FD1FEF779FA134806F068FA40
:102D6000154806F0EBFA0023A370251D2846FFF74F
:102D70008FFA00289DD02046FFF756FF2046FFF728
:102D80003DFF0028C8D12846FFF76EFA2046BDE86F
:102D90003840FFF71BBF032BE7D1FEF74FFA02487D
:102DA00006F046FA0548DCE7722D0108EE2D010811
:102DB0000A2E0108312E0108592E0108802E010823
:102DC00038B505462C4806F033FA2C4806F0B6FA1A
:102DD00002F04AFB03780446002B3ED0037A013B05
:102DE000012B3AD8437A013B012B36D8224806F012
:102DF0001FFA234806F0A2FA1F4806F019FA214AE2
:102E0000214B217A214801290CBF1146194606F0B1
:102E10000FFA194806F00CFA1D4B1E4A617A1E483B
:102E200001290CBF1146194606F002FA124806F0B5
:102E3000FFF96168194806F0FBF9237A2B73637A6E
:102E40006B736368AB602846FFF7EEFEFEF7FEF992
:102E50002846BDE83840FFF7B9BE074806F0E8F954
:102E60000F4806F06BFA1423AB6040F20113AB81FC
:102E700002F0D0FAE7E700BF722D01080C2A010822
:102E8000C92E0108A72E0108AE2E0108002F010847
:102E9000BE2E0108B62E01081A2F01082E2F010898
:102EA000412F01080430FFF7E5B9000038B50B7871
:102EB000012B32D10A7A531E012B22D84B7A5C1E89
:102EC000012C1ED84C688568A5420BD185890989DB
:102ED0008D4207D1114806F0ABF9BDE838401048E3
:102EE00006F02CBA01214373C170846002730B4851
:102EF00006F09EF90B4806F021FABDE8384002F0D2
:102F000089BA094C206806F093F9084806F016FAC9
:102F1000E069BDE8384006F08BB938BD722D010874
:102F2000722F0108A32F010824000020BD2F0108E3
:102F300042684188008802F063BE10B504464FF62F
:102F4000FF7002F039FD2088E388A288618802F0D2
:102F50006FFFBDE81040002002F02EBD10B5044602
:102F6000084602F029FD2088E388A288618802F0E3
:102F70005FFFBDE81040002002F01EBD70B5164690
:102F80000D460446184602F017FD304602F020FDBB
:102F90002A4661882088032302F0FCFE044802F0E0
:102FA00017FDBDE870404FF6FF7002F00BBD00BF8B
:102FB0001800002070B504460E461546104602F073
:102FC000FBFC20882B463246618803F063F8BDE89D
:102FD00070404FF6FF7002F0F5BC10B5044608468D
:102FE00002F0EAFC2088E388A288618802F076FD7E
:102FF000BDE81040002002F0DFBC10B504460846D2
:1030000002F0DAFC20886188072202F01FFFBDE889
:103010001040002002F0D0BC0D4A0E4B026102F1BC
:103020001012C0E9082382610B490C4A4361C0E9D0
:1030300000120B4AC3618260D3F81620103AC28195
:10304000D3F81230183B8381064B8362704700BF70
:1030500072011A0068D700086E010A006000510072
:103060008301220092012C0011B11030FFF760BFE4
:10307000FFF763BF2DE9F7438B780446012B0D461C
:1030800015D11F21FFF7A9FF04F108073846FFF704
:1030900054FF2B78022B18D0032B19D0012B4FD1C2
:1030A00004F1180003B0BDE8F043FFF741BF4FF64D
:1030B000FF7002F081FC2088E388A288618802F01A
:1030C0000DFD002002F078FCDEE704F12000E9E7C6
:1030D000A089FDF78FF96D78804628468946FDF76F
:1030E00089F900221E4BFDF719FB0B4602464946A3
:1030F0004046FDF7E9F9FDF7F9FB002681462A462F
:103100001849684600968DF8046006F02FF9484685
:10311000FDF79AFE6B1E0F2BB4F80C80A08112D81D
:103120004FF478413846FFF719FF334669460E4A97
:1031300004F12800FFF722FF5FFA88F8A4F80C805A
:1031400003B0BDE8F083A5F11103342B02D84FF68C
:10315000E071E7E7463D1E2DEED84FF4FC61E1E754
:10316000000059405F300108000000200F23038059
:103170000A2343805123C380842383801323038144
:103180000E2343814923C3817C238381322383829D
:103190001923C382704700002DE9FF410023044634
:1031A00000938DF8043081B319460830FFF715FFFE
:1031B0000125174EDFF85C80174F328823890021E4
:1031C000134423827288638904F1100013446382DC
:1031D000FFF703FF238A2A460F33ADF80830638ACE
:1031E000414604336846ADF80A30013506F0BEF8B2
:1031F00000233A46694602A8FFF7C0FE052D06F1F6
:103200000406DAD104B0BDE8F081FFF796FEF9E7D5
:10321000F030010846310108000000207FB50D465E
:1032200001210446FFF7B8FFAB78012B2FD11F21F6
:103230002046FFF7D2FE1D4EEB78012B25D1697891
:103240001B4B228933F8210003EB810302445B8886
:10325000228262891F211344638204F11000FFF768
:10326000BCFE238A6A780F33ADF80830638A1149AF
:10327000043301326846ADF80A3006F077F81F23B0
:103280003246694602A8FFF779FE04B070BD4FF6DA
:10329000FF7002F091FBE388A2886188208802F029
:1032A0001DFC002002F088FB034EC5E71000002043
:1032B000F030010846310108080000201323038084
:1032C000622343804FF4DD738380D823C3804FF49F
:1032D000CE73038189234381242383811223C381F5
:1032E0008323F0B54FF0A10C9E46B527EE264FF490
:1032F00086754FF4907440F2591140F27712438270
:1033000043834384438543864387A0F84A30A0F82B
:10331000423021339BB2B3F5947FA0F810E0A0F8BF
:1033200018C00784068505860487A0F84810A0F811
:10333000402000F14000E2D1F0BD00002DE9F3474C
:103340000646002979D00021FFF747FE002106F14B
:103350000800FFF742FE00253A4C3B4FA288338815
:1033600068461344ADF80030E288738854F8081BAF
:103370001344ADF802303A4600230135FFF7FEFD55
:10338000042DEBD12127DFF8C4902F4DDFF8C0804A
:1033900006F1100433882A460233ADF800307388F2
:1033A00068463B4459F8041BADF802300023FFF790
:1033B000E5FDDFF8A0A0204600232A462649FFF7B6
:1033C000DDFD04F1080000232A464146FFF7D6FD43
:1033D00004F1100000232A46DAF80410FFF7CEFDAE
:1033E00004F1180000232A461B49FFF7C7FD04F12A
:1033F000200000232A464146FFF7C0FD04F12800C3
:1034000000232A46DAF80410FFF7B8FD213704F14B
:10341000380000232A461149FFF7B0FDBFB204F17E
:10342000300000232A464146FFF7A8FDC62F04F1CD
:103430004004AFD102B0BDE8F08702B0BDE8F0476C
:10344000FFF77BBD0031010800000020203101089A
:103450006830010854000020643001086B30010816
:1034600073B591F82C300546012B4B780C4614BFF0
:1034700000261F26082B00F2A880DFE803F00518BD
:1034800028394959667686000B78684601EBC303F4
:103490009A78514905F06AFF3346694620784F4AC9
:1034A00005EB80101030FFF769FD02B070BD0B789E
:1034B000684601EBC303DA78474905F057FF2078E7
:1034C000334605EB80106946444A1830EBE7334633
:1034D0000878424A01EBC0042479414905EB801089
:1034E00051F82410203002B0BDE87040FFF746BD0F
:1034F0000B78684601EBC3035A79374905F036FF6C
:103500002078334605EB80106946344A2830CAE7F4
:103510000B78684601EBC3039A792F4905F026FF23
:103520002078334605EB801069462C4A3030BAE7E4
:103530000878334601EBC0042479294905EB801053
:10354000264A51F824103830CDE70B78684601EB55
:10355000C3031A7A204905F009FF2078334605EBAA
:10356000801069461D4A48309DE70B78684601EB9C
:10357000C3035A7A184905F0F9FE20783346013022
:103580006946164A05EB80108DE731460830FFF793
:1035900024FD2B8968460133ADF800306B89013377
:1035A000ADF80230AB89023BADF80430EB89023B49
:1035B000ADF8063094F82A30022B0CBF4FF4FC61B2
:1035C0004FF6FF71FFF7CAFC6FE7064802B0BDE88F
:1035D000704005F02DBE00BF6F30010800000020D4
:1035E00054000020743001081123038074234380A9
:1035F0004FF4DD738380A123C38043230381912390
:103600004381438240F233130383BA23D02243839E
:1036100040F26513028203854FF4CB72A623028425
:10362000438543847047000010B5044629B3002247
:1036300014490830FFF7BEFC04F1100000221249C3
:10364000FFF7B8FC04F118000023104A1049FFF7F7
:1036500095FC04F1280000230C4A0E49FFF78EFC6C
:1036600004F1200008490023084AFFF787FC2046A0
:10367000BDE810400021FFF7B0BCBDE81040FFF7E7
:103680005CBC00BF9F300108A3300108100000207F
:10369000692D0108A630010873B50C46CB790546A3
:1036A000012B8B7914BF00261F26012B0CBF1F2175
:1036B0000021FFF792FC2378013B042B0FD8DFE8B1
:1036C00003F003101A29340062781D49684605F09A
:1036D0004DFE3246694605F10800FFF76BFC02B06B
:1036E00070BDA2781649684605F040FE324669462C
:1036F00005F11000F1E7E278124B684653F822100A
:1037000005F054FE334669460F4A05F11800FFF7ED
:1037100035FCE4E722790A49684605F027FE33467E
:103720006946094A05F12800F1E7627904496846CB
:1037300005F01CFE33466946034A05F12000E6E722
:103740006F3001085400002010000020084B094A87
:10375000C360094BDFF824C0C0E90023084B836035
:10376000084BC0E906C3084B0362084B036170476E
:1037700078110108A5000B005A005100B80016008E
:10378000A6000F0006003100BA004700C90024005F
:1037900037B50446B9B325460830FFF7C9FB238B7C
:1037A00000210133ADF80030638B04F118000133C0
:1037B000ADF80230A38B023BADF80430E38B023B43
:1037C000ADF80630FFF709FC002002F0F5F80822FA
:1037D000618C35F8200F02F09DF9002002F0ECF822
:1037E00028464FF6FF71FFF708FC68464FF6FF7159
:1037F000FFF7B4FB0023064A064904F11000FFF767
:10380000BDFB03B030BD03B0BDE83040FFF795BB52
:1038100008000020AA3001082DE9FF410E46CB78B0
:103820004FF6FF71012B08BF1F210446FFF7D5FBA0
:103830003378012B5FD1E08BFCF7DCFD757896F8CF
:103840000280064628460F46FCF7D4FD2EA3D3E996
:103850000023FCF763FF02460B4630463946FCF76F
:1038600033FEFDF743F80023074600938DF804303C
:10387000274B2A4653F828302649684605F076FD3E
:103880003846FDF7E1FAB8F1010F80B2E68BE0832C
:1038900034D1A5F11403312B32D9463D1E2D8CBFF6
:1038A0001F254FF47845238B02380133ADF80830DB
:1038B000638B04F120070133ADF80A30A38B4FF678
:1038C000FF71023BADF80E003846ADF80C30FFF743
:1038D00094FB4FF6FF7102A8FFF740FB29463846DC
:1038E000FFF78BFBF6B2002369460B4A04F1100088
:1038F000FFF744FBE68304B0BDE8F0811F25D2E763
:103900004FF6E075CFE700BF0000000000C0584050
:10391000E4300108AE300108080000200F4A104BC7
:103920001049C0E90023104B104AC0E902134FF0C0
:103930001413DFF83CC0C0E9062302F54812C0E9C1
:1039400008237D32C0E90A23C0E904C3094A0A4BAF
:10395000C0E90C23094B0364704700BF11007400D9
:10396000BA01A100F7008C004A0028002401B5002C
:10397000A101B50016008800B0011E0015018C00E1
:1039800030B504468FB0002900F0898000250388F7
:10399000454A1933ADF80030438844491833684626
:1039A000ADF802302B460195FFF7E8FA238802A80C
:1039B0001933ADF8083063883B4A4633ADF80A3016
:1039C0003B492B460395FFF7D9FA238804A81933FE
:1039D000ADF810306388344A7733ADF8123035498A
:1039E0002B460595FFF7CAFA238806A8A033ADF841
:1039F00018306388304A4633ADF81A302F492B46C9
:103A00000795FFF7BBFA238808A803F59B73ADF869
:103A100020306388284A4633ADF8223028492B46A7
:103A20000995FFF7ABFA23880AA8C833ADF8283008
:103A30006388214A7733ADF82A3022492B460B950B
:103A4000FFF79CFA23881C4A03F5A573ADF83030C4
:103A500063880CA87733ADF832301B492B460D959F
:103A6000FFF78CFA294604F12800FFF7B6FA294639
:103A700004F12000FFF7B1FA294604F11000FFF726
:103A8000ACFA294604F11800FFF7A7FA2B460A4AB8
:103A90000E4904F14000FFF771FA0FB030BD0FB0CE
:103AA000BDE83040FFF749BA08000020DA2F0108CE
:103AB000EB2F0108F22F010800000020FE2F010863
:103AC000093001081130010814300108AA3001083A
:103AD000F0B54B7B0D46012B08BF1F260B7B0EBF9D
:103AE00037464FF6FF760027012B0CBF1F21002120
:103AF00087B00446FFF771FA2B78022B1DD0032BF9
:103B00006CD0012B17D1638831461433638604F1DE
:103B10003000FFF762FA2A7A544B684653F8223095
:103B200053496A6805F022FC3B466946514A04F154
:103B30004000FFF723FA07B0F0BD638831463D33FC
:103B4000638604F13000FFF748FA238B0133ADF8A8
:103B50000830638B0133ADF80A30A38B023BADF81C
:103B60000C30E38B023BADF80E30238A0133ADF805
:103B70001030638A0133ADF81230A38A023BADF8EE
:103B80001430E38A023BADF816302B7A012B17D1A3
:103B900002A8FFF7D2F9002104F11000FFF71DFA87
:103BA0004FF4FC6104A8FFF7D9F92A7A2F4B684635
:103BB00053F822302E496A6805F0D8FB0023B4E799
:103BC000022BF2D104A8FFF7B8F9002104F1180084
:103BD000FFF703FA4FF4FC6102A8E4E7638831467B
:103BE0006F33638604F13000FFF7F7F9238C01335C
:103BF000ADF80830638C0133ADF80A30A38C023B7A
:103C0000ADF80C30E38C023BADF80E30238D013360
:103C1000ADF81030638D0133ADF81230A38D023B47
:103C2000ADF81430E38D023BADF816306B7A012B02
:103C30000DD104A8FFF781F9002104F12000FFF75E
:103C4000CCF94FF4FC6102A8FFF788F973E7022B67
:103C50007FF471AF02A8FFF770F9002104F128008A
:103C6000FFF7BBF94FF4FC6104A8EDE7E43001086D
:103C7000AE30010808000020044B054AC360054B24
:103C8000C0E90023044B8360704700BFF8FA0008C6
:103C900009010B00400051001201140011B108305D
:103CA000FFF746B9FFF749B90B784FF6FF71012BC3
:103CB00008BF1F21FFF791B91123038074234380AC
:103CC0004FF4DD738380A12330B5C3809D2543234A
:103CD0000584038205853923F8259C24F62140229A
:103CE00003830586512305874FF4A97544824183D8
:103CF0008282C382448441858284C384448641870E
:103D00008286C386A0F84050A0F84240A0F84850F0
:103D1000A0F84A10A0F84420A0F8463030BD0000BA
:103D200037B50446002944D000250021FFF755F996
:103D30002388224A6433ADF80030638868460F3325
:103D4000ADF802301E492B460195FFF717F92946B9
:103D500004F11000FFF741F9294604F12000FFF7B4
:103D60003CF9294604F14000FFF737F9294604F1F0
:103D70003000FFF732F92B4604F118000F4A1149C1
:103D8000FFF7FCF82B4604F128000C4A0E49FFF718
:103D9000F5F82B4604F14800084A0C49FFF7EEF805
:103DA0002B46064A0A4904F13800FFF7E7F803B04A
:103DB00030BD03B0BDE83040FFF7BFB808000020B9
:103DC000B5300108C5300108CC300108D2300108F7
:103DD000D830010870B50D468B780446012B2B783E
:103DE00018BF002103F1FF3308BF1F21042B27D880
:103DF000DFE803F00308192404001030BDE8704028
:103E0000FFF7EBB82030FFF7E8F82B7904F1280032
:103E10002BB90C4A0C49BDE87040FFF7AFB800233E
:103E2000084A0A49F7E73030FFF7D7F86B7904F111
:103E30003800002BF3D1034A0549ECE74030DDE7B9
:103E400070BD00BF08000020CC300108DD30010843
:103E5000D830010811230380742343804FF4DD73AD
:103E60008380A123C3802F230381B0234381704724
:103E700011B10021FFF7B1B8FFF75FB80023024A84
:103E80000830FFF77BB800BF1000002003780B2B31
:103E90008EBF01230133DBB2037070470378012B1F
:103EA00092BF0C2303F1FF33DBB2037070470000B5
:103EB00010B50446FEF7F2FE012384F82130836832
:103EC00004F1210184F822304379034884F8233037
:103ED000BDE81040FFF7A0BC94070020F0B50446F1
:103EE000012587B001A8FEF793F9BDF81230104EF6
:103EF00084F856309DF8063004F1520784F85730A4
:103F00009DF8083084F853309DF8093084F8543017
:103F10009DF8143084F8553084F8525039463046B4
:103F20000135FFF7B9FB062DF6D107B0F0BD00BF94
:103F3000440500200121002310B504460170438090
:103F40001248FFF771FB0323114A237713781148B6
:103F5000591C11706422B3FBF2F102FB113304F11E
:103F60001C016377FFF786F82046FFF7A1FF204684
:103F7000FFF7B4FF201D4FF47A71FEF771F904F1D9
:103F80000800BDE81040FEF76FB900BF44050020EF
:103F9000BC0700201405002070B50423002504464A
:103FA00094B00370294645802748FFF73DFB012167
:103FB0002648FFF75DFF607EFEF7A4F90126032384
:103FC0008DF8245002258DF825608DF826308DF867
:103FD00027504378DA1EB2422AD8627E1C49324406
:103FE00001A805F0C3F98DF82460637E8DF829508F
:103FF0008DF82830FEF794FA09A9FEF7E7FA01A92F
:104000001248FFF73BFF607EFEF77CF9437804F12E
:104010001801237601230F48E376FFF7FFF840F6F7
:10402000B83104F10C0014B0BDE87040FEF718B9C7
:10403000013B012BE3D8627E0749013201A805F05C
:1040400095F98DF82450D0E744050020DC060020C7
:1040500034310108740500204931010890F87420BA
:104060000B46042A24D8DFE802F0030910161C00CE
:10407000837600F118010F48FFF7D0B880F824309C
:1040800000F121010C48FFF7C7BB01460B4801F8BE
:104090001F3FFFF709BE837700F11C010848FEF7B8
:1040A000E9BF80F8583000F152010648FFF7F4BA32
:1040B000704700BF7405002094070020EC06002024
:1040C000140500204405002000487047C007002068
:1040D0002DE9F8430446DFF87490DFF87480484611
:1040E0001C4FFEF799FF1C4E4046FFF73FF81B4D53
:1040F0003846FFF72BFB3046FFF7BEFD2846FFF79B
:1041000073FA1748FFF7DAF81648FFF7A3FE1648C8
:10411000FFF704FC1548FFF7CFFD48460121FEF7E5
:10412000A3FF40460121FFF737F838460121FFF78A
:104130002FFB30460121FFF7B1FD28460121FFF793
:1041400073FA2046BDE8F843FFF7F4BE14050020DB
:104150007405002094070020EC0600204405002090
:104160008C050020DC0600204C070020FC06002007
:104170002DE9F04303780446013B8DB0072B00F294
:104180004781DFE813F008003C04F902D20468011B
:104190004002E4049D05837800F10805002B00F03F
:1041A0000881033B062B00F20281DFE813F00700D1
:1041B00007002A0048014E01500152010221FFF779
:1041C0004DFFA378032B13D194F8743073B1013BE6
:1041D00084F8743001212046FFF740FF94F87410F2
:1041E000B54805F025F841F28831DDE00423EFE71A
:1041F000042BEFD194F87430032B8CBF00230133D0
:10420000E6E790F87430042B00F2D180DFE813F079
:10421000050019006000B8000301877E012F40F0FF
:10422000C6800026022146800170FFF717FFA348D1
:1042300084F874606676E77604F11801FEF7EEFF05
:10424000D1E790F82470012F40F0B18007234FF0A0
:1042500000090370A0F8029000F16406FEF71EFD4D
:10426000804649469648FFF7DFF939469548FFF7FB
:1042700087FB98F80530314684F86C3098F80430A4
:10428000904884F86D30D8F800304FF00208A366EB
:1042900084F8718084F86470FFF71AFC314689480D
:1042A00084F86480FFF714FC0323314684F86430FB
:1042B0008448FFF70DFC40F201133146814884F831
:1042C000747084F86470A4F87030FFF701FC8AE71A
:1042D00090F81F80B8F1010F69D106230021037007
:1042E00041807948FFF7A0F94FF00209414677482D
:1042F000FFF716FDFEF7F2FB84F85B9084F85C9004
:10430000C37804F15A0684F860300378074684F8CD
:104310005F304378314684F85E3083786B4884F8A8
:104320005D3084F85A80FFF755FD3146674884F8C0
:104330005A90FFF74FFD0323314684F85A30634803
:10434000FFF748FD0423314684F85A305F48FFF7F1
:1043500041FD0523314684F85A305C48FFF73AFDA9
:1043600084F8748084F85B9084F85C80FB78314634
:10437000564884F8603084F85A80FFF72BFD32E706
:10438000867F012E13D108230021037041804E48FF
:10439000FEF7D4FF31464E48FFF76AFD4D494C48C1
:1043A000FFF76CFD4FF4FA612846FDF759FF002333
:1043B000A370261D3046FDF76BFFD8B14FF47A711C
:1043C0003046FDF74DFF0323434A237713784348D4
:1043D000591C11706422B3FBF2F102FB113304F19A
:1043E0001C016377FEF746FE2046FFF777FD204667
:1043F000FFF75EFD2846FDF74BFF48B1022120463E
:10440000FFF72CFE2846FDF72FFF042384F87430B5
:104410000DB0BDE8F08390F85830012BC7D10522CC
:104420000270002280F87430428080F8523080F8A8
:10443000593000F152012248FFF72EF9D3E600234C
:1044400020466376FFF7A8FDB1E70123F8E70223D2
:10445000F6E70323F4E7837800F10805A3B1042B02
:104460000DD8022B00F152063AD890F87420013A88
:10447000042A4FD8DFE802F05F698E7C9700052B95
:1044800000F09B800023A3702846FDF701FF002861
:10449000BED000210C48FEF751FF94F8743084F828
:1044A0005230022384F8593084F8583020460DB039
:1044B000BDE8F043FFF73EBD5E3101087405002002
:1044C000440500204C0700208C050020FC0600203D
:1044D000DC06002076310108BC070020140500200E
:1044E0000223314680F85930B048FFF7D5F8A2785A
:1044F00094F87430032A17D1012B94BF052303F1DC
:10450000FF3384F8743094F8743084F85230012307
:1045100084F859303146A548FFF7BEF841F288319A
:104520002846FDF79DFEADE7042AECD1042B8CBF95
:1045300001230133E5E7012B00F1530002D1FFF71E
:10454000A5FCE7E7FFF7AAFCE4E7012B90F854206D
:1045500009D13A2A03D8013284F85420DAE700233B
:1045600084F85430D6E70AB1013AF5E73B23F7E780
:10457000012B90F8562005D11D2A08D8013284F865
:104580005620C7E7012A01D9013AF8E71E2384F82B
:104590005630BFE790F85530012B0CBF02230123A2
:1045A00080F85530B6E7012B00F1570002D1FFF734
:1045B00075FCAFE7FFF76AFCACE700217C48FEF72B
:1045C000BDFE01217B48FFF753FC7B497948FFF78B
:1045D00055FC01238DF804308DF8053004238DF847
:1045E00006301023D4F853008DF8073094F8573074
:1045F00002908DF80C30FDF793FF01A9FDF7E6FF5F
:104600004FF4FA618CE7837800F1080653B1042B6C
:1046100004D8022B23D841F288317CE0052B46D008
:104620000023A3703046FDF733FE00283FF4F0AEC0
:10463000022504F15A01614884F85B5084F85C500B
:10464000FFF7C8FB04F11F015D48E57784F82050AF
:10465000FFF72AFB00215948FFF762FB26E70223F8
:1046600000F15A0580F85C3029465448FFF7B2FB48
:10467000A27894F87430032A12D1012B94BF052339
:1046800003F1FF3384F87430012384F85C3094F82C
:1046900074302946494884F85A30FFF79BFBBAE743
:1046A000042AF1D1042B8CBF01230133EAE700F186
:1046B0005A07FEF713FA01238DF80530062300226E
:1046C0008DF8063094F874308DF80420013B042BEB
:1046D00035D8DFE803F02436434E03000125394680
:1046E0003648FFF777FB9DF8043023B1FEF7F2F967
:1046F00001A9FEF7F7F9002D8DD000212F48FFF713
:104700000FFB01212B48FFF7B3FB2E492948FFF788
:10471000B5FB4FF4FA613046FDF7A2FD80E794F84F
:104720006050002D0CBF0123002384F8603003D1BA
:1047300002238DF80430D2E703238DF804300025DE
:10474000CDE794F85E30002B0CBF0123002384F8E2
:104750005E3001D00623F0E70723EEE794F85F30E0
:10476000002B0CBF0123002384F85F30F4D0042316
:10477000E3E784F85D20E2E7837800F1080643B3BD
:10478000042B21D8022B00F1250537D890F874208E
:10479000082A00F29880DFE812F07E008900A40069
:1047A000B100BD00D400E100F50003014405002084
:1047B0008C050020DC06002084310108FC06002066
:1047C000EC0600209D310108052B00F0F28000234B
:1047D000A3703046FDF75CFD00283FF419AE0223BC
:1047E000AA48E37604F11801FEF718FD3046FDF7FC
:1047F0003BFD0021A648FEF7A1FD57E6022329460E
:1048000080F85130A248FEF72BFEA378032B23D16A
:1048100094F87430E3B1013BDBB284F8743084F86F
:1048200026300123294684F851309948FEF718FEB6
:1048300094F87430082B05D194F8253053B1013B1E
:1048400084F8253041F288313046FDF709FDBEE796
:104850000823E2E70423F3E7042BF3D194F8743040
:104860002946072B8EBF00230133DBB284F8743056
:1048700084F826300123864884F85130FEF7F0FD95
:1048800094F87430082BDDD194F82530032B8CBFBD
:1048900000230133D4E790F82500012B05EBC0007D
:1048A00000F1020033D1FFF7F1FA0CE090F8251087
:1048B000012B00EBC10191F828200DD13A2A07D82D
:1048C000013281F8282029467148FEF7C9FDB9E771
:1048D000002381F82830F6E70AB1013AF1E73B23DB
:1048E000F7E790F8253000EBC30393F82920012A5D
:1048F0000CBF0222012283F82920E4E790F825006A
:10490000012B4FEAC00000F105002844CAE7FFF779
:10491000C5FAD8E790F82510012B00EBC10191F8FA
:104920002B2009D13A2A03D8013281F82B20CAE77B
:10493000002381F82B30C6E70AB1013AF5E73B23A3
:10494000F7E790F8253000EBC30393F82C20012AF9
:104950000CBF0222012283F82C20B4E790F8251026
:10496000012B00EBC10191F82D2005D11D2A06D89D
:10497000013281F82D20A6E71D2AF9D9012381F8FB
:104980002D30A0E790F82500012B05EBC00000F1C9
:10499000090002D1FFF782FA95E7FFF777FA92E76D
:1049A00090F84F30012B0CBF0223012380F84F30C9
:1049B00089E700213648FEF7C1FC01213548FFF7A1
:1049C00057FA35493348FFF759FA02238DF8043076
:1049D00001238DF8053004238DF8063010238DF85F
:1049E0000730637E8DF8103004F127030593FDF73F
:1049F00097FD01A9FDF7EAFD4FF4FA6124E78378FA
:104A0000042B26D8022B26D990F8743000F1180513
:104A1000437602232946C3761C48FEF7FFFBA278A3
:104A200094F87430032A2DD1013B03F0030384F87A
:104A3000743094F874302946637601231348E37682
:104A4000FEF7ECFB41F2883104F10800FDF708FCA9
:104A500001E0052B22D0A3780BB10023A37004F151
:104A600008052846FDF714FC00283FF4D1AC0223CA
:104A70000648E37604F11801FEF7D0FB2846FDF75F
:104A8000F3FB13E5042AD4D10133CEE774050020EB
:104A90008C050020DC060020B4310108C57E012D04
:104AA000D9D103230021037041808948FEF7BCFD62
:104AB00029468848FEF742FCFDF7DCFD2922637E8B
:104AC00004F1250702FB030004F1270300F128028B
:104AD00050F8041B904243F8041BF9D100254FF015
:104AE00002080278DFF8EC911A70002684F826504C
:104AF00084F8518084F82560394648460136FEF72F
:104B0000AFFC052EF6D10135092DEED1002384F836
:104B1000743084F8253084F82630012339466D48F6
:104B200084F85130FEF79CFC8CE70C30FDF7B0FBAD
:104B300000283FF46DAC00216748FFF799F9022384
:104B40006648E37604F11801FEF768FBAEE4877867
:104B500000F1080527B3042F1ED8022F00F16406C8
:104B600039D80223314680F871305D48FEF7B0FF36
:104B7000A27894F87430022A71D1012B94BF0323D8
:104B800003F1FF3384F8743094F8743084F864309F
:104B9000012384F8713030E0052F69D00023A37021
:104BA0002846FDF775FB00283FF432AC94F87430CA
:104BB00004F1210184F8643040F20223A4F870303B
:104BC0000223484884F82430FEF726FE002144489A
:104BD000FEF7D6FE6AE490F87420022A1CD0032A5D
:104BE00034D0012A09D1032F90F868300FD1622BFD
:104BF0008CBF0023013384F8683031463848FEF713
:104C000067FF41F288312846FDF72AFBC6E70BB162
:104C1000013BF0E76323EEE790F86C10836E012907
:104C200009D1052103EBC30393FBF1F32033836622
:104C300080F86C20E1E70922203B03EB830393FB20
:104C4000F2F38366012380F86C30D6E790F86D307C
:104C5000022B0CBF0123022380F86D30CDE7012A1F
:104C600092D1022B01D801338CE784F874208BE7B2
:104C700000211B48FEF784FE01211748FFF7F8F8D2
:104C800019491548FFF7FAF801238DF804308DF81B
:104C900005300C238DF8073094F86D308DF80670D0
:104CA0008DF80C30A36E029394F86C308DF80D30B3
:104CB000FDF736FC01A9FDF789FC4FF4FA61A2E784
:104CC0000830FDF7E5FA00283FF4A2AB91E500BFFC
:104CD000440500208C050020DC060020740500201F
:104CE0004C07002094070020CA31010810B5044683
:104CF0000430FDF7BFFA04F10800FDF7BBFA04F138
:104D00000C00BDE81040FDF7B5BA4B78022B04BF8C
:104D10000B78837070470000202808B522D004D893
:104D200001280CD0102815D008BD8028FCD11148CE
:104D3000FDF79EFA0028F7D11E210E4806E00E4826
:104D4000FDF796FA0028EFD11E210B48BDE8084078
:104D5000FDF786BA0948FDF78BFA0028E4D11E2139
:104D60000648F3E70648FDF783FA0028DCD11E2148
:104D70000348EBE784010020940100205401002047
:104D800074010020012002F0E5BA102002F0E2BA1E
:104D900008B5202002F0DEFABDE80840802002F0CD
:104DA000D9BA0000F0B599B001F0A4FD1422002199
:104DB00010A803F06BFE1422002109A803F066FE80
:104DC0001022002105A803F061FE02244FF4803375
:104DD0000122CDE91543CDE90E234FF400130EA8AF
:104DE0001292179302F014FF08B100F0C7F90F23D5
:104DF000CDE909340023022109A8CDE90B330D9335
:104E000003F0DCF808B100F0B9F9022305934FF480
:104E1000004305A8079303F093F908B100F0AEF939
:104E2000974D1022002109A803F030FEAB6902273C
:104E300043F01003AB610126AB69002203F01003BD
:104E40000293029BAB69022143F02003AB61AB6983
:104E50008C4803F020030393039BAB69002443F0C9
:104E60000403AB61AB6903F004030493049BAB69D7
:104E700043F00803AB61AB6903F008030593059B9E
:104E800002F062FA002240F65F717F4802F05CFA9D
:104E900000224FF4E0517D4802F056FA794809A902
:104EA000CDE90976CDE90B7702F06EF90C23754850
:104EB00009A9CDE909340B9402F066F940F65F7355
:104EC000714809A9CDE90936CDE90B4702F05CF933
:104ED0004FF4E0536D4809A9CDE90936CDE90B47F8
:104EE00002F052F94FF4FC5366480EA90E93CDE937
:104EF0000F44119402F048F94FF4805362480EA910
:104F0000CDE90E34109402F03FF94FF400435E48AF
:104F10000EA9CDE90E34109402F036F930235C4F1F
:104F2000584809A9CDE909370B9402F02DF920233F
:104F3000544809A9CDE909340B9402F025F9A023BE
:104F4000514809A9CDE909370B9402F01DF909A9C7
:104F50004E48CDE909670B9402F016F9062001F0DE
:104F6000CDFF172001F0CAFF0A2001F0C7FF494812
:104F7000494BCDE90E4403604FF4602310948460E4
:104F800004730475C3614460066101F0DBFE08B17F
:104F900000F0F4F80A23CDE90E3600233D480EA9AF
:104FA000109301F08DFD08B100F0E8F800226B6964
:104FB000114643F001036B616B690E2003F001039E
:104FC0000193019B01F068FF0E2001F097FF002282
:104FD0000F20114601F060FF0F2001F08FFF2F4CD2
:104FE0002F48304B4FF48042C0E900430023C0E912
:104FF0000233C0E90423C0E90633036202F092FBE6
:1050000008B100F0BBF8FCF7B9FE00F0FBFCD020C3
:10501000FDF7E2F8FBF73EFFFCF732FE102200211D
:105020000EA803F033FD47221F4820490023C0E9A2
:1050300000124FF6FF72CDE90933C0E90323836004
:105040008023836103F03CFA08B100F097F84FF435
:10505000805315480EA90E9303F01BFB08B100F016
:105060008DF80023104809A9CDE9093303F046FC67
:1050700008B100F083F819B0BDE8F040FCF7EABAD7
:10508000001002400010014000080140000C0140E7
:105090000000211038080020002401400054004086
:1050A00068080020A0860100BC0800200004004021
:1050B0002DE9F843FFF776FE274804F03FF927482B
:1050C00004F03CF92649274804F0B2F8264927485D
:1050D00004F0AEF8204804F031F92548FBF712FF40
:1050E0002448FCF7BBF8FDF71BFA0746FDF762FA08
:1050F000FEF7EAFF8146FEF7EBFFFDF7CBFD8046AA
:10510000FDF75EFEFDF7BAFA0646FDF7BBFAFDF7BE
:10511000F5F80546FDF7FEF8FDF71AFD0446FDF724
:105120001BFD02F0E7FF0146134804F081F84846F2
:10513000FFF71EF84046FDF7B5FD3846FDF7F4F9D8
:105140003046FDF719FB2846FDF700F92046FDF72C
:1051500005FDFDF7AFF8EAE7DF3101080A32010883
:1051600023320108323201084D3201085932010858
:105170004C0100209C0100206832010872B6FEE755
:105180000E4B82B09A6942F001029A619A6902F06C
:1051900001020092009ADA6942F08052DA61DB691A
:1051A000074A03F080530193019B536823F0E063A7
:1051B00043F00073536002B0704700BF001002401C
:1051C0000000014010B5044686B01022002102A85C
:1051D00003F05CFC2268104B9A421BD103F56C4330
:1051E0009A690E4842F400729A619A6902A902F41F
:1051F00000720092009A9A6942F010029A619B69CB
:10520000012203F010030193019B0323CDE9022344
:1052100001F0BAFF06B010BD0024014000100140AB
:1052200010B5044686B01022002102A803F02EFC1F
:105230002268114B9A421CD1104CC022A36910481D
:1052400043F00803A361A36902A903F008030093D4
:10525000009B1223CDE902230323059301F094FF61
:10526000E36943F40013E361E36903F4001301937A
:10527000019B06B010BD00BF00540040001002406A
:10528000000C01400368164A84B093420BD1154BC1
:105290009A6942F400629A619B6903F40063019386
:1052A000019B04B07047B3F1804F0BD103F5043379
:1052B000DA6942F00102DA61DB6903F0010302936B
:1052C000029BEEE7084A9342EBD1064BDA6942F0C3
:1052D0000202DA61DB6903F002030393039BE0E758
:1052E000002C0140001002400004004010B50446AC
:1052F00086B01022002102A803F0C8FB2368144ADC
:10530000934215D1134B9A6942F004029A619B694A
:1053100003F004030093009B4FF470630293022395
:105320000D4802A90393059301F02EFF06B010BDAE
:10533000B3F1804FFAD103F504339A6942F00402C5
:105340009A619B6903F004030193019B0F23E5E736
:10535000002C01400010024000080140FEE7FEE77B
:10536000FEE7FEE7FEE770477047704708B5FCF7B9
:105370009DFFBDE8084001F0CFBA0120704708B595
:1053800003F008FB162303604FF0FF3008BD08B59B
:1053900003F000FB16230360FEE770B50D461446CC
:1053A0000E46731B9C4201DC204670BDAFF30080AB
:1053B00006F8010BF5E74FF0FF3070474FF400534C
:1053C00000204B60704701207047002070470000AC
:1053D0000B4A0346116810B509B90A4911601068F3
:1053E00009490A4C0344091B8B4206D903F0D2FA3F
:1053F0000C2303604FF0FF3010BD1360FCE700BFCB
:1054000004090020880E0020005000200004000045
:105410007047000000B51248AFB003F009FF114813
:1054200003F08CFF01238DF80030FDF737FC0246B6
:105430000068516801AB03C390681860FDF74EFB2C
:1054400003680493FDF716F9A422014605A803F0AA
:10545000F5FA2F216846FCF757FB2FB05DF804FBE7
:105460009A320108AF32010810B50648064C03F025
:10547000DFFE064803F062FF20462F21FCF758FBB1
:10548000204610BD9A32010808090020D6320108D2
:105490000C480D490D4A002302E0D458C45004338F
:1054A000C4188C42F9D30A4A0A4C002301E0136065
:1054B0000432A242FBD3FFF7ABFF03F083FAFFF7FE
:1054C000F7FD7047000000202C0100200434010883
:1054D00030010020880E0020FEE74FF4F070704786
:1054E0004FF4A0707047000010B53D4C2378DA07E8
:1054F0000AD443F001029B07227001D401F0B4F8F2
:10550000237843F002032370692001F0A1F8012001
:1055100001F022F9052001F09BF80F22E02031492B
:1055200001F05EF90F22E1202F4901F059F9022222
:105530002E49C02001F054F9052001F089F8C1205E
:1055400001F00AF9412001F01BF9052001F080F873
:1055500003222749C52001F043F9052001F078F81E
:105560003A2001F0F9F8662001F00AF9B02001F0C4
:10557000F3F8802001F004F9B12001F0EDF8A0204B
:1055800001F0FEF8B42001F0E7F8022001F0F8F88D
:1055900002221849B62001F023F9E92001F0DCF8D5
:1055A000002001F0EDF804221349F72001F018F96A
:1055B000052001F04DF8112001F0CEF8782001F01F
:1055C00047F8292001F0C8F8052001F041F83620FD
:1055D00001F0C2F8BDE81040282001F0D1B800BFAA
:1055E000C0090020D89E0008E89E0008003301088A
:1055F000F89E0008033301080633010870B505461C
:105600000C462E0A2A2001F0A7F8EDB2304601F030
:10561000B7F8284601F0B4F8304601F0B1F8284652
:1056200001F0AEF8250A2B2001F096F8E4B22846E6
:1056300001F0A6F8204601F0A3F8284601F0A0F8F2
:105640002046BDE8704001F09BB800002DE9F8430A
:105650001F46054616460C461A4B07F1FF391980BE
:10566000194B01EB09022A201A805FFA85F801F034
:1056700073F8280A01F084F83544404601F080F8B8
:10568000681EC0F3072001F07BF8701E4044C0B2D2
:1056900001F076F82B2001F05FF8E5B2200A01F066
:1056A0006FF8284601F06CF8E0190138C0F30720C4
:1056B00001F066F805EB0900C0B2BDE8F84301F05F
:1056C0005FB800BFCC090020CA09002008B511202E
:1056D00001F042F8BDE80840012000F0BBBF08B56A
:1056E000102001F039F8BDE80840002000F0B2BFFA
:1056F000002307B501930B4B1B780BB9FFF7F4FEA2
:1057000000230322042001A901F09CF8019A064B12
:1057100049F28840B3EB420F18BF002003B05DF898
:1057200004FB00BFC00900205480660073B5054625
:105730000C462E0A2A2001F00FF8EDB2304601F097
:105740001FF8284601F01CF8304601F019F82846E9
:1057500001F016F8250A2B2000F0FEFFE4B22846DF
:1057600001F00EF8204601F00BF8284601F008F889
:10577000204601F005F801232E201A460DF10601FE
:1057800001F07AF8BDF8060002B070BD70B51D4694
:105790001446049EFFF75AFF314605FB04F2BDE8AC
:1057A000704001232E2001F067B8000038B5164C78
:1057B000054663888B4202D1E38893420AD0E28097
:1057C000C2F5F072521A6180A280332003220F4981
:1057D00001F01EF8A288684290FBF2F302FB13006E
:1057E000638881B200044ABFD218C9188918238877
:1057F00009B2994207D089B221800122BDE8384020
:10580000372000F0D1BF38BDC2090020C4090020F4
:1058100010B50446001200F0F80000F0B1FFE010EF
:1058200000F0FC0000F0ACFFE00000F0F800BDE884
:10583000104000F0A5BFF8B505460C4616462F0AE5
:105840002A2000F089FFEDB2384600F099FF284683
:1058500000F096FF384600F093FF284600F090FFD6
:10586000250A2B2000F078FFE4B2284600F088FFDC
:10587000204600F085FF284600F082FF204600F019
:105880007FFF2C2000F068FF3046BDE8F840FFF7AE
:10589000BFBF70B515461C46BDF81060FFF7D6FEB9
:1058A0002C2000F059FF6C4304B970BD3046FFF75F
:1058B000AFFF013CF8E713B50446084600941146D3
:1058C0001A460123FFF7E5FF02B010BD13B50446E9
:1058D0000846009411460122FFF7DBFF02B010BD1D
:1058E000F8B540F23F165588938854899189ADB236
:1058F000A4B244EA014445EA034536201C4F2D1B5F
:10590000144400F029FF682000F03AFF2B2000F03B
:1059100023FF388825F00105301AC0F3072000F076
:105920002FFF3888134FC0F13F00C0B200F028FFAE
:1059300038882544301AC0F3072000F021FF38884A
:10594000C0F13F00C0B200F01BFF2C2000F004FFAC
:10595000AC4207D1362000F0FFFEBDE8F840282019
:1059600000F00EBF34F8020BFFF752FFF0E700BF64
:10597000CA090020CC09002070B5049E03FB02F583
:10598000FFF764FE2C2000F0E7FE0024A54200D1C2
:1059900070BD36F81400FFF73BFF0134F6E7000056
:1059A000014B1B689B6A1847BC000020014B1B6819
:1059B000DB6A1847BC000020014B1860704700BF2D
:1059C000D0090020014B5860704700BFD00900206B
:1059D000014B9860704700BFD0090020084B73B599
:1059E0001B6805469E6BFFF7DBFF0446FFF7DEFFF3
:1059F00000210346224608460095B04702B070BD1C
:105A0000BC000020084B10B51B6800241B68984799
:105A10004FF6FF70054B064AC3E900409A60FFF756
:105A2000DDFF204610BD00BFBC000020D0090020D3
:105A300018000020024B1B685B6903B118477047D0
:105A4000BC000020104B2DE9F0411B6806461C6A83
:105A50000F461546A4B113460A4601460B48A44614
:105A6000BDE8F0410088604730193946B8F8002099
:105A700080B2FFF7DFFF0134AC42F5D3BDE8F0811F
:105A8000DFF80880F8E700BFBC000020D009002044
:105A9000104B2DE9F0411B6806465C6A0F4615461F
:105AA000A4B113460A4601460B48A446BDE8F0419E
:105AB0000088604739193046B8F8002089B2FFF7EE
:105AC000B9FF0134AC42F5D3BDE8F081DFF80880BE
:105AD000F8E700BFBC000020D0090020F8B51F4641
