:020000040800F2
:1000000000500020415700080D5600080F56000808
:10001000115600081356000815560008000000008D
:10002000000000000000000000000000175600085B
:1000300019560008000000001B5600081D56000855
:100040008957000889570008895700088957000810
:100050008957000889570008114F00088957000880
:100060008957000889570008174F0008895700086A
:100070008957000889570008696700080D6700085C
:1000800089570008895700088957000889570008D0
:100090008957000889570008895700081D4F000834
:1000A00089570008895700088957000889570008B0
:1000B00089570008895700088957000889570008A0
:1000C0008957000889570008895700088957000890
:1000D0008957000889570008895700088957000880
:1000E0008957000889570008895700080000000058
:1000F0000000000000000000000000000000000000
:0C01000000000000000000005FF808F1A3
:1001100010B5054C237833B9044B13B10448AFF341
:1001200000800123237010BD480100200000000062
:1001300088A1000808B5034B1BB103490348AFF37E
:10014000008008BD000000004C01002088A10008CC
:1001500081F0004102E000BF83F0004330B54FEA78
:1001600041044FEA430594EA050F08BF90EA020FE5
:100170001FBF54EA000C55EA020C7FEA645C7FEA78
:10018000655C00F0E2804FEA5454D4EB5555B8BF9B
:100190006D420CDD2C4480EA020281EA030382EA0C
:1001A000000083EA010180EA020281EA0303362D9E
:1001B00088BF30BD11F0004F4FEA01314FF4801C71
:1001C0004CEA113102D0404261EB410113F0004F83
:1001D0004FEA03334CEA133302D0524263EB43033A
:1001E00094EA050F00F0A780A4F10104D5F1200ED8
:1001F0000DDB02FA0EFC22FA05F2801841F1000133
:1002000003FA0EF2801843FA05F359410EE0A5F106
:1002100020050EF1200E012A03FA0EFC28BF4CF037
:10022000020C43FA05F3C01851EBE37101F00045ED
:1002300007D54FF0000EDCF1000C7EEB00006EEBFA
:100240000101B1F5801F1BD3B1F5001F0CD3490884
:100250005FEA30004FEA3C0C04F101044FEA4452DB
:1002600012F5800F80F09A80BCF1004F08BF5FEA62
:10027000500C50F1000041EB045141EA050130BD42
:100280005FEA4C0C404141EB0101013C28BFB1F554
:10029000801FE9D291F0000F04BF01460020B1FA9F
:1002A00081F308BF2033A3F10B03B3F120020CDA72
:1002B0000C3208DD02F1140CC2F10C0201FA0CF050
:1002C00021FA02F10CE002F11402D8BFC2F1200CB5
:1002D00001FA02F120FA0CFCDCBF41EA0C0190406B
:1002E000E41AA2BF01EB0451294330BD6FEA0404B4
:1002F0001F3C1CDA0C340EDC04F11404C4F120029F
:1003000020FA04F001FA02F340EA030021FA04F3B0
:1003100045EA030130BDC4F10C04C4F1200220FA07
:1003200002F001FA04F340EA0300294630BD21FA45
:1003300004F0294630BD94F0000F83F4801306BF0B
:1003400081F480110134013D4EE77FEA645C18BFFF
:100350007FEA655C29D094EA050F08BF90EA020F96
:1003600005D054EA000C04BF1946104630BD91EA8E
:10037000030F1EBF0021002030BD5FEA545C05D191
:100380004000494128BF41F0004130BD14F58004D0
:100390003CBF01F5801130BD01F0004545F0FE4144
:1003A00041F470014FF0000030BD7FEA645C1ABF79
:1003B000194610467FEA655C1CBF0B46024650EAB0
:1003C000013406BF52EA033591EA030F41F40021DC
:1003D00030BD00BF90F0000F04BF0021704730B562
:1003E0004FF4806404F132044FF000054FF0000137
:1003F00050E700BF90F0000F04BF0021704730B5F8
:100400004FF4806404F1320410F0004548BF4042CC
:100410004FF000013EE700BF42004FEAE2014FEA21
:1004200031014FEA02701FBF12F07F4393F07F4FFC
:1004300081F06051704732F07F4208BF704793F0FF
:100440007F4F04BF41F40021704730B54FF4607412
:1004500001F0004521F000411CE700BF50EA010215
:1004600008BF704730B54FF000050AE050EA0102BE
:1004700008BF704730B511F0004502D5404261EB2E
:1004800041014FF4806404F132045FEA915C3FF46F
:10049000D8AE4FF003025FEADC0C18BF03325FEA0C
:1004A000DC0C18BF033202EBDC02C2F1200300FABD
:1004B00003FC20FA02F001FA03FE40EA0E0021FAE2
:1004C00002F11444BDE600BF70B54FF0FF0C4CF4D0
:1004D000E06C1CEA11541DBF1CEA135594EA0C0F82
:1004E00095EA0C0F00F0DEF82C4481EA030621EABD
:1004F0004C5123EA4C5350EA013518BF52EA0335F8
:1005000041F4801143F4801338D0A0FB02CE4FF0A9
:100510000005E1FB02E506F00042E0FB03E54FF0D9
:100520000006E1FB03569CF0000F18BF4EF0010ED1
:10053000A4F1FF04B6F5007F64F5407404D25FEACD
:100540004E0E6D4146EB060642EAC62141EA555180
:100550004FEAC52040EA5E504FEACE2EB4F1FD0CC2
:1005600088BFBCF5E06F1ED8BEF1004F08BF5FEA40
:10057000500E50F1000041EB045170BD06F00046F2
:1005800046EA010140EA020081EA0301B4EB5C049F
:10059000C2BFD4EB0C0541EA045170BD41F4801197
:1005A0004FF0000E013C00F3AB8014F1360FDEBFBC
:1005B000002001F0004170BDC4F10004203C35DA98
:1005C0000C341BDC04F11404C4F1200500FA05F31B
:1005D00020FA04F001FA05F240EA020001F00042BC
:1005E00021F0004110EBD37021FA04F642EB060132
:1005F0005EEA430E08BF20EAD37070BDC4F10C045C
:10060000C4F1200500FA04F320FA05F001FA04F21F
:1006100040EA020001F0004110EBD37041F100010B
:100620005EEA430E08BF20EAD37070BDC4F1200516
:1006300000FA05F24EEA020E20FA04F301FA05F27E
:1006400043EA020321FA04F001F0004121FA04F226
:1006500020EA020000EBD3705EEA430E08BF20EAF6
:10066000D37070BD94F0000F0FD101F00046400030
:1006700041EB010111F4801F08BF013CF7D041EAB2
:10068000060195F0000F18BF704703F000465200B6
:1006900043EB030313F4801F08BF013DF7D043EA87
:1006A0000603704794EA0C0F0CEA135518BF95EA3D
:1006B0000C0F0CD050EA410618BF52EA4306D1D1C4
:1006C00081EA030101F000414FF0000070BD50EAE3
:1006D000410606BF1046194652EA430619D094EA6D
:1006E0000C0F02D150EA013613D195EA0C0F05D157
:1006F00052EA03361CBF104619460AD181EA0301AB
:1007000001F0004141F0FE4141F470014FF0000062
:1007100070BD41F0FE4141F4780170BD70B54FF0FD
:10072000FF0C4CF4E06C1CEA11541DBF1CEA13557D
:1007300094EA0C0F95EA0C0F00F0A7F8A4EB05045F
:1007400081EA030E52EA03354FEA013100F0888056
:100750004FEA03334FF0805545EA131343EA12631F
:100760004FEA022245EA111545EA10654FEA0026D4
:100770000EF000419D4208BF964244F1FD0404F58D
:10078000407402D25B084FEA3202B61A65EB0305E9
:100790005B084FEA32024FF480104FF4002CB6EBA6
:1007A000020E75EB030E22BFB61A754640EA0C0026
:1007B0005B084FEA3202B6EB020E75EB030E22BF66
:1007C000B61A754640EA5C005B084FEA3202B6EBA7
:1007D000020E75EB030E22BFB61A754640EA9C0066
:1007E0005B084FEA3202B6EB020E75EB030E22BF36
:1007F000B61A754640EADC0055EA060E18D04FEAF4
:10080000051545EA16754FEA06164FEAC30343EA93
:1008100052734FEAC2025FEA1C1CC0D111F4801F60
:100820000BD141EA00014FF000004FF0004CB6E759
:1008300011F4801F04BF01430020B4F1FD0C88BFF8
:10084000BCF5E06F3FF6AFAEB5EB030C04BFB6EB03
:10085000020C5FEA500C50F1000041EB045170BDF6
:100860000EF0004E4EEA113114EB5C04C2BFD4EB23
:100870000C0541EA045170BD41F480114FF0000EA7
:10088000013C90E645EA060E8DE60CEA135594EA23
:100890000C0F08BF95EA0C0F3FF43BAF94EA0C0F26
:1008A0000AD150EA01347FF434AF95EA0C0F7FF49B
:1008B00025AF104619462CE795EA0C0F06D152EAEF
:1008C00003353FF4FDAE1046194622E750EA4106D3
:1008D00018BF52EA43067FF4C5AE50EA41047FF4E4
:1008E0000DAF52EA43057FF4EBAE12E74FEA410247
:1008F000B2F1E04324BFB3F5001CDCF1FE5C0DD97E
:1009000001F0004C4FEAC0024CEA5070B2F1004FC7
:1009100040EB830008BF20F00100704711F0804FCA
:1009200021D113F13872BCBF01F00040704741F48F
:1009300080114FEA5252C2F11802C2F1200C10FA93
:100940000CF320FA02F018BF40F001004FEAC12377
:100950004FEAD32303FA0CFC40EA0C0023FA02F31B
:100960004FEA4303CCE77FEA625307D150EA0133F1
:100970001EBF4FF0FE4040F44000704701F00040C1
:1009800040F0FE4040F40000704700BF80F000409F
:1009900002E000BF81F0004142001FBF5FEA410357
:1009A00092EA030F7FEA226C7FEA236C6AD04FEA57
:1009B0001262D2EB1363C1BFD2184140484041409C
:1009C000B8BF5B42192B88BF704710F0004F40F44E
:1009D000000020F07F4018BF404211F0004F41F46A
:1009E000000121F07F4118BF494292EA030F3FD036
:1009F000A2F1010241FA03FC10EB0C00C3F1200349
:100A000001FA03F100F0004302D5494260EB4000D7
:100A1000B0F5000F13D3B0F1807F06D340084FEA42
:100A2000310102F10102FE2A51D2B1F1004F40EB37
:100A3000C25008BF20F0010040EA0300704749009F
:100A400040EB0000013A28BFB0F5000FEDD2B0FA3C
:100A500080FCACF1080CB2EB0C0200FA0CF0AABF5F
:100A600000EBC25052421843BCBFD04018437047FD
:100A700092F0000F81F4000106BF80F40000013203
:100A8000013BB5E74FEA41037FEA226C18BF7FEADA
:100A9000236C21D092EA030F04D092F0000F08BF1C
:100AA0000846704790EA010F1CBF0020704712F003
:100AB0007F4F04D1400028BF40F00040704712F142
:100AC00000723CBF00F50000704700F0004343F0A7
:100AD000FE4040F4000070477FEA226216BF0846DD
:100AE0007FEA23630146420206BF5FEA412390EAA0
:100AF000010F40F4800070474FF0000304E000BF96
:100B000010F0004348BF40425FEA000C08BF704746
:100B100043F0964301464FF000001CE050EA01020A
:100B200008BF70474FF000030AE000BF50EA01021F
:100B300008BF704711F0004302D5404261EB41010C
:100B40005FEA010C02BF84460146002043F0B64331
:100B500008BFA3F18053A3F50003BCFA8CF2083A56
:100B6000A3EBC25310DB01FA02FC634400FA02FC5F
:100B7000C2F12002BCF1004F20FA02F243EB020066
:100B800008BF20F00100704702F1200201FA02FCC8
:100B9000C2F1200250EA4C0021FA02F243EB0200BB
:100BA00008BF20EADC7070474FF0FF0C1CEAD052FF
:100BB0001EBF1CEAD15392EA0C0F93EA0C0F6FD0C0
:100BC0001A4480EA010C400218BF5FEA41211ED09E
:100BD0004FF0006343EA501043EA5111A0FB01318A
:100BE0000CF00040B1F5000F3EBF490041EAD3715F
:100BF0005B0040EA010062F17F02FD2A1DD8B3F1DB
:100C0000004F40EBC25008BF20F00100704790F049
:100C1000000F0CF0004C08BF49024CEA502040EA9B
:100C200051207F3AC2BFD2F1FF0340EAC250704761
:100C300040F400004FF00003013A5DDC12F1190F9F
:100C4000DCBF00F000407047C2F10002410021FA11
:100C500002F1C2F1200200FA02FC5FEA310040F129
:100C6000000053EA4C0308BF20EADC70704792F0A2
:100C7000000F00F0004C02BF400010F4000F013ADA
:100C8000F9D040EA0C0093F0000F01F0004C02BFD5
:100C9000490011F4000F013BF9D041EA0C018FE744
:100CA0000CEAD15392EA0C0F18BF93EA0C0F0AD04A
:100CB00030F0004C18BF31F0004CD8D180EA010070
:100CC00000F00040704790F0000F17BF90F0004F09
:100CD000084691F0000F91F0004F14D092EA0C0FEB
:100CE00001D142020FD193EA0C0F03D14B0218BF7E
:100CF000084608D180EA010000F0004040F0FE40C4
:100D000040F40000704740F0FE4040F4400070475F
:100D10004FF0FF0C1CEAD0521EBF1CEAD15392EADE
:100D20000C0F93EA0C0F69D0A2EB030280EA010CCE
:100D300049024FEA402037D04FF0805343EA111167
:100D400043EA10130CF000408B4238BF5B0042F1C5
:100D50007D024FF4000C8B4224BF5B1A40EA0C006A
:100D6000B3EB510F24BFA3EB510340EA5C00B3EB9C
:100D7000910F24BFA3EB910340EA9C00B3EBD10F8A
:100D800024BFA3EBD10340EADC001B0118BF5FEADC
:100D90001C1CE0D1FD2A3FF650AF8B4240EBC25005
:100DA00008BF20F0010070470CF0004C4CEA5020C6
:100DB0007F32C2BFD2F1FF0340EAC250704740F415
:100DC00000004FF00003013A37E792F0000F00F007
:100DD000004C02BF400010F4000F013AF9D040EA85
:100DE0000C0093F0000F01F0004C02BF490011F419
:100DF000000F013BF9D041EA0C0195E70CEAD15311
:100E000092EA0C0F08D142027FF47DAF93EA0C0FF7
:100E10007FF470AF084676E793EA0C0F04D14B02DB
:100E20003FF44CAF08466EE730F0004C18BF31F08D
:100E3000004CCAD130F000427FF45CAF31F0004387
:100E40007FF43CAF5FE700BF4FEA4002B2F1FE4FD4
:100E50000FD34FF09E03B3EB12620DD94FEA00237C
:100E600043F0004310F0004F23FA02F018BF404255
:100E700070474FF00000704712F1610F01D142023C
:100E800005D110F0004008BF6FF0004070474FF0F0
:100E9000000070477047000038B5094C05462046F1
:100EA00006F02EF86421204605F0C0FE204605F02D
:100EB00069FF28602046BDE8384006F027B900BF2A
:100EC000EC080020002307B56846CDE90033FFF7A2
:100ED000E3FF40F6E440009B5843000B800080B2E3
:100EE00003B05DF804FB08B5FFF7ECFF6F23B0FB20
:100EF000F3F0C0B2642828BF642008BD104A70B562
:100F000002610260102282800E4A20210262026386
:100F1000802282860C4A002602640122818281841A
:100F2000A0F8442000F1080500F15804284601F01B
:100F30000FF9103505F80C6CAC42F7D170BD00BF4D
:100F40000010014000080140000C01402DE9F04173
:100F5000202104468CB0704806F056FB6F4D2B786C
:100F600083420DD020216C4806F04EFB287004F11E
:100F7000180001F0F1F818B91E21694801F0E4F8F1
:100F800004F108052E464FF0010804F158072846E1
:100F900001F0E4F8284601F0EFF858B135F8041CE8
:100FA00055F8080C06F030FB08B985F8048028468F
:100FB00001F0CEF81035BD42E9D10023022701250A
:100FC0008DF804308DF80730237F8DF805708DF88B
:100FD0000650002B3AD0B4F84410206C06F014FBF5
:100FE00050B38DF8047001F0B7F901A901F00AFAC5
:100FF00094F84C30A3B1A18A206906F005FB0028C3
:101000005FD104F11806304601F0A6F80725002844
:1010100079D18DF8045001F09FF901A901F0F2F99E
:1010200000232373237784F82C3084F83C3084F831
:101030004C300CB0BDE8F08104F14807384601F0AF
:101040008BF8072598BB8DF80450CCE7237B6BB158
:10105000B4F84410206C06F0D7FA0028F3D104F15C
:101060004807384601F078F80625EBE794F82C306D
:1010700063B1B4F84410206C06F0C6FAF8B904F174
:101080004807384601F068F80825DBE794F83C305B
:10109000002BADD0B4F84410206C06F0B5FA50B96E
:1010A00004F14807384601F057F80925CAE73846E1
:1010B00001F04EF8C7E704238DF8043093E70323CB
:1010C000FAE7A188206806F09FFA20B9304601F0BF
:1010D00043F806259BE7A18C206A06F095FA30B903
:1010E00004F12806304601F037F808258FE7A18E75
:1010F000206B06F089FA50B904F13806304601F049
:101100002BF8092583E7304601F022F881E7052313
:101110008DF804307FE700BF001001402000002060
:101120007C01002001220221014806F073BA00BFB1
:101130000010014000220221014806F06BBA00BFF6
:1011400000100140802210B54FF400744FF48073FA
:10115000028184844FF480524FF480648382104B68
:101160000286A0F84C40A0F868204FF400444FF4E9
:101170000062036143600362836443668365002306
:101180000849A0F85C20C162A0F84040C16300F1AA
:1011900070020376037300F81C3B9042F9D110BD36
:1011A0000010014000080140F8B50446022601275E
:1011B00000F170052189606806F026FAB0FA80F027
:1011C00040092073A18A206906F01EFA00280CBF8E
:1011D000012300232376237B07D0002B18BF3B4637
:1011E00023701C34A542E5D1F8BD002BF9D126703F
:1011F000F7E7FFF7D9BF00001C235843024B185CE8
:10120000431E584258417047B40100201C235843E4
:10121000024B185C831E584258417047B4010020AD
:1012200010B5044600F044FA2046CC2100F09AFAAA
:101230002046BDE81040442100F094BA2DE9FF415A
:101240000B780746282B0C46164603D0002004B026
:10125000BDE8F08100F06BFA0028F7D0384600F0C6
:1012600027FA2146384600F013FB01ADBE2138466F
:1012700000F078FA0924A846384600F083FA013CC9
:1012800014F0FF0405F8010BF6D10821404600F0E8
:101290000CFB9DF80C30834250D1BDF804803846D9
:1012A00000F006FA18F4004F18BFC8F100089DF8C6
:1012B000083018BF1FFA88F8C3F341134FEA181714
:1012C00007F0700214BF0125254648F30717022BCB
:1012D00003F1090147EA020722D00C2927D00A2985
:1012E00017D0C8F3C000FFF70BFC4FF07C51FFF79D
:1012F0005BFC04463846FFF703FC2146FFF74CFB36
:1013000001461DB10020FFF745FB01460120316079
:101310009DE7C8F38100FFF7F3FB4FF07A51E6E752
:10132000C8F34200FFF7ECFB4FF07851DFE708F01D
:101330000F00FFF7E5FB4FF07651D8E7204686E730
:1013400032232DE9F047224D064622482B80FFF735
:1013500067FF642005F058FC1E4C204600F0E7F9BA
:1013600048B12B8883B10027DFF86CA0DFF86C80D0
:10137000DFF860901DE00A2005F046FC2B88013B59
:101380009BB22B80002BE8D1134B1B78B3B100220A
:10139000124B1A7312E06420240105F035FC04F1AD
:1013A00008024444214648464244FFF747FF0137BC
:1013B00020739AF80030FCB2A342ECD8074B28887F
:1013C0009B68003818BF01203360BDE8F08700BF7C
:1013D00024020020280200202100002040020020DA
:1013E0002DE9F8430B780446282B0E4691465CD134
:1013F00000F05EF93146204600F04AFABE21204650
:1014000000F0B0F9204600F0BDF9204600F0BAF92E
:10141000204600F0B7F98046204600F0B3F90746B1
:10142000204600F0AFF9B9F1090F054626D100F0CA
:101430009F05204600F03CF93146204600F028FA8E
:101440004E21204600F08EF94146204600F08AF9F0
:101450003946204600F086F92946204600F082F9F8
:10146000204600F025F93146204600F011FA2046CA
:10147000482100F077F90120BDE8F883B9F10A0F9F
:1014800004D100F0BF0545F02005D2E7B9F10B0FFC
:1014900004D100F0DF0545F04005CAE7B9F10C0FB3
:1014A00004BF40F06005EDB2C3E70020E4E770B58B
:1014B0000B780446282B0D463DD100F0F9F829465B
:1014C000204600F0E5F9BE21204600F04BF9204609
:1014D00000F058F9204600F055F9204600F052F986
:1014E000204600F04FF9204600F04CF90646204611
:1014F00000F0DEF82946204600F0CAF94E212046C9
:1015000000F030F97D21204600F02CF9C921204659
:1015100000F028F93146204600F024F9204600F07A
:10152000C7F82946204600F0B3F92046482100F0CC
:1015300019F9012070BD0020FCE700002DE9F843F7
:1015400005242C4F2C4E2D4D40223946304600F0BC
:1015500089F8002340F6B7382B7005F04FFB404563
:1015600014D9304600F07BF9DFF89490DFF89480CE
:1015700089F8000099F8003063B92A78EAB9013C8B
:1015800014F0FF04E0D12046BDE8F883642005F0A4
:101590003BFBE2E7642005F037FB29783046013158
:1015A000C9B22970013908EB011100F073F9304616
:1015B00000F05BF989F80000DCE71C46DFF84480A6
:1015C0000D4FE6B2322008EB061605F01DFB0C228B
:1015D00031463846FFF704FF322005F015FB31464F
:1015E0003846FFF764FF01342A78E3B29A42E8D81C
:1015F0000120C9E700080140280200202100002046
:101600003C020020400200200022034B1B685A626B
:101610005A6A8242FCD97047B80900208388026860
:101620001B04136170471FB50023CDE90133032369
:101630000393838869460068009305F00BFF05B0AB
:101640005DF804FB1FB511220023CDE9012303231C
:101650000393838869460068009305F0FBFE05B09C
:101660005DF804FB70B504460E4615460F4807F0BA
:101670002DF820462660A580FFF7E4FF2368A288A6
:101680004FF47A701A6105F0BFFA2046FFF7C6FFE3
:101690004FF47A7005F0B8FA2368A2884FF4FA6024
:1016A000BDE870401A6105F0AFBA00BFB80900206C
:1016B00010B50446FFF7B2FFFFF7C4FF4FF4F07018
:1016C000FFF7A2FF1420FFF79FFF2046FFF7ABFFB5
:1016D0004620FFF799FFA188206805F095FF014695
:1016E0004FF4CD70FFF790FF084610BD10B50446CB
:1016F00089B1FFF793FFFFF7A5FF0A20FFF784FFEB
:101700002046FFF790FF3720FFF77EFF2046BDE819
:101710001040FFF788BFFFF781FFFFF793FF4120DD
:10172000FFF772FF2046FFF77EFF0520ECE710B5BC
:101730000446FFF773FFFFF785FF0220FFF764FF02
:101740002046FFF770FF0A20FFF75EFFA1882068A0
:1017500005F05AFF01463220FFF756FF081E18BF5A
:10176000012010BD70B506460D460924013C14F059
:10177000FF0400D170BD05F001013046FFF7B6FF50
:101780006D08F3E770B5064609250024013D15F004
:10179000FF0501D1204670BD3046FFF7C8FF640841
:1017A00044EAC014E4B2F1E72DE9F047037A0446B5
:1017B0000E461BB9FFF77CFF054620B10020E080F4
:1017C0002072BDE8F087012731462046FFF7CAFFA7
:1017D000A9463E462046FFF7AAFF8046824620469D
:1017E000FFF7A5FFB8F1010F0FD1012816D1402E48
:1017F000E4D984F80690B9F1000F01D101232372D6
:10180000637A002BDAD00120DBE762198045537A36
:1018100021D1A179B14217D93B4216D04FF0010A2C
:101820006219537A3B435372514620467F00FFF7BB
:101830005DFF013617F0FF07F6B2CBD10135EDB2EF
:10184000082DD4D00127C5E7E8D0082E00D8E671CE
:101850004FF0000AB14623EA07035372E4E700227F
:10186000F021C2800272FFF79FBFF021FFF79CBFFB
:1018700070B50C4655210646FFF774FF651E073408
:1018800015F8011F3046FFF76DFFA542F8D170BD76
:10189000FFF7EEBF00F109030139113013F8012BF6
:1018A000834201F8012FF9D170470346014400201B
:1018B00030B58B4200D130BD082213F8014B80EACD
:1018C000040515F0010F4FEA500018BF80F08C009E
:1018D00002F1FF3218BFC0B212F0FF024FEA540407
:1018E000EDD1E6E710B504460846114600F014FABB
:1018F00000232060237110BD0079704770B50E463B
:1019000004220546006800F0B1FAF278044622B1DC
:101910002868311D00F0AAFA044624B92B79013356
:101920002B71204670BD054D286807F0E7FD04487F
:1019300007F06AFEE86907F0E1FDF2E72400002005
:101940009E64010870B5047905460E467CB10422F8
:10195000006800F0B3FAF278044622B12868311D1D
:1019600000F0ACFA044624B92B79013B2B712046D8
:1019700070BD054D286807F0C1FD044807F044FE1E
:10198000E86907F0BBFDF2E724000020BC64010811
:101990000023F0B587B0029301230F461349044694
:1019A000CDE90413164605F059FC01A902A805F07B
:1019B000FDFC08B103F004FD05F062FC002505F014
:1019C0004DFCAE4204DC05F05BFC002007B0F0BD2E
:1019D00000232146022057F8252005F085FC10B988
:1019E00004340135EDE703F0EBFCEAE700FC010805
:1019F0000A4601460148FFF7CBBF00BF00FC0108C3
:101A00004FF6FF7310B5401A013A0C5892B29A4241
:101A100041F8044BF8D110BD0A4601460148FFF7D2
:101A2000EFBF00BF00FC010810B500248AB01C22E3
:101A3000214603A8CDE9014407F08EF94F234FF06A
:101A400080422048C0E9002313238460C0E90334A6
:101A5000846106F0C7FE08B103F0B2FC194801A981
:101A6000CDE9014407F0B0F808B103F0A9FC002269
:101A70006023144803A9CDE903320592079206F0CA
:101A800009FF08B103F09CFC04220E4803A906F0EC
:101A900001FF08B103F094FC08220A4803A906F0EC
:101AA000F9FE08B103F08CFC0C2206480DEB020194
:101AB00006F0F0FE08B103F083FC024803F048FD95
:101AC0000AB010BD5002002010B500248AB01C22BC
:101AD000214603A8CDE9014407F03EF94F234FF01A
:101AE00080422048C0E9002313238460C0E9033406
:101AF000846106F077FE08B103F062FC194801A981
:101B0000CDE9014407F060F808B103F059FC002268
:101B10006023144803A9CDE903320592079206F029
:101B2000B9FE08B103F04CFC04220E4803A906F0EC
:101B3000B1FE08B103F044FC08220A4803A906F0EC
:101B4000A9FE08B103F03CFC0C2206480DEB020193
:101B500006F0A0FE08B103F033FC024803F0F8FCE5
:101B60000AB010BD9802002038B5042200240820D5
:101B70000C210A4B0A4DC3E90142C3E90742094A55
:101B8000C3E90401C3E90A011D60DD609A615A627C
:101B9000FFF74AFFBDE83840FFF796BFE00200209C
:101BA00098020020500200202DE9F0410C26464307
:101BB0000F4F044607EB06080D46B859D8F8081031
:101BC00007F000F8BB59D8F804101B6839B95D63F9
:101BD0000C2044433859BDE8F04106F0B5BF042954
:101BE00001D19D63F4E708290CBFDD631D64EFE7B5
:101BF000E00200202DE9F0410C2646430F4F044639
:101C000007EB06080D46B859D8F8041006F0DAFFBD
:101C1000BB59D8F808101B6839B95D630C204443E0
:101C20003859BDE8F04106F08FBF042901D19D630A
:101C3000F4E708290CBFDD631D64EFE7E002002034
:101C400070B50C244443064D2E19B168285906F08E
:101C5000B9FF71682859BDE8704006F0B3BF00BFF6
:101C6000E00200204FF0E022D2F8FC3D43F0807308
:101C7000C2F8FC3D4FF06042D2F8003E43F0010351
:101C8000C2F8003E704730B5002304464FF0604272
:101C90000846834200DB30BDD2F8801ECD0707D551
:101CA000D2F8001EC90703D5E15C156815B11170A3
:101CB0000133EEE700BFF8E708461146FFF7E3BF40
:101CC00008B528B94E21074B074A084806F0AAFF75
:101CD000037C2BB9836840681B1A5842584108BDE1
:101CE0000020FCE708650108D46501080B650108C0
:101CF00008B528B98921054B054A064806F092FF28
:101D000000230374C0E9013308BD00BF0865010862
:101D1000B16501080B65010870B50D46064600B1B6
:101D200029B969210D4B0E4A0E4806F07BFF14209D
:101D300006F0D2FF044618B96C210B4B084AF3E7B2
:101D40000660C560FFF7D4FF2046FFF7B9FF18B95A
:101D50007221064B024AE7E7204670BD356501084F
:101D6000C36501080B6501080865010844650108A1
:101D700008B5034628B99721074B084A084806F0DA
:101D800051FF1A7CC06832B9D3E901239A4236BFA9
:101D90008018D01AC01A08BD086501083666010807
:101DA0000B65010810B5044628B9BE21044B054A4D
:101DB000054806F037FFFFF7DBFFE368181A10BD90
:101DC000086501081B6601080B65010808B508B124
:101DD00003682BB9CA210F4B0F4A104806F022FFA7
:101DE00042689954037CC16833B182680132B2FB06
:101DF000F1F301FB1322826043680133B3FBF1F27C
:101E000001FB123382684360D21A53425341037478
:101E100008BD00BF5D6501080B6601080B65010880
:101E200070B50D46044610B109B106682EB9DA2125
:101E30000B4B0C4A0C4806F0F5FEFFF741FF68B962
:101E4000A368F35C2B70A368E2680133B3FBF2F183
:101E50002074012002FB1133A36070BD0020FCE759
:101E60006E650108FB6501080B650108F8B50C46B5
:101E70001546064608B103682BB9F3210C4B0D4AF1
:101E80000D4806F0CFFE077C77B9FFF78BFFA8421D
:101E90000CD32544AC4201D13846F8BD304614F885
:101EA000011BFFF793FFF5E70127F5E70227F3E7AB
:101EB0005D650108E96501080B65010870B50C4610
:101EC000064638B103682BB121B18D18AC4208D158
:101ED000002070BD40F21511064B074A074806F076
:101EE000A1FE21463046FFF79BFF01340028EDD1CB
:101EF0000320EEE787650108A06501080B6501086E
:101F00007FB5002364218DF817300123CDE901311D
:101F10000DF11701024600910448D12105F0A0FE01
:101F20009DF8170007B05DF804FB00BF1C090020F6
:101F30007FB501238DF817106421CDE901310DF132
:101F40001701024600910448D02105F0F9FD002058
:101F500007B05DF804FB00BF1C090020002108B594
:101F60000846FFF7E5FFBDE808400020FFF7C8BFBF
:101F70000A22B0FBF2F302FB130000EB0310C0B225
:101F8000704784B038B504AC84E80F0000210846DF
:101F90009DF81450FFF7CCFF9DF81600FFF7E8FFFF
:101FA00001460020FFF7C4FF9DF81500FFF7E0FF92
:101FB00001460120FFF7BCFF2846FFF7D9FF9DF837
:101FC0002140014654B99DF82030022B0BBF40F050
:101FD000600101F0DF01C9B241F040010220FFF7CA
:101FE000A7FF9DF81C00FFF7C3FF01460320FFF782
:101FF0009FFF9DF81E00FFF7BBFF01460420FFF77F
:1020000097FF9DF81200FFF7B3FF01460520FFF789
:102010008FFF9DF81000FFF7ABFFBDE83840014689
:1020200004B00620FFF784BF030903EB830300F02D
:102030000F0000EB4300C0B2704710B5044600200B
:10204000FFF75EFF00F07F00FFF7EEFFA0710120B9
:10205000FFF756FFFFF7E8FF60710220FFF750FF20
:1020600000F01F00FFF7E0FF20710320FFF748FF9B
:10207000FFF7DAFFA0810420FFF742FFFFF7D4FF4C
:10208000E0810320FFF73CFFFFF7CEFFE070052063
:10209000FFF736FFFFF7C8FFA0700620FFF730FFFD
:1020A000FFF7C2FF20800220FFF72AFF00F0200088
:1020B000FFF7BAFF002814BF02230123237410BDC9
:1020C000014B1B681B6818475000002084B013B5F3
:1020D00004AC84E80F00074B1C68BDF82030ADF855
:1020E000003004AB64680FCBA04702B0BDE81040DD
:1020F00004B0704750000020014B1B689B681847D4
:102100005000002000B589B003A8FFF7F5FF9DF847
:102110001C000A490A4B9DF81120012818BF0B46E4
:10212000BDF81A10CDE9002306489DF810309DF83F
:102130000E2007F0E3F909B05DF804FB52660108D0
:102140004F660108556601080123018043807047EE
:102150000023038043807047807870470246807870
:1021600048B1138813B90123D3707047013B9BB268
:102170001380002BF7D07047C0787047014B187060
:10218000704700BF10030020014B1878704700BF54
:10219000100300200120FFF7F1BF000008B5FFF792
:1021A000F3FFF0B10F48FEF7D1FE0F48FFF721F81B
:1021B00002F074F802F060FE00F0A4FD00F098FE5A
:1021C00000F068F900F0A6FA00F06AFB00F052FC9B
:1021D00000F0E8FC00F02EFDBDE808400020FFF70D
:1021E000CDBF08BD64010020B401002030B511232B
:1021F000002485B0CDE901340323074D03932B68F8
:10220000686869460134009305F024F9032C05F150
:102210000805F4D105B030BD5400002000487047D7
:1022200011030020024B00EB40001844704700BF30
:1022300017030020032200230272C27282734274C9
:1022400001224371837143720373C373027043703D
:10225000837070472DE9F04103780446012B5CD16F
:102260008278012A29D1C37803EB43030344D97947
:10227000007901390129987100D91A720023A370DD
:10228000002601274FF00308F5B22846FEF7BEFFEF
:10229000F8B12846FEF7B0FFD8B984F80780237A52
:1022A0005BB3032B3BD1E379032B1ED10023A77132
:1022B00023722846FFF7C4FC1FE0022AE0D1C3784E
:1022C00003EB43030344DA79033A012AD6D9032204
:1022D000D3E72846FEF79AFF0028E0D12846FEF70C
:1022E0008BFF0028DBD0E771D9E7042B05D004234E
:1022F0000A212846E371FFF77DFC0136042E04F124
:102300000304C1D104F07AFC0D4C2368C01AB0F567
:10231000FA6F02D904F072FC2060BDE8F081012B55
:10232000EBD1E379012B02D100232372C1E7022B09
:10233000E3D00A212846FFF737FC0223E371DCE7EC
:10234000240300200B785A1E012A04D883700B79CD
:10235000C3704B7903717047004870472803002011
:1023600070B505780446012D02D0022D38D070BD1D
:1023700063783030012B2DD10226251D2946FFF729
:10238000E1FAA3792680013B052B09D8DFE803F0A9
:102390000308100A161C01F081FF294602F07BFD9C
:1023A0006670E4E700F076F8294600F0B6F9F7E742
:1023B000FFF734FF2946FFF7C5FFF1E700F0A2FC65
:1023C000294600F099FDEBE700F06AFA294600F093
:1023D00031FBE5E7FFF790FA0028C8D06570C6E743
:1023E0004378022B04BF01230380C0E710B5C82245
:1023F000044603493030FFF775FA0123238010BDEE
:102400006003002038B58B780C46013B062B08D8BA
:102410004B78013B062B04D8BDE838403030FFF73D
:102420006DBA064D286807F069F8A278617804480B
:1024300007F064F8E86907F061F838BD240000206F
:102440009A66010801230370002348F6B80103715E
:1024500003761A30FFF778BE042300B58DB08DF8EF
:10246000053003238DF8063002238DF80730012351
:102470008DF808108DF809308DF80400FFF76CFF17
:1024800001A9FFF7BFFF0DB05DF804FB00487047DE
:10249000480400200048704728040020F8B500F1E7
:1024A0002005C42200210446284606F055FC03F00E
:1024B00033F903789BB3024600F1C40692F8443026
:1024C000013B012B07D8134600219F7E1F2F02D806
:1024D000DF7E0C2F2BD9214601270022022504F193
:1024E000C4060B46002081F850700130062883F89E
:1024F000262083F8272083F8232083F8242083F8DC
:10250000255083F8202083F8212083F8225003F1FE
:102510000803EAD13131B142E3D103F0D3F800230B
:102520002046A4F8E430BDE8F840FFF78BBFDF7D1C
:102530000C2FD0D81F7D0C2FCDD80131062903F1E7
:102540000803C2D13132B242B8D100F11401C42221
:10255000284606F0D9FBE2E72DE9F04F0378044660
:10256000012B97B008D0023B012B00F2D08017B0AE
:10257000BDE8F04FFFF766BF0379012B40F0A28062
:1025800002220270002280F8E530C37A8DF83D20E7
:10259000ADF83A30037B02718DF82E300389027654
:1025A000ADF83030837A8DF83C30BDF83C30ADF872
:1025B00000300BAB0FCBFFF789FDFFF7A3FD04F154
:1025C0001A00FFF7D9FD002800F0A18000274FF086
:1025D000040B06A8FFF790FD9DF826309DF828A073
:1025E00004939DF81A3004F1300605939DF81C30D1
:1025F00002939DF81D3003935FFA87F84046FFF77A
:1026000011FE03780546022B55D0A6F1300996F845
:102610002020012A09D199F82620049B9A4246D10C
:1026200099F82720059B9A4241D199F82020029BD6
:102630009A4225D199F82120039B9A4220D199F8FA
:10264000222052451CD100F02FF9C278012A0ED168
:1026500006228DF82E2000228DF82CB08DF82DB09A
:102660008DF82F20FFF778FE0BA9FFF7CBFE6A78D5
:10267000032A05D1AA781AB941460120FFF7ECFEDA
:1026800099F82320029B9A4211D199F82420039BA8
:102690009A420CD199F82520524508D16A78012A2E
:1026A00005D1AA781AB941460220FFF7D5FE09F1F3
:1026B0000809B145ABD10137042F06F131069BD192
:1026C000204654E7022B7FF47AAF032303700023E4
:1026D0003122466903710376007C314602FB0040DB
:1026E00000F12005284606F0FFFA00283FF467AF06
:1026F0003146284606F1300351F8042B994240F840
:10270000042BF9D10B78037002F0DCFF57E717B008
:10271000BDE8F08F1A30FFF721BD2DE9F04191F8A7
:1027200000800546B8F1010F0C4613D100F10807EF
:102730000E1D3146384606F0D7FA48B1314685F8C5
:102740000480143451F8043BA14247F8043BF9D10A
:10275000BDE8F081B8F1020FFAD180F804800B696E
:1027600043610B7B0374F3E710B50446064806F09B
:10277000C5FE064806F048FF02232370002363804D
:102780000123637410BD00BF3F6701084A67010859
:1027900010B50446064806F0B1FE064806F034FFC0
:1027A00001232370002363800223637410BD00BFE4
:1027B0003F6701086967010838B50A4D0446284695
:1027C00006F09CFE084806F01FFF012328462374EC
:1027D00006F094FE054806F017FFBDE8384002F009
:1027E00071BF00BF3F67010889670108A86701083A
:1027F00010B50446134806F081FE134806F004FFA6
:102800000323237000236380237C022B02D1204604
:10281000FFF7D2FF0B4806F071FE0C4806F0F4FEFD
:1028200002230848237406F069FE094806F0ECFE0E
:1028300002F048FF04F10A004FF4FA51BDE81040DD
:10284000FFF782BC3F670108C6670108DD67010822
:10285000A867010810B504460E4806F04FFE0E4862
:1028600006F0D2FE0423237000230A48638006F09A
:1028700045FE0A4806F0C8FE2379A01D042B08BFB8
:1028800042F21071BDE8104018BF47F23051FFF717
:102890005BBC00BF3F670108F367010808680108D7
:1028A00000487047180500200048704726050020A2
:1028B00010B50446244806F021FE244806F0A4FE84
:1028C00002F02AFFC27C531E012B29D8837C591E9B
:1028D000012925D8237400236274A373E3731A4873
:1028E00006F00CFE1A4806F08FFE174806F006FEAA
:1028F000217C184B184A607C012918BF1A461749D9
:10290000174B012818BF1946164806F0F7FD238A11
:102910002046B3F5817F13D1BDE81040FFF724BFF7
:10292000094806F0EBFD104806F06EFE02236374C2
:10293000012323740023A373E37302F0C3FEE6E7CD
:10294000BDE81040FFF724BF3F6701083968010860
:10295000706801082F6801082B6801081C680108CD
:1029600023680108A2680108CB68010810B5037844
:102970000446013B032B20D8DFE803F00220283B6C
:10298000C378022B04D12046BDE81040FFF7ECBE0F
:10299000062B04D12046BDE81040FFF729BF042BC9
:1029A00004D12046BDE81040FFF754BF012B04D1ED
:1029B0002046FFF701FF0023E37010BDC378032B0F
:1029C000E6D12046BDE81040FFF7E2BEC378072BF2
:1029D00009D1154806F092FD144806F015FE637CF7
:1029E000012BEED1CFE70A30FFF7C6FB0028F0D16C
:1029F000E3E70630FFF7C0FB58B10B4806F07EFD59
:102A00000B4806F001FE637C2046012B09D1FFF73D
:102A1000ABFEE378072BD0D1034806F06FFD0448E6
:102A2000DBE7FFF7B5FEF4E73F6701080769010838
:102A30001C69010808B50B785A1E062A14D8C37001
:102A40004A7802719A1E012A0ED8022B0CBF01236C
:102A500002234374054806F051FD054806F0D4FDF5
:102A6000BDE8084002F02EBE08BD00BF3F67010868
:102A7000A867010810B504460630FFF76FFB04F1A4
:102A80000A00BDE81040FFF769BB000038B5FEF74B
:102A900019FA094B05461C881880844294BF032408
:102AA0000424FEF720FA132898BF0224002D14BF37
:102AB0002046012038BD00BF2A05002010B504467D
:102AC000164806F01BFD164806F09EFD01232370F4
:102AD0000023A371FFF7DAFFA070FEF7F3F9A080DF
:102AE000FEF701FAE0700D4806F008FDA2780D4BE4
:102AF000A18853F822300C48E27806F0FFFCE37816
:102B000004F10800142B98BF022344F6206198BFFB
:102B1000A371BDE81040FFF717BB00BF3069010883
:102B200037690108780000204C69010810B5044697
:102B3000164806F0E3FC164806F066FD02232370F3
:102B40000023A371FFF7A2FFA070FEF7BBF9A080DE
:102B5000FEF7C9F9E0700D4806F0D0FCA2780D4BE5
:102B6000A18853F822300C48E27806F0C7FCE378DD
:102B700004F10800192B88BF032344F6206188BFA5
:102B8000A371BDE81040FFF7DFBA00BF306901084C
:102B900083690108780000204C69010800487047EB
:102BA0002E050020004870472C050020FFF786BF47
:102BB00010B503780446012B02D0022B1AD010BDA9
:102BC0008379022B0BD1184806F098FC174806F0C1
:102BD0001BFD1E2003F0F0FA2046FFF7A7FF04F1CB
:102BE0000800FFF7C9FA0028E9D02046BDE81040E8
:102BF000FFF764BF8379032B0BD10B4806F07EFCF3
:102C00000B4806F001FD5A2003F0D6FA2046FFF7E4
:102C100055FF04F10800FFF7AFFA0028CFD0204697
:102C2000BDE81040FFF782BF306901089D690108C7
:102C3000B76901080830FFF791BA000010B50446E3
:102C4000084806F05BFC084806F0DEFC0123237010
:102C50000023201DA3704EF66021BDE81040FFF751
:102C600073BA00BF216A01082E6A010802698368ED
:102C7000407B012808D1191D91420CDB043B934293
:102C8000D4BF00200120704703F10901914201DB0C
:102C9000093BF4E70120704713B5437B0446012B41
:102CA00001A80FD1FEF74CFB0198FEF7CDF820618B
:102CB0000F4806F023FC21690E4802B0BDE8104021
:102CC00006F01CBCFEF73CFB0B490198FDF76CFFBE
:102CD0000A49FEF71DF84FF08441FDF75DFEFEF74F
:102CE000B3F82061024806F009FC21690448E4E7D2
:102CF000216A01084A6A0108000010410000A04052
:102D0000726A010800487047380500200048704783
:102D10004005002038B503780446012B02D0022B71
:102D20004ED038BD051D2846FFF726FA0028F8D0FA
:102D30002046FFF7B1FF2046FFF798FF20B3237B23
:102D40002846012B32D1FFF703FA334806F0D6FBB1
:102D5000324806F059FC022323700023A370637BE2
:102D60002269012BA3681BD1191F8A4213DA02239F
:102D7000A3704EF660212846FFF7E6F9264806F0D4
:102D8000BDFB274806F040FC2846BDE838404EF61B
:102D90006021FFF7D9B904339A42EADD0323E7E75C
:102DA000A3F109018A42E2DB0933F5E7FFF7D0F925
:102DB0002046FFF743FF184806F0A0FB1948E1E75B
:102DC0008378022B1FD1FEF7B5F9134806F096FB66
:102DD000154806F019FC0023A370251D2846FFF7AF
:102DE000CBF900289DD02046FFF756FF2046FFF77D
:102DF0003DFF0028C8D12846FFF7AAF92046BDE8C4
:102E00003840FFF71BBF032BE7D1FEF78BF90248D1
:102E100006F074FB0548DCE7216A01089D6A010899
:102E2000B96A0108E06A0108086B01082F6B010804
:102E300070B50546254806F061FB254806F0E4FB21
:102E400002F06AFC03780446002B30D0037A013B81
:102E5000012B2CD8437A013B012B28D81B4806F0C4
:102E60004DFB1C4806F0D0FB184806F047FB607A83
:102E700019491A4A267A012818BF0A4618481949DA
:102E80006368012E18BF0146174806F037FB237A06
:102E90002B73637A6B736368AB602846FFF7FCFEA5
:102EA000FEF748F92846BDE87040FFF7C7BE07485F
:102EB00006F024FB0D4806F0A7FB1423AB6040F29C
:102EC0000113AB8102F0FEFBE7E700BF216A0108B6
:102ED000696B01089A6B01085E6B0108566B01086B
:102EE000236801081C680108D16B0108076C010800
:102EF0000430FFF733B9000038B50B78012B32D11D
:102F00000A7A531E012B22D84B7A5C1E012C1ED844
:102F10004C688568A5420BD1858909898D4207D106
:102F2000114806F0EBFABDE83840104806F06CBBDB
:102F300001214373C170846002730B4806F0DEFA0E
:102F40000B4806F061FBBDE8384002F0BBBB094C02
:102F5000206806F0D3FA084806F056FBE069BDE8A1
:102F6000384006F0CBBA38BD216A0108386C010838
:102F7000696C010824000020836C010842684188C4
:102F8000008802F095BF10B504464FF6FF7002F0BE
:102F90006BFE2088E388A288618803F0A1F8BDE871
:102FA0001040002002F060BE10B50446084602F052
:102FB0005BFE2088E388A288618803F091F8BDE871
:102FC0001040002002F050BE70B516460D46044673
:102FD000184602F049FE304602F052FE2A46618849
:102FE0002088032303F02EF8044802F049FEBDE8D0
:102FF00070404FF6FF7002F03DBE00BF1800002089
:1030000070B515460E4604464DF6FB6002F032FEE2
:10301000284602F029FE20882B463246618803F0BC
:103020009DF9BDE870404FF6FF7002F023BE10B569
:103030000446084602F018FE2088E388A2886188CA
:1030400002F0A4FEBDE81040002002F00DBE00001A
:1030500070B516460D460446184602F005FE304689
:1030600002F00EFE4DF6FB6002F004FE2A46618877
:103070002088032302F0E6FF044802F001FEBDE8C9
:1030800070404FF6FF7002F0F5BD00BF1800002041
:1030900010B50446084602F0E7FD20886188072243
:1030A00003F02CF8BDE81040002002F0DDBD000068
:1030B0000D4A0E4B026102F11012C0E90823826131
:1030C0000B490C4A4361C0E900120B4AC36182609C
:1030D000D3F81620103AC281D3F812301A3B8381FC
:1030E000064B8362704700BF67011A0030DA0008A0
:1030F00063010A00600051006F01220079012C0079
:1031000011B11030FFF73ABFFFF73DBF2DE9F7438C
:103110008B780446012B0D4615D11F21FFF787FF41
:1031200004F108073846FFF72EFF2B78022B18D042
:10313000032B19D0012B4FD104F1180003B0BDE8C7
:10314000F043FFF71BBF4FF6FF7002F08DFD2088A4
:10315000E388A288618802F019FE002002F084FD55
:10316000DEE704F12000E9E7A089FDF743F96D7877
:10317000804628468946FDF73DF900221E4BFDF7A3
:10318000CDFA0B46024649464046FDF79DF9FDF74C
:10319000ADFB002681462A461849684600968DF800
:1031A000046006F049FA4846FDF74EFE6B1E0F2BF1
:1031B000B4F80C80A08112D84FF478413846FFF75C
:1031C000F3FE334669460E4A04F12800FFF7FCFE81
:1031D0005FFA88F8A4F80C8003B0BDE8F083A5F18D
:1031E0001103342B02D84FF6E071E7E7463D1E2D60
:1031F000EED84FF4FC61E1E7000059402D6D010865
:10320000000000200F2303800A2343805123C38042
:1032100084238380132303810E2343814923C381A5
:103220007C238381322383821923C3827047000069
:103230002DE9FF410023044600938DF8043081B34B
:1032400019460830FFF7F3FE0125174EDFF85C80C2
:10325000174F32882389002113442382728863899F
:1032600004F1100013446382FFF7E1FE238A2A462B
:103270000F33ADF80830638A414604336846ADF831
:103280000A30013506F0D8F900233A46694602A80B
:10329000FFF79AFE052D06F10406DAD104B0BDE869
:1032A000F081FFF770FEF9E7D06D01082A6E010882
:1032B000000000207FB50D4601210446FFF7B8FF4E
:1032C000AB78012B2FD11F212046FFF7B0FE1D4EFA
:1032D000EB78012B25D169781B4B228933F821002B
:1032E00003EB810302445B88228262891F2113441D
:1032F000638204F11000FFF79AFE238A6A780F3385
:10330000ADF80830638A1149043301326846ADF8DC
:103310000A3006F091F91F233246694602A8FFF7EA
:1033200053FE04B070BD4FF6FF7002F09DFCE388C1
:10333000A2886188208802F029FD002002F094FC18
:10334000034EC5E710000020D06D01082A6E010869
:103350000800002013230380622343804FF4DD73B1
:103360008380CE231922C3804FF4CE73828114222E
:1033700003818023F0B5C2814FF0830E4FF0A10C82
:10338000B527EE264FF486754FF4907440F259112C
:1033900040F27712438143824383438443854386CB
:1033A0004387A0F84230A0F84A301E339BB2B3F5F1
:1033B0009A7FA0F810E0A0F818C00784068505865B
:1033C0000487A0F84010A0F8482000F14000E2D1A6
:1033D000F0BD00002DE9F3470646002979D0002111
:1033E000FFF725FE002106F10800FFF720FE00256B
:1033F0003A4C3B4FA288338868461344ADF80030FE
:10340000E288738854F8081B1344ADF802303A463A
:1034100000230135FFF7D8FD042DEBD11E27DFF87F
:10342000C4902F4DDFF8C08006F1180433882A4677
:103430000233ADF80030738868463B4459F8041BEA
:10344000ADF802300023FFF7BFFDDFF8A0A0A4F124
:10345000080000232A462649FFF7B6FD2046002330
:103460002A464146FFF7B0FD04F1080000232A4632
:10347000DAF80410FFF7A8FD04F1100000232A4633
:103480001B49FFF7A1FD04F1180000232A4641461D
:10349000FFF79AFD04F1200000232A46DAF8041011
:1034A000FFF792FD1E3704F1300000232A46414603
:1034B000FFF78AFDBFB204F1280000232A460D4918
:1034C000FFF782FDD22F04F14004AFD102B0BDE876
:1034D000F08702B0BDE8F047FFF755BDE06D010889
:1034E00000000020006E0108366D01086C0000200D
:1034F000326D0108396D010873B591F83430054615
:10350000012B4B780C4614BF00261F26082B00F217
:10351000A880DFE803F00518283949597666860047
:103520000B78684601EBC3039A78514906F084F89A
:103530003346694620784F4A05EB80101030FFF77C
:1035400043FD02B070BD0B78684601EBC303DA7827
:10355000474906F071F82078334605EB801069463C
:10356000444A1830EBE733460878424A01EBC0047E
:103570002479414905EB801051F82410203002B025
:10358000BDE87040FFF720BD0B78684601EBC30330
:103590005A79374906F050F82078334605EB801009
:1035A0006946344A2830CAE70B78684601EBC30302
:1035B0009A792F4906F040F82078334605EB8010C1
:1035C00069462C4A3030BAE70878334601EBC0042C
:1035D000E479294905EB8010264A51F82410383047
:1035E000CDE70B78684601EBC3031A7A204906F051
:1035F00023F82078334605EB801069461D4A483091
:103600009DE70B78684601EBC3035A7A184906F028
:1036100013F82078334601306946164A05EB8010CE
:103620008DE731460830FFF702FD2B8968460133EC
:10363000ADF800306B890133ADF80230AB89023B45
:10364000ADF80430EB89023BADF8063094F8323027
:10365000022B0CBF4FF4FC614FF6FF71FFF7A4FC87
:103660006FE7064802B0BDE8704005F047BF00BFF5
:103670003D6D0108000000206C000020426D010833
:1036800011230380742343804FF4DD738380A123CF
:10369000C3803923038191234381438240F229135C
:1036A0000383C423438340F26513C6220384A62305
:1036B000028243844FF4CB7243854FF4BA73028580
:1036C00003878E22E72302864387438670470000E4
:1036D00010B50446002938D04DF6FB61FFF764FCB5
:1036E00004F1080000221B49FFF78AFC04F11000D6
:1036F00000221949FFF784FC04F118000023174A3F
:103700001749FFF7A5FC04F128000023134A1249CA
:10371000FFF79EFC04F120000023104A1149FFF737
:1037200097FC04F1300000230F4A1049FFF790FC8A
:1037300004F138000E4900230B4AFFF789FC2046AC
:10374000BDE810400021FFF772BCBDE81040FFF754
:103750001ABC00BF6D6D0108716D010810000020DA
:1037600036670108746D010808000020786D0108B3
:103770007D6D010873B50C46CB790546012B8B791D
:1037800014BF00261F26012B0CBF1F210021FFF7AD
:103790004EFC2378013B042B0FD8DFE803F0031025
:1037A0001A34290062781D49684605F045FF324603
:1037B000694605F10800FFF723FC02B070BDA2784E
:1037C0001649684605F038FF3246694605F1100093
:1037D000F1E7E278124B684653F8221005F04CFFEF
:1037E000334669460F4A05F11800FFF731FCE4E75C
:1037F00022790A49684605F01FFF33466946094A9F
:1038000005F12800F1E762790449684605F014FFE4
:1038100033466946034A05F12000E6E73D6D01089D
:103820006C00002010000020084B094AC360094BBF
:10383000DFF824C0C0E90023084B8360084BC0E9CF
:1038400006C3084B0362084B036170473037010819
:10385000A5000B005A005100B8001600A6000F008A
:1038600006003100BA004700C900240037B50446FD
:10387000B9B325460830FFF781FB238B00210133C4
:10388000ADF80030638B04F118000133ADF802305D
:10389000A38B023BADF80430E38B023BADF806305E
:1038A000FFF7C5FB002002F0DFF90822618C35F834
:1038B000200F02F087FA002002F0D6F928464FF6D2
:1038C000FF71FFF7E5FB68464FF6FF71FFF76CFBF2
:1038D0000023064A064904F11000FFF775FB03B008
:1038E00030BD03B0BDE83040FFF74DBB08000020FD
:1038F000826D0108000000002DE9FF410E46CB78E3
:103900004FF6FF71012B08BF1F210446FFF78FFB05
:103910003378012B5FD1E08BFCF76CFD757896F85E
:103920000280064628460F46FCF764FD2EA3D3E925
:103930000023FCF7F3FE02460B4630463946FCF7FF
:10394000C3FDFCF7D3FF0023074600938DF8043036
:10395000274B2A4653F828302649684605F06CFE66
:103960003846FDF771FAB8F1010F80B2E68BE083BB
:1039700034D1A5F11403312B32D9463D1E2D8CBF15
:103980001F254FF47845238B02380133ADF80830FA
:10399000638B04F120070133ADF80A30A38B4FF697
:1039A000FF71023BADF80E003846ADF80C30FFF762
:1039B0006FFB4FF6FF7102A8FFF7F6FA294638466B
:1039C000FFF766FBF6B2002369460B4A04F11000CC
:1039D000FFF7FAFAE68304B0BDE8F0811F25D2E7CD
:1039E0004FF6E075CFE700BF0000000000C0584070
:1039F000C46D0108866D0108080000200F4A104BB5
:103A00001049C0E90023104B104AC0E902134FF0DF
:103A10001413DFF83CC0C0E9062302F54812C0E9E0
:103A200008237D32C0E90A23C0E904C3094A0A4BCE
:103A3000C0E90C23094B0364704700BF11007400F8
:103A4000BA01A100F7008C004A0028002401B5004B
:103A5000A101B50016008800B0011E0015018C0000
:103A600030B504468FB0002900F089800025038816
:103A7000454A1933ADF80030438844491833684645
:103A8000ADF802302B460195FFF79EFA238802A875
:103A90001933ADF8083063883B4A4633ADF80A3035
:103AA0003B492B460395FFF78FFA238804A8193367
:103AB000ADF810306388344A7733ADF812303549A9
:103AC0002B460595FFF780FA238806A8A033ADF8AA
:103AD00018306388304A4633ADF81A302F492B46E8
:103AE0000795FFF771FA238808A803F59B73ADF8D3
:103AF00020306388284A4633ADF8223028492B46C7
:103B00000995FFF761FA23880AA8C833ADF8283071
:103B10006388214A7733ADF82A3022492B460B952A
:103B2000FFF752FA23881C4A03F5A573ADF830302D
:103B300063880CA87733ADF832301B492B460D95BE
:103B4000FFF742FA294604F12800FFF770FA2946E8
:103B500004F12000FFF76BFA294604F11000FFF78B
:103B600066FA294604F11800FFF761FA2B460A4A63
:103B70000E4904F14000FFF727FA0FB030BD0FB037
:103B8000BDE83040FFF7FFB908000020A06C010835
:103B9000B16C0108B86C010800000020C46C010879
:103BA000CF6C0108D76C0108DA6C0108826D01083E
:103BB000F0B54B7B0D46012B08BF1F260B7B0EBFBC
:103BC00037464FF6FF760027012B0CBF1F2100213F
:103BD00087B00446FFF72BFA2B78022B1DD0032B5E
:103BE0006CD0012B17D1638831461433638604F1FE
:103BF0003000FFF71CFA2A7A544B684653F82230FB
:103C000053496A6805F018FD3B466946514A04F17C
:103C10004000FFF7D9F907B0F0BD638831463D3366
:103C2000638604F13000FFF702FA238B0133ADF80D
:103C30000830638B0133ADF80A30A38B023BADF83B
:103C40000C30E38B023BADF80E30238A0133ADF824
:103C50001030638A0133ADF81230A38A023BADF80D
:103C60001430E38A023BADF816302B7A012B17D1C2
:103C700002A8FFF788F9002104F11000FFF7D7F937
:103C80004FF4FC6104A8FFF78FF92A7A2F4B68469E
:103C900053F822302E496A6805F0CEFC0023B4E7C1
:103CA000022BF2D104A8FFF76EF9002104F11800ED
:103CB000FFF7BDF94FF4FC6102A8E4E763883146E1
:103CC0006F33638604F13000FFF7B1F9238C0133C1
:103CD000ADF80830638C0133ADF80A30A38C023B99
:103CE000ADF80C30E38C023BADF80E30238D013380
:103CF000ADF81030638D0133ADF81230A38D023B67
:103D0000ADF81430E38D023BADF816306B7A012B21
:103D10000DD104A8FFF737F9002104F12000FFF7C7
:103D200086F94FF4FC6102A8FFF73EF973E7022B16
:103D30007FF471AF02A8FFF726F9002104F12800F3
:103D4000FFF775F94FF4FC6104A8EDE7C46D0108B5
:103D5000866D010808000020044B054AC360054B2E
:103D6000C0E90023044B8360704700BFF00F0108D7
:103D700009010B00400051001201140011B108307C
:103D8000FFF7FCB8FFF7FFB80B784FF6FF71012B78
:103D900008BF1F21FFF74BB9174A184B1849C0E954
:103DA00000234FF01E13174AC0E904130262164B9A
:103DB000164A1749C0E90C2302F5B4028263154A7A
:103DC000DFF854C08262154AC0E906C3C262144AD1
:103DD000C0E91423134A8265134AC0E91112026430
:103DE000124AC264124AC0E91A23124B0367124BEB
:103DF0000366124B4366704711007400BA01A100BC
:103E00005400B5003900F600400051009D009C00B0
:103E1000C0FD0008A600A50043009C00F00F0108AB
:103E2000F8009C000101F6000201AB0070260108B9
:103E300052019C005201F6005901A500D04A010828
:103E400037B50446002941D000250021FFF7EFF8DF
:103E50002388214A6433ADF80030638868460F3305
:103E60001E49ADF802302B460195FFF7ADF804F17D
:103E70006000FFF783F8294604F11000FFF7D7F838
:103E800004F12800FFF77AF804F14000FFF776F814
:103E90002B4604F12000124A1249FFF795F82B46F1
:103EA00004F138000E4A1049FFF78EF82B4604F152
:103EB00058000B4A0D49FFF787F82B46084A0C4972
:103EC00004F17000FFF780F803B030BD03B0BDE827
:103ED0003040FFF758B800BF080000208D6D010882
:103EE000000000209D6D0108A46D0108AB6D010864
:103EF000B06D010873B58B780D46012B4FF6FF733B
:103F000018BF19462B78044603F1FF3308BF1F2161
:103F1000042B25D8DFE803F0032638707900183029
:103F2000FFF785F8AB79208A618A012BA28AE38AA0
:103F300001F1010100F10100ADF80210ADF800003F
:103F4000A2F10202A3F102030CBF4FF4FC614FF691
:103F5000FF716846ADF80420ADF80630FFF724F88D
:103F600002B070BD3030FFF762F82B792C4A012B7C
:103F70004FF000030CBF2B492B4904F1380002B06D
:103F8000BDE87040FFF720B85030FFF750F86B796C
:103F9000B4F85000B4F85210B4F85420022BB4F81E
:103FA000563000F1010001F10101A2F10202A3F17A
:103FB0000203ADF8000004F158066846ADF802109F
:103FC000ADF80420ADF806300CD1FEF7DCFF04F1AB
:103FD0004000FEF7D3FF0023114A14493046FEF794
:103FE000F3FFBDE7FEF7CFFF04F14800FEF7C6FF81
:103FF00000230B4A0E49F1E76830FFF718F8002359
:10400000074A0C4904F17000B9E74FF6FF73994273
:1040100008BF002102B0BDE87040FFF708B800BF3C
:1040200000000020A46D0108B76D0108AB6D010808
:10403000BE6D0108B06D0108112303807423438015
:104040004FF4DD738380A123C3802F230381B0232A
:104050004381704711B10021FEF7E9BFFEF793BF1E
:104060000023024A0830FEF7AFBF00BF1000002057
:1040700003780B2B8EBF01230133DBB20370704733
:104080000378012B92BF0C2303F1FF33DBB20370E3
:104090007047000010B50446FEF738FE012384F88F
:1040A0002130836804F1210184F8223043790348E8
:1040B00084F82330BDE81040FFF71EBC4408002000
:1040C000F0B50446012587B001A8FEF715F8BDF844
:1040D0001230104E84F85E309DF8063004F15A0715
:1040E00084F85F309DF8083084F85B309DF8093023
:1040F00084F85C309DF8143084F85D3084F85A50B0
:10410000394630460135FFF735FB062DF6D107B0AD
:10411000F0BD00BF7C0500200121002310B504463E
:10412000017043800F48FFF7D3FAFEF737FD0323F2
:104130002377437804F11C0163770B48FEF7E6FF11
:104140002046FFF7A7FF2046FFF7BAFF201D4FF4D8
:104150007A71FDF7F9FF04F10800BDE81040FDF7A2
:10416000F7BF00BF7C0500204C05002070B504237C
:104170000025044694B00370294645802748FFF780
:10418000A7FA01212648FFF765FF607EFEF74AF88F
:10419000012603238DF8245002258DF825608DF823
:1041A00026308DF827504378DA1EB2422AD8627E34
:1041B0001C49324401A805F03FFA8DF82460637E63
:1041C0008DF829508DF82830FEF7C6F809A9FEF7BA
:1041D00019F901A91248FFF743FF607EFEF722F8A4
:1041E000437804F11801237601230F48E376FFF7A3
:1041F00061F840F6B83104F10C0014B0BDE870402D
:10420000FDF7A2BF013B012BE3D8627E07490132D3
:1042100001A805F011FA8DF82450D0E77C050020A4
:1042200064070020186E0108BC0500202D6E0108EF
:1042300090F87C200B46042A24D8DFE802F003091A
:1042400010161C00837600F118010F48FFF732B8F2
:1042500080F8243000F121010C48FFF74DBB0146E6
:104260000B4801F81F3FFFF78FBD837700F11C015A
:104270000848FEF74BBF80F8603000F15A0106484D
:10428000FFF778BA704700BFBC0500204408002043
:10429000740700204C0500207C0500200048704772
:1042A0006C0800202DE9F8430446DFF87490DFF82D
:1042B000748048461C4FFEF7FBFE1C4E4046FEF73E
:1042C000A1FF1B4D3846FFF7AFFA3046FFF744FD1C
:1042D0002846FFF7D5F91748FFF73CF81648FFF7CF
:1042E000ABFE1648FFF78AFB1548FFF755FD484619
:1042F0000121FEF705FF40460121FEF799FF3846F0
:104300000121FFF7B3FA30460121FFF737FD2846B8
:104310000121FFF7DDF92046BDE8F843FFF7FCBEB9
:104320004C050020BC050020440800207407002034
:104330007C050020D405002064070020FC07002035
:10434000840700202DE9F04303780446013B8DB03B
:10435000072B00F22081DFE813F008001804D502D3
:10436000A80441011702BA048205837800F1080508
:10437000002B00F0E780033B062B00F2E180DFE832
:1043800013F0070007002A002101270129012B0152
:104390000221FFF74DFFA378032B13D194F87C3053
:1043A00073B1013B84F87C3001212046FFF740FFC8
:1043B00094F87C10C14805F0A1F841F28831BCE0C6
:1043C0000423EFE7042BEFD194F87C30032B8CBF50
:1043D00000230133E6E790F87C30042B00F2B08034
:1043E000DFE803F003175E97DC00877E012F40F0C3
:1043F000A7800026022146800170FFF719FFB04810
:1044000084F87C606676E77604F11801FEF752FFC7
:10441000D3E790F82470012F40F0928007234FF0EB
:1044200000090370A0F8029000F16C06FEF76EFC24
:1044300080464946A348FFF74BF93946A248FFF7A3
:104440000FFB98F80530314684F8743098F8043042
:104450009D4884F87530D8F800304FF00208236783
:1044600084F8798084F86C70FFF7A2FB3146964897
:1044700084F86C80FFF79CFB0323314684F86C3092
:104480009148FFF795FB40F2011331468E4884F8BE
:104490007C7084F86C70A4F87830FFF789FB8CE7A7
:1044A000C67F012E4CD1062300210370418087482E
:1044B000FFF70EF931468648FFF7C2FCFEF7F4F924
:1044C000022384F8633084F86430C27884F866602C
:1044D000052684F8682084F867308378DFF8F08157
:1044E00004F1620784F8653039464046FFF702FD63
:1044F000013EF9D1012302223946754884F87C3007
:1045000084F8632084F8643084F86230FFF7F2FCAA
:1045100053E7867F012E13D10823002103704180C9
:104520006A48FEF757FF31466A48FFF793FD6A492C
:104530006848FFF795FD4FF4FA612846FDF704FE41
:104540000023A370261D3046FDF716FEA8B14FF4D8
:104550007A713046FDF7F8FDFEF720FB0323237741
:10456000437804F11C015D486377FEF7CFFD2046D8
:10457000FFF7A6FD2046FFF78DFD2846FDF7FCFD61
:1045800048B102212046FFF753FE2846FDF7E0FD23
:10459000042384F87C300DB0BDE8F08390F86030DF
:1045A000012BCDD105220270002280F87C304280A0
:1045B00080F85A3080F8613000F15A014148FFF725
:1045C000D9F8FAE6002320466376FFF7CFFDB7E778
:1045D0000123F8E70223F6E70323F4E7837800F1E9
:1045E0000805A3B1042B0DD8022B00F15A0626D8DA
:1045F00090F87C20013A042A3BD8DFE802F04B55C2
:104600008C957A00052B00F099800023A370284632
:10461000FDF7B2FD0028BED000212C48FEF7DAFEDF
:1046200094F87C3084F85A30022384F8613084F89E
:10463000603020460DB0BDE8F043FFF76DBD0223AA
:10464000314680F861301F48FFF794F8A27894F85B
:104650007C30032A17D1012B94BF052303F1FF33CC
:1046600084F87C3094F87C3084F85A30012384F844
:10467000613031461348FFF77DF841F28831284612
:10468000FDF762FDC1E7042AECD1042B8CBF0123A6
:104690000133E5E7012B00F15B0002D1FFF7E8FCF5
:1046A000E7E7FFF7EDFCE4E7012B90F85C201BD176
:1046B0003A2A15D8013284F85C20DAE7426E010804
:1046C000BC0500207C050020FC070020D40500204C
:1046D00084070020640700205A6E01084C05002062
:1046E000002384F85C30C4E70AB1013AE3E73B23D6
:1046F000F7E7012B90F85E2005D11D2A08D801327A
:1047000084F85E20B5E7012A01D9013AF8E71E23B3
:1047100084F85E30ADE790F85D30012B0CBF0223CA
:10472000012380F85D30A4E7012B00F15F0002D186
:10473000FFF7A6FC9DE7FFF79BFC9AE70021B7482F
:10474000FEF748FE0121B648FFF784FCB549B4489E
:10475000FFF786FC01238DF804308DF80530042323
:104760008DF806301023D4F85B008DF8073094F8EC
:104770005F3002908DF80C30FDF7EEFD01A9FDF7DA
:1047800041FE4FF4FA617AE7837800F1080653B1ED
:10479000042B04D8022B23D844F620617CE0052B9F
:1047A00046D00023A3703046FDF7E6FC00283FF416
:1047B000F2AE022504F162019B4884F8635084F84C
:1047C0006450FFF797FB04F11F019848E57784F8E0
:1047D0002050FFF7D9FA00219348FFF731FB28E773
:1047E000022300F1620580F8643029468E48FFF705
:1047F00081FBA27894F87C30032A12D1012B94BF5C
:10480000052303F1FF3384F87C30012384F86430FE
:1048100094F87C302946844884F86230FFF76AFBBC
:10482000BAE7042AF1D1042B8CBF01230133EAE754
:1048300000F16207FEF738F806228DF80620002204
:1048400001238DF8042094F87C208DF80530013A7E
:10485000042A35D8DFE802F024364352030001254C
:1048600039467148FFF746FB9DF8043023B1FEF747
:1048700017F801A9FEF7DEF8002D8DD000216A4857
:10488000FFF7DEFA01216648FFF7E4FB6849644858
:10489000FFF7E6FB4FF4FA613046FDF755FC80E781
:1048A00094F86820012A4FF0020205D1032384F80E
:1048B00068208DF8043003E084F868308DF8042017
:1048C0000025CDE794F86620012A04D1022384F85C
:1048D00066300623EDE784F866300723E9E783783E
:1048E000022BEDD194F86720022A04D1012384F829
:1048F00067300423DDE784F86730EEE7022284F8AE
:104900006520D6E7837800F10806D3B1042B13D8CD
:10491000022B00F1250529D890F87C20082A00F206
:104920009880DFE812F070008900A400B100BD009B
:10493000D400F500E1000301052B00F00081002305
:10494000A3703046FDF718FC00283FF424AE022384
:104950003848E37604F11801FEF7ACFC3046FDF769
:10496000F7FB00212D48FEF735FD62E602232946BC
:1049700080F859302948FEF7BFFDA378032B23D1D7
:1049800094F87C30E3B1013BDBB284F87C3084F8EE
:1049900026300123294684F859302048FEF7ACFD23
:1049A00094F87C30082B05D194F8253053B1013BA5
:1049B00084F8253043F698213046FDF7C5FBBEE765
:1049C0000823E2E70523F3E7042BF3D194F87C30C6
:1049D0002946072B8EBF00230133DBB284F87C30DD
:1049E00084F8263001230D4884F85930FEF784FD01
:1049F00094F87C30082BDDD194F82530042B8CBF43
:104A000000230133D4E790F82500012B05EBC0000B
:104A100000F1020041D1FFF72BFB1AE0D405002082
:104A200064070020686E01088407002074070020D6
:104A3000816E0108BC05002090F82510012B00EBC9
:104A4000C10191F828200DD13A2A07D8013281F806
:104A500028202946C048FEF74FFDABE7002381F828
:104A60002830F6E70AB1013AF1E73B23F7E790F87F
:104A7000253000EBC30393F82920012A0CBF022242
:104A8000012283F82920E4E790F82500012B4FEA62
:104A9000C00000F105002844BCE7FFF7F1FAD8E7B1
:104AA00090F82510012B00EBC10191F82B2009D1C2
:104AB0003A2A03D8013281F82B20CAE7002381F873
:104AC0002B30C6E70AB1013AF5E73B23F7E790F848
:104AD000253000EBC30393F82C20012A0CBF0222DF
:104AE000012283F82C20B4E790F82510012B00EB6D
:104AF000C10191F82D2005D11D2A06D8013281F877
:104B00002D20A6E71D2AF9D9012381F82D30A0E731
:104B100090F82500012B05EBC00000F1090002D13F
:104B2000FFF7AEFA95E7FFF7A3FA92E790F8573050
:104B3000012B0CBF0223012380F8573089E70021A5
:104B40008548FEF747FC01218448FFF783FA844932
:104B50008248FFF785FA02238DF8043001238DF88F
:104B6000053004238DF8063010238DF80730637E5E
:104B70008DF8103004F127030593FDF7EDFB01A933
:104B8000FDF740FC4FF4FA6116E78378042B26D832
:104B9000022B26D990F87C3000F1180543760223C9
:104BA0002946C3766F48FEF785FBA27894F87C30DF
:104BB000032A2DD1013B03F0030384F87C3094F8E1
:104BC0007C302946637601236648E376FEF772FB64
:104BD00041F2883104F10800FDF7B6FA01E0052B37
:104BE0001AD0A3780BB10023A37004F1080528465E
:104BF000FDF7C2FA00283FF4CEAC02235948E37611
:104C000004F11801FEF756FB2846FDF7A1FA10E55E
:104C1000042AD4D10133CEE7C57E012DE1D103238F
:104C20000021037041805048FEF752FD29464A4852
:104C3000FEF7D0FBFDF72AFC3122637E04F1250745
:104C400002FB030004F1270300F1300250F8041BBB
:104C5000904243F8041BF9D100254FF00208027876
:104C6000DFF8F4901A70002684F8265084F85980F2
:104C700084F82560394648460136FEF73DFC062E8D
:104C8000F6D10135092DEED1002384F87C3084F86B
:104C9000253084F82630012339462F4884F85930CE
:104CA000FEF72AFC43F6982194E70C30FDF764FAEE
:104CB00000283FF470AC00212848FFF7CBF902230D
:104CC0002848E37604F11801FEF7F4FAB1E4877896
:104CD00000F108052FB3042F1FD8022F00F16C0636
:104CE00048D80223314680F879302048FEF760FF2B
:104CF000A27894F87C30022A40F08080012B94BF87
:104D0000032303F1FF3384F87C3094F87C3084F87B
:104D10006C30012384F879303EE0052F77D00023F2
:104D2000A3702846FDF728FA00283FF434AC94F825
:104D30007C3004F1210184F86C3040F20223A4F8A5
:104D4000783002230A4884F82430FEF7D5FD00218C
:104D50000648FEF785FE6CE4D405002064070020B9
:104D6000986E0108BC0500207C050020FC0700208F
:104D70004408002090F87C20022A1CD0032A34D05A
:104D8000012A09D1032F90F870300FD1622B8CBF0C
:104D90000023013384F8703031463448FEF708FFB1
:104DA00041F288312846FDF7CFF9B8E70BB1013B56
:104DB000F0E76323EEE790F87410036F012909D13F
:104DC000052103EBC30393FBF1F32033036780F862
:104DD0007420E1E70922203B03EB830393FBF2F30A
:104DE0000367012380F87430D6E790F87530022B02
:104DF0000CBF0123022380F87530CDE7012A84D14E
:104E0000022B01D801337EE784F87C207DE7002166
:104E10001648FEF725FE01211548FFF71BF9154935
:104E20001348FFF71DF901238DF804308DF8053084
:104E30000C238DF8073094F875308DF806708DF8D6
:104E40000C30236F029394F874308DF80D30FDF719
:104E500083FA01A9FDF7D6FA4FF4FA61A2E7083008
:104E6000FDF78AF900283FF496AB7AE5FC070020AD
:104E700064070020AE6E010810B504460430FDF74B
:104E80006DF904F10800FDF769F904F10C00BDE8C3
:104E90001040FDF763B94B78022B04BF0B78837089
:104EA00070470000202808B522D004D801280CD073
:104EB000102815D008BD8028FCD11148FDF74CF909
:104EC0000028F7D11E210E4806E00E48FDF744F9F0
:104ED0000028EFD11E210B48BDE80840FDF734B98A
:104EE0000948FDF739F90028E4D11E210648F3E707
:104EF0000648FDF731F90028DCD11E210348EBE715
:104F00009C010020AC0100206C0100208C010020DD
:104F1000012002F085BB102002F082BB08B52020E2
:104F200002F07EFBBDE80840802002F079BB000063
:104F3000F0B599B001F044FE1422002110A803F04E
:104F40000BFF1422002109A803F006FF1022002104
:104F500005A803F001FF02244FF480330122CDE9BC
:104F60001543CDE90E234FF400130EA812921793A8
:104F700002F0B4FF08B100F023FA0F23CDE90934A1
:104F80000023022109A8CDE90B330D9303F07CF92E
:104F900008B100F015FA022305934FF4004305A869
:104FA000079303F033FA08B100F00AFAB94D102262
:104FB000002109A803F0D0FEAB69022743F01003DB
:104FC000AB610126AB69002203F010030193019B42
:104FD000AB69022143F02003AB61AB69AE4803F03B
:104FE00020030293029BAB69002443F00403AB61EE
:104FF000AB6903F004030393039BAB6943F008031D
:10500000AB61AB6903F008030493049B02F002FB5D
:10501000002240F65F71A14802F0FCFA00224FF432
:10502000E0519F4802F0F6FA9B4809A9CDE90976BC
:10503000CDE90B7702F00EFA0C23974809A9CDE9C8
:1050400009340B9402F006FA40F65F73934809A9FD
:10505000CDE90936CDE90B4702F0FCF94FF4E053F6
:105060008F4809A9CDE90936CDE90B4702F0F2F9DD
:105070004FF4FC5388480EA90E93CDE90F441194C8
:1050800002F0E8F94FF4805384480EA9CDE90E34BC
:10509000109402F0DFF94FF4004380480EA9CDE9E7
:1050A0000E34109402F0D6F930237E4F7A4809A9C5
:1050B000CDE909370B9402F0CDF92023764809A9F0
:1050C000CDE909340B9402F0C5F9A023734809A96E
:1050D000CDE909370B9402F0BDF909A97048CDE973
:1050E00009670B9402F0B6F9062002F06DF817205C
:1050F00002F06AF80A2002F067F86B486B4BCDE9C2
:105100000E4403604FF460231094846004730475AC
:10511000C3614460066101F07BFF08B100F050F903
:105120000A23CDE90E3600235F480EA9109301F043
:105130002DFE08B100F044F900226B69114643F0DE
:1051400001036B616B690E2003F001030093009B68
:1051500002F008F80E2002F037F800220F20114666
:1051600002F000F80F2002F02FF8514D5148524B39
:105170004FF48042C0E900530023C0E90233C0E984
:105180000423C0E90633036202F032FC08B100F0E8
:1051900017F9FCF767FD00F08DFDD020FCF790FFBC
:1051A000FBF778FEFCF7E0FC102200210EA803F0CC
:1051B000D3FD4F224148424C0023C0E900424FF644
:1051C000FF72CDE90933C0E903238360836103F0F3
:1051D000DDFA08B100F0F4F84FF4805337480EA917
:1051E0000E9303F0BCFB08B100F0EAF8002333484B
:1051F00009A9CDE9093303F0E7FC08B100F0E0F8B4
:105200000024FCF79BF9FCF7F1FF1022002109A80C
:1052100003F0A2FD21461C220EA8CDE9054403F0AF
:105220009BFD4F23274828498460C0E9001363236E
:105230008461C0E9033403F0A9FA08B100F0C0F8B2
:105240004FF480531F4809A9099303F088FB08B164
:1052500000F0B6F81B4803F0C5FA08B100F0B0F84A
:105260000023184805A9CDE9053303F0ADFC08B1CA
:1052700000F0A6F860225A23CDE90E23002211483F
:105280000EA91092129203F005FBF8B100F098F805
:105290001CE000BF00100240001001400008014067
:1052A000000C014000002110EC0800200024014007
:1052B000005400401C090020A0860100B80900200D
:1052C000000800407009002000040040044800F07D
:1052D0003FF90021024803F037FC19B0F0BD00BFD0
:1052E000700900202DE9F047FFF722FE2B4804F05B
:1052F0008BF92B4804F088F92A492B4804F0FEF872
:105300002A492B4804F0FAF8244804F07DF929488A
:10531000FBF7F4FD2848FBF715FFFDF71DF8804665
:10532000FDF764F8FEF7BAFF8246FEF7BBFFFDF714
:10533000E9FC8146FDF77CFDFDF7ACF80746FDF77B
:10534000ADF8FDF7ADFA0546FDF7B2FAFCF766FFDA
:105350000646FCF76FFFFDF725FC0446FDF726FC2B
:1053600003F02EF80146154804F0C8F85046FEF741
:10537000E9FF4846FDF7CEFC4046FCF7F1FF384612
:10538000FDF7EAF83046FCF765FF2846FDF7EEFA30
:105390002046FDF70DFCFCF701FFE7E7C36E0108AF
:1053A000EE6E0108016F0108106F01082B6F0108F4
:1053B000376F010864010020B4010020466F010826
:1053C00072B6FEE70E4B82B09A6942F001029A6112
:1053D0009A6902F001020092009ADA6942F0805262
:1053E000DA61DB69074A03F080530193019B53683C
:1053F00023F0E06343F00073536002B0704700BFD6
:10540000001002400000014010B5044686B0102292
:10541000002102A803F0A0FC2268104B9A421BD185
:1054200003F56C439A690E4842F400729A619A69D6
:1054300002A902F400720092009A9A6942F01002E6
:105440009A619B69012203F010030193019B0323DE
:10545000CDE9022301F0FEFF06B010BD002401409B
:105460000010014010B5044686B01022002102A8A9
:1054700003F072FC2268114B9A421CD1104CC022DE
:10548000A369104843F00803A361A36902A903F0CC
:1054900008030093009B1223CDE902230323059305
:1054A00001F0D8FFE36943F40013E361E36903F417
:1054B00000130193019B06B010BD00BF00540040D3
:1054C00000100240000C014003681D4A84B0934262
:1054D0000BD11C4B9A6942F400629A619B6903F4F8
:1054E00000630093009B04B07047B3F1804F0BD171
:1054F00003F50433DA6942F00102DA61DB6903F093
:1055000001030193019BEEE70F4A93420AD10D4B31
:10551000DA6942F00202DA61DB6903F00203029306
:10552000029BE0E7094A9342DDD1064BDA6942F07B
:105530000402DA61DB6903F004030393039BD2E7FF
:10554000002C014000100240000400400008004010
:10555000102210B5044688B00DEB0200002103F0C4
:10556000FBFB2368234A934215D1234B9A6942F0EF
:1055700004029A619B6903F004030193019B4FF4B9
:105580007063049302231D4804A90593079301F057
:1055900061FF08B010BDB3F1804F0CD103F50433A7
:1055A0009A6942F004029A619B6903F00403029332
:1055B000029B0F23E5E7124A9342EAD10E4B1148B2
:1055C0009A6904A942F010029A619B69402203F093
:1055D00010030393039B0223CDE90423079301F0F7
:1055E00039FF094A536843F0E06343F44063536072
:1055F000CFE700BF002C014000100240000801402E
:10560000000400400010014000000140FEE7FEE7FA
:10561000FEE7FEE7FEE770477047704708B5FCF706
:10562000B9FDBDE8084001F0DDBA0120704708B5BA
:1056300003F016FB162303604FF0FF3008BD08B5DA
:1056400003F00EFB16230360FEE770B50D4614460B
:105650000E46731B9C4201DC204670BDAFF30080F8
:1056600006F8010BF5E74FF0FF3070474FF4005399
:1056700000204B60704701207047002070470000F9
:105680000B4A0346116810B509B90A491160106840
:1056900009490A4C0344091B8B4206D903F0E0FA7E
:1056A0000C2303604FF0FF3010BD1360FCE700BF18
:1056B000000A0020A00F002000500020000400007D
:1056C0007047000000B51248B7B003F017FF11484B
:1056D00003F09AFF01238DF80030FDF717FB024617
:1056E0000068516801AB03C390681860FDF7DCF8EF
:1056F00003680493FCF7CAFEC422014605A803F020
:1057000003FB37216846FCF773F937B05DF804FBFB
:10571000786F01088D6F010810B50648064C03F03C
:10572000EDFE064803F070FF20463721FCF774F9C0
:10573000204610BD786F0108040A0020B46F0108EC
:105740000C480D490D4A002302E0D458C4500433DC
:10575000C4188C42F9D30A4A0A4C002301E01360B2
:105760000432A242FBD3FFF7ABFF03F091FAFFF73D
:10577000B9FD70470000002044010020E4700108DA
:1057800048010020A00F0020FEE74FF4F0707047A2
:105790004FF4A0707047000010B53D4C2378DA0735
:1057A0000AD443F001029B07227001D401F0C2F831
:1057B000237843F002032370692001F0ADF8012043
:1057C00001F030F9052001F0A7F80F22E02031495F
:1057D00001F06CF90F22E1202F4901F067F9022254
:1057E0002E49C02001F062F9052001F095F8C12092
:1057F00001F018F9412001F029F9052001F08CF899
:1058000003222749C52001F051F9052001F084F851
:105810003A2001F007F9662001F018F9B02001F0F4
:1058200001F9802001F012F9B12001F0FBF8A0206D
:1058300001F00CF9B42001F0F5F8022001F006F9AE
:1058400002221849B62001F031F9E92001F0EAF806
:10585000002001F0FBF804221349F72001F026F99B
:10586000052001F059F8112001F0DCF8782001F052
:1058700053F8292001F0D6F8052001F04DF8362024
:1058800001F0D0F8BDE81040282001F0DFB800BFDB
:10589000DC0A0020A0A10008B0A10008DE6F01080A
:1058A000C0A10008E16F0108E46F010870B505466A
:1058B0000C462E0A2A2001F0B5F8EDB2304601F070
:1058C000C5F8284601F0C2F8304601F0BFF8284676
:1058D00001F0BCF8250A2B2001F0A4F8E4B2284618
:1058E00001F0B4F8204601F0B1F8284601F0AEF816
:1058F0002046BDE8704001F0A9B800002DE9F8434A
:105900001F46054616460C461A4B07F1FF3919800B
:10591000194B01EB09022A201A805FFA85F801F081
:1059200081F8280A01F092F83544404601F08EF8DB
:10593000681EC0F3072001F089F8701E4044C0B211
:1059400001F084F82B2001F06DF8E5B2200A01F097
:105950007DF8284601F07AF8E0190138C0F30720F5
:1059600001F074F805EB0900C0B2BDE8F84301F09E
:105970006DB800BFE80A0020E60A002008B5112033
:1059800001F050F8BDE80840012000F0C7BF08B59D
:10599000102001F047F8BDE80840002000F0BEBF2D
:1059A000002307B501930B4B1B780BB9FFF7F4FEEF
:1059B00000230322042001A901F0AAF8019A064B52
:1059C00049F28840B3EB420F18BF002003B05DF8E6
:1059D00004FB00BFDC0A00205480660073B5054656
:1059E0000C462E0A2A2001F01DF8EDB2304601F0D7
:1059F0002DF8284601F02AF8304601F027F828460D
:105A000001F024F8250A2B2001F00CF8E4B2284616
:105A100001F01CF8204601F019F8284601F016F8AC
:105A2000204601F013F801232E201A460DF106013D
:105A300001F088F8BDF8060002B070BD70B51D46D3
:105A40001446049EFFF75AFF314605FB04F2BDE8F9
:105A5000704001232E2001F075B8000038B5164CB7
:105A6000054663888B4202D1E38893420AD0E280E4
:105A7000C2F5F072521A6180A280332003220F49CE
:105A800001F02CF8A288684290FBF2F302FB1300AD
:105A9000638881B200044ABFD218C91889182388C4
:105AA00009B2994207D089B221800122BDE838406D
:105AB000372000F0DFBF38BDDE0A0020E00A0020FA
:105AC00010B50446001200F0F80000F0BFFFE0102F
:105AD00000F0FC0000F0BAFFE00000F0F800BDE8C4
