:020000040800F2
:100000000050002029560008F5540008F754000855
:10001000F9540008FB540008FD54000800000000DB
:10002000000000000000000000000000FF54000875
:1000300001550008000000000355000805550008A0
:100040007156000871560008715600087156000874
:100050007156000871560008F94D000871560008E5
:100060007156000871560008FF4D000871560008CF
:10007000715600087156000851660008F5650008C1
:100080007156000871560008715600087156000834
:10009000715600087156000871560008054E000898
:1000A0007156000871560008715600087156000814
:1000B0007156000871560008715600087156000804
:1000C00071560008715600087156000871560008F4
:1000D00071560008715600087156000871560008E4
:1000E00071560008715600087156000800000000A3
:1000F0000000000000000000000000000000000000
:0C01000000000000000000005FF808F1A3
:1001100010B5054C237833B9044B13B10448AFF341
:1001200000800123237010BD680100200000000042
:1001300070A0000808B5034B1BB103490348AFF397
:10014000008008BD000000006C01002070A00008C5
:1001500081F0004102E000BF83F0004330B54FEA78
:1001600041044FEA430594EA050F08BF90EA020FE5
:100170001FBF54EA000C55EA020C7FEA645C7FEA78
:10018000655C00F0E2804FEA5454D4EB5555B8BF9B
:100190006D420CDD2C4480EA020281EA030382EA0C
:1001A000000083EA010180EA020281EA0303362D9E
:1001B00088BF30BD11F0004F4FEA01314FF4801C71
:1001C0004CEA113102D0404261EB410113F0004F83
:1001D0004FEA03334CEA133302D0524263EB43033A
:1001E00094EA050F00F0A780A4F10104D5F1200ED8
:1001F0000DDB02FA0EFC22FA05F2801841F1000133
:1002000003FA0EF2801843FA05F359410EE0A5F106
:1002100020050EF1200E012A03FA0EFC28BF4CF037
:10022000020C43FA05F3C01851EBE37101F00045ED
:1002300007D54FF0000EDCF1000C7EEB00006EEBFA
:100240000101B1F5801F1BD3B1F5001F0CD3490884
:100250005FEA30004FEA3C0C04F101044FEA4452DB
:1002600012F5800F80F09A80BCF1004F08BF5FEA62
:10027000500C50F1000041EB045141EA050130BD42
:100280005FEA4C0C404141EB0101013C28BFB1F554
:10029000801FE9D291F0000F04BF01460020B1FA9F
:1002A00081F308BF2033A3F10B03B3F120020CDA72
:1002B0000C3208DD02F1140CC2F10C0201FA0CF050
:1002C00021FA02F10CE002F11402D8BFC2F1200CB5
:1002D00001FA02F120FA0CFCDCBF41EA0C0190406B
:1002E000E41AA2BF01EB0451294330BD6FEA0404B4
:1002F0001F3C1CDA0C340EDC04F11404C4F120029F
:1003000020FA04F001FA02F340EA030021FA04F3B0
:1003100045EA030130BDC4F10C04C4F1200220FA07
:1003200002F001FA04F340EA0300294630BD21FA45
:1003300004F0294630BD94F0000F83F4801306BF0B
:1003400081F480110134013D4EE77FEA645C18BFFF
:100350007FEA655C29D094EA050F08BF90EA020F96
:1003600005D054EA000C04BF1946104630BD91EA8E
:10037000030F1EBF0021002030BD5FEA545C05D191
:100380004000494128BF41F0004130BD14F58004D0
:100390003CBF01F5801130BD01F0004545F0FE4144
:1003A00041F470014FF0000030BD7FEA645C1ABF79
:1003B000194610467FEA655C1CBF0B46024650EAB0
:1003C000013406BF52EA033591EA030F41F40021DC
:1003D00030BD00BF90F0000F04BF0021704730B562
:1003E0004FF4806404F132044FF000054FF0000137
:1003F00050E700BF90F0000F04BF0021704730B5F8
:100400004FF4806404F1320410F0004548BF4042CC
:100410004FF000013EE700BF42004FEAE2014FEA21
:1004200031014FEA02701FBF12F07F4393F07F4FFC
:1004300081F06051704732F07F4208BF704793F0FF
:100440007F4F04BF41F40021704730B54FF4607412
:1004500001F0004521F000411CE700BF50EA010215
:1004600008BF704730B54FF000050AE050EA0102BE
:1004700008BF704730B511F0004502D5404261EB2E
:1004800041014FF4806404F132045FEA915C3FF46F
:10049000D8AE4FF003025FEADC0C18BF03325FEA0C
:1004A000DC0C18BF033202EBDC02C2F1200300FABD
:1004B00003FC20FA02F001FA03FE40EA0E0021FAE2
:1004C00002F11444BDE600BF70B54FF0FF0C4CF4D0
:1004D000E06C1CEA11541DBF1CEA135594EA0C0F82
:1004E00095EA0C0F00F0DEF82C4481EA030621EABD
:1004F0004C5123EA4C5350EA013518BF52EA0335F8
:1005000041F4801143F4801338D0A0FB02CE4FF0A9
:100510000005E1FB02E506F00042E0FB03E54FF0D9
:100520000006E1FB03569CF0000F18BF4EF0010ED1
:10053000A4F1FF04B6F5007F64F5407404D25FEACD
:100540004E0E6D4146EB060642EAC62141EA555180
:100550004FEAC52040EA5E504FEACE2EB4F1FD0CC2
:1005600088BFBCF5E06F1ED8BEF1004F08BF5FEA40
:10057000500E50F1000041EB045170BD06F00046F2
:1005800046EA010140EA020081EA0301B4EB5C049F
:10059000C2BFD4EB0C0541EA045170BD41F4801197
:1005A0004FF0000E013C00F3AB8014F1360FDEBFBC
:1005B000002001F0004170BDC4F10004203C35DA98
:1005C0000C341BDC04F11404C4F1200500FA05F31B
:1005D00020FA04F001FA05F240EA020001F00042BC
:1005E00021F0004110EBD37021FA04F642EB060132
:1005F0005EEA430E08BF20EAD37070BDC4F10C045C
:10060000C4F1200500FA04F320FA05F001FA04F21F
:1006100040EA020001F0004110EBD37041F100010B
:100620005EEA430E08BF20EAD37070BDC4F1200516
:1006300000FA05F24EEA020E20FA04F301FA05F27E
:1006400043EA020321FA04F001F0004121FA04F226
:1006500020EA020000EBD3705EEA430E08BF20EAF6
:10066000D37070BD94F0000F0FD101F00046400030
:1006700041EB010111F4801F08BF013CF7D041EAB2
:10068000060195F0000F18BF704703F000465200B6
:1006900043EB030313F4801F08BF013DF7D043EA87
:1006A0000603704794EA0C0F0CEA135518BF95EA3D
:1006B0000C0F0CD050EA410618BF52EA4306D1D1C4
:1006C00081EA030101F000414FF0000070BD50EAE3
:1006D000410606BF1046194652EA430619D094EA6D
:1006E0000C0F02D150EA013613D195EA0C0F05D157
:1006F00052EA03361CBF104619460AD181EA0301AB
:1007000001F0004141F0FE4141F470014FF0000062
:1007100070BD41F0FE4141F4780170BD70B54FF0FD
:10072000FF0C4CF4E06C1CEA11541DBF1CEA13557D
:1007300094EA0C0F95EA0C0F00F0A7F8A4EB05045F
:1007400081EA030E52EA03354FEA013100F0888056
:100750004FEA03334FF0805545EA131343EA12631F
:100760004FEA022245EA111545EA10654FEA0026D4
:100770000EF000419D4208BF964244F1FD0404F58D
:10078000407402D25B084FEA3202B61A65EB0305E9
:100790005B084FEA32024FF480104FF4002CB6EBA6
:1007A000020E75EB030E22BFB61A754640EA0C0026
:1007B0005B084FEA3202B6EB020E75EB030E22BF66
:1007C000B61A754640EA5C005B084FEA3202B6EBA7
:1007D000020E75EB030E22BFB61A754640EA9C0066
:1007E0005B084FEA3202B6EB020E75EB030E22BF36
:1007F000B61A754640EADC0055EA060E18D04FEAF4
:10080000051545EA16754FEA06164FEAC30343EA93
:1008100052734FEAC2025FEA1C1CC0D111F4801F60
:100820000BD141EA00014FF000004FF0004CB6E759
:1008300011F4801F04BF01430020B4F1FD0C88BFF8
:10084000BCF5E06F3FF6AFAEB5EB030C04BFB6EB03
:10085000020C5FEA500C50F1000041EB045170BDF6
:100860000EF0004E4EEA113114EB5C04C2BFD4EB23
:100870000C0541EA045170BD41F480114FF0000EA7
:10088000013C90E645EA060E8DE60CEA135594EA23
:100890000C0F08BF95EA0C0F3FF43BAF94EA0C0F26
:1008A0000AD150EA01347FF434AF95EA0C0F7FF49B
:1008B00025AF104619462CE795EA0C0F06D152EAEF
:1008C00003353FF4FDAE1046194622E750EA4106D3
:1008D00018BF52EA43067FF4C5AE50EA41047FF4E4
:1008E0000DAF52EA43057FF4EBAE12E74FEA410247
:1008F000B2F1E04324BFB3F5001CDCF1FE5C0DD97E
:1009000001F0004C4FEAC0024CEA5070B2F1004FC7
:1009100040EB830008BF20F00100704711F0804FCA
:1009200021D113F13872BCBF01F00040704741F48F
:1009300080114FEA5252C2F11802C2F1200C10FA93
:100940000CF320FA02F018BF40F001004FEAC12377
:100950004FEAD32303FA0CFC40EA0C0023FA02F31B
:100960004FEA4303CCE77FEA625307D150EA0133F1
:100970001EBF4FF0FE4040F44000704701F00040C1
:1009800040F0FE4040F40000704700BF80F000409F
:1009900002E000BF81F0004142001FBF5FEA410357
:1009A00092EA030F7FEA226C7FEA236C6AD04FEA57
:1009B0001262D2EB1363C1BFD2184140484041409C
:1009C000B8BF5B42192B88BF704710F0004F40F44E
:1009D000000020F07F4018BF404211F0004F41F46A
:1009E000000121F07F4118BF494292EA030F3FD036
:1009F000A2F1010241FA03FC10EB0C00C3F1200349
:100A000001FA03F100F0004302D5494260EB4000D7
:100A1000B0F5000F13D3B0F1807F06D340084FEA42
:100A2000310102F10102FE2A51D2B1F1004F40EB37
:100A3000C25008BF20F0010040EA0300704749009F
:100A400040EB0000013A28BFB0F5000FEDD2B0FA3C
:100A500080FCACF1080CB2EB0C0200FA0CF0AABF5F
:100A600000EBC25052421843BCBFD04018437047FD
:100A700092F0000F81F4000106BF80F40000013203
:100A8000013BB5E74FEA41037FEA226C18BF7FEADA
:100A9000236C21D092EA030F04D092F0000F08BF1C
:100AA0000846704790EA010F1CBF0020704712F003
:100AB0007F4F04D1400028BF40F00040704712F142
:100AC00000723CBF00F50000704700F0004343F0A7
:100AD000FE4040F4000070477FEA226216BF0846DD
:100AE0007FEA23630146420206BF5FEA412390EAA0
:100AF000010F40F4800070474FF0000304E000BF96
:100B000010F0004348BF40425FEA000C08BF704746
:100B100043F0964301464FF000001CE050EA01020A
:100B200008BF70474FF000030AE000BF50EA01021F
:100B300008BF704711F0004302D5404261EB41010C
:100B40005FEA010C02BF84460146002043F0B64331
:100B500008BFA3F18053A3F50003BCFA8CF2083A56
:100B6000A3EBC25310DB01FA02FC634400FA02FC5F
:100B7000C2F12002BCF1004F20FA02F243EB020066
:100B800008BF20F00100704702F1200201FA02FCC8
:100B9000C2F1200250EA4C0021FA02F243EB0200BB
:100BA00008BF20EADC7070474FF0FF0C1CEAD052FF
:100BB0001EBF1CEAD15392EA0C0F93EA0C0F6FD0C0
:100BC0001A4480EA010C400218BF5FEA41211ED09E
:100BD0004FF0006343EA501043EA5111A0FB01318A
:100BE0000CF00040B1F5000F3EBF490041EAD3715F
:100BF0005B0040EA010062F17F02FD2A1DD8B3F1DB
:100C0000004F40EBC25008BF20F00100704790F049
:100C1000000F0CF0004C08BF49024CEA502040EA9B
:100C200051207F3AC2BFD2F1FF0340EAC250704761
:100C300040F400004FF00003013A5DDC12F1190F9F
:100C4000DCBF00F000407047C2F10002410021FA11
:100C500002F1C2F1200200FA02FC5FEA310040F129
:100C6000000053EA4C0308BF20EADC70704792F0A2
:100C7000000F00F0004C02BF400010F4000F013ADA
:100C8000F9D040EA0C0093F0000F01F0004C02BFD5
:100C9000490011F4000F013BF9D041EA0C018FE744
:100CA0000CEAD15392EA0C0F18BF93EA0C0F0AD04A
:100CB00030F0004C18BF31F0004CD8D180EA010070
:100CC00000F00040704790F0000F17BF90F0004F09
:100CD000084691F0000F91F0004F14D092EA0C0FEB
:100CE00001D142020FD193EA0C0F03D14B0218BF7E
:100CF000084608D180EA010000F0004040F0FE40C4
:100D000040F40000704740F0FE4040F4400070475F
:100D10004FF0FF0C1CEAD0521EBF1CEAD15392EADE
:100D20000C0F93EA0C0F69D0A2EB030280EA010CCE
:100D300049024FEA402037D04FF0805343EA111167
:100D400043EA10130CF000408B4238BF5B0042F1C5
:100D50007D024FF4000C8B4224BF5B1A40EA0C006A
:100D6000B3EB510F24BFA3EB510340EA5C00B3EB9C
:100D7000910F24BFA3EB910340EA9C00B3EBD10F8A
:100D800024BFA3EBD10340EADC001B0118BF5FEADC
:100D90001C1CE0D1FD2A3FF650AF8B4240EBC25005
:100DA00008BF20F0010070470CF0004C4CEA5020C6
:100DB0007F32C2BFD2F1FF0340EAC250704740F415
:100DC00000004FF00003013A37E792F0000F00F007
:100DD000004C02BF400010F4000F013AF9D040EA85
:100DE0000C0093F0000F01F0004C02BF490011F419
:100DF000000F013BF9D041EA0C0195E70CEAD15311
:100E000092EA0C0F08D142027FF47DAF93EA0C0FF7
:100E10007FF470AF084676E793EA0C0F04D14B02DB
:100E20003FF44CAF08466EE730F0004C18BF31F08D
:100E3000004CCAD130F000427FF45CAF31F0004387
:100E40007FF43CAF5FE700BF4FEA4002B2F1FE4FD4
:100E50000FD34FF09E03B3EB12620DD94FEA00237C
:100E600043F0004310F0004F23FA02F018BF404255
:100E700070474FF00000704712F1610F01D142023C
:100E800005D110F0004008BF6FF0004070474FF0F0
:100E9000000070477047000038B5094C05462046F1
:100EA00005F0A2FF6421204605F034FE204605F03F
:100EB000DDFE28602046BDE8384006F09BB800BF44
:100EC000FC080020002307B56846CDE90033FFF792
:100ED000E3FF40F6E440009B5843000B800080B2E3
:100EE00003B05DF804FB08B5FFF7ECFF6F23B0FB20
:100EF000F3F0C0B2642828BF642008BD104A70B562
:100F000002610260102282800E4A20210262026386
:100F1000802282860C4A002602640122818281841A
:100F2000A0F8442000F1080500F15804284601F01B
:100F30000FF9103505F80C6CAC42F7D170BD00BF4D
:100F40000010014000080140000C01402DE9F04173
:100F5000202104468CB0704806F0CAFA6F4D2B78F9
:100F600083420DD020216C4806F0C2FA287004F1AB
:100F7000180001F0F1F818B91E21694801F0E4F8F1
:100F800004F108052E464FF0010804F158072846E1
:100F900001F0E4F8284601F0EFF858B135F8041CE8
:100FA00055F8080C06F0A4FA08B985F8048028461C
:100FB00001F0CEF81035BD42E9D10023022701250A
:100FC0008DF804308DF80730237F8DF805708DF88B
:100FD0000650002B3AD0B4F84410206C06F088FA82
:100FE00050B38DF8047001F0B7F901A901F00AFAC5
:100FF00094F84C30A3B1A18A206906F079FA002850
:101000005FD104F11806304601F0A6F80725002844
:1010100079D18DF8045001F09FF901A901F0F2F99E
:1010200000232373237784F82C3084F83C3084F831
:101030004C300CB0BDE8F08104F14807384601F0AF
:101040008BF8072598BB8DF80450CCE7237B6BB158
:10105000B4F84410206C06F04BFA0028F3D104F1E8
:101060004807384601F078F80625EBE794F82C306D
:1010700063B1B4F84410206C06F03AFAF8B904F100
:101080004807384601F068F80825DBE794F83C305B
:10109000002BADD0B4F84410206C06F029FA50B9FA
:1010A00004F14807384601F057F80925CAE73846E1
:1010B00001F04EF8C7E704238DF8043093E70323CB
:1010C000FAE7A188206806F013FA20B9304601F04B
:1010D00043F806259BE7A18C206A06F009FA30B98F
:1010E00004F12806304601F037F808258FE7A18E75
:1010F000206B06F0FDF950B904F13806304601F0D6
:101100002BF8092583E7304601F022F881E7052313
:101110008DF804307FE700BF001001402000002060
:101120009C01002001220221014806F0E7B900BF1E
:101130000010014000220221014806F0DFB900BF83
:1011400000100140802210B54FF400744FF48073FA
:10115000028184844FF480524FF480648382104B68
:101160000286A0F84C40A0F868204FF400444FF4E9
:101170000062036143600362836443668365002306
:101180000849A0F85C20C162A0F84040C16300F1AA
:1011900070020376037300F81C3B9042F9D110BD36
:1011A0000010014000080140F8B50446022601275E
:1011B00000F170052189606806F09AF9B0FA80F0B4
:1011C00040092073A18A206906F092F900280CBF1B
:1011D000012300232376237B07D0002B18BF3B4637
:1011E00023701C34A542E5D1F8BD002BF9D126703F
:1011F000F7E7FFF7D9BF00001C235843024B185CE8
:10120000431E584258417047D40100201C235843C4
:10121000024B185C831E584258417047D40100208D
:1012200010B5044600F044FA2046CC2100F09AFAAA
:101230002046BDE81040442100F094BA2DE9FF415A
:101240000B780746282B0C46164603D0002004B026
:10125000BDE8F08100F06BFA0028F7D0384600F0C6
:1012600027FA2146384600F013FB01ADBE2138466F
:1012700000F078FA0924A846384600F083FA013CC9
:1012800014F0FF0405F8010BF6D10821404600F0E8
:101290000CFB9DF80C30834250D1BDF804803846D9
:1012A00000F006FA18F4004F18BFC8F100089DF8C6
:1012B000083018BF1FFA88F8C3F341134FEA181714
:1012C00007F0700214BF0125254648F30717022BCB
:1012D00003F1090147EA020722D00C2927D00A2985
:1012E00017D0C8F3C000FFF70BFC4FF07C51FFF79D
:1012F0005BFC04463846FFF703FC2146FFF74CFB36
:1013000001461DB10020FFF745FB01460120316079
:101310009DE7C8F38100FFF7F3FB4FF07A51E6E752
:10132000C8F34200FFF7ECFB4FF07851DFE708F01D
:101330000F00FFF7E5FB4FF07651D8E7204686E730
:1013400032232DE9F047224D064622482B80FFF735
:1013500067FF642005F0CCFB1E4C204600F0E7F947
:1013600048B12B8883B10027DFF86CA0DFF86C80D0
:10137000DFF860901DE00A2005F0BAFB2B88013BE6
:101380009BB22B80002BE8D1134B1B78B3B100220A
:10139000124B1A7312E06420240105F0A9FB04F13A
:1013A00008024444214648464244FFF747FF0137BC
:1013B00020739AF80030FCB2A342ECD8074B28887F
:1013C0009B68003818BF01203360BDE8F08700BF7C
:1013D000440200204802002021000020600200207A
:1013E0002DE9F8430B780446282B0E4691465CD134
:1013F00000F05EF93146204600F04AFABE21204650
:1014000000F0B0F9204600F0BDF9204600F0BAF92E
:10141000204600F0B7F98046204600F0B3F90746B1
:10142000204600F0AFF9B9F1090F054626D100F0CA
:101430009F05204600F03CF93146204600F028FA8E
:101440004E21204600F08EF94146204600F08AF9F0
:101450003946204600F086F92946204600F082F9F8
:10146000204600F025F93146204600F011FA2046CA
:10147000482100F077F90120BDE8F883B9F10A0F9F
:1014800004D100F0BF0545F02005D2E7B9F10B0FFC
:1014900004D100F0DF0545F04005CAE7B9F10C0FB3
:1014A00004BF40F06005EDB2C3E70020E4E770B58B
:1014B0000B780446282B0D463DD100F0F9F829465B
:1014C000204600F0E5F9BE21204600F04BF9204609
:1014D00000F058F9204600F055F9204600F052F986
:1014E000204600F04FF9204600F04CF90646204611
:1014F00000F0DEF82946204600F0CAF94E212046C9
:1015000000F030F97D21204600F02CF9C921204659
:1015100000F028F93146204600F024F9204600F07A
:10152000C7F82946204600F0B3F92046482100F0CC
:1015300019F9012070BD0020FCE700002DE9F843F7
:1015400005242C4F2C4E2D4D40223946304600F0BC
:1015500089F8002340F6B7382B7005F0C3FA4045F0
:1015600014D9304600F07BF9DFF89490DFF89480CE
:1015700089F8000099F8003063B92A78EAB9013C8B
:1015800014F0FF04E0D12046BDE8F883642005F0A4
:10159000AFFAE2E7642005F0ABFA29783046013172
:1015A000C9B22970013908EB011100F073F9304616
:1015B00000F05BF989F80000DCE71C46DFF84480A6
:1015C0000D4FE6B2322008EB061605F091FA0C2218
:1015D00031463846FFF704FF322005F089FA3146DC
:1015E0003846FFF764FF01342A78E3B29A42E8D81C
:1015F0000120C9E700080140480200202100002026
:101600005C020020600200200022034B1B685A622B
:101610005A6A8242FCD97047C80900208388026850
:101620001B04136170471FB50023CDE90133032369
:101630000393838869460068009305F07FFE05B038
:101640005DF804FB1FB511220023CDE9012303231C
:101650000393838869460068009305F06FFE05B028
:101660005DF804FB70B504460E4615460F4806F0BB
:10167000A1FF20462660A580FFF7E4FF2368A2882B
:101680004FF47A701A6105F033FA2046FFF7C6FF6F
:101690004FF47A7005F02CFA2368A2884FF4FA60B0
:1016A000BDE870401A6105F023BA00BFC8090020E8
:1016B00010B50446FFF7B2FFFFF7C4FF4FF4F07018
:1016C000FFF7A2FF1420FFF79FFF2046FFF7ABFFB5
:1016D0004620FFF799FFA188206805F009FF014621
:1016E0004FF4CD70FFF790FF084610BD10B50446CB
:1016F00089B1FFF793FFFFF7A5FF0A20FFF784FFEB
:101700002046FFF790FF3720FFF77EFF2046BDE819
:101710001040FFF788BFFFF781FFFFF793FF4120DD
:10172000FFF772FF2046FFF77EFF0520ECE710B5BC
:101730000446FFF773FFFFF785FF0220FFF764FF02
:101740002046FFF770FF0A20FFF75EFFA1882068A0
:1017500005F0CEFE01463220FFF756FF081E18BFE7
:10176000012010BD70B506460D460924013C14F059
:10177000FF0400D170BD05F001013046FFF7B6FF50
:101780006D08F3E770B5064609250024013D15F004
:10179000FF0501D1204670BD3046FFF7C8FF640841
:1017A00044EAC014E4B2F1E72DE9F047037A0446B5
:1017B0000E461BB9FFF77CFF054620B10020E080F4
:1017C0002072BDE8F087012731462046FFF7CAFFA7
:1017D000A9463E462046FFF7AAFF8046824620469D
:1017E000FFF7A5FFB8F1010F0FD1012816D1402E48
:1017F000E4D984F80690B9F1000F01D101232372D6
:10180000637A002BDAD00120DBE762198045537A36
:1018100021D1A179B14217D93B4216D04FF0010A2C
:101820006219537A3B435372514620467F00FFF7BB
:101830005DFF013617F0FF07F6B2CBD10135EDB2EF
:10184000082DD4D00127C5E7E8D0082E00D8E671CE
:101850004FF0000AB14623EA07035372E4E700227F
:10186000F021C2800272FFF79FBFF021FFF79CBFFB
:1018700070B50C4655210646FFF774FF651E073408
:1018800015F8011F3046FFF76DFFA542F8D170BD76
:10189000FFF7EEBF00F109030139113013F8012BF6
:1018A000834201F8012FF9D170470346014400201B
:1018B00030B58B4200D130BD082213F8014B80EACD
:1018C000040515F0010F4FEA500018BF80F08C009E
:1018D00002F1FF3218BFC0B212F0FF024FEA540407
:1018E000EDD1E6E710B504460846114600F014FABB
:1018F00000232060237110BD0079704770B50E463B
:1019000004220546006800F0B1FAF278044622B1DC
:101910002868311D00F0AAFA044624B92B79013356
:101920002B71204670BD054D286807F05BFD04480B
:1019300007F0DEFDE86907F055FDF2E7240000201E
:101940008663010870B5047905460E467CB1042211
:10195000006800F0B3FAF278044622B12868311D1D
:1019600000F0ACFA044624B92B79013B2B712046D8
:1019700070BD054D286807F035FD044807F0B8FD37
:10198000E86907F02FFDF2E724000020A4630108B6
:101990000023F0B587B0029301230F461349044694
:1019A000CDE90413164605F0CDFB01A902A805F008
:1019B00071FC08B103F078FC05F0D6FB002505F0BA
:1019C000C1FBAE4204DC05F0CFFB002007B0F0BD48
:1019D00000232146022057F8252005F0F9FB10B915
:1019E00004340135EDE703F05FFCEAE700FC010891
:1019F0000A4601460148FFF7CBBF00BF00FC0108C3
:101A00004FF6FF7310B5401A013A0C5892B29A4241
:101A100041F8044BF8D110BD0A4601460148FFF7D2
:101A2000EFBF00BF00FC010810B500248AB01C22E3
:101A3000214603A8CDE9014407F002F94F234FF0F6
:101A400080422048C0E9002313238460C0E90334A6
:101A5000846106F03BFE08B103F026FC194801A999
:101A6000CDE9014407F024F808B103F01DFC002281
:101A70006023144803A9CDE903320592079206F0CA
:101A80007DFE08B103F010FC04220E4803A906F005
:101A900075FE08B103F008FC08220A4803A906F005
:101AA0006DFE08B103F000FC0C2206480DEB0201AC
:101AB00006F064FE08B103F0F7FB024803F0BCFC3B
:101AC0000AB010BD7002002010B500248AB01C229C
:101AD000214603A8CDE9014407F0B2F84F234FF0A7
:101AE00080422048C0E9002313238460C0E9033406
:101AF000846106F0EBFD08B103F0D6FB194801A99B
:101B0000CDE9014406F0D4FF08B103F0CDFB00227B
:101B10006023144803A9CDE903320592079206F029
:101B20002DFE08B103F0C0FB04220E4803A906F005
:101B300025FE08B103F0B8FB08220A4803A906F005
:101B40001DFE08B103F0B0FB0C2206480DEB0201AC
:101B500006F014FE08B103F0A7FB024803F06CFC8A
:101B60000AB010BDB802002038B5042200240820B5
:101B70000C210A4B0A4DC3E90142C3E90742094A55
:101B8000C3E90401C3E90A011D60DD609A615A627C
:101B9000FFF74AFFBDE83840FFF796BF000300207B
:101BA000B8020020700200202DE9F0410C264643C7
:101BB0000F4F044607EB06080D46B859D8F8081031
:101BC00006F074FFBB59D8F804101B6839B95D637F
:101BD0000C2044433859BDE8F04106F029BF0429E0
:101BE00001D19D63F4E708290CBFDD631D64EFE7B5
:101BF000000300202DE9F0410C2646430F4F044618
:101C000007EB06080D46B859D8F8041006F04EFF49
:101C1000BB59D8F808101B6839B95D630C204443E0
:101C20003859BDE8F04106F003BF042901D19D6396
:101C3000F4E708290CBFDD631D64EFE70003002013
:101C400070B50C244443064D2E19B168285906F08E
:101C50002DFF71682859BDE8704006F027BF00BF0E
:101C6000000300204FF0E022D2F8FC3D43F08073E7
:101C7000C2F8FC3D4FF06042D2F8003E43F0010351
:101C8000C2F8003E704730B5002304464FF0604272
:101C90000846834200DB30BDD2F8801ECD0707D551
:101CA000D2F8001EC90703D5E15C156815B11170A3
:101CB0000133EEE700BFF8E708461146FFF7E3BF40
:101CC00008B528B94E21074B074A084806F01EFF01
:101CD000037C2BB9836840681B1A5842584108BDE1
:101CE0000020FCE7F0630108BC640108F36301080D
:101CF00008B528B98921054B054A064806F006FFB4
:101D000000230374C0E9013308BD00BFF06301087C
:101D100099640108F363010870B50D46064600B1E9
:101D200029B969210D4B0E4A0E4806F0EFFE14202A
:101D300006F046FF044618B96C210B4B084AF3E73E
:101D40000660C560FFF7D4FF2046FFF7B9FF18B95A
:101D50007221064B024AE7E7204670BD1D64010868
:101D6000AB640108F3630108F06301082C64010807
:101D700008B5034628B99721074B084A084806F0DA
:101D8000C5FE1A7CC06832B9D3E901239A4236BF36
:101D90008018D01AC01A08BDF06301081E6501083A
:101DA000F363010810B5044628B9BE21044B054A67
:101DB000054806F0ABFEFFF7DBFFE368181A10BD1D
:101DC000F063010803650108F363010808B508B171
:101DD00003682BB9CA210F4B0F4A104806F096FE34
:101DE00042689954037CC16833B182680132B2FB06
:101DF000F1F301FB1322826043680133B3FBF1F27C
:101E000001FB123382684360D21A53425341037478
:101E100008BD00BF45640108F3640108F3630108CD
:101E200070B50D46044610B109B106682EB9DA2125
:101E30000B4B0C4A0C4806F069FEFFF741FF68B9EE
:101E4000A368F35C2B70A368E2680133B3FBF2F183
:101E50002074012002FB1133A36070BD0020FCE759
:101E600056640108E3640108F3630108F8B50C4601
:101E70001546064608B103682BB9F3210C4B0D4AF1
:101E80000D4806F043FE077C77B9FFF78BFFA842A9
:101E90000CD32544AC4201D13846F8BD304614F885
:101EA000011BFFF793FFF5E70127F5E70227F3E7AB
:101EB00045640108D1640108F363010870B50C465C
:101EC000064638B103682BB121B18D18AC4208D158
:101ED000002070BD40F21511064B074A074806F076
:101EE00015FE21463046FFF79BFF01340028EDD157
:101EF0000320EEE76F64010888640108F3630108BA
:101F00007FB5002364218DF817300123CDE901311D
:101F10000DF11701024600910448D12105F014FE8D
:101F20009DF8170007B05DF804FB00BF2C090020E6
:101F30007FB501238DF817106421CDE901310DF132
:101F40001701024600910448D02105F06DFD0020E4
:101F500007B05DF804FB00BF2C090020002108B584
:101F60000846FFF7E5FFBDE808400020FFF7C8BFBF
:101F70000A22B0FBF2F302FB130000EB0310C0B225
:101F8000704784B038B504AC84E80F0000210846DF
:101F90009DF81450FFF7CCFF9DF81600FFF7E8FFFF
:101FA00001460020FFF7C4FF9DF81500FFF7E0FF92
:101FB00001460120FFF7BCFF2846FFF7D9FF9DF837
:101FC0002140014654B99DF82030022B0BBF40F050
:101FD000600101F0DF01C9B241F040010220FFF7CA
:101FE000A7FF9DF81C00FFF7C3FF01460320FFF782
:101FF0009FFF9DF81E00FFF7BBFF01460420FFF77F
:1020000097FF9DF81200FFF7B3FF01460520FFF789
:102010008FFF9DF81000FFF7ABFFBDE83840014689
:1020200004B00620FFF784BF030903EB830300F02D
:102030000F0000EB4300C0B2704710B5044600200B
:10204000FFF75EFF00F07F00FFF7EEFFA0710120B9
:10205000FFF756FFFFF7E8FF60710220FFF750FF20
:1020600000F01F00FFF7E0FF20710320FFF748FF9B
:10207000FFF7DAFFA0810420FFF742FFFFF7D4FF4C
:10208000E0810320FFF73CFFFFF7CEFFE070052063
:10209000FFF736FFFFF7C8FFA0700620FFF730FFFD
:1020A000FFF7C2FF20800220FFF72AFF00F0200088
:1020B000FFF7BAFF002814BF02230123237410BDC9
:1020C000014B1B681B6818475000002084B013B5F3
:1020D00004AC84E80F00074B1C68BDF82030ADF855
:1020E000003004AB64680FCBA04702B0BDE81040DD
:1020F00004B0704750000020014B1B689B681847D4
:102100005000002000B589B003A8FFF7F5FF9DF847
:102110001C000A490A4B9DF81120012818BF0B46E4
:10212000BDF81A10CDE9002306489DF810309DF83F
:102130000E2007F057F909B05DF804FB3A65010875
:10214000376501083D650108012301804380704720
:102150000023038043807047807870470246807870
:1021600048B1138813B90123D3707047013B9BB268
:102170001380002BF7D07047C0787047014B187060
:10218000704700BF30030020014B1878704700BF34
:10219000300300200120FFF7F1BF000008B5FFF772
:1021A000F3FFF0B10F48FEF7D1FE0F48FFF721F81B
:1021B00001F0ECFF02F0D4FD00F062FD00F056FEED
:1021C00000F068F900F08EFA00F02EFB00F010FC31
:1021D00000F0A6FC00F0ECFCBDE808400020FFF792
:1021E000CDBF08BD84010020D401002030B51123EB
:1021F000002485B0CDE901340323074D03932B68F8
:10220000686869460134009305F098F8032C05F1DD
:102210000805F4D105B030BD5400002000487047D7
:1022200031030020024B00EB40001844704700BF10
:1022300037030020032200230272C27282734274A9
:1022400001224371837143720373C373027043703D
:10225000837070472DE9F04103780446012B5CD16F
:102260008278012A29D1C37803EB43030344D97947
:10227000007901390129987100D91A720023A370DD
:10228000002601274FF00308F5B22846FEF7BEFFEF
:10229000F8B12846FEF7B0FFD8B984F80780237A52
:1022A0005BB3032B3BD1E379032B1ED10023A77132
:1022B00023722846FFF7C4FC1FE0022AE0D1C3784E
:1022C00003EB43030344DA79033A012AD6D9032204
:1022D000D3E72846FEF79AFF0028E0D12846FEF70C
:1022E0008BFF0028DBD0E771D9E7042B05D004234E
:1022F0000A212846E371FFF77DFC0136042E04F124
:102300000304C1D104F0EEFB0D4C2368C01AB0F5F4
:10231000FA6F02D904F0E6FB2060BDE8F081012BE2
:10232000EBD1E379012B02D100232372C1E7022B09
:10233000E3D00A212846FFF737FC0223E371DCE7EC
:10234000440300200B785A1E012A04D883700B79AD
:10235000C3704B79037170470048704748030020F1
:1023600070B505780446012D02D0022D38D070BD1D
:1023700063783030012B2DD10226251D2946FFF729
:10238000E1FAA3792680013B052B09D8DFE803F0A9
:102390000308100A161C01F0F9FE294602F0EFFCB2
:1023A0006670E4E700F076F8294600F09EF9F7E75A
:1023B000FFF734FF2946FFF7C5FFF1E700F060FCA7
:1023C000294600F057FDEBE700F02EFA294600F011
:1023D000E1FAE5E7FFF790FA0028C8D06570C6E794
:1023E0004378022B04BF01230380C0E710B5C82245
:1023F000044603493030FFF775FA0123238010BDEE
:102400008003002038B58B780C46013B062B08D89A
:102410004B78013B062B04D8BDE838403030FFF73D
:102420006DBA064D286806F0DDFFA2786178044891
:1024300006F0D8FFE86906F0D5FF38BD240000207B
:102440008265010801230370002348F6B801037177
:1024500003761A30FFF778BE042300B58DB08DF8EF
:10246000053003238DF8063002238DF80730012351
:102470008DF808108DF809308DF80400FFF76CFF17
:1024800001A9FFF7BFFF0DB05DF804FB00487047DE
:10249000680400200048704748040020F8B500F1A7
:1024A0002005C42200210446284606F0C9FB03F09B
:1024B000A7F803789BB3024600F1C40692F84430B3
:1024C000013B012B07D8134600219F7E1F2F02D806
:1024D000DF7E0C2F2BD9214601270022022504F193
:1024E000C4060B46002081F850700130062883F89E
:1024F000262083F8272083F8232083F8242083F8DC
:10250000255083F8202083F8212083F8225003F1FE
:102510000803EAD13131B142E3D103F047F8002397
:102520002046A4F8E430BDE8F840FFF78BBFDF7D1C
:102530000C2FD0D81F7D0C2FCDD80131062903F1E7
:102540000803C2D13132B242B8D100F11401C42221
:10255000284606F04DFBE2E72DE9F04F03780446EC
:10256000012B8DB008D0023B012B00F2B8800DB0DA
:10257000BDE8F04FFFF766BF0379012B40F08B8079
:1025800002220270002280F8E530C37A8DF82D20F7
:10259000ADF82A30037B02718DF81E300389027674
:1025A000ADF82030837A8DF82C30BDF82C30ADF8A2
:1025B000003007AB0FCBFFF789FDFFF7A3FD04F158
:1025C0001A00FFF7D9FD002800F08980002607A82F
:1025D000FFF792FD9DF82A309DF8218004939DF825
:1025E0001E309DF82C9005939DF8203004F1300AA0
:1025F0000393F7B23846FFF715FE834600780228AA
:1026000042D0AAF130059AF82000012809D195F8A6
:102610002600049B984234D195F82700059B9842E8
:102620002FD195F82000039B984212D195F82100F4
:1026300040450ED195F8220048450AD19BF801008B
:10264000032806D19BF8020018B939460120FFF78C
:1026500003FF95F82300039B984212D195F82400BC
:1026600040450ED195F8250048450AD19BF8010058
:10267000012806D19BF8020018B939460220FFF75D
:10268000EBFE0835AA45BED10136042E0AF1310A07
:10269000AFD120466BE7022B91D1032303700023B7
:1026A0003122466903710376007C314602FB00400B
:1026B00000F12005284606F08BFA00283FF47FAF92
:1026C0003146284606F1300351F8042B994240F870
:1026D000042BF9D10B78037002F068FF6FE70DB09F
:1026E000BDE8F08F1A30FFF739BD2DE9F04191F8C0
:1026F00000800546B8F1010F0C4613D100F1080720
:102700000E1D3146384606F063FA48B1314685F869
:102710000480143451F8043BA14247F8043BF9D13A
:10272000BDE8F081B8F1020FFAD180F804800B699E
:1027300043610B7B0374F3E710B50446064806F0CB
:1027400051FE064806F0D4FE022323700023638066
:102750000123E37310BD00BF27660108326601083C
:1027600010B50446064806F03DFE064806F0C0FED9
:1027700001232370002363800223E37310BD00BF95
:10278000276601085166010810B50446124806F094
:1027900029FE124806F0ACFE032323700023638059
:1027A000A37B022B07D10C4806F01CFE0C4806F058
:1027B0009FFE0123A373084806F014FE094806F0A3
:1027C00097FE022304F10800A3734FF4FA51BDE809
:1027D0001040FFF7B9BC00BF276601087166010809
:1027E00088660108A766010838B50C4D04462846DE
:1027F00006F0F8FD0A4806F07BFE04232370002350
:102800002846638006F0EEFD064806F071FE201DA6
:1028100041F28831BDE83840FFF796BC27660108D1
:10282000BD660108D26601080048704738050020DF
:10283000004870474405002010B50446244806F0BF
:10284000D1FD244806F054FE02F0DAFEC27C531E8D
:10285000012B29D8837C591E012925D8A373002375
:10286000E273237363731A4806F0BCFD1A4806F03E
:102870003FFE174806F0B6FDA17B184B184AE07BD7
:10288000012918BF1A461749174B012818BF1946C6
:10289000164806F0A7FDE3892046B3F5817F13D1E2
:1028A000BDE81040FFF748BF094806F09BFD1048FF
:1028B00006F01EFE0223E3730123A3730023237398
:1028C000637302F073FEE6E7BDE81040FFF748BF10
:1028D00027660108036701083A670108F9660108DD
:1028E000F5660108E6660108ED6601086C670108F7
:1028F0009567010810B503780446013B032B33D8D4
:10290000DFE803F002182033C378022B04D12046FD
:10291000BDE81040FFF710BF062B04D12046BDE8EC
:102920001040FFF731BF042B1ED12046BDE81040F8
:10293000FFF75ABFC378032BEED12046BDE8104005
:10294000FFF70EBFC378072B09D10F4806F04AFDE9
:102950000E4806F0CDFDE37B012BEED1D7E7083022
:10296000FFF70AFC0028F0D110BDC378052B04D175
:10297000054806F037FD0648EBE70430FFF7FCFB9F
:102980000028F5D1F0E700BF27660108D1670108EC
:10299000E667010810B50B7804465A1E062A1DD8B2
:1029A000C3700F4806F01EFDE2780E4B0E4853F838
:1029B000221006F017FDE3789A1E012A0ED8022B8A
:1029C0000CBF012302230648E37306F00BFD074802
:1029D00006F08EFDBDE8104002F0E8BD10BD00BF5E
:1029E0002766010878000020FA6701080C680108D2
:1029F00010B504460430FFF7B1FB04F10800BDE850
:102A00001040FFF7ABBB000038B5FEF75BFA094B8F
:102A100005461C881880844294BF03240424FEF7D2
:102A200062FA132898BF0224002D14BF204601200B
:102A300038BD00BF4805002010B50446164806F012
:102A4000D1FC164806F054FD012323700023A37126
:102A5000FFF7DAFFA070FEF735FAA080FEF743FA21
:102A6000E0700D4806F0BEFCA2780D4BA18853F82B
:102A700022300C48E27806F0B5FCE37804F1080057
:102A8000142B98BF022344F6206198BFA371BDE8C0
:102A90001040FFF759BB00BFB7680108BE680108C6
:102AA00098000020D368010810B50446164806F0C7
:102AB00099FC164806F01CFD022323700023A37125
:102AC000FFF7A2FFA070FEF7FDF9A080FEF70BFA5A
:102AD000E0700D4806F086FCA2780D4BA18853F8F3
:102AE00022300C48E27806F07DFCE37804F108001F
:102AF000192B88BF032344F6206188BFA371BDE86A
:102B00001040FFF721BB00BFB76801080A69010840
:102B100098000020D3680108004870474C05002049
:102B2000004870474A050020FFF786BF10B50378BC
:102B30000446012B02D0022B1AD010BD8379022B40
:102B40000BD1184806F04EFC174806F0D1FC1E20A9
:102B500003F0A6FA2046FFF7A7FF04F10800FFF7ED
:102B60000BFB0028E9D02046BDE81040FFF764BF0A
:102B70008379032B0BD10B4806F034FC0B4806F08D
:102B8000B7FC5A2003F08CFA2046FFF755FF04F1FA
:102B90000800FFF7F1FA0028CFD02046BDE810402A
:102BA000FFF782BFB7680108246901083E69010880
:102BB0000830FFF7D3BA000010B50446084806F005
:102BC00011FC084806F094FC012323700023201D0B
:102BD000A3704EF66021BDE81040FFF7B5BA00BF04
:102BE000A8690108B569010802698368407B01286A
:102BF00008D1191D91420CDB043B9342D4BF002045
:102C00000120704703F10901914201DB093BF4E720
:102C10000120704713B5437B0446012B01A80FD157
:102C2000FEF78EFB0198FEF70FF920610F4806F0C2
:102C3000D9FB21690E4802B0BDE8104006F0D2BBB6
:102C4000FEF77EFB0B490198FDF7AEFF0A49FEF740
:102C50005FF84FF08441FDF79FFEFEF7F5F8206125
:102C6000024806F0BFFB21690448E4E7A8690108AF
:102C7000D1690108000010410000A040F969010875
:102C80000048704758050020004870476005002044
:102C900038B503780446012B02D0022B4ED038BD44
:102CA000051D2846FFF768FA0028F8D02046FFF7F0
:102CB000B1FF2046FFF798FF20B3237B2846012B66
:102CC00032D1FFF745FA334806F08CFB324806F064
:102CD0000FFC022323700023A370637B2269012B66
:102CE000A3681BD1191F8A4213DA0223A3704EF680
:102CF00060212846FFF728FA264806F073FB27488C
:102D000006F0F6FB2846BDE838404EF66021FFF796
:102D10001BBA04339A42EADD0323E7E7A3F1090172
:102D20008A42E2DB0933F5E7FFF712FA2046FFF7A4
:102D300043FF184806F056FB1948E1E78378022B59
:102D40001FD1FEF7F7F9134806F04CFB154806F0C3
:102D5000CFFB0023A370251D2846FFF70DFA00289E
:102D60009DD02046FFF756FF2046FFF73DFF002885
:102D7000C8D12846FFF7ECF92046BDE83840FFF7F8
:102D80001BBF032BE7D1FEF7CDF9024806F02AFB63
:102D90000548DCE7A8690108246A0108406A0108BF
:102DA000676A01088F6A0108B66A010870B50546AE
:102DB000254806F017FB254806F09AFB02F020FC98
:102DC00003780446002B30D0037A013B012B2CD82A
:102DD000437A013B012B28D81B4806F003FB1C4813
:102DE00006F086FB184806F0FDFA607A19491A4A7F
:102DF000267A012818BF0A46184819496368012E27
:102E000018BF0146174806F0EDFA237A2B73637A50
:102E10006B736368AB602846FFF7FCFEFEF78AF928
:102E20002846BDE87040FFF7C7BE074806F0DAFA4B
:102E30000D4806F05DFB1423AB6040F20113AB813B
:102E400002F0B4FBE7E700BFA8690108F06A0108D7
:102E5000216B0108E56A0108DD6A0108ED660108D9
:102E6000E6660108586B01088E6B01080430FFF715
:102E700075B9000038B50B78012B32D10A7A531E90
:102E8000012B22D84B7A5C1E012C1ED84C68856819
:102E9000A5420BD1858909898D4207D1114806F0D9
:102EA000A1FABDE83840104806F022BB0121437367
:102EB000C170846002730B4806F094FA0B4806F068
:102EC00017FBBDE8384002F071BB094C206806F0E2
:102ED00089FA084806F00CFBE069BDE8384006F0C6
:102EE00081BA38BDA8690108BF6B0108F06B010801
:102EF000240000200A6C010842684188008802F022
:102F00004BBF10B504464FF6FF7002F021FE20883B
:102F1000E388A288618803F057F8BDE810400020DC
:102F200002F016BE10B50446084602F011FE2088D5
:102F3000E388A288618803F047F8BDE810400020CC
:102F400002F006BE70B516460D460446184602F05D
:102F5000FFFD304602F008FE2A46618820880323E0
:102F600002F0E4FF044802F0FFFDBDE870404FF6B8
:102F7000FF7002F0F3BD00BF1800002070B50446DA
:102F80000E461546104602F0E3FD20882B463246D9
:102F9000618803F057F9BDE870404FF6FF7002F00A
:102FA000DDBD10B50446084602F0D2FD2088E38856
:102FB000A288618802F05EFEBDE81040002002F0A9
:102FC000C7BD10B50446084602F0C2FD20886188DE
:102FD000072203F007F8BDE81040002002F0B8BD5A
:102FE0000D4A0E4B026102F11012C0E90823826102
:102FF0000B490C4A4361C0E900120B4AC36182606D
:10300000D3F81620103AC281D3F812301A3B8381CC
:10301000064B8362704700BF67011A0018D9000889
:1030200063010A00600051006F01220079012C0049
:1030300011B11030FFF760BFFFF763BF2DE9F74311
:103040008B780446012B0D4615D11F21FFF7A9FFF0
:1030500004F108073846FFF754FF2B78022B18D0ED
:10306000032B19D0012B4FD104F1180003B0BDE898
:10307000F043FFF741BF4FF6FF7002F069FD208873
:10308000E388A288618802F0F5FD002002F060FD6F
:10309000DEE704F12000E9E7A089FDF7ABF96D78E0
:1030A000804628468946FDF7A5F900221E4BFDF70C
:1030B00035FB0B46024649464046FDF705FAFDF74B
:1030C00015FC002681462A461849684600968DF868
:1030D000046006F025FA4846FDF7B6FE6B1E0F2B7E
:1030E000B4F80C80A08112D84FF478413846FFF72D
:1030F00019FF334669460E4A04F12800FFF722FF04
:103100005FFA88F8A4F80C8003B0BDE8F083A5F15D
:103110001103342B02D84FF6E071E7E7463D1E2D30
:10312000EED84FF4FC61E1E700005940B46C0108AF
:10313000000000200F2303800A2343805123C38013
:1031400084238380132303810E2343814923C38176
:103150007C238381322383821923C382704700003A
:103160002DE9FF410023044600938DF8043081B31C
:1031700019460830FFF715FF0125174EDFF85C8070
:10318000174F328823890021134423827288638970
:1031900004F1100013446382FFF703FF238A2A46D9
:1031A0000F33ADF80830638A414604336846ADF802
:1031B0000A30013506F0B4F900233A46694602A800
:1031C000FFF7C0FE052D06F10406DAD104B0BDE814
:1031D000F081FFF796FEF9E74C6D0108A66D010836
:1031E000000000207FB50D4601210446FFF7B8FF1F
:1031F000AB78012B2FD11F212046FFF7D2FE1D4EA9
:10320000EB78012B25D169781B4B228933F82100FB
:1032100003EB810302445B88228262891F211344ED
:10322000638204F11000FFF7BCFE238A6A780F3333
:10323000ADF80830638A1149043301326846ADF8AD
:103240000A3006F06DF91F233246694602A8FFF7DF
:1032500079FE04B070BD4FF6FF7002F079FCE38890
:10326000A2886188208802F005FD002002F070FC31
:10327000034EC5E7100000204C6D0108A66D010843
:103280000800002013230380622343804FF4DD7382
:103290008380D823C3804FF4CE7303818923438175
:1032A000242383811223C38183232DE9F0414FF02E
:1032B000B50C98464FF0A10EEE274FF486764FF4EA
:1032C000907540F2591440F2771140F2491243824E
:1032D00043834384438543864387A0F84A30A0F85C
:1032E000423021339BB29342A0F81080A0F818E03E
:1032F000A0F820C0078506860587A0F84840A0F8FA
:10330000401000F14000E2D1BDE8F0812DE9F34723
:103310000646002979D00021FFF743FE002106F17F
:103320000800FFF73EFE00253A4C3B4FA288338849
:1033300068461344ADF80030E288738854F8081BDF
:103340001344ADF802303A4600230135FFF7FAFD89
:10335000042DEBD12127DFF8C4902F4DDFF8C0807A
:1033600006F1100433882A460233ADF80030738822
:1033700068463B4459F8041BADF802300023FFF7C0
:10338000E1FDDFF8A0A0204600232A462649FFF7EA
:10339000D9FD04F1080000232A464146FFF7D2FD7B
:1033A00004F1100000232A46DAF80410FFF7CAFDE2
:1033B00004F1180000232A461B49FFF7C3FD04F15E
:1033C000200000232A464146FFF7BCFD04F12800F7
:1033D00000232A46DAF80410FFF7B4FD213704F180
:1033E000380000232A461149FFF7ACFDBFB204F1B3
:1033F000300000232A464146FFF7A4FDE72F04F1E1
:103400004004AFD102B0BDE8F08702B0BDE8F0479C
:10341000FFF777BD5C6D0108000000207C6D01089E
:10342000BD6C01086C000020B96C0108C06C01087B
:1034300073B591F834300546012B4B780C4614BF18
:1034400000261F26082B00F2A880DFE803F00518ED
:1034500028394959667686000B78684601EBC30324
:103460009A78514906F05CF83346694620784F4A0D
:1034700005EB80101030FFF765FD02B070BD0B78D2
:10348000684601EBC303DA78474906F049F820782B
:10349000334605EB80106946444A1830EBE7334663
:1034A0000878424A01EBC0042479414905EB8010B9
:1034B00051F82410203002B0BDE87040FFF742BD43
:1034C0000B78684601EBC3035A79374906F028F8B0
:1034D0002078334605EB80106946344A2830CAE725
:1034E0000B78684601EBC3039A792F4906F018F868
:1034F0002078334605EB801069462C4A3030BAE715
:103500000878334601EBC004E479294905EB8010C3
:10351000264A51F824103830CDE70B78684601EB85
:10352000C3031A7A204905F0FBFF2078334605EBE8
:10353000801069461D4A48309DE70B78684601EBCC
:10354000C3035A7A184905F0EBFF2078334601305F
:103550006946164A05EB80108DE731460830FFF7C3
:1035600020FD2B8968460133ADF800306B890133AB
:10357000ADF80230AB89023BADF80430EB89023B79
:10358000ADF8063094F83230022B0CBF4FF4FC61DA
:103590004FF6FF71FFF7C6FC6FE7064802B0BDE8C3
:1035A000704005F01FBF00BFC46C01080000002080
:1035B0006C000020C96C0108112303807423438030
:1035C0004FF4DD738380A123C380432303819123C0
:1035D0004381438240F233130383BA23D0224383CF
:1035E00040F26513028203854FF4CB72A623028456
:1035F000438543847047000010B5044629B3002278
:1036000014490830FFF7BAFC04F1100000221249F7
:10361000FFF7B4FC04F118000023104A1049FFF72B
:1036200091FC04F1280000230C4A0E49FFF78AFCA4
:1036300004F1200008490023084AFFF783FC2046D4
:10364000BDE810400021FFF7ACBCBDE81040FFF71B
:1036500058BC00BFF46C0108F86C01081000002091
:103660001E660108FB6C010873B50C46CB79054654
:10367000012B8B7914BF00261F26012B0CBF1F21A5
:103680000021FFF78EFC2378013B042B0FD8DFE8E5
:1036900003F003101A29340062781D49684605F0CA
:1036A0003FFF3246694605F10800FFF767FC02B0AC
:1036B00070BDA2781649684605F032FF3246694669
:1036C00005F11000F1E7E278124B684653F822103A
:1036D00005F046FF334669460F4A05F11800FFF72B
:1036E00031FCE4E722790A49684605F019FF3346C0
:1036F0006946094A05F12800F1E7627904496846FC
:1037000005F00EFF33466946034A05F12000E6E75F
:10371000C46C01086C00002010000020084B094A0E
:10372000C360094BDFF824C0C0E90023084B836065
:10373000084BC0E906C3084B0362084B036170479E
:1037400018360108A5000B005A005100B8001600F9
:10375000A6000F0006003100BA004700C90024008F
:1037600037B50446B9B325460830FFF7C5FB238BB0
:1037700000210133ADF80030638B04F118000133F0
:10378000ADF80230A38B023BADF80430E38B023B73
:10379000ADF80630FFF705FC002002F0D9F9082249
:1037A000618C35F8200F02F081FA002002F0D0F988
:1037B00028464FF6FF71FFF704FC68464FF6FF718D
:1037C000FFF7B0FB0023064A064904F11000FFF79B
:1037D000B9FB03B030BD03B0BDE83040FFF791BB8B
:1037E00008000020FF6C01082DE9FF410E46CB7850
:1037F0004FF6FF71012B08BF1F210446FFF7D1FBD5
:103800003378012B5FD1E08BFCF7F4FD757896F8E7
:103810000280064628460F46FCF7ECFD2EA3D3E9AE
:103820000023FCF77BFF02460B4630463946FCF787
:103830004BFEFDF75BF80023074600938DF804303C
:10384000274B2A4653F828302649684605F068FE7B
:103850003846FDF7F9FAB8F1010F80B2E68BE08344
:1038600034D1A5F11403312B32D9463D1E2D8CBF26
:103870001F254FF47845238B02380133ADF808300B
:10388000638B04F120070133ADF80A30A38B4FF6A8
:10389000FF71023BADF80E003846ADF80C30FFF773
:1038A00090FB4FF6FF7102A8FFF73CFB2946384614
:1038B000FFF787FBF6B2002369460B4A04F11000BC
:1038C000FFF740FBE68304B0BDE8F0811F25D2E797
:1038D0004FF6E075CFE700BF0000000000C0584081
:1038E000406D0108036D0108080000200F4A104BCD
:1038F0001049C0E90023104B104AC0E902134FF0F1
:103900001413DFF83CC0C0E9062302F54812C0E9F1
:1039100008237D32C0E90A23C0E904C3094A0A4BDF
:10392000C0E90C23094B0364704700BF1100740009
:10393000BA01A100F7008C004A0028002401B5005C
:10394000A101B50016008800B0011E0015018C0011
:1039500030B504468FB0002900F089800025038827
:10396000454A1933ADF80030438844491833684656
:10397000ADF802302B460195FFF7E4FA238802A840
:103980001933ADF8083063883B4A4633ADF80A3046
:103990003B492B460395FFF7D5FA238804A8193332
:1039A000ADF810306388344A7733ADF812303549BA
:1039B0002B460595FFF7C6FA238806A8A033ADF875
:1039C00018306388304A4633ADF81A302F492B46F9
:1039D0000795FFF7B7FA238808A803F59B73ADF89E
:1039E00020306388284A4633ADF8223028492B46D8
:1039F0000995FFF7A7FA23880AA8C833ADF828303D
:103A00006388214A7733ADF82A3022492B460B953B
:103A1000FFF798FA23881C4A03F5A573ADF83030F8
:103A200063880CA87733ADF832301B492B460D95CF
:103A3000FFF788FA294604F12800FFF7B2FA294671
:103A400004F12000FFF7ADFA294604F11000FFF75A
:103A5000A8FA294604F11800FFF7A3FA2B460A4AF0
:103A60000E4904F14000FFF76DFA0FB030BD0FB002
:103A7000BDE83040FFF745BA08000020276C010878
:103A8000386C01083F6C0108000000204B6C0108F5
:103A9000566C01085E6C0108616C0108FF6C01083E
:103AA000F0B54B7B0D46012B08BF1F260B7B0EBFCD
:103AB00037464FF6FF760027012B0CBF1F21002150
:103AC00087B00446FFF76DFA2B78022B1DD0032B2D
:103AD0006CD0012B17D1638831461433638604F10F
:103AE0003000FFF75EFA2A7A544B684653F82230CA
:103AF00053496A6805F014FD3B466946514A04F192
:103B00004000FFF71FFA07B0F0BD638831463D3330
:103B1000638604F13000FFF744FA238B0133ADF8DC
:103B20000830638B0133ADF80A30A38B023BADF84C
:103B30000C30E38B023BADF80E30238A0133ADF835
:103B40001030638A0133ADF81230A38A023BADF81E
:103B50001430E38A023BADF816302B7A012B17D1D3
:103B600002A8FFF7CEF9002104F11000FFF719FABF
:103B70004FF4FC6104A8FFF7D5F92A7A2F4B684669
:103B800053F822302E496A6805F0CAFC0023B4E7D6
:103B9000022BF2D104A8FFF7B4F9002104F11800B8
:103BA000FFF7FFF94FF4FC6102A8E4E763883146B0
:103BB0006F33638604F13000FFF7F3F9238C013390
:103BC000ADF80830638C0133ADF80A30A38C023BAA
:103BD000ADF80C30E38C023BADF80E30238D013391
:103BE000ADF81030638D0133ADF81230A38D023B78
:103BF000ADF81430E38D023BADF816306B7A012B33
:103C00000DD104A8FFF77DF9002104F12000FFF792
:103C1000C8F94FF4FC6102A8FFF784F973E7022B9F
:103C20007FF471AF02A8FFF76CF9002104F12800BE
:103C3000FFF7B7F94FF4FC6104A8EDE7406D010808
:103C4000036D010808000020044B054AC360054BC2
:103C5000C0E90023044B8360704700BFD80E010801
:103C600009010B00400051001201140011B108308D
:103C7000FFF742B9FFF745B90B784FF6FF71012BFB
:103C800008BF1F21FFF78DB9174A184B1849C0E923
:103C900000234FF01E13174AC0E904130262164BAB
:103CA000164A1749C0E90C2302F5B4028263154A8B
:103CB000DFF854C08262154AC0E906C3C262144AE2
:103CC000C0E91423134A8265134AC0E91112026441
:103CD000124AC264124AC0E91A23124B0367124BFC
:103CE0000366124B4366704711007400BA01A100CD
:103CF0005400B5003900F600400051009D009C00C2
:103D0000A8FC0008A600A50043009C00D80E0108EE
:103D1000F8009C000101F6000201AB0058250108E3
:103D200052019C005201F6005901A500B849010852
:103D300037B50446002941D000250021FFF731F9AD
:103D40002388214A6433ADF80030638868460F3316
:103D50001E49ADF802302B460195FFF7F3F804F148
:103D60006000FFF7C9F8294604F11000FFF719F9C0
:103D700004F12800FFF7C0F804F14000FFF7BCF899
:103D80002B4604F12000124A1249FFF7DBF82B46BC
:103D900004F138000E4A1049FFF7D4F82B4604F11D
:103DA00058000B4A0D49FFF7CDF82B46084A0C493D
:103DB00004F17000FFF7C6F803B030BD03B0BDE8F2
:103DC0003040FFF79EB800BF080000200A6D0108D0
:103DD000000000201A6D0108216D0108286D0108FE
:103DE0002D6D010873B58B780D46012B4FF6FF73CF
:103DF00018BF19462B78044603F1FF3308BF1F2173
:103E0000042B25D8DFE803F003263870790018303A
:103E1000FFF7C7F8AB79208A618A012BA28AE38A6F
:103E200001F1010100F10100ADF80210ADF8000050
:103E3000A2F10202A3F102030CBF4FF4FC614FF6A2
:103E4000FF716846ADF80420ADF80630FFF76AF858
:103E500002B070BD3030FFF7A4F82B792C4A012B4B
:103E60004FF000030CBF2B492B4904F1380002B07E
:103E7000BDE87040FFF766B85030FFF792F86B79F5
:103E8000B4F85000B4F85210B4F85420022BB4F82F
:103E9000563000F1010001F10101A2F10202A3F18B
:103EA0000203ADF8000004F158066846ADF80210B0
:103EB000ADF80420ADF806300CD1FFF722F804F17C
:103EC0004000FFF719F80023114A14493046FFF764
:103ED00039F8BDE7FFF715F804F14800FFF70CF8D3
:103EE00000230B4A0E49F1E76830FFF75AF8002328
:103EF000074A0C4904F17000B9E74FF6FF73994285
:103F000008BF002102B0BDE87040FFF74AB800BF0B
:103F100000000020216D0108346D0108286D0108A2
:103F20003B6D01082D6D010811230380742343802C
:103F30004FF4DD738380A123C3802F230381B0233B
:103F40004381704711B10021FFF72BB8FEF7D9BFAD
:103F50000023024A0830FEF7F5BF00BF1000002022
:103F600003780B2B8EBF01230133DBB20370704744
:103F70000378012B92BF0C2303F1FF33DBB20370F4
:103F80007047000010B50446FEF77EFE012384F85A
:103F90002130836804F1210184F8223043790348F9
:103FA00084F82330BDE81040FFF71EBC5408002001
:103FB000F0B50446012587B001A8FEF79DF8BDF8CD
:103FC0001230104E84F85E309DF8063004F15A0726
:103FD00084F85F309DF8083084F85B309DF8093034
:103FE00084F85C309DF8143084F85D3084F85A50C1
:103FF000394630460135FFF737FB062DF6D107B0BD
:10400000F0BD00BF9C0500200121002310B504462F
:10401000017043800F48FFF7EFFAFEF77DFD0323A1
:104020002377437804F11C0163770B48FFF706F808
:104030002046FFF7A7FF2046FFF7BAFF201D4FF4E9
:104040007A71FEF781F804F10800BDE81040FEF730
:104050007FB800BF9C0500206C05002070B50423CC
:104060000025044694B00370294645802748FFF791
:10407000C3FA01212648FFF765FF607EFEF7D2F8FC
:10408000012603238DF8245002258DF825608DF834
:1040900026308DF827504378DA1EB2422AD8627E45
:1040A0001C49324401A805F03BFA8DF82460637E78
:1040B0008DF829508DF82830FEF74EF909A9FEF742
:1040C000A1F901A91248FFF743FF607EFEF7AAF8A5
:1040D000437804F11801237601230F48E376FFF7B4
:1040E00081F840F6B83104F10C0014B0BDE870401E
:1040F000FEF72AB8013B012BE3D8627E0749013263
:1041000001A805F00DFA8DF82450D0E79C05002099
:1041100074070020946D0108CC050020A96D0108EA
:1041200090F87C200B46042A24D8DFE802F003092B
:1041300010161C00837600F118010F48FFF752B8E3
:1041400080F8243000F121010C48FFF74DBB0146F7
:104150000B4801F81F3FFFF78FBD837700F11C016B
:104160000848FEF76BBF80F8603000F15A0106483E
:10417000FFF77ABA704700BFCC0500205408002032
:10418000840700206C0500209C0500200048704733
:104190007C0800202DE9F8430446DFF87490DFF82E
:1041A000748048461C4FFEF71BFF1C4E4046FEF72E
:1041B000C1FF1B4D3846FFF7B1FA3046FFF744FD0B
:1041C0002846FFF7F9F91748FFF75CF81648FFF79C
:1041D000ABFE1648FFF78AFB1548FFF755FD48462A
:1041E0000121FEF725FF40460121FEF7B9FF3846C1
:1041F0000121FFF7B5FA30460121FFF737FD2846C8
:104200000121FFF7F9F92046BDE8F843FFF7FCBEAE
:104210006C050020CC0500205408002084070020F5
:104220009C050020E4050020740700200C080020F5
:10423000940700202DE9F04303780446013B8DB03C
:10424000072B00F22081DFE813F008001604D202E9
:10425000A40441011702B6047E05837800F1080525
:10426000002B00F0E780033B062B00F2E180DFE843
:1042700013F0070007002A002101270129012B0163
:104280000221FFF74DFFA378032B13D194F87C3064
:1042900073B1013B84F87C3001212046FFF740FFD9
:1042A00094F87C10C14805F09DF841F28831BCE0DB
:1042B0000423EFE7042BEFD194F87C30032B8CBF61
:1042C00000230133E6E790F87C30042B00F2B08045
:1042D000DFE803F003175E97DC00877E012F40F0D4
:1042E000A7800026022146800170FFF719FFB04821
:1042F00084F87C606676E77604F11801FEF772FFB9
:10430000D3E790F82470012F40F0928007234FF0FC
:1043100000090370A0F8029000F16C06FEF7B4FCEF
:1043200080464946A348FFF767F93946A248FFF798
:104330000FFB98F80530314684F8743098F8043053
:104340009D4884F87530D8F800304FF00208236794
:1043500084F8798084F86C70FFF7A2FB31469648A8
:1043600084F86C80FFF79CFB0323314684F86C30A3
:104370009148FFF795FB40F2011331468E4884F8CF
:104380007C7084F86C70A4F87830FFF789FB8CE7B8
:10439000C67F012E4CD1062300210370418087483F
:1043A000FFF72AF931468648FFF7C2FCFEF740FACC
:1043B000022384F8633084F86430C27884F866603D
:1043C000052684F8682084F867308378DFF8F08168
:1043D00004F1620784F8653039464046FFF702FD74
:1043E000013EF9D1012302223946754884F87C3018
:1043F00084F8632084F8643084F86230FFF7F2FCBC
:1044000053E7867F012E13D10823002103704180DA
:104410006A48FEF77BFF31466A48FFF793FD6A4919
:104420006848FFF795FD4FF4FA612846FDF78CFECA
:104430000023A370261D3046FDF79EFEA8B14FF461
:104440007A713046FDF780FEFEF766FB0323237783
:10445000437804F11C015D486377FEF7EFFD2046C9
:10446000FFF7A6FD2046FFF78DFD2846FDF784FEE9
:1044700048B102212046FFF753FE2846FDF768FEAB
:10448000042384F87C300DB0BDE8F08390F86030F0
:10449000012BCDD105220270002280F87C304280B1
:1044A00080F85A3080F8613000F15A014148FFF736
:1044B000DBF8FAE6002320466376FFF7CFFDB7E787
:1044C0000123F8E70223F6E70323F4E7837800F1FA
:1044D0000805A3B1042B0DD8022B00F15A0626D8EB
:1044E00090F87C20013A042A3BD8DFE802F04B55D3
:1044F0008C7A9500052B00F099800023A370284644
:10450000FDF73AFE0028BED000212C48FEF7FEFE43
:1045100094F87C3084F85A30022384F8613084F8AF
:10452000603020460DB0BDE8F043FFF76DBD0223BB
:10453000314680F861301F48FFF796F8A27894F86A
:104540007C30032A17D1012B94BF052303F1FF33DD
:1045500084F87C3094F87C3084F85A30012384F855
:10456000613031461348FFF77FF841F28831284621
:10457000FDF7EAFDC1E7042AECD1042B8CBF01232F
:104580000133E5E7012B00F15B0002D1FFF7E8FC06
:10459000E7E7FFF7EDFCE4E7012B90F85C201BD187
:1045A0003A2A15D8013284F85C20DAE7BE6D01089A
:1045B000CC0500209C0500200C080020E40500200C
:1045C0009407002074070020D66D01086C050020B8
:1045D000002384F85C30C4E70AB1013AE3E73B23E7
:1045E000F7E7012B90F85E2005D11D2A08D801328B
:1045F00084F85E20B5E7012A01D9013AF8E71E23C5
:1046000084F85E30ADE790F85D30012B0CBF0223DB
:10461000012380F85D30A4E7012B00F15F0002D197
:10462000FFF7A6FC9DE7FFF79BFC9AE70021B64841
:10463000FEF76CFE0121B548FFF784FCB449B3488E
:10464000FFF786FC01238DF804308DF80530042334
:104650008DF806301023D4F85B008DF8073094F8FD
:104660005F3002908DF80C30FDF776FE01A9FDF762
:10467000C9FE4FF4FA617AE7837800F1080653B176
:10468000042B04D8022B23D844F620617CE0052BB0
:1046900046D00023A3703046FDF76EFD00283FF49E
:1046A000F2AE022504F162019A4884F8635084F85E
:1046B0006450FFF797FB04F11F019748E57784F8F2
:1046C0002050FFF7D9FA00219248FFF731FB28E785
:1046D000022300F1620580F8643029468D48FFF717
:1046E00081FBA27894F87C30032A12D1012B94BF6D
:1046F000052303F1FF3384F87C30012384F8643010
:1047000094F87C302946834884F86230FFF76AFBCE
:10471000BAE7042AF1D1042B8CBF01230133EAE765
:1047200000F16207FEF784F806228DF806200022C9
:1047300001238DF8042094F87C208DF80530013A8F
:10474000042A35D8DFE802F02436434F0300012560
:1047500039467048FFF746FB9DF8043023B1FEF759
:1047600063F801A9FEF716F9002D8DD000216948E4
:10477000FFF7DEFA01216548FFF7E4FB674963486C
:10478000FFF7E6FB4FF4FA613046FDF7DDFC80E70A
:1047900094F86820012A4FF0020205D1032384F81F
:1047A00068208DF8043003E084F868308DF8042028
:1047B0000025CDE794F86620012A04D1022384F86D
:1047C00066300623EDE784F866300723E9E794F8BE
:1047D0006720022A03D184F867300423E1E702232B
:1047E00084F86730F1E7022284F86520D9E78378FE
:1047F00000F10806D3B1042B13D8022B00F12505D4
:1048000029D890F87C20082A00F29980DFE812F07D
:1048100070008A00A500B200BE00D500E200F600DC
:104820000401052B00F001810023A3703046FDF741
:10483000A3FC00283FF427AE02233948E37604F1B5
:104840001801FEF7CFFC3046FDF782FC00212E4810
:10485000FEF75CFD65E60223294680F859302A48B8
:10486000FEF7E6FDA378032B23D194F87C30E3B167
:10487000013BDBB284F87C3084F8263001232946E2
:1048800084F859302048FEF7D3FD94F87C30082B8B
:1048900005D194F8253053B1013B84F8253041F21D
:1048A00088313046FDF750FCBEE70823E2E70523D8
:1048B000F3E7042BF3D194F87C302946072B8EBF05
:1048C00000230133DBB284F87C3084F826300123E6
:1048D0000D4884F85930FEF7ABFD94F87C30082B76
:1048E000DDD194F82530042B8CBF00230133D4E7AD
:1048F00090F82500012B05EBC00000F1020042D129
:10490000FFF72EFB1BE000BFE4050020740700202A
:10491000E46D01089407002084070020FD6D010864
:10492000CC05002090F82510012B00EBC10191F877
:1049300028200DD13A2A07D8013281F828202946AB
:10494000BF48FEF775FDAAE7002381F82830F6E797
:104950000AB1013AF1E73B23F7E790F8253000EB85
:10496000C30393F82920012A0CBF0222012283F8F5
:104970002920E4E790F82500012B4FEAC00000F160
:1049800005002844BBE7FFF7F3FAD8E790F82510B5
:10499000012B00EBC10191F82B2009D13A2A03D851
:1049A000013281F82B20CAE7002381F82B30C6E7BB
:1049B0000AB1013AF5E73B23F7E790F8253000EB21
:1049C000C30393F82C20012A0CBF0222012283F892
:1049D0002C20B4E790F82510012B00EBC10191F8D1
:1049E0002D2005D11D2A06D8013281F82D20A6E7F9
:1049F0001D2AF9D9012381F82D30A0E790F8250070
:104A0000012B05EBC00000F1090002D1FFF7B0FA5D
:104A100095E7FFF7A5FA92E790F85730012B0CBF06
:104A20000223012380F8573089E700218448FEF7EC
:104A30006DFC01218348FFF785FA83498148FFF720
:104A400087FA02238DF8043001238DF80530042302
:104A50008DF8063010238DF80730637E8DF8103006
:104A600004F127030593FDF777FC01A9FDF7CAFCC4
:104A70004FF4FA6115E78378042B26D8022B26D948
:104A800090F87C3000F11805437602232946C3765E
:104A90006E48FEF7A7FBA27894F87C30032A2DD14C
:104AA000013B03F0030384F87C3094F87C30294602
:104AB000637601236548E376FEF794FB41F2883183
:104AC00004F10800FDF740FB01E0052B1AD0A378A4
:104AD0000BB10023A37004F108052846FDF74CFB39
:104AE00000283FF4D0AC02235848E37604F11801C3
:104AF000FEF778FB2846FDF72BFB12E5042AD4D1FC
:104B00000133CEE7C57E012DE1D1032300210370DF
:104B100041804F48FEF770FD29464948FEF7F6FBF5
:104B2000FDF7B4FC3122637E04F1250702FB03008C
:104B300004F1270300F1300250F8041B904243F8BF
:104B4000041BF9D100254FF002080278DFF8F0903D
:104B50001A70002684F8265084F8598084F825605D
:104B6000394648460136FEF763FC062EF6D101357C
:104B7000092DEED1002384F87C3084F8253084F8A8
:104B80002630012339462E4884F85930FEF750FC70
:104B900094E70C30FDF7F0FA00283FF474AC0021E4
:104BA0002848FFF7CFF902232848E37604F11801DB
:104BB000FEF718FBB5E4877800F108052FB3042F42
:104BC0001FD8022F00F16C0648D80223314680F826
:104BD00079302048FEF764FFA27894F87C30022AEE
:104BE00040F08080012B94BF032303F1FF3384F84E
:104BF0007C3094F87C3084F86C30012384F8793070
:104C00003EE0052F77D00023A3702846FDF7B4FAC5
:104C100000283FF438AC94F87C3004F1210184F88A
:104C20006C3040F20223A4F8783002230A4884F85A
:104C30002430FEF7D9FD00210648FEF789FE70E416
:104C4000E405002074070020146E0108CC05002044
:104C50009C0500200C0800205408002090F87C20BF
:104C6000022A1CD0032A34D0012A09D1032F90F83C
:104C700070300FD1622B8CBF0023013384F8703069
:104C800031463448FEF70CFF41F288312846FDF7E3
:104C90005BFAB8E70BB1013BF0E76323EEE790F86E
:104CA0007410036F012909D1052103EBC30393FBA2
:104CB000F1F32033036780F87420E1E70922203BF9
:104CC00003EB830393FBF2F30367012380F8743053
:104CD000D6E790F87530022B0CBF0123022380F831
:104CE0007530CDE7012A84D1022B01D801337EE74C
:104CF00084F87C207DE700211648FEF729FE01217B
:104D00001548FFF71FF915491348FFF721F901234B
:104D10008DF804308DF805300C238DF8073094F8A9
:104D200075308DF806708DF80C30236F029394F86F
:104D300074308DF80D30FDF70FFB01A9FDF762FB14
:104D40004FF4FA61A2E70830FDF716FA00283FF4A5
:104D50009AAB7BE50C080020740700202A6E01083E
:104D600010B504460430FDF7F9F904F10800FDF729
:104D7000F5F904F10C00BDE81040FDF7EFB94B78F0
:104D8000022B04BF0B78837070470000202808B501
:104D900022D004D801280CD0102815D008BD8028B6
:104DA000FCD11148FDF7D8F90028F7D11E210E4893
:104DB00006E00E48FDF7D0F90028EFD11E210B4880
:104DC000BDE80840FDF7C0B90948FDF7C5F900285E
:104DD000E4D11E210648F3E70648FDF7BDF9002897
:104DE000DCD11E210348EBE7BC010020CC010020F0
:104DF0008C010020AC010020012002F085BB1020B6
:104E000002F082BB08B5202002F07EFBBDE808401E
:104E1000802002F079BB0000F0B599B001F044FEAB
:104E20001422002110A803F00BFF1422002109A86E
:104E300003F006FF1022002105A803F001FF022461
:104E40004FF480330122CDE91543CDE90E234FF411
:104E500000130EA81292179302F0B4FF08B100F0ED
:104E600023FA0F23CDE909340023022109A8CDE953
:104E70000B330D9303F07CF908B100F015FA02230F
:104E800005934FF4004305A8079303F033FA08B1E4
:104E900000F00AFAB94D1022002109A803F0D0FE53
:104EA000AB69022743F01003AB610126AB69002216
:104EB00003F010030193019BAB69022143F020032F
:104EC000AB61AB69AE4803F020030293029BAB6970
:104ED000002443F00403AB61AB6903F004030393C4
:104EE000039BAB6943F00803AB61AB6903F00803B4
:104EF0000493049B02F002FB002240F65F71A1487C
:104F000002F0FCFA00224FF4E0519F4802F0F6FA5A
:104F10009B4809A9CDE90976CDE90B7702F00EFA95
:104F20000C23974809A9CDE909340B9402F006FA3D
:104F300040F65F73934809A9CDE90936CDE90B47DF
:104F400002F0FCF94FF4E0538F4809A9CDE9093686
:104F5000CDE90B4702F0F2F94FF4FC5388480EA953
:104F60000E93CDE90F44119402F0E8F94FF4805309
:104F700084480EA9CDE90E34109402F0DFF94FF405
:104F8000004380480EA9CDE90E34109402F0D6F902
:104F900030237E4F7A4809A9CDE909370B9402F0F6
:104FA000CDF92023764809A9CDE909340B9402F004
:104FB000C5F9A023734809A9CDE909370B9402F07C
:104FC000BDF909A97048CDE909670B9402F0B6F95B
:104FD000062002F06DF8172002F06AF80A2002F0AD
:104FE00067F86B486B4BCDE90E4403604FF46023C8
:104FF0001094846004730475C3614460066101F019
:105000007BFF08B100F050F90A23CDE90E360023EA
:105010005F480EA9109301F02DFE08B100F044F98D
:1050200000226B69114643F001036B616B690E202E
:1050300003F001030093009B02F008F80E2002F039
:1050400037F800220F20114602F000F80F2002F07E
:105050002FF8514D5148524B4FF48042C0E9005354
:105060000023C0E90233C0E90423C0E90633036228
:1050700002F032FC08B100F017F9FCF7F3FD00F084
:105080008DFDD020FDF71CF8FBF704FFFCF76CFD4D
:10509000102200210EA803F0D3FD4F224148424CBC
:1050A0000023C0E900424FF6FF72CDE90933C0E9A1
:1050B00003238360836103F0DDFA08B100F0F4F8A4
:1050C0004FF4805337480EA90E9303F0BCFB08B190
:1050D00000F0EAF80023334809A9CDE9093303F0C9
:1050E000E7FC08B100F0E0F80024FCF727FAFDF730
:1050F0007DF81022002109A803F0A2FD21461C2200
:105100000EA8CDE9054403F09BFD4F23274828490D
:105110008460C0E9001363238461C0E9033403F0B1
:10512000A9FA08B100F0C0F84FF480531F4809A94C
:10513000099303F088FB08B100F0B6F81B4803F0B0
:10514000C5FA08B100F0B0F80023184805A9CDE968
:10515000053303F0ADFC08B100F0A6F860225A2335
:10516000CDE90E23002211480EA91092129203F0ED
:1051700005FBF8B100F098F81CE000BF00100240F9
:105180000010014000080140000C01400000211007
:10519000FC08002000240140005400402C0900209D
:1051A000A0860100C80900200008004080090020F6
:1051B00000040040044800F03FF90021024803F0D9
:1051C00037FC19B0F0BD00BF800900202DE9F04781
:1051D000FFF722FE2B4804F08BF92B4804F088F9E6
:1051E0002A492B4804F0FEF82A492B4804F0FAF823
:1051F000244804F07DF92948FBF780FE2848FBF796
:10520000A1FFFDF7A9F88046FDF7F0F8FEF7BEFF15
:105210008246FEF7BFFFFDF733FD8146FDF7C6FD71
:10522000FDF738F90746FDF739F9FDF7FDFA0546B0
:10523000FDF702FBFCF7F2FF0646FCF7FBFFFDF76C
:105240006FFC0446FDF770FC03F02EF8014615488C
:1052500004F0C8F85046FEF7EDFF4846FDF718FD8C
:105260004046FDF77DF83846FDF776F93046FCF705
:10527000F1FF2846FDF73EFB2046FDF757FCFCF703
:105280008DFFE7E73F6E01086A6E0108836E010833
:10529000926E0108AD6E0108B96E0108840100200C
:1052A000D4010020C86E010872B6FEE70E4B82B032
:1052B0009A6942F001029A619A6902F00102009231
:1052C000009ADA6942F08052DA61DB69074A03F03A
:1052D00080530193019B536823F0E06343F0007314
:1052E000536002B0704700BF001002400000014050
:1052F00010B5044686B01022002102A803F0A0FCDD
:105300002268104B9A421BD103F56C439A690E48F0
:1053100042F400729A619A6902A902F40072009242
:10532000009A9A6942F010029A619B69012203F087
:1053300010030193019B0323CDE9022301F0FEFF3B
:1053400006B010BD002401400010014010B5044615
:1053500086B01022002102A803F072FC2268114BD3
:105360009A421CD1104CC022A369104843F0080394
:10537000A361A36902A903F008030093009B122311
:10538000CDE902230323059301F0D8FFE36943F439
:105390000013E361E36903F400130193019B06B07A
:1053A00010BD00BF0054004000100240000C01403E
:1053B00003681D4A84B093420BD11C4B9A6942F496
:1053C00000629A619B6903F400630093009B04B040
:1053D0007047B3F1804F0BD103F50433DA6942F023
:1053E0000102DA61DB6903F001030193019BEEE73F
:1053F0000F4A93420AD10D4BDA6942F00202DA6198
:10540000DB6903F002030293029BE0E7094A93423F
:10541000DDD1064BDA6942F00402DA61DB6903F0A0
:1054200004030393039BD2E7002C014000100240C9
:105430000004004000080040102210B5044688B067
:105440000DEB0200002103F0FBFB2368234A93428B
:1054500015D1234B9A6942F004029A619B6903F0CB
:1054600004030193019B4FF47063049302231D48CE
:1054700004A90593079301F061FF08B010BDB3F1D3
:10548000804F0CD103F504339A6942F004029A610B
:105490009B6903F004030293029B0F23E5E7124A82
:1054A0009342EAD10E4B11489A6904A942F01002C6
:1054B0009A619B69402203F010030393039B02232C
:1054C000CDE90423079301F039FF094A536843F0FB
:1054D000E06343F440635360CFE700BF002C01401A
:1054E000001002400008014000040040001001408C
:1054F00000000140FEE7FEE7FEE7FEE7FEE770473B
:105500007047704708B5FCF745FEBDE8084001F05C
:10551000DDBA0120704708B503F016FB16230360BF
:105520004FF0FF3008BD08B503F00EFB16230360F3
:10553000FEE770B50D4614460E46731B9C4201DC17
:10554000204670BDAFF3008006F8010BF5E74FF081
:10555000FF3070474FF4005300204B60704701202C
:1055600070470020704700000B4A0346116810B5D1
:1055700009B90A491160106809490A4C0344091B1A
:105580008B4206D903F0E0FA0C2303604FF0FF30A2
:1055900010BD1360FCE700BF100A0020B00F002010
:1055A00000500020000400007047000000B51248C1
:1055B000B7B003F017FF114803F09AFF01238DF8ED
:1055C0000030FDF761FB02460068516801AB03C380
:1055D00090681860FDF72CF903680493FCF756FFF8
:1055E000C422014605A803F003FB37216846FCF7F7
:1055F000FFF937B05DF804FBFA6E01080F6F010880
:1056000010B50648064C03F0EDFE064803F070FFA7
:1056100020463721FCF700FA204610BDFA6E01083B
:10562000140A0020366F01080C480D490D4A00236A
:1056300002E0D458C4500433C4188C42F9D30A4A47
:105640000A4C002301E013600432A242FBD3FFF7AF
:10565000ABFF03F091FAFFF7B9FD7047000000209F
:10566000640100206470010868010020B00F002070
:10567000FEE74FF4F07070474FF4A07070470000E1
:1056800010B53D4C2378DA070AD443F001029B079A
:10569000227001D401F0C2F8237843F00203237092
:1056A000692001F0ADF8012001F030F9052001F08A
:1056B000A7F80F22E020314901F06CF90F22E12018
:1056C0002F4901F067F902222E49C02001F062F94A
:1056D000052001F095F8C12001F018F9412001F0F2
:1056E00029F9052001F08CF803222749C52001F093
:1056F00051F9052001F084F83A2001F007F96620FD
:1057000001F018F9B02001F001F9802001F012F940
:10571000B12001F0FBF8A02001F00CF9B42001F059
:10572000F5F8022001F006F902221849B62001F02E
:1057300031F9E92001F0EAF8002001F0FBF8042239
:105740001349F72001F026F9052001F059F811203E
:1057500001F0DCF8782001F053F8292001F0D6F8A8
:10576000052001F04DF8362001F0D0F8BDE81040DA
:10577000282001F0DFB800BFEC0A002088A0000854
:1057800098A00008606F0108A8A00008636F0108D6
:10579000666F010870B505460C462E0A2A2001F0F6
:1057A000B5F8EDB2304601F0C5F8284601F0C2F870
:1057B000304601F0BFF8284601F0BCF8250A2B203E
:1057C00001F0A4F8E4B2284601F0B4F8204601F054
:1057D000B1F8284601F0AEF82046BDE8704001F06F
:1057E000A9B800002DE9F8431F46054616460C46A9
:1057F0001A4B07F1FF391980194B01EB09022A20D6
:105800001A805FFA85F801F081F8280A01F092F811
:105810003544404601F08EF8681EC0F3072001F0C1
:1058200089F8701E4044C0B201F084F82B2001F0CA
:105830006DF8E5B2200A01F07DF8284601F07AF80B
:10584000E0190138C0F3072001F074F805EB0900F6
:10585000C0B2BDE8F84301F06DB800BFF80A0020FF
:10586000F60A002008B5112001F050F8BDE8084004
:10587000012000F0C7BF08B5102001F047F8BDE8CF
:105880000840002000F0BEBF002307B501930B4B7A
:105890001B780BB9FFF7F4FE00230322042001A9B3
:1058A00001F0AAF8019A064B49F28840B3EB420F87
:1058B00018BF002003B05DF804FB00BFEC0A002015
:1058C0005480660073B505460C462E0A2A2001F066
:1058D0001DF8EDB2304601F02DF8284601F02AF807
:1058E000304601F027F8284601F024F8250A2B203D
:1058F00001F00CF8E4B2284601F01CF8204601F053
:1059000019F8284601F016F8204601F013F8012393
:105910002E201A460DF1060101F088F8BDF80600A8
:1059200002B070BD70B51D461446049EFFF75AFFC5
:10593000314605FB04F2BDE8704001232E2001F042
:1059400075B8000038B5164C054663888B4202D105
:10595000E38893420AD0E280C2F5F072521A618065
:10596000A280332003220F4901F02CF8A28868425C
:1059700090FBF2F302FB1300638881B200044ABF7C
:10598000D218C9188918238809B2994207D089B258
:1059900021800122BDE83840372000F0DFBF38BD4C
:1059A000EE0A0020F00A002010B50446001200F0B4
:1059B000F80000F0BFFFE01000F0FC0000F0BAFFBC
:1059C000E00000F0F800BDE8104000F0B3BFF8B50B
:1059D00005460C4616462F0A2A2000F097FFEDB226
:1059E000384600F0A7FF284600F0A4FF384600F034
:1059F000A1FF284600F09EFF250A2B2000F086FF1D
:105A0000E4B2284600F096FF204600F093FF2846B7
:105A100000F090FF204600F08DFF2C2000F076FF74
:105A20003046BDE8F840FFF7BFBF70B515461C46CD
:105A3000BDF81060FFF7D6FE2C2000F067FF6C4326
:105A400004B970BD3046FFF7AFFF013CF8E713B56E
:105A500004460846009411461A460123FFF7E5FF65
:105A600002B010BD13B50446084600941146012249
:105A7000FFF7DBFF02B010BDF8B540F23F165588C6
:105A8000938854899189ADB2A4B244EA014445EAAD
:105A9000034536201C4F2D1B144400F037FF6820AF
:105AA00000F048FF2B2000F031FF388825F0010579
:105AB000301AC0F3072000F03DFF3888134FC0F1C3
:105AC0003F00C0B200F036FF38882544301AC0F3DA
:105AD000072000F02FFF3888C0F13F00C0B200F06F
