:020000040800F2
:100000000050002009550008B1270008B327000858
:10001000B5270008B7270008B9270008000000002E
:10002000000000000000000000000000BB270008E6
:10003000BD27000800000000BF270008C1270008F6
:1000400051550008515500085155000851550008F8
:1000500051550008515500080D220008515500085F
:100060005155000851550008132200085155000849
:10007000515500085155000819650008BD64000875
:1000800051550008515500085155000851550008B8
:100090005155000851550008515500081922000813
:1000A0005155000851550008515500085155000898
:1000B0005155000851550008515500085155000888
:1000C0005155000851550008515500085155000878
:1000D0005155000851550008515500085155000868
:1000E0005155000851550008515500080000000006
:1000F0000000000000000000000000000000000000
:0C01000000000000000000005FF808F1A3
:1001100010B5054C237833B9044B13B10448AFF341
:1001200000800123237010BD30010020000000007A
:10013000FC9B000808B5034B1BB103490348AFF310
:10014000008008BD0000000034010020FC9B000876
:1001500081F0004102E000BF83F0004330B54FEA78
:1001600041044FEA430594EA050F08BF90EA020FE5
:100170001FBF54EA000C55EA020C7FEA645C7FEA78
:10018000655C00F0E2804FEA5454D4EB5555B8BF9B
:100190006D420CDD2C4480EA020281EA030382EA0C
:1001A000000083EA010180EA020281EA0303362D9E
:1001B00088BF30BD11F0004F4FEA01314FF4801C71
:1001C0004CEA113102D0404261EB410113F0004F83
:1001D0004FEA03334CEA133302D0524263EB43033A
:1001E00094EA050F00F0A780A4F10104D5F1200ED8
:1001F0000DDB02FA0EFC22FA05F2801841F1000133
:1002000003FA0EF2801843FA05F359410EE0A5F106
:1002100020050EF1200E012A03FA0EFC28BF4CF037
:10022000020C43FA05F3C01851EBE37101F00045ED
:1002300007D54FF0000EDCF1000C7EEB00006EEBFA
:100240000101B1F5801F1BD3B1F5001F0CD3490884
:100250005FEA30004FEA3C0C04F101044FEA4452DB
:1002600012F5800F80F09A80BCF1004F08BF5FEA62
:10027000500C50F1000041EB045141EA050130BD42
:100280005FEA4C0C404141EB0101013C28BFB1F554
:10029000801FE9D291F0000F04BF01460020B1FA9F
:1002A00081F308BF2033A3F10B03B3F120020CDA72
:1002B0000C3208DD02F1140CC2F10C0201FA0CF050
:1002C00021FA02F10CE002F11402D8BFC2F1200CB5
:1002D00001FA02F120FA0CFCDCBF41EA0C0190406B
:1002E000E41AA2BF01EB0451294330BD6FEA0404B4
:1002F0001F3C1CDA0C340EDC04F11404C4F120029F
:1003000020FA04F001FA02F340EA030021FA04F3B0
:1003100045EA030130BDC4F10C04C4F1200220FA07
:1003200002F001FA04F340EA0300294630BD21FA45
:1003300004F0294630BD94F0000F83F4801306BF0B
:1003400081F480110134013D4EE77FEA645C18BFFF
:100350007FEA655C29D094EA050F08BF90EA020F96
:1003600005D054EA000C04BF1946104630BD91EA8E
:10037000030F1EBF0021002030BD5FEA545C05D191
:100380004000494128BF41F0004130BD14F58004D0
:100390003CBF01F5801130BD01F0004545F0FE4144
:1003A00041F470014FF0000030BD7FEA645C1ABF79
:1003B000194610467FEA655C1CBF0B46024650EAB0
:1003C000013406BF52EA033591EA030F41F40021DC
:1003D00030BD00BF90F0000F04BF0021704730B562
:1003E0004FF4806404F132044FF000054FF0000137
:1003F00050E700BF90F0000F04BF0021704730B5F8
:100400004FF4806404F1320410F0004548BF4042CC
:100410004FF000013EE700BF42004FEAE2014FEA21
:1004200031014FEA02701FBF12F07F4393F07F4FFC
:1004300081F06051704732F07F4208BF704793F0FF
:100440007F4F04BF41F40021704730B54FF4607412
:1004500001F0004521F000411CE700BF50EA010215
:1004600008BF704730B54FF000050AE050EA0102BE
:1004700008BF704730B511F0004502D5404261EB2E
:1004800041014FF4806404F132045FEA915C3FF46F
:10049000D8AE4FF003025FEADC0C18BF03325FEA0C
:1004A000DC0C18BF033202EBDC02C2F1200300FABD
:1004B00003FC20FA02F001FA03FE40EA0E0021FAE2
:1004C00002F11444BDE600BF70B54FF0FF0C4CF4D0
:1004D000E06C1CEA11541DBF1CEA135594EA0C0F82
:1004E00095EA0C0F00F0DEF82C4481EA030621EABD
:1004F0004C5123EA4C5350EA013518BF52EA0335F8
:1005000041F4801143F4801338D0A0FB02CE4FF0A9
:100510000005E1FB02E506F00042E0FB03E54FF0D9
:100520000006E1FB03569CF0000F18BF4EF0010ED1
:10053000A4F1FF04B6F5007F64F5407404D25FEACD
:100540004E0E6D4146EB060642EAC62141EA555180
:100550004FEAC52040EA5E504FEACE2EB4F1FD0CC2
:1005600088BFBCF5E06F1ED8BEF1004F08BF5FEA40
:10057000500E50F1000041EB045170BD06F00046F2
:1005800046EA010140EA020081EA0301B4EB5C049F
:10059000C2BFD4EB0C0541EA045170BD41F4801197
:1005A0004FF0000E013C00F3AB8014F1360FDEBFBC
:1005B000002001F0004170BDC4F10004203C35DA98
:1005C0000C341BDC04F11404C4F1200500FA05F31B
:1005D00020FA04F001FA05F240EA020001F00042BC
:1005E00021F0004110EBD37021FA04F642EB060132
:1005F0005EEA430E08BF20EAD37070BDC4F10C045C
:10060000C4F1200500FA04F320FA05F001FA04F21F
:1006100040EA020001F0004110EBD37041F100010B
:100620005EEA430E08BF20EAD37070BDC4F1200516
:1006300000FA05F24EEA020E20FA04F301FA05F27E
:1006400043EA020321FA04F001F0004121FA04F226
:1006500020EA020000EBD3705EEA430E08BF20EAF6
:10066000D37070BD94F0000F0FD101F00046400030
:1006700041EB010111F4801F08BF013CF7D041EAB2
:10068000060195F0000F18BF704703F000465200B6
:1006900043EB030313F4801F08BF013DF7D043EA87
:1006A0000603704794EA0C0F0CEA135518BF95EA3D
:1006B0000C0F0CD050EA410618BF52EA4306D1D1C4
:1006C00081EA030101F000414FF0000070BD50EAE3
:1006D000410606BF1046194652EA430619D094EA6D
:1006E0000C0F02D150EA013613D195EA0C0F05D157
:1006F00052EA03361CBF104619460AD181EA0301AB
:1007000001F0004141F0FE4141F470014FF0000062
:1007100070BD41F0FE4141F4780170BD70B54FF0FD
:10072000FF0C4CF4E06C1CEA11541DBF1CEA13557D
:1007300094EA0C0F95EA0C0F00F0A7F8A4EB05045F
:1007400081EA030E52EA03354FEA013100F0888056
:100750004FEA03334FF0805545EA131343EA12631F
:100760004FEA022245EA111545EA10654FEA0026D4
:100770000EF000419D4208BF964244F1FD0404F58D
:10078000407402D25B084FEA3202B61A65EB0305E9
:100790005B084FEA32024FF480104FF4002CB6EBA6
:1007A000020E75EB030E22BFB61A754640EA0C0026
:1007B0005B084FEA3202B6EB020E75EB030E22BF66
:1007C000B61A754640EA5C005B084FEA3202B6EBA7
:1007D000020E75EB030E22BFB61A754640EA9C0066
:1007E0005B084FEA3202B6EB020E75EB030E22BF36
:1007F000B61A754640EADC0055EA060E18D04FEAF4
:10080000051545EA16754FEA06164FEAC30343EA93
:1008100052734FEAC2025FEA1C1CC0D111F4801F60
:100820000BD141EA00014FF000004FF0004CB6E759
:1008300011F4801F04BF01430020B4F1FD0C88BFF8
:10084000BCF5E06F3FF6AFAEB5EB030C04BFB6EB03
:10085000020C5FEA500C50F1000041EB045170BDF6
:100860000EF0004E4EEA113114EB5C04C2BFD4EB23
:100870000C0541EA045170BD41F480114FF0000EA7
:10088000013C90E645EA060E8DE60CEA135594EA23
:100890000C0F08BF95EA0C0F3FF43BAF94EA0C0F26
:1008A0000AD150EA01347FF434AF95EA0C0F7FF49B
:1008B00025AF104619462CE795EA0C0F06D152EAEF
:1008C00003353FF4FDAE1046194622E750EA4106D3
:1008D00018BF52EA43067FF4C5AE50EA41047FF4E4
:1008E0000DAF52EA43057FF4EBAE12E74FEA410247
:1008F000B2F1E04324BFB3F5001CDCF1FE5C0DD97E
:1009000001F0004C4FEAC0024CEA5070B2F1004FC7
:1009100040EB830008BF20F00100704711F0804FCA
:1009200021D113F13872BCBF01F00040704741F48F
:1009300080114FEA5252C2F11802C2F1200C10FA93
:100940000CF320FA02F018BF40F001004FEAC12377
:100950004FEAD32303FA0CFC40EA0C0023FA02F31B
:100960004FEA4303CCE77FEA625307D150EA0133F1
:100970001EBF4FF0FE4040F44000704701F00040C1
:1009800040F0FE4040F40000704700BF80F000409F
:1009900002E000BF81F0004142001FBF5FEA410357
:1009A00092EA030F7FEA226C7FEA236C6AD04FEA57
:1009B0001262D2EB1363C1BFD2184140484041409C
:1009C000B8BF5B42192B88BF704710F0004F40F44E
:1009D000000020F07F4018BF404211F0004F41F46A
:1009E000000121F07F4118BF494292EA030F3FD036
:1009F000A2F1010241FA03FC10EB0C00C3F1200349
:100A000001FA03F100F0004302D5494260EB4000D7
:100A1000B0F5000F13D3B0F1807F06D340084FEA42
:100A2000310102F10102FE2A51D2B1F1004F40EB37
:100A3000C25008BF20F0010040EA0300704749009F
:100A400040EB0000013A28BFB0F5000FEDD2B0FA3C
:100A500080FCACF1080CB2EB0C0200FA0CF0AABF5F
:100A600000EBC25052421843BCBFD04018437047FD
:100A700092F0000F81F4000106BF80F40000013203
:100A8000013BB5E74FEA41037FEA226C18BF7FEADA
:100A9000236C21D092EA030F04D092F0000F08BF1C
:100AA0000846704790EA010F1CBF0020704712F003
:100AB0007F4F04D1400028BF40F00040704712F142
:100AC00000723CBF00F50000704700F0004343F0A7
:100AD000FE4040F4000070477FEA226216BF0846DD
:100AE0007FEA23630146420206BF5FEA412390EAA0
:100AF000010F40F4800070474FF0000304E000BF96
:100B000010F0004348BF40425FEA000C08BF704746
:100B100043F0964301464FF000001CE050EA01020A
:100B200008BF70474FF000030AE000BF50EA01021F
:100B300008BF704711F0004302D5404261EB41010C
:100B40005FEA010C02BF84460146002043F0B64331
:100B500008BFA3F18053A3F50003BCFA8CF2083A56
:100B6000A3EBC25310DB01FA02FC634400FA02FC5F
:100B7000C2F12002BCF1004F20FA02F243EB020066
:100B800008BF20F00100704702F1200201FA02FCC8
:100B9000C2F1200250EA4C0021FA02F243EB0200BB
:100BA00008BF20EADC7070474FF0FF0C1CEAD052FF
:100BB0001EBF1CEAD15392EA0C0F93EA0C0F6FD0C0
:100BC0001A4480EA010C400218BF5FEA41211ED09E
:100BD0004FF0006343EA501043EA5111A0FB01318A
:100BE0000CF00040B1F5000F3EBF490041EAD3715F
:100BF0005B0040EA010062F17F02FD2A1DD8B3F1DB
:100C0000004F40EBC25008BF20F00100704790F049
:100C1000000F0CF0004C08BF49024CEA502040EA9B
:100C200051207F3AC2BFD2F1FF0340EAC250704761
:100C300040F400004FF00003013A5DDC12F1190F9F
:100C4000DCBF00F000407047C2F10002410021FA11
:100C500002F1C2F1200200FA02FC5FEA310040F129
:100C6000000053EA4C0308BF20EADC70704792F0A2
:100C7000000F00F0004C02BF400010F4000F013ADA
:100C8000F9D040EA0C0093F0000F01F0004C02BFD5
:100C9000490011F4000F013BF9D041EA0C018FE744
:100CA0000CEAD15392EA0C0F18BF93EA0C0F0AD04A
:100CB00030F0004C18BF31F0004CD8D180EA010070
:100CC00000F00040704790F0000F17BF90F0004F09
:100CD000084691F0000F91F0004F14D092EA0C0FEB
:100CE00001D142020FD193EA0C0F03D14B0218BF7E
:100CF000084608D180EA010000F0004040F0FE40C4
:100D000040F40000704740F0FE4040F4400070475F
:100D10004FF0FF0C1CEAD0521EBF1CEAD15392EADE
:100D20000C0F93EA0C0F69D0A2EB030280EA010CCE
:100D300049024FEA402037D04FF0805343EA111167
:100D400043EA10130CF000408B4238BF5B0042F1C5
:100D50007D024FF4000C8B4224BF5B1A40EA0C006A
:100D6000B3EB510F24BFA3EB510340EA5C00B3EB9C
:100D7000910F24BFA3EB910340EA9C00B3EBD10F8A
:100D800024BFA3EBD10340EADC001B0118BF5FEADC
:100D90001C1CE0D1FD2A3FF650AF8B4240EBC25005
:100DA00008BF20F0010070470CF0004C4CEA5020C6
:100DB0007F32C2BFD2F1FF0340EAC250704740F415
:100DC00000004FF00003013A37E792F0000F00F007
:100DD000004C02BF400010F4000F013AF9D040EA85
:100DE0000C0093F0000F01F0004C02BF490011F419
:100DF000000F013BF9D041EA0C0195E70CEAD15311
:100E000092EA0C0F08D142027FF47DAF93EA0C0FF7
:100E10007FF470AF084676E793EA0C0F04D14B02DB
:100E20003FF44CAF08466EE730F0004C18BF31F08D
:100E3000004CCAD130F000427FF45CAF31F0004387
:100E40007FF43CAF5FE700BF4FEA4002B2F1FE4FD4
:100E50000FD34FF09E03B3EB12620DD94FEA00237C
:100E600043F0004310F0004F23FA02F018BF404255
:100E700070474FF00000704712F1610F01D142023C
:100E800005D110F0004008BF6FF0004070474FF0F0
:100E9000000070477047000038B5094C05462046F1
:100EA00005F004FF6421204605F096FD204605F07C
:100EB0003FFE28602046BDE8384005F0FDBF00BF7A
:100EC0005C020020002307B56846CDE90033FFF738
:100ED000E3FF40F6E440009B5843000B800080B2E3
:100EE00003B05DF804FB08B5FFF7ECFF42F65C3396
:100EF000B0FBF3F000EB800000EB8000800000F01E
:100F0000FC0008BD104A70B50261026010228280A8
:100F10000E4A202102620263802282860C4A002649
:100F20000264012281828184A0F8442000F1080536
:100F300000F15804284601F0E5F8103505F80C6C6E
:100F4000AC42F7D170BD00BF001001400008014065
:100F5000000C01402DE9F041202104468CB08D4861
:100F600006F028FA8C4D2B7883420DD02021894839
:100F700006F020FA287004F1180001F0C7F818B93B
:100F80001E21864801F0BAF804F108052E464FF0FC
:100F9000010804F15807284601F0BAF8284601F084
:100FA000C5F858B135F8041C55F8080C06F002FADB
:100FB00008B985F80480284601F0A4F81035BD4230
:100FC000E9D10023022701258DF804308DF8073080
:100FD000237F8DF805708DF80650002B48D0B4F8AB
:100FE0004410206C06F0E6F978B904F1480528466B
:100FF00001F08CF810B1284601F084F8684808F038
:101000003DF807238DF8043004E0664808F036F810
:101010008DF8047001F026FD01A901F079FD94F826
:101020004C30CBB1A18A206906F0C4F9002874D1F4
:1010300004F11805284601F069F810B1284601F0BE
:1010400061F8594808F01AF807238DF8043001F0C8
:1010500009FD01A901F05CFD00232373237784F8C7
:101060002C3084F83C3084F84C300CB0BDE8F08172
:10107000237BCBB1B4F84410206C06F09BF968B91F
:1010800004F14805284601F041F810B1284601F066
:1010900039F8464807F0F2FF0623B3E7444807F063
:1010A000EDFF8DF80450B5E794F82C30C3B1B4F8D7
:1010B0004410206C06F07EF968B904F14805284612
:1010C00001F024F810B1284601F01CF8394807F067
:1010D000D5FF082396E7384807F0D0FF032391E7B0
:1010E00094F83C30002B9AD0B4F84410206C06F0F1
:1010F00061F968B904F14805284601F007F810B114
:10110000284600F0FFFF2D4807F0B8FF092379E7D4
:101110002B4807F0B3FF042374E7A188206806F08A
:1011200049F958B9304600F0F1FF10B1304600F0EF
:10113000E9FF244807F0A2FF062386E7A18C206A76
:1011400006F038F968B904F12805284600F0DEFFFA
:1011500010B1284600F0D6FF1B4807F08FFF082388
:1011600073E7A18E206B06F025F968B904F1380504
:10117000284600F0CBFF10B1284600F0C3FF13480B
:1011800007F07CFF092360E7114807F077FF05238C
:101190005BE700BF00100140200000206401002038
:1011A000582201087222010806230108842201083E
:1011B0009C220108AC220108C6220108D82201089D
:1011C000F3220108202301083823010852230108D3
:1011D0006D23010801220221014806F0F1B800BF89
:1011E0000010014000220221014806F0E9B800BFCA
:1011F0000010014070B580224FF400740281848594
:101200004FF480524FF480644FF480738287A0F8CB
:101210006040A0F884204FF400444FF400620026A0
:1012200012490383124BA0F850404361436081632D
:101230008362C365C164C0F88030A0F8742003677E
:1012400000F11C0500F1AC04284600F05BFFA5F19D
:10125000100000F057FF243505F8206C05F8306CBD
:1012600005F8406CA542EFD170BD00BF00080140F9
:1012700000100140F8B5012700F11C0400F1AC0595
:101280002046A4F1100600F043FF304600F040FF76
:10129000204600F04BFF50B134F8041C54F8080C01
:1012A00006F088F800B92771204600F02BFF304681
:1012B00000F03CFF58B134F8141C54F8180C06F038
:1012C00079F808B904F80C7C304600F01BFF243490
:1012D000AC42D5D1F8BD70B500210224012500F142
:1012E0002403B43013F8046C13F8142C36B90AB183
:1012F00003F8245C24339842F4D170BD002A0CBF5B
:1013000022460A4603F8242CF4E7002300F1900259
:1013100080F82030037424308242F9D170470000F5
:101320002DE9F0410546234E00F10C0400F19C0824
:1013300034F8041CA06806F03DF816F8013B98420A
:1013400010D034F8041CA06806F034F804F110073B
:1013500006F8010C384600F0D9FE18B91E213846AF
:1013600000F0CCFE34F8041C54F8080C06F022F807
:1013700016F8013C83420FD034F8041C54F8080CD2
:1013800006F018F806F8010C204600F0BFFE18B968
:101390001E21204600F0B2FE24344445C8D1284620
:1013A000FFF768FF2846FFF796FF2846BDE8F041A3
:1013B000FFF7ABBF2100002024235843014B185CEA
:1013C000704700BF9C01002024235843034B1B5C43
:1013D000022B01D101207047704700BF9C01002003
:1013E00010B5044600F044FA2046CC2100F09AFAE9
:1013F0002046BDE81040442100F094BA2DE9FF4199
:101400000B780746282B0C46164603D0002004B064
:10141000BDE8F08100F06BFA0028F7D0384600F004
:1014200027FA2146384600F013FB01ADBE213846AD
:1014300000F078FA0924A846384600F083FA013C07
:1014400014F0FF0405F8010BF6D10821404600F026
:101450000CFB9DF80C30834250D1BDF80480384617
:1014600000F006FA18F4004F18BFC8F100089DF804
:10147000083018BF1FFA88F8C3F341134FEA181752
:1014800007F0700214BF0125254648F30717022B09
:1014900003F1090147EA020722D00C2927D00A29C3
:1014A00017D0C8F3C000FFF72BFB4FF07C51FFF7BC
:1014B0007BFB04463846FFF723FB2146FFF76CFA17
:1014C00001461DB10020FFF765FA01460120316099
:1014D0009DE7C8F38100FFF713FB4FF07A51E6E771
:1014E000C8F34200FFF70CFB4FF07851DFE708F03C
:1014F0000F00FFF705FB4FF07651D8E7204686E74F
:1015000032232DE9F047224D064622482B80FFF773
:1015100067FF642005F04EFA1E4C204600F0E7F904
:1015200048B12B8883B10027DFF86CA0DFF86C800E
:10153000DFF860901DE00A2005F03CFA2B88013BA3
:101540009BB22B80002BE8D1134B1B78B3B1002248
:10155000124B1A7312E06420240105F02BFA04F1F7
:1015600008024444214648464244FFF747FF0137FA
:1015700020739AF80030FCB2A342ECD8074B2888BD
:101580009B68003818BF01203360BDE8F08700BFBA
:101590002C020020300200202500002048020020FC
:1015A0002DE9F8430B780446282B0E4691465CD172
:1015B00000F05EF93146204600F04AFABE2120468E
:1015C00000F0B0F9204600F0BDF9204600F0BAF96D
:1015D000204600F0B7F98046204600F0B3F90746F0
:1015E000204600F0AFF9B9F1090F054626D100F009
:1015F0009F05204600F03CF93146204600F028FACD
:101600004E21204600F08EF94146204600F08AF92E
:101610003946204600F086F92946204600F082F936
:10162000204600F025F93146204600F011FA204608
:10163000482100F077F90120BDE8F883B9F10A0FDD
:1016400004D100F0BF0545F02005D2E7B9F10B0F3A
:1016500004D100F0DF0545F04005CAE7B9F10C0FF1
:1016600004BF40F06005EDB2C3E70020E4E770B5C9
:101670000B780446282B0D463DD100F0F9F8294699
:10168000204600F0E5F9BE21204600F04BF9204647
:1016900000F058F9204600F055F9204600F052F9C4
:1016A000204600F04FF9204600F04CF9064620464F
:1016B00000F0DEF82946204600F0CAF94E21204607
:1016C00000F030F97D21204600F02CF9C921204698
:1016D00000F028F93146204600F024F9204600F0B9
:1016E000C7F82946204600F0B3F92046482100F00B
:1016F00019F9012070BD0020FCE700002DE9F84336
:1017000005242C4F2C4E2D4D40223946304600F0FA
:1017100089F8002340F6B7382B7005F045F94045AD
:1017200014D9304600F07BF9DFF89490DFF894800C
:1017300089F8000099F8003063B92A78EAB9013CC9
:1017400014F0FF04E0D12046BDE8F883642005F0E2
:1017500031F9E2E7642005F02DF9297830460131AE
:10176000C9B22970013908EB011100F073F9304654
:1017700000F05BF989F80000DCE71C46DFF84480E4
:101780000D4FE6B2322008EB061605F013F90C22D5
:1017900031463846FFF704FF322005F00BF9314699
:1017A0003846FFF764FF01342A78E3B29A42E8D85A
:1017B0000120C9E700080140300200202500002078
:1017C00044020020480200200022034B1B685A629A
:1017D0005A6A8242FCD97047280300208388026835
:1017E0001B04136170471FB50023CDE901330323A8
:1017F0000393838869460068009305F001FD05B0F6
:101800005DF804FB1FB511220023CDE9012303235A
:101810000393838869460068009305F0F1FC05B0E6
:101820005DF804FB70B504460E4615460F4806F0F9
:10183000AFFD20462660A580FFF7E4FF2368A2885D
:101840004FF47A701A6105F0B5F82046FFF7C6FF2D
:101850004FF47A7005F0AEF82368A2884FF4FA606E
:10186000BDE870401A6105F0A5B800BF280300204C
:1018700010B50446FFF7B2FFFFF7C4FF4FF4F07056
:10188000FFF7A2FF1420FFF79FFF2046FFF7ABFFF3
:101890004620FFF799FFA188206805F08BFD0146DF
:1018A0004FF4CD70FFF790FF084610BD10B5044609
:1018B00089B1FFF793FFFFF7A5FF0A20FFF784FF29
:1018C0002046FFF790FF3720FFF77EFF2046BDE858
:1018D0001040FFF788BFFFF781FFFFF793FF41201C
:1018E000FFF772FF2046FFF77EFF0520ECE710B5FB
:1018F0000446FFF773FFFFF785FF0220FFF764FF41
:101900002046FFF770FF0A20FFF75EFFA1882068DE
:1019100005F050FD01463220FFF756FF081E18BFA4
:10192000012010BD70B506460D460924013C14F097
:10193000FF0400D170BD05F001013046FFF7B6FF8E
:101940006D08F3E770B5064609250024013D15F042
:10195000FF0501D1204670BD3046FFF7C8FF64087F
:1019600044EAC014E4B2F1E72DE9F047037A0446F3
:101970000E461BB9FFF77CFF054620B10020E08032
:101980002072BDE8F087012731462046FFF7CAFFE5
:10199000A9463E462046FFF7AAFF804682462046DB
:1019A000FFF7A5FFB8F1010F0FD1012816D1402E86
:1019B000E4D984F80690B9F1000F01D10123237214
:1019C000637A002BDAD00120DBE762198045537A75
:1019D00021D1A179B14217D93B4216D04FF0010A6B
:1019E0006219537A3B435372514620467F00FFF7FA
:1019F0005DFF013617F0FF07F6B2CBD10135EDB22E
:101A0000082DD4D00127C5E7E8D0082E00D8E6710C
:101A10004FF0000AB14623EA07035372E4E70022BD
:101A2000F021C2800272FFF79FBFF021FFF79CBF39
:101A300070B50C4655210646FFF774FF651E073446
:101A400015F8011F3046FFF76DFFA542F8D170BDB4
:101A5000FFF7EEBF00F109030139113013F8012B34
:101A6000834201F8012FF9D1704703460144002059
:101A700030B58B4200D130BD082213F8014B80EA0B
:101A8000040515F0010F4FEA500018BF80F08C00DC
:101A900002F1FF3218BFC0B212F0FF024FEA540445
:101AA000EDD1E6E710B504460846114600F0F6F819
:101AB00000232060237110BD0079704770B50E4679
:101AC00004220546006800F093F9F278044622B13A
:101AD0002868311D00F08CF9044624B92B790133B4
:101AE0002B71204670BD054D286807F041FA044867
:101AF00007F0C4FAE86907F03BFAF2E72800002093
:101B00008023010870B5047905460E467CB1042295
:101B1000006800F095F9F278044622B12868311D7A
:101B200000F08EF9044624B92B79013B2B71204635
:101B300070BD054D286807F01BFA044807F09EFAAF
:101B4000E86907F015FAF2E7280000209E23010853
:101B50000023F0B587B0029301230F4613490446D2
:101B6000CDE90413164605F04FFA01A902A805F0C5
:101B7000F3FA08B100F070FD05F058FA002505F001
:101B800043FAAE4204DC05F051FA002007B0F0BD84
:101B900000232146022057F8252005F07BFA10B9D2
:101BA00004340135EDE700F057FDEAE700FC0108D9
:101BB0000A4601460148FFF7CBBF00BF00FC010801
:101BC0004FF6FF7310B5401A013A0C5892B29A4280
:101BD00041F8044BF8D110BD0A4601460148FFF711
:101BE000EFBF00BF00FC01084FF0E022D2F8FC3D3F
:101BF00043F08073C2F8FC3D4FF06042D2F8003EE3
:101C000043F00103C2F8003E704730B5002304469C
:101C10004FF060420846834200DB30BDD2F8801EA0
:101C2000CD0707D5D2F8001EC90703D5E15C1568BA
:101C300015B111700133EEE700BFF8E70846114611
:101C4000FFF7E3BF08B528B94E21074B074A0848FC
:101C500006F022FD037C2BB9836840681B1A5842AA
:101C6000584108BD0020FCE7EA230108B62401081A
:101C7000ED23010808B528B98921054B054A064816
:101C800006F00AFD00230374C0E9013308BD00BF5C
:101C9000EA23010893240108ED23010870B50D46DD
:101CA000064600B129B969210D4B0E4A0E4806F0CF
:101CB000F3FC142006F04AFD044618B96C210B4BC6
:101CC000084AF3E70660C560FFF7D4FF2046FFF738
:101CD000B9FF18B97221064B024AE7E7204670BDEA
:101CE00017240108A5240108ED230108EA230108AF
:101CF0002624010808B5034628B99721074B084A4E
:101D0000084806F0C9FC1A7CC06832B9D3E901233F
:101D10009A4236BF8018D01AC01A08BDEA230108BB
:101D200018250108ED23010810B5044628B9BE2185
:101D3000044B054A054806F0AFFCFFF7DBFFE368FC
:101D4000181A10BDEA230108FD240108ED2301083B
:101D500008B508B103682BB9CA210F4B0F4A1048C8
:101D600006F09AFC42689954037CC16833B18268DA
:101D70000132B2FBF1F301FB1322826043680133AD
:101D8000B3FBF1F201FB123382684360D21A534273
:101D90005341037408BD00BF3F240108ED2401082E
:101DA000ED23010870B50D46044610B109B106686F
:101DB0002EB9DA210B4B0C4A0C4806F06DFCFFF7EC
:101DC00041FF68B9A368F35C2B70A368E268013334
:101DD000B3FBF2F12074012002FB1133A36070BD4C
:101DE0000020FCE750240108DD240108ED23010850
:101DF000F8B50C461546064608B103682BB9F32121
:101E00000C4B0D4A0D4806F047FC077C77B9FFF7ED
:101E10008BFFA8420CD32544AC4201D13846F8BD13
:101E2000304614F8011BFFF793FFF5E70127F5E7AC
:101E30000227F3E73F240108CB240108ED23010822
:101E400070B50C46064638B103682BB121B18D1828
:101E5000AC4208D1002070BD40F21511064B074A74
:101E6000074806F019FC21463046FFF79BFF013476
:101E70000028EDD10320EEE769240108822401083F
:101E8000ED2301087FB5002364218DF8173001236D
:101E9000CDE901310DF11701024600910448D1212D
:101EA00005F0B4FD9DF8170007B05DF804FB00BF16
:101EB0008C0200207FB501238DF817106421CDE935
:101EC00001310DF11701024600910448D02105F0BF
:101ED0000DFD002007B05DF804FB00BF8C02002060
:101EE000002108B50846FFF7E5FFBDE808400020DF
:101EF000FFF7C8BF0A22B0FBF2F302FB130000EBAE
:101F00000310C0B2704784B038B504AC84E80F0049
:101F1000002108469DF81450FFF7CCFF9DF81600ED
:101F2000FFF7E8FF01460020FFF7C4FF9DF815000A
:101F3000FFF7E0FF01460120FFF7BCFF2846FFF74F
:101F4000D9FF9DF82140014654B99DF82030022B5D
:101F50000BBF40F0600101F0DF01C9B241F0400168
:101F60000220FFF7A7FF9DF81C00FFF7C3FF014603
:101F70000320FFF79FFF9DF81E00FFF7BBFF014600
:101F80000420FFF797FF9DF81200FFF7B3FF01460B
:101F90000520FFF78FFF9DF81000FFF7ABFFBDE8AE
:101FA0003840014604B00620FFF784BF030903EB65
:101FB000830300F00F0000EB4300C0B2704710B580
:101FC00004460020FFF75EFF00F07F00FFF7EEFF02
:101FD000A0710120FFF756FFFFF7E8FF60710220B4
:101FE000FFF750FF00F00F00FFF7E0FF2071032024
:101FF000FFF748FFFFF7DAFFA0810420FFF742FF59
:10200000FFF7D4FFE0810320FFF73CFFFFF7CEFF8F
:10201000E0700520FFF736FFFFF7C8FFA07006202D
:10202000FFF730FFFFF7C2FF20800220FFF72AFFF3
:1020300000F02000FFF7BAFF002814BF022301239D
:10204000237410BD014B1B681B6818475400002007
:1020500084B013B504AC84E80F00074B1C68BDF8CE
:102060002030ADF8003004AB64680FCBA04702B05D
:10207000BDE8104004B0704754000020014B1B68BD
:102080009B681847540000207FB501A8FFF7F6FFB2
:10209000124806F0F3FF9DF80610114806F068FF9D
:1020A000BDF812100F4806F063FF9DF808100E48A7
:1020B00006F05EFF9DF809100C4806F059FF9DF8E8
:1020C00014100B4A0B4B0C4801290CBF1146194642
:1020D00006F04EFF07B05DF804FB00BF372501088E
:1020E00051250108602501086D2501087B2501089F
:1020F00031250108342501088B25010801230180C1
:102100004380704700230380438070478078704786
:102110000246807848B1138813B90123D370704701
:10212000013B9BB21380002BF7D07047C0787047FB
:10213000014B1870704700BF58020020014B1878FF
:10214000704700BF580200200120FFF7F1BF0000D8
:1021500008B5FFF7F3FFF0B10F48FEF7FBFE0F489D
:10216000FFF7DEF802F020FB03F0B8F901F0F4F815
:1021700001F0FAF900F00AFD00F0E4FE00F08EFF35
:1021800001F00CF801F046F801F07FF8BDE80840D6
:102190000020FFF7CDBF08BD4C0100209C010020AE
:1021A000202808B522D004D801280CD0102815D03A
:1021B00008BD8028FCD11148FFF7A8FF0028F7D1FF
:1021C0001E210E4806E00E48FFF7A0FF0028EFD1C1
:1021D0001E210B48BDE80840FFF790BF0948FFF7F4
:1021E00095FF0028E4D11E210648F3E70648FFF7D3
:1021F0008DFF0028DCD11E210348EBE7840100207D
:10220000940100205401002074010020012005F0F9
:10221000DDB8102005F0DAB808B5202005F0D6F8B2
:10222000BDE80840802005F0D1B80000F0B599B0B5
:1022300004F09CFB1422002110A806F0C7FA142217
:10224000002109A806F0C2FA1022002105A806F014
:10225000BDFA02244FF480330122CDE91543CDE9C4
:102260000E234FF400130EA81292179305F00CFDE5
:1022700008B100F0F1F90F23CDE909340023022160
:1022800009A8CDE90B330D9305F0D4FE08B100F099
:10229000E3F9022305934FF4004305A8079305F0E3
:1022A0008BFF08B100F0D8F9A64D102200210EA82E
:1022B00006F08CFAAB69022743F01003AB610126EC
:1022C000AB69002203F010030293029BAB69022169
:1022D00043F02003AB61AB699B4803F020030393F9
:1022E000039BAB69002443F00403AB61AB6903F0CB
:1022F00004030493049BAB6943F00803AB61AB692F
:1023000003F008030593059B05F05AF8002240F6F8
:102310005F718E4805F054F800224FF4E0518C486C
:1023200005F04EF888480EA9CDE90E76CDE9107774
:1023300004F066FF41F28C3383480EA9CDE90E34D8
:10234000109404F05DFF40F65F7380480EA9CDE95C
:102350000E36CDE9104704F053FF4FF480537B480D
:102360000EA9CDE90E34109404F04AFF4FF4E05367
:1023700077480EA9CDE90E36CDE9104704F040FFAD
:102380004FF44463734F70480EA9CDE90E37109493
:1023900004F036FF4FF400436C480EA9CDE90E3728
:1023A000109404F02DFF302307F5801766480EA91E
:1023B0000E93CDE90F7404F023FF202362480EA989
:1023C000CDE90E34109404F01BFFA0235F480EA942
:1023D000CDE90E37109404F013FF0EA95C48CDE947
:1023E0000E67109404F00CFF062004F0C3FD1720C4
:1023F00004F0C0FD0A2004F0BDFD5748574BCDE95D
:102400000E4403604FF460231094846004730475D9
:10241000C3614460066104F0D1FC08B100F01CF90E
:102420000A23CDE90E3600234B480EA9109304F081
:1024300083FB08B100F010F900226B69114643F0EC
:1024400001036B616B690E2003F001030193019B93
:1024500004F05EFD0E2004F08DFD002200241146E4
:102460000F2004F055FD0F2004F084FD3C483D4B47
:102470000821C0E900344FF6FF73CDE90E44C0E9EE
:102480000334C0E90544846006F00CF808B100F09C
:10249000E3F833480EA9CDE90E4406F0CFF808B1B1
:1024A00000F0DAF83048314B314C4FF48042C0E94B
:1024B00000430023C0E90233C0E90423C0E9063326
:1024C000036205F06BF908B100F0C6F8FFF78CFB6A
:1024D00003F0D4FAD020FFF7B5FDFEF7DBFC1022A5
:1024E00000210EA806F072F9472222482249002353
:1024F000C0E900124FF6FF72CDE90933C0E90323AA
:1025000083608023836105F0A1FF08B100F0A4F887
:102510004FF4805317480EA90E9305F0FAFF08B147
:1025200000F09AF80023134809A9CDE9093306F011
:1025300085F808B100F090F819B0BDE8F040FFF759
:10254000DDB800BF0010024000100140000801404B
:10255000000C0140000011105C020020002401402A
:10256000E0020020002C01408C020020A086010027
:102570000054004028030020000400402DE9F047EB
:10258000FFF754FE2B4806F079FD2B4806F076FD48
:102590002A492B4806F0ECFC2A492B4806F0E8FCB7
:1025A000244806F06BFD2948FEF7ACFC2848FEF7EE
:1025B00021FE00F057FA804600F09EFA02F0F4F88F
:1025C000824602F0F5F800F0C7FE814600F05AFF9F
:1025D00000F0DCFA074600F0DDFA00F0D7F9064615
:1025E00000F0E0F900F05AFD054600F05FFD00F054
:1025F00011FE044600F012FE05F0B8FD0146154834
:1026000006F0B6FC504602F023F9484600F0ACFE56
:10261000404600F02BFA384600F02EFB304600F022
:10262000C9F9284600F050FD204600F0F9FDFFF7FB
:102630008FFDE7E799250108C4250108DD2501087C
:10264000EC25010807260108132601084C0100208B
:102650009C0100202226010872B6FEE70E4B82B0D4
:102660009A6942F001029A619A6902F001020092AD
:10267000009ADA6942F08052DA61DB69074A03F0B6
:1026800080530193019B536823F0E06343F0007390
:10269000536002B0704700BF0010024000000140CC
:1026A00010B5044686B01022002102A806F08EF86C
:1026B0002268104B9A421BD103F56C439A690E486D
:1026C00042F400729A619A6902A902F400720092BF
:1026D000009A9A6942F010029A619B69012203F004
:1026E00010030193019B0323CDE9022304F088FD2D
:1026F00006B010BD002401400010014010B5044692
:1027000086B01022002102A806F060F82268114B62
:102710009A421CD1104CC022A369104843F0080310
:10272000A361A36902A903F008030093009B12238D
:10273000CDE902230323059304F062FDE36943F42A
:102740000013E361E36903F400130193019B06B0F6
:1027500010BD00BF0054004000100240000C0140BA
:102760000268084B82B09A420AD103F564439A6921
:1027700042F400629A619B6903F400630193019B38
:1027800002B07047002C01400268084B82B09A42A8
:102790000AD103F50333DA6942F00202DA61DB6938
:1027A00003F002030193019B02B070470004004054
:1027B000FEE7FEE7FEE7FEE7FEE77047704770477B
:1027C00008B5FFF7C1FC04F0E3F8024A13680133CF
:1027D000136008BD200E00200120704708B505F0E9
:1027E00079FF162303604FF0FF3008BD08B505F0F0
:1027F00071FF16230360FEE770B50D4614460E46C2
:10280000731B9C4201DC204670BDAFF3008006F8CC
:10281000010BF5E74FF0FF3070474FF400530020F5
:102820004B60704701207047002070470B4A0346F9
:10283000116810B509B90A491160106809490A4CB4
:102840000344091B8B4206D905F044FF0C230360A7
:102850004FF0FF3010BD1360FCE700BF7003002095
:10286000380E0020005000200004000070470000D7
:1028700000B51148AFB006F001FC01238DF800301F
:1028800000F06EFD02460068516801AB03C390681A
:10289000186000F007FC0368049300F073F9A422A9
:1028A000014605A805F06AFF2F216846FFF780F969
:1028B0002FB05DF804FB00BF5426010810B5054C8D
:1028C000054806F0DBFB20462F21FFF785F920465F
:1028D00010BD00BF740300207B2601082DE9F047DE
:1028E000044600264FF001084FF003094FF0020A9A
:1028F000F5B22846FEF768FD40B12846FEF75CFDBC
:1029000020B984F8068084F8079020722846FEF7E4
:102910005BFD074630B92846FEF74EFD10B184F83E
:10292000078027722846FEF74FFD40B92846FEF77C
:1029300043FD20B1237A032B08D10423E371013630
:10294000042E04F10304D3D1BDE8F087012B02D19A
:1029500084F807A0F3E7002BF1D184F80890EEE7A4
:1029600010B50446074806F003FB074806F086FB4F
:1029700001232370002320466370A370BDE810403C
:10298000FFF7ACBFA5260108B42601080048704730
:102990002C040020024B00EB40001844704700BF9D
:1029A0003204002000224271827142720273C273AB
:1029B000FFF7D6BFF8B503780446012B3ED18378E4
:1029C000012B16D1C67806EB46050544EF797A1E31
:1029D000012A20D81A4806F0CBFA3A461948711C49
:1029E00006F0C6FA23792046AB71BDE8F840FFF740
:1029F000B7BF022B10D1C67806EB46050544EF7928
:102A0000FB1E012B06D80E4806F0B2FA3A460E48D5
:102A1000711CE5E703232B722046FFF75FFF084E8A
:102A20000A4F04F10C05237A2BB1304606F0A0FAC8
:102A3000384606F09DFA0334A542F4D1F8BD00BF34
:102A4000A5260108CB260108F92601082827010838
:102A50000B785A1E012A04D883700B79C3704B7906
:102A600003717047004870474004002070B5057836
:102A70000446012D02D0022D38D070BD637830306D
:102A8000012B2DD10226251D2946FFF73BF8A379FE
:102A90002680013B052B09D8DFE803F00308100A64
:102AA000161C01F081FE294602F027FD6670E4E75E
:102AB00000F06CF8294600F049FAF7E7FFF766FFE7
:102AC0002946FFF7C5FFF1E700F046FC294600F074
:102AD0004FFDEBE700F0E2FA294600F059FBE5E78D
:102AE000FEF7EAFF0028C8D06570C6E74378022BDE
:102AF00004BF01230380C0E710B5C8220446034980
:102B00003030FEF7CFFF0123238010BD7804002072
:102B100038B58B780C46013B062B08D84B78013B27
:102B2000062B04D8BDE838403030FEF7C7BF064D4D
:102B3000286806F01DFAA2786178044806F018FAB1
:102B4000E86906F015FA38BD28000020462701087C
:102B500010B50446094806F00BFA094806F08EFA4B
:102B600001232370002304F11A002371237648F611
:102B7000B801BDE81040FFF7C1BA00BF6B270108DC
:102B8000752701080048704760050020004870471D
:102B900040050020F8B500F12006A42200210446DB
:102BA000304605F013FEFFF789FE03780546002B3B
:102BB00053D00246A43092F83C30013B012B22D87E
:102BC000134600219F7E1F2F1DD8DF7E0C2F1AD8A1
:102BD000DF7D0C2F17D81F7D0C2F14D8013105294C
:102BE00003F10803EED129328242E4D11F4806F0F6
:102BF000BFF91F4806F042FAA422304605F114013D
:102C000005F0BCFD29E0194806F0B2F9194806F0B4
:102C100035FA012621460022022504F1A4070B46BD
:102C2000002081F848600130052883F8262083F8C9
:102C3000272083F8232083F8242083F8255083F865
:102C4000202083F8212083F8225003F10803EAD1E1
:102C50002931B942E3D1FFF70BFE00232046A4F847
:102C6000C430BDE8F840FFF773BF00BF6B27010811
:102C7000DF2701088D2701082DE9F04F037804466E
:102C8000012B91B008D0023B012B00F2398111B029
:102C9000BDE8F04FFFF75CBF0579012D70D19A4870
:102CA00006F066F9994806F0E9F9002602239648ED
:102CB00023702671267606F05BF9954806F0DEF95A
:102CC000E37A8DF83D60ADF83A30237B84F8C55047
:102CD0008DF82E302389ADF83030A37A8DF83C3052
:102CE000BDF83C30ADF800300BAB0FCBFFF7B0F9BF
:102CF000FFF7CAF904F11A00FFF718FA002800F0EC
:102D0000FF800BA8FFF7BAF99DF83A307E48089388
:102D10009DF82E30DFF8FCB109939DF83030002685
:102D200005939DF83130DFF8E08106939DF83C3043
:102D300004F12809079306F01BF9DDE90812079B47
:102D400075485BF823300193069B0093059B06F0C2
:102D50000FF9F0B2FFF71EFE03780746022B06F1CB
:102D6000010642D1404606F003F931467A786B48B5
:102D700006F0FEF8042E09F12909EAD1204686E77B
:102D8000022DB7D1604806F0F3F8654806F076F9F1
:102D90000323292223700023207C666902FB004064
:102DA00000F12005314628462371237605F0D6FC34
:102DB00030B9554806F0DCF85A4806F05FF999E753
:102DC000514806F0D5F8584806F058F931462846DB
:102DD00006F1280351F8042B994240F8042BF9D14D
:102DE0000B780370FFF744FD84E7DFF840A1A9F1F9
:102DF000280599F82030012B18D195F82630089A2B
:102E0000934204D195F82730099A93420ED0404658
:102E100006F0AEF83146DAF80020454806F0A8F88A
:102E200008354D450AF1040AE3D1A3E795F82030AF
:102E3000059A93422ED195F82130069A934229D1D2
:102E400095F82230079A934224D1404606F090F834
:102E5000DAF8001095F8273095F82620039195F8B8
:102E6000251034485BF82110029195F8211001914A
:102E700095F820100091314606F07AF87B78032B04
:102E800001D1BB7833B1404606F072F831462A488A
:102E900006F06EF895F82330059A9342C0D195F864
:102EA0002430069A9342BBD195F82530079A934275
:102EB000B6D1404606F05CF8DAF8001095F82730F5
:102EC00095F82620039195F825101C485BF82110F1
:102ED000029195F82410019195F823100091314644
:102EE00006F046F87B78012B02D1BB78002B97D0F7
:102EF000404606F03DF83146114806F039F88FE7B4
:102F000011B0BDE8F08F00BF6B270108152801083C
:102F1000352801085C000020C4280108092901089F
:102F20005D2801087D280108AA2801086800002002
:102F3000382901086A290108C0290108EA2901087D
:102F4000412A01081A30FFF7E3B800002DE9F041EB
:102F500091F800800546B8F1010F0C461BD100F135
:102F600008070E1D3146384605F0F8FB38B90F4802
:102F700005F0FEFFBDE8F0410D4806F07FB8314690
:102F800085F80480143451F8043BA14247F8043B0F
:102F9000F9D1BDE8F081B8F1020FFAD180F80480D0
:102FA0000B6943610B7B0374F3E700BF6B270108D8
:102FB0006B2A010810B50446064805F0D9FF0648FB
:102FC00006F05CF802232370002363800123E3737F
:102FD00010BD00BF072B0108122B010810B50446D5
:102FE000054805F0C5FF054806F048F801232370A1
:102FF00000236380E37310BD072B0108292B010810
:1030000010B50446114805F0B3FF114806F036F834
:103010000323237000236380A37B3BB90B4805F097
:10302000A7FF0C4806F02AF80123A373074805F010
:103030009FFF094806F022F8002304F10800A3735B
:1030400042F21071BDE81040FFF758B8072B010895
:10305000422B0108592B0108782B010838B50C4D7B
:103060000446284605F084FF0A4806F007F80423C2
:10307000237000232846638005F07AFF064805F098
:10308000FDFF201D44F62061BDE83840FFF736B84B
:10309000072B01088E2B0108A32B0108004870475D
:1030A00010060020004870471C06002010B504469A
:1030B000FFF704FC0023A3814FF480732046E381D3
:1030C000BDE81040FFF776BF10B503780446013B1A
:1030D000032B43D8DFE803F002253043C378022BEB
:1030E00011D1837B23B92046BDE81040FFF762BFB2
:1030F000224805F03DFF224805F0C0FF2046BDE80C
:103100001040FFF76BBF062B04D12046BDE81040EE
:10311000FFF776BF042B21D12046BDE81040FFF712
:103120009DBFC378032BEED1837B002BDBD01348EC
:1031300005F01EFF1348DFE7C378072B09D10F48BE
:1031400005F016FF104805F099FFE37B012BD5D160
:10315000C9E70830FEF7EAFF0028F0D110BDC378B8
:10316000052B04D1054805F003FF0848EBE70430C0
:10317000FEF7DCFF0028F5D1F0E700BF072B0108C0
:10318000B72B0108D82B0108F82B01080D2C0108DA
:103190000B785A1E062A98BFC370704710B50446B4
:1031A0000430FEF7B5FF04F10800BDE81040FEF75B
:1031B000AFBF000010B5FDF785FE074B1C881880D7
:1031C000844294BF03240424FDF78DFE13288CBF92
:1031D0002046022010BD00BF20060020012310B5AC
:1031E0000370002383710446FFF7E4FFA070FDF72E
:1031F00069FEA080FDF777FEA378E070022B08BF80
:10320000A37104F1080044F62061BDE81040FEF708
:1032100075BF00000048704722060020FFF7DEBFA0
:1032200038B503780446012B02D0022B25D038BDD7
:10323000837900F10805022B15D1037000238371F7
:10324000FFF7B8FFA070FDF73DFEA080FDF74BFE35
:10325000322888BF0323E07044F62061284688BFE7
:10326000A371FEF74BFF2846FEF760FF0028DED073
:103270002046BDE83840FFF7B1BF8379032B01D169
:10328000FFF7ACFF04F10800EEE70830FEF740BF9F
:1032900010B50446084805F06BFE084805F0EEFE40
:1032A000012323700023201DA3704EF66021BDE88A
:1032B0001040FEF723BF00BF212C01082E2C01086F
:1032C00002698368407B012808D1191D91420CDBFB
:1032D000043B9342D4BF00200120704703F1090151
:1032E000914201DB093BF4E70120704713B5437BB2
:1032F0000446012B01A80FD1FEF702F90198FDF752
:10330000A3FD20610F4805F033FE21690E4802B08D
:10331000BDE8104005F02CBEFEF7F2F80B4901980D
:10332000FDF742FC0A49FDF7F3FC4FF08441FDF73D
:1033300033FBFDF789FD2061024805F019FE216984
:103340000448E4E7212C01084A2C01080000104140
:103350000000A040722C0108004870473006002091
:10336000004870473806002038B503780446012B22
:1033700002D0022B4ED038BD051D2846FEF7D6FEE2
:103380000028F8D02046FFF7B1FF2046FFF798FF4E
:1033900020B3237B2846012B32D1FEF7B3FE3348FE
:1033A00005F0E6FD324805F069FE02232370002394
:1033B000A370637B2269012BA3681BD1191F8A426A
:1033C00013DA0223A3704EF660212846FEF796FE1C
:1033D000264805F0CDFD274805F050FE2846BDE8FB
:1033E00038404EF66021FEF789BE04339A42EADD8A
:1033F0000323E7E7A3F109018A42E2DB0933F5E79A
:10340000FEF780FE2046FFF743FF184805F0B0FDA9
:103410001948E1E78378022B1FD1FDF7E3FE13483B
:1034200005F0A6FD154805F029FE0023A370251D13
:103430002846FEF77BFE00289DD02046FFF756FF6A
:103440002046FFF73DFF0028C8D12846FEF75AFE68
:103450002046BDE83840FFF71BBF032BE7D1FDF73F
:10346000B9FE024805F084FD0548DCE7212C01087F
:103470009D2C0108B92C0108E02C0108082D010839
:103480002F2D010838B505462C4805F071FD2C4854
:1034900005F0F4FDFFF712FA03780446002B3ED046
:1034A000037A013B012B3AD8437A013B012B36D8F2
:1034B000224805F05DFD234805F0E0FD1F4805F0BA
:1034C00057FD214A214B217A214801290CBF114681
:1034D000194605F04DFD194805F04AFD1D4B1E4AE1
:1034E000617A1E4801290CBF1146194605F040FDBE
:1034F000124805F03DFD6168194805F039FD237A51
:103500002B73637A6B736368AB602846FFF7EEFE3C
:10351000FDF768FE2846BDE83840FFF7B9BE07480A
:1035200005F026FD0F4805F0A9FD1423AB6040F21D
:103530000113AB81FFF79CF9E7E700BF212C0108DD
:10354000782D0108A92D0108562D01085D2D0108CF
:10355000E02D01086D2D0108652D0108FA2D0108E7
:103560000E2E0108212E01080430FEF7D1BD000007
:10357000F8B50E780346012E24D10D7A124C6A1E3E
:10358000012A206814D84A7A571E012F10D8DE70FD
:1035900049681D7399605A7305F0EAFC0B4805F001
:1035A0006DFDE06905F0E4FCBDE8F840FFF760B9A7
:1035B00005F0DEFC064805F061FDE069BDE8F84075
:1035C00005F0D6BCF8BD00BF28000020522E01082F
:1035D000702E010842684188008802F04DBB10B58A
:1035E00004464FF6FF7002F023FA2088E388A28891
:1035F000618802F059FCBDE81040002002F018BAC2
:1036000010B50446084602F013FA2088E388A28821
:10361000618802F049FCBDE81040002002F008BAC1
:1036200070B516460D460446184602F001FA3046BB
:1036300002F00AFA2A4661882088032302F0E6FB9A
:10364000044802F001FABDE870404FF6FF7002F046
:10365000F5B900BF1800002070B504460E461546A7
:10366000104602F0E5F920882B463246618802F0C8
:103670004DFDBDE870404FF6FF7002F0DFB910B5A8
:103680000446084602F0D4F92088E388A2886188BD
:1036900002F060FABDE81040002002F0C9B910B590
:1036A0000446084602F0C4F920886188072202F027
:1036B00009FCBDE81040002002F0BAB90D4A0E4BDB
:1036C000026102F11012C0E9082382610B490C4A21
:1036D0004361C0E900120B4AC3618260D3F816202F
:1036E000103AC281D3F81230183B8381064B8362B3
:1036F000704700BF72011A00A8D400086E010A00CA
:10370000600051008301220092012C0011B11030A1
:10371000FFF760BFFFF763BF2DE9F7438B780446DF
:10372000012B0D4615D11F21FFF7A9FF04F1080752
:103730003846FFF754FF2B78022B18D0032B19D0F3
:10374000012B4FD104F1180003B0BDE8F043FFF79F
:1037500041BF4FF6FF7002F06BF92088E388A28822
:10376000618802F0F7F9002002F062F9DEE704F167
:103770002000E9E7A089FCF73DFE6D7880462846E9
:103780008946FCF737FE00221E4BFCF7C7FF0B46AD
:10379000024649464046FCF797FEFDF7A7F800268B
:1037A00081462A461849684600968DF8046005F05F
:1037B0007DFC4846FDF748FB6B1E0F2BB4F80C80D0
:1037C000A08112D84FF478413846FFF719FF3346ED
:1037D00069460E4A04F12800FFF722FF5FFA88F8D5
:1037E000A4F80C8003B0BDE8F083A5F11103342BDD
:1037F00002D84FF6E071E7E7463D1E2DEED84FF4B4
:10380000FC61E1E700005940122F01080000002090
:103810000F2303800A2343805123C38084238380A2
:10382000132303810E2343814923C3817C23838196
:10383000322383821923C382704700002DE9FF41A0
:103840000023044600938DF8043081B319460830F4
:10385000FFF715FF0125174EDFF85C80174F328800
:1038600023890021134423827288638904F11000A4
:1038700013446382FFF703FF238A2A460F33ADF810
:103880000830638A414604336846ADF80A30013592
:1038900005F00CFC00233A46694602A8FFF7C0FE7B
:1038A000052D06F10406DAD104B0BDE8F081FFF77A
:1038B00096FEF9E7A82F0108172F01080000002045
:1038C0007FB50D4601210446FFF7B8FFAB78012B09
:1038D0002FD11F212046FFF7D2FE1D4EEB78012B82
:1038E00025D169781B4B228933F8210003EB810332
:1038F00002445B88228262891F211344638204F19F
:103900001000FFF7BCFE238A6A780F33ADF8083049
:10391000638A1149043301326846ADF80A3005F074
:10392000C5FB1F233246694602A8FFF779FE04B0A3
:1039300070BD4FF6FF7002F07BF8E388A2886188C3
:10394000208802F007F9002002F072F8034EC5E764
:1039500010000020A82F0108172F010808000020E0
:1039600013230380622343804FF4DD738380D823C5
:10397000C3804FF4CE730381892343812423838141
:103980001223C3818323F0B54FF0A10C9E46B527C7
:10399000EE264FF486754FF4907440F2591140F2C0
:1039A0007712438243834384438543864387A0F849
:1039B0004A30A0F8423021339BB2B3F5947FA0F88F
:1039C00010E0A0F818C00784068505860487A0F8D3
:1039D0004810A0F8402000F14000E2D1F0BD000006
:1039E0002DE9F3470646002979D00021FFF747FE6D
:1039F000002106F10800FFF742FE00253A4C3B4F3C
:103A0000A288338868461344ADF80030E288738892
:103A100054F8081B1344ADF802303A460023013530
:103A2000FFF7FEFD042DEBD12127DFF8C4902F4DC9
:103A3000DFF8C08006F1100433882A460233ADF85F
:103A40000030738868463B4459F8041BADF80230D7
:103A50000023FFF7E5FDDFF8A0A0204600232A465B
:103A60002649FFF7DDFD04F1080000232A46414600
:103A7000FFF7D6FD04F1100000232A46DAF80410FF
:103A8000FFF7CEFD04F1180000232A461B49FFF77B
:103A9000C7FD04F1200000232A464146FFF7C0FD80
:103AA00004F1280000232A46DAF80410FFF7B8FDD5
:103AB000213704F1380000232A461149FFF7B0FDF1
:103AC000BFB204F1300000232A464146FFF7A8FDAB
:103AD000C62F04F14004AFD102B0BDE8F08702B0B8
:103AE000BDE8F047FFF77BBDB82F010800000020BC
:103AF000D82F01081E2F01085C0000201A2F010892
:103B0000212F010873B591F82C300546012B4B7815
:103B10000C4614BF00261F26082B00F2A880DFE801
:103B200003F0051828394959667686000B786846EF
:103B300001EBC3039A78514905F0B8FA3346694658
:103B400020784F4A05EB80101030FFF769FD02B076
:103B500070BD0B78684601EBC303DA78474905F07E
:103B6000A5FA2078334605EB80106946444A1830A0
:103B7000EBE733460878424A01EBC0042479414917
:103B800005EB801051F82410203002B0BDE87040E1
:103B9000FFF746BD0B78684601EBC3035A793749F6
:103BA00005F084FA2078334605EB80106946344AE4
:103BB0002830CAE70B78684601EBC3039A792F498E
:103BC00005F074FA2078334605EB801069462C4ADC
:103BD0003030BAE70878334601EBC004247929492C
:103BE00005EB8010264A51F824103830CDE70B78C9
:103BF000684601EBC3031A7A204905F057FA20788A
:103C0000334605EB801069461D4A48309DE70B7826
:103C1000684601EBC3035A7A184905F047FA207841
:103C2000334601306946164A05EB80108DE7314670
:103C30000830FFF724FD2B8968460133ADF80030CA
:103C40006B890133ADF80230AB89023BADF804302B
:103C5000EB89023BADF8063094F82A30022B0CBFFA
:103C60004FF4FC614FF6FF71FFF7CAFC6FE706489F
:103C700002B0BDE8704005F07BB900BF252F0108F8
:103C8000000000205C0000202A2F0108112303807F
:103C9000742343804FF4DD738380A123C3804323C7
:103CA000038191234381438240F233130383BA2378
:103CB000D022438340F26513028203854FF4CB7216
:103CC000A6230284438543847047000010B5044650
:103CD00029B3002214490830FFF7BEFC04F110009C
:103CE00000221249FFF7B8FC04F118000023104A23
:103CF0001049FFF795FC04F1280000230C4A0E49F7
:103D0000FFF78EFC04F120000C490023084AFFF75E
:103D100087FC2046BDE810400021FFF7B0BCBDE89D
:103D20001040FFF75CBC00BF552F0108592F010858
:103D300010000020042B01085C2F0108602F0108EF
:103D400073B50C46CB790546012B8B7914BF002641
:103D50001F26012B0CBF1F210021FFF790FC2378A9
:103D6000013B042B0FD8DFE803F003101A293400BD
:103D700062781D49684605F099F93246694605F1B1
:103D80000800FFF769FC02B070BDA27816496846CA
:103D900005F08CF93246694605F11000F1E7E2784A
:103DA000124B684653F8221005F0A0F933466946D5
:103DB0000F4A05F11800FFF733FCE4E722790A49BE
:103DC000684605F073F933466946094A05F128004B
:103DD000F1E762790449684605F068F933466946B7
:103DE000034A05F12000E6E7252F01085C000020CA
:103DF00010000020084B094AC360094BDFF824C0BB
:103E0000C0E90023084B8360084BC0E906C3084B98
:103E10000362084B03617047B80E0108A5000B0050
:103E20005A005100B8001600A6000F00060031002D
:103E3000BA004700C900240037B50446B9B3254687
:103E40000830FFF7C7FB238B00210133ADF80030AA
:103E5000638B04F118000133ADF80230A38B023BF1
:103E6000ADF80430E38B023BADF80630FFF707FCFA
:103E7000002001F0DDFD0822618C35F8200F01F0F3
:103E800085FE002001F0D4FD28464FF6FF71FFF7B4
:103E900006FC68464FF6FF71FFF7B2FB0023064AA7
:103EA000064904F11000FFF7BBFB03B030BD03B0BF
:103EB000BDE83040FFF793BB08000020632F0108E6
:103EC0002DE9FF410E46CB784FF6FF71012B08BF5D
:103ED0001F210446FFF7D3FB3378012B5FD1E08B22
:103EE000FCF788FA757896F80280064628460F4651
:103EF000FCF780FA2EA3D3E90023FCF70FFC02465F
:103F00000B4630463946FCF7DFFAFCF7EFFC00239E
:103F1000074600938DF80430274B2A4653F8283083
:103F20002649684605F0C2F83846FCF78DFFB8F11F
:103F3000010F80B2E68BE08334D1A5F11403312B5D
:103F400032D9463D1E2D8CBF1F254FF47845238B5B
:103F500002380133ADF80830638B04F120070133D8
:103F6000ADF80A30A38B4FF6FF71023BADF80E009F
:103F70003846ADF80C30FFF792FB4FF6FF7102A800
:103F8000FFF73EFB29463846FFF789FBF6B20023D0
:103F900069460B4A04F11000FFF742FBE68304B0C8
:103FA000BDE8F0811F25D2E74FF6E075CFE700BFEF
:103FB0000000000000C058409C2F0108672F010836
:103FC000080000200F4A104B1049C0E90023104B95
:103FD000104AC0E902134FF01413DFF83CC0C0E9E7
:103FE000062302F54812C0E908237D32C0E90A23FE
:103FF000C0E904C3094A0A4BC0E90C23094B036416
:10400000704700BF11007400BA01A100F7008C00D6
:104010004A0028002401B500A101B500160088005F
:10402000B0011E0015018C0030B504468FB0002988
:1040300000F0898000250388454A1933ADF8003027
:104040004388444918336846ADF802302B46019541
:10405000FFF7E6FA238802A81933ADF80830638821
:104060003B4A4633ADF80A303B492B460395FFF7F0
:10407000D7FA238804A81933ADF810306388344A7E
:104080007733ADF8123035492B460595FFF7C8FA5E
:10409000238806A8A033ADF818306388304A463329
:1040A000ADF81A302F492B460795FFF7B9FA238848
:1040B00008A803F59B73ADF820306388284A46337F
:1040C000ADF8223028492B460995FFF7A9FA238835
:1040D0000AA8C833ADF828306388214A7733ADF891
:1040E0002A3022492B460B95FFF79AFA23881C4A5F
:1040F00003F5A573ADF8303063880CA87733ADF8BD
:1041000032301B492B460D95FFF78AFA294604F1F8
:104110002800FFF7B4FA294604F12000FFF7AFFAB0
:10412000294604F11000FFF7AAFA294604F1180005
:10413000FFF7A5FA2B460A4A0E4904F14000FFF7A3
:104140006FFA0FB030BD0FB0BDE83040FFF747BA8F
:10415000080000208D2E01089E2E0108A52E0108C2
:1041600000000020B12E0108BC2E0108C42E010859
:10417000C72E0108632F0108F0B54B7B0D46012BBC
:1041800008BF1F260B7B0EBF37464FF6FF76002772
:10419000012B0CBF1F21002187B00446FFF76FFAE7
:1041A0002B78022B1DD0032B6CD0012B17D16388E9
:1041B00031461433638604F13000FFF760FA2A7A3F
:1041C000544B684653F8223053496A6804F06EFF36
:1041D0003B466946514A04F14000FFF721FA07B017
:1041E000F0BD638831463D33638604F13000FFF74C
:1041F00046FA238B0133ADF80830638B0133ADF8F9
:104200000A30A38B023BADF80C30E38B023BADF8D8
:104210000E30238A0133ADF81030638A0133ADF8D4
:104220001230A38A023BADF81430E38A023BADF8AA
:1042300016302B7A012B17D102A8FFF7D0F90021F5
:1042400004F11000FFF71BFA4FF4FC6104A8FFF71C
:10425000D7F92A7A2F4B684653F822302E496A68DC
:1042600004F024FF0023B4E7022BF2D104A8FFF7E7
:10427000B6F9002104F11800FFF701FA4FF4FC61D0
:1042800002A8E4E7638831466F33638604F13000A7
:10429000FFF7F5F9238C0133ADF80830638C013357
:1042A000ADF80A30A38C023BADF80C30E38C023B36
:1042B000ADF80E30238D0133ADF81030638D01332E
:1042C000ADF81230A38D023BADF81430E38D023B04
:1042D000ADF816306B7A012B0DD104A8FFF77FF9EA
:1042E000002104F12000FFF7CAF94FF4FC6102A895
:1042F000FFF786F973E7022B7FF471AF02A8FFF78F
:104300006EF9002104F12800FFF7B9F94FF4FC61C0
:1043100004A8EDE79C2F0108672F01080800002082
:10432000044B054AC360054BC0E90023044B83607E
:10433000704700BF38F8000809010B004000510029
:104340001201140011B10830FFF744B9FFF747B963
:104350000B784FF6FF71012B08BF1F21FFF78FB9B4
:1043600011230380742343804FF4DD738380A123E2
:1043700030B5C3809D2543230584038205853923F9
:10438000F8259C24F62140220383058651230587C6
:104390004FF4A975448241838282C382448441855B
:1043A0008284C384448641878286C386A0F84050B5
:1043B000A0F84240A0F84850A0F84A10A0F84420C5
:1043C000A0F8463030BD000037B50446002944D07F
:1043D00000250021FFF753F92388224A6433ADF802
:1043E0000030638868460F33ADF802301E492B4613
:1043F0000195FFF715F9294604F11000FFF73FF981
:10440000294604F12000FFF73AF9294604F140005B
:10441000FFF735F9294604F13000FFF730F92B4654
:1044200004F118000F4A1149FFF7FAF82B4604F17E
:1044300028000C4A0E49FFF7F3F82B4604F1480018
:10444000084A0C49FFF7ECF82B46064A0A4904F1E2
:104450003800FFF7E5F803B030BD03B0BDE83040E9
:10446000FFF7BDB8080000206E2F01087E2F01085D
:10447000852F01088B2F0108912F010870B50D467B
:104480008B780446012B2B7818BF002103F1FF33F2
:1044900008BF1F21042B27D8DFE803F003081924E5
:1044A00004001030BDE87040FFF7E9B82030FFF796
:1044B000E6F82B7904F128002BB90C4A0C49BDE829
:1044C0007040FFF7ADB80023084A0A49F7E73030DB
:1044D000FFF7D5F86B7904F13800002BF3D1034ACC
:1044E0000549ECE74030DDE770BD00BF0800002063
:1044F000852F0108962F0108912F010811230380B1
:10450000742343804FF4DD738380A123C3802F2362
:104510000381B0234381704711B10021FFF7AFB889
:10452000FFF75DB80023024A0830FFF779B800BFF3
:10453000100000200378012B92BF0C2303F1FF33FE
:10454000DBB203707047000010B50446FEF708FFA9
:10455000012384F82130836804F1210184F822309A
:104560004379034884F82330BDE81040FFF7A8BC26
:10457000C4080020F0B50446012587B001A8FDF766
:104580007DFDBDF81230104E84F856309DF806308F
:1045900004F1520784F857309DF8083084F85330FE
:1045A0009DF8093084F854309DF8143084F8553063
:1045B00084F85250394630460135FFF7C1FB062DCD
:1045C000F6D107B0F0BD00BF7406002010B5044658
:1045D000174804F0CDFC174804F050FD01210023DA
:1045E000217063801448FFF771FB0323134A23777C
:1045F00013781348591C11706422B3FBF2F102FBCB
:10460000113304F11C016377FFF786F82046FFF7AA
:104610009BFF2046FFF7AEFF201D4FF47A71FDF798
:104620006DFD04F10800BDE81040FDF76BBD00BF53
:10463000EC2F0108F22F010874060020EC0800207E
:104640004406002070B5044694B0344804F090FC51
:10465000334804F013FD0025042329462370314814
:104660006580FFF733FB01212F48FFF755FF607E80
:10467000FEF790F9012603238DF8245002258DF8CA
:1046800025608DF826308DF827504378DA1EB24227
:1046900031D8627E2549324401A804F007FD1F4845
:1046A00004F066FC224801A904F062FC8DF8246045
:1046B000637E8DF829508DF82830FEF7D3F909A9CB
:1046C000FEF726FA01A91848FFF72CFF607EFEF7D7
:1046D00061F9437804F11801237601231548E37644
:1046E000FFF7EEF840F6B83104F10C0014B0BDE865
:1046F0007040FDF703BD013B012BE3D8627E0E49FC
:10470000013201A804F0D2FC044804F031FC08484E
:1047100001A904F02DFC8DF82450C9E7EC2F010805
:104720000C300108740600200C0800202B30010812
:104730001D260108A40600204230010890F87420CC
:104740000B46042A24D8DFE802F0030910161C00E7
:10475000837600F118010F48FFF7B2B880F82430D3
:1047600000F121010C48FFF7ABBB01460B4801F8F3
:104770001F3FFFF7EDBD837700F11C010848FEF7EE
:10478000CBBF80F8583000F152010648FFF7D8BA85
:10479000704700BFA4060020C40800201C080020A9
:1047A000440600207406002000487047F0080020EE
:1047B0002DE9F8430446DFF87490DFF8748048462A
:1047C0001C4FFEF77BFF1C4E4046FFF721F81B4DA8
:1047D0003846FFF70FFB3046FFF7A2FD2846FFF7EC
:1047E00055FA1748FFF7BCF81648FFF787FE16483A
:1047F000FFF7E8FB1548FFF7B3FD48460121FEF738
:1048000085FF40460121FFF719F838460121FFF7DF
:1048100013FB30460121FFF795FD28460121FFF7E4
:1048200055FA2046BDE8F843FFF7D0BE4406002005
:10483000A4060020C40800201C08002074060020E4
:10484000BC0600200C0800207C0800202C0800205A
:104850002DE9F04303780446013B8DB0072B00F2AD
:104860006081DFE813F0080099044D0346058701D5
:10487000820258051D06837800F10805002B00F020
:104880002181033B062B00F21B81DFE813F00700B8
:1048900007002A0067016D016F0171010221FFF716
:1048A0004DFFA378032B13D194F8743073B1013BFF
:1048B00084F8743001212046FFF740FF94F874100B
:1048C000C54804F055FB41F28831F6E00423EFE7D8
:1048D000042BEFD194F87430032B8CBF00230133E9
:1048E000E6E790F87430042B00F2EA80DFE813F07A
:1048F000050020006D00CB001C01877E012F40F0D9
:10490000DF80B64804F034FBB54804F0B7FB00265E
:104910000221204621706680FFF710FFB14884F81D
:1049200074606676E77604F11801FEF7C9FFCAE7FE
:1049300090F82470012F40F0C380A84804F018FBC1
:10494000A94804F09BFB4FF000090723A4F802904C
:104950002370FEF705FD80464946A448FFF7B6F9E7
:104960003946A348FFF760FB98F8053004F1640668
:1049700084F86C3098F80430314684F86D30D8F8FB
:1049800000304FF00208A366994884F8718084F8DB
:104990006470FFF7F1FB3146954884F86480FFF7B7
:1049A000EBFB0323314684F864309148FFF7E4FBC6
:1049B00040F2011331468E4884F8747084F86470B4
:1049C000A4F87030FFF7D8FB7DE790F81F80B8F1AE
:1049D000010F75D1814804F0CBFA864804F04EFBF4
:1049E00006230021237061808348FFF76FF94FF0A1
:1049F000020941468148FFF7E7FCFEF753FB84F8C4
:104A00005B9084F85C90C37804F15A0684F86030B7
:104A10000378074684F85F304378314684F85E3087
:104A20008378764884F85D3084F85A80FFF726FD55
:104A30003146724884F85A90FFF720FD032331462F
:104A400084F85A306D48FFF719FD0423314684F885
:104A50005A306A48FFF712FD0523314684F85A3070
:104A60006648FFF70BFD84F8748084F85B9084F847
:104A70005C80FB783146614884F8603084F85A8065
:104A8000FFF7FCFC1FE7867F012E19D1534804F085
:104A90006FFA5B4804F0F2FA0823002123705648AD
:104AA0006180FEF79DFF31465648FFF735FD5649B8
:104AB0005448FFF737FD4FF4FA612846FDF71EFB17
:104AC0000023A370261D3046FDF730FBD8B14FF40C
:104AD0007A713046FDF712FB03234C4A2377137893
:104AE0004B48591C11706422B3FBF2F102FB1133E5
:104AF00004F11C016377FEF70FFE2046FFF73AFD35
:104B00002046FFF721FD2846FDF710FB48B10221A2
:104B10002046FFF713FE2846FDF7F4FA042384F835
:104B200074300DB0BDE8F08390F85860012EC7D105
:104B30002A4804F01DFA374804F0A0FA0523237030
:104B400000232A48638084F8746084F8526084F8F3
:104B5000596004F15201FFF7F3F8B4E60023204650
:104B60006376FFF76FFDABE70123F8E70223F6E773
:104B70000323F4E7837800F10805A3B1042B0DD8D3
:104B8000022B00F1520647D890F87420013A042A0B
:104B90007FD8DFE802F07487AC9AB500052B00F0EF
:104BA000BE800023A3702846FDF7C0FA0028B8D0C5
:104BB00000211148FEF714FF94F8743084F8523045
:104BC000022384F8593084F8583020460DB0BDE8EF
:104BD000F043FFF7FBBC00BF59300108EC2F010880
:104BE00071300108A40600209130010874060020ED
:104BF0007C080020B0300108BC0600202C080020F2
:104C0000D13001080C080020F2300108EC08002027
:104C100044060020003101080223314680F8593053
:104C2000AE48FFF78DF8A27894F87430032A1FD1AC
:104C3000012B94BF052303F1FF3384F8743094F8FB
:104C40007430314684F852300123A44884F8593036
:104C5000FFF776F8A24804F08BF994F87410A14895
:104C600004F086F941F288312846FDF747FA98E7C3
:104C7000042AE4D1042B8CBF01230133DDE7012B8F
:104C80000CD190F853300B2B8CBF0023013380F8EC
:104C9000533031469148FFF753F8E3E75330FFF7BD
:104CA00049FCF6E7012B90F8542009D13A2A03D8A1
:104CB000013284F85420ECE7002384F85430E8E70C
:104CC0000AB1013AF5E73B23F7E7012B90F85620AC
:104CD00005D11D2A08D8013284F85620D9E7012AC7
:104CE00001D9013AF8E71E2384F85630D1E790F84D
:104CF0005530012B0CBF0223012380F85530C8E743
:104D0000012B03D15730FFF715FCC2E790F857305D
:104D10000B2B8CBF0123013380F85730B9E70021FA
:104D20007148FEF75DFE01217048FFF7F5FB704901
:104D30006E48FFF7F7FB01238DF804308DF805303E
:104D400004238DF806301023D4F853008DF8073073
:104D500094F8573002908DF80C30FDF783FE01A9CE
:104D6000FDF7D6FE4FF4FA617EE7837800F108067E
:104D700053B1042B04D8022B23D841F288317CE0B4
:104D8000052B46D00023A3703046FDF7CFF900284D
:104D90003FF4C7AE022504F15A01564884F85B502F
:104DA00084F85C50FFF76AFB04F11F015248E57775
:104DB00084F82050FFF7CCFA00214E48FFF704FB9F
:104DC00003E7022300F15A0580F85C302946494880
:104DD000FFF754FBA27894F87430032A12D1012B08
:104DE00094BF052303F1FF3384F87430012384F862
:104DF0005C3094F8743029463E4884F85A30FFF706
:104E00003DFBBAE7042AF1D1042B8CBF0123013307
:104E1000EAE700F15A07FEF745F901238DF805305E
:104E2000062300228DF8063094F874308DF80420A3
:104E3000013B042B35D8DFE803F02436434E030052
:104E4000012539462B48FFF719FB9DF8043023B1A3
:104E5000FEF724F901A9FEF79BF9002D8DD0002162
:104E60002448FFF7B1FA01212048FFF755FB2349F9
:104E70001E48FFF757FB4FF4FA613046FDF73EF945
:104E800080E794F86050002D0CBF0123002384F8C4
:104E9000603003D102238DF80430D2E703238DF86C
:104EA00004300025CDE794F85E30002B0CBF0123C1
:104EB000002384F85E3001D00623F0E70723EEE7F5
:104EC00094F85F30002B0CBF0123002384F85F307F
:104ED000F4D00423E3E784F85D20E2E774060020C1
:104EE000EC2F010823310108BC0600200C0800202B
:104EF000403101082C0800201C080020593101080D
:104F0000837800F10805D3B1042B13D8022B00F1EC
:104F1000250629D890F87420082A00F28180DFE85D
:104F200012F070008900A000AD00BF00D600E300C1
:104F3000F7000C01052B00F009810023A37028461F
:104F4000FDF7F4F800283FF4ECAD0223B948E3760E
:104F500004F11801FEF7B4FC2846FDF7D3F8002150
:104F6000B548FEF73DFD30E60223314680F851306A
:104F7000B148FEF7C7FDA378032B23D194F8743012
:104F8000E3B1013BDBB284F8743084F826300123AE
:104F9000314684F85130A848FEF7B4FD94F87430D7
:104FA000082B05D194F8253053B1013B84F8253006
:104FB00041F288312846FDF7A1F8BEE70823E2E771
:104FC0000423F3E7042BF3D194F874303146072B14
:104FD0008EBF00230133DBB284F8743084F82630AE
:104FE0000123954884F85130FEF78CFD94F8743015
:104FF000082BDDD194F82530032B8CBF002301331F
:10500000D4E790F82500012B4FEAC0000DD12044D1
:1050100090F827300B2B8CBF0023013380F827300A
:1050200031468548FEF76EFDC2E702303044FFF797
:1050300081FAF5E790F82510012B00EBC10191F8FA
:10504000282009D13A2A03D8013281F82820E7E73D
:10505000002381F82830E3E70AB1013AF5E73B2362
:10506000F7E790F8253000EBC30393F82920012AD5
:105070000CBF0222012283F82920D1E790F82500F5
:10508000012B4FEAC00009D1204490F82A300B2BA5
:105090008CBF0023013380F82A30C1E70530C5E713
:1050A00090F82510012B00EBC10191F82B2009D1BC
:1050B0003A2A03D8013281F82B20B1E7002381F886
:1050C0002B30ADE70AB1013AF5E73B23F7E790F85B
:1050D000253000EBC30393F82C20012A0CBF0222D9
:1050E000012283F82C209BE790F82510012B00EB80
:1050F000C10191F82D2005D11D2A06D8013281F871
:105100002D208DE71D2AF9D9012381F82D3087E75D
:1051100090F82500012B4FEAC00004D1093030443B
:10512000FFF708FA7CE7204490F82E300B2B8CBF59
:105130000123013380F82E3072E790F84F30012BB5
:105140000CBF0223012380F84F3069E700213A4861
:10515000FEF746FC01213948FFF7DEF938493748A8
:10516000FFF7E0F902238DF8043001238DF80530B4
:1051700004238DF8063010238DF80730637E8DF8F8
:10518000103004F127030593FDF76CFC01A9FDF72E
:10519000BFFC4FF4FA610DE78378042B2CD8022B67
:1051A0002CD9284803F0E4FE274803F067FF94F861
:1051B000743004F11805637602232946E3761D480E
:1051C000FEF77EFBA27894F87430032A2DD1013BC0
:1051D00003F0030384F8743094F87430294663763E
:1051E00001231448E376FEF76BFB41F2883104F1AA
:1051F0000800FCF783FF01E0052B27D0A3780BB153
:105200000023A37004F108052846FCF78FFF00284F
:105210003FF487AC02230748E37604F11801FEF758
:105220004FFB2846FCF76EFFCFE4042AD4D10133AC
:10523000CEE700BFA4060020BC0600200C0800201A
:1052400070310108EC2F010886310108984803F0FD
:105250008FFE984803F012FFE57E012DCED19448D1
:1052600003F086FE944803F009FF03230021237016
:1052700092486180FEF72AFD29469148FEF7B0FB6F
:10528000FDF780FC2922637E04F1250702FB030061
:1052900004F1270300F1280250F8041B904243F860
:1052A000041BF9D100254FF002080278DFF81092B4
:1052B0001A70002684F8265084F8518084F82560FE
:1052C000394648460136FEF71DFC052EF6D101355C
:1052D000092DEED1002384F8743084F8253084F849
:1052E000263001233946764884F85130FEF70AFC0F
:1052F0007BE70C30FCF71AFF00283FF412AC0021CA
:105300007048FFF709F902236F48E37604F11801AA
:10531000FEF7D6FA59E4877800F1080587B3042F21
:105320002AD8022F00F1640645D80223314680F8BE
:1053300071306648FEF720FFA27894F87430022A94
:105340007DD1012B94BF032303F1FF3384F8743024
:1053500094F87430314684F8643001235B4884F853
:105360007130FEF709FF524803F002FE94F8741002
:10537000574803F0FDFD34E0052F69D00023A370EA
:105380002846FCF7D3FE00283FF4CBAB94F87430EA
:1053900004F1210184F8643040F20223A4F8703053
:1053A00002234C4884F82430FEF78AFD0021474848
:1053B000FEF73AFE09E490F87420022A1CD0032A72
:1053C00034D0012A09D1032F90F868300FD1622B15
:1053D0008CBF0023013384F8683031463B48FEF728
:1053E000CBFE41F288312846FCF788FEC6E70BB1B8
:1053F000013BF0E76323EEE790F86C10836E012920
:1054000009D1052103EBC30393FBF1F3203383663A
:1054100080F86C20E1E70922203B03EB830393FB38
:10542000F2F38366012380F86C30D6E790F86D3094
:10543000022B0CBF0123022380F86D30CDE7012A37
:1054400086D1022B01D8013380E784F874207FE7EE
:1054500000211E48FEF7E8FD01211A48FFF75CF81D
:105460001D491848FFF75EF801238DF804308DF8C8
:1054700005300C238DF8073094F86D308DF80670E8
:105480008DF80C30A36E029394F86C308DF80D30CB
:10549000FDF7E8FA01A9FDF73BFB4FF4FA61A2E73B
:1054A0000830FCF743FE00283FF43BAB57E500BF54
:1054B000EC2F01089B310108B1310108740600206E
:1054C000BC0600200C080020A40600207C08002058
:1054D000D1310108C4080020F631010810B5044696
:1054E0000430FCF715FE04F10800FCF711FE04F18E
:1054F0000C00BDE81040FCF70BBE4B78022B04BF3C
:105500000B788370704700000C480D490D4A00234A
:1055100002E0D458C4500433C4188C42F9D30A4A68
:105520000A4C002301E013600432A242FBD3FDF7D2
:105530009DF903F0E7F8FDF721F87047000000201F
:10554000300100201033010830010020340E00200B
:10555000FEE74FF4F07070474FF4A0707047000002
:1055600010B53D4C2378DA070AD443F001029B07BB
:10557000227001D401F0B4F8237843F002032370C1
:10558000692001F0A1F8012001F022F9052001F0C5
:105590009BF80F22E020314901F05EF90F22E12053
:1055A0002F4901F059F902222E49C02001F054F987
:1055B000052001F089F8C12001F00AF9412001F02D
:1055C0001BF9052001F080F803222749C52001F0CE
:1055D00043F9052001F078F83A2001F0F9F8662047
:1055E00001F00AF9B02001F0F3F8802001F004F98D
:1055F000B12001F0EDF8A02001F0FEF8B42001F098
:10560000E7F8022001F0F8F802221849B62001F06C
:1056100023F9E92001F0DCF8002001F0EDF8042284
:105620001349F72001F018F9052001F04DF8112079
:1056300001F0CEF8782001F047F8292001F0C8F8F1
:10564000052001F041F8362001F0C2F8BDE8104015
:10565000282001F0D1B800BF68090020189C00087C
:10566000289C00080B320108389C00080E32010803
:105670001132010870B505460C462E0A2A2001F0A9
:10568000A7F8EDB2304601F0B7F8284601F0B4F8BB
:10569000304601F0B1F8284601F0AEF8250A2B207B
:1056A00001F096F8E4B2284601F0A6F8204601F091
:1056B000A3F8284601F0A0F82046BDE8704001F0AC
:1056C0009BB800002DE9F8431F46054616460C46D8
:1056D0001A4B07F1FF391980194B01EB09022A20F7
:1056E0001A805FFA85F801F073F8280A01F084F84F
:1056F0003544404601F080F8681EC0F3072001F0F1
:105700007BF8701E4044C0B201F076F82B2001F007
:105710005FF8E5B2200A01F06FF8284601F06CF856
:10572000E0190138C0F3072001F066F805EB090025
:10573000C0B2BDE8F84301F05FB800BF74090020B3
:105740007209002008B5112001F042F8BDE80840B8
:10575000012000F0BBBF08B5102001F039F8BDE80A
:105760000840002000F0B2BF002307B501930B4BA7
:105770001B780BB9FFF7F4FE00230322042001A9D4
:1057800001F09CF8019A064B49F28840B3EB420FB6
:1057900018BF002003B05DF804FB00BF68090020BB
:1057A0005480660073B505460C462E0A2A2001F087
:1057B0000FF8EDB2304601F01FF8284601F01CF852
:1057C000304601F019F8284601F016F8250A2B207A
:1057D00000F0FEFFE4B2284601F00EF8204601F08A
:1057E0000BF8284601F008F8204601F005F80123DF
:1057F0002E201A460DF1060101F07AF8BDF80600D8
:1058000002B070BD70B51D461446049EFFF75AFFE6
:10581000314605FB04F2BDE8704001232E2001F063
:1058200067B8000038B5164C054663888B4202D134
:10583000E38893420AD0E280C2F5F072521A618086
:10584000A280332003220F4901F01EF8A28868428B
:1058500090FBF2F302FB1300638881B200044ABF9D
:10586000D218C9188918238809B2994207D089B279
:1058700021800122BDE83840372000F0D1BF38BD7B
:105880006A0900206C09002010B50446001200F0DF
:10589000F80000F0B1FFE01000F0FC0000F0ACFFF9
:1058A000E00000F0F800BDE8104000F0A5BFF8B53A
:1058B00005460C4616462F0A2A2000F089FFEDB255
:1058C000384600F099FF284600F096FF384600F071
:1058D00093FF284600F090FF250A2B2000F078FF68
:1058E000E4B2284600F088FF204600F085FF2846F5
:1058F00000F082FF204600F07FFF2C2000F068FFC0
:105900003046BDE8F840FFF7BFBF70B515461C46EE
:10591000BDF81060FFF7D6FE2C2000F059FF6C4355
:1059200004B970BD3046FFF7AFFF013CF8E713B58F
:1059300004460846009411461A460123FFF7E5FF86
:1059400002B010BD13B5044608460094114601226A
:10595000FFF7DBFF02B010BDF8B540F23F165588E7
:10596000938854899189ADB2A4B244EA014445EACE
:10597000034536201C4F2D1B144400F029FF6820DE
:1059800000F03AFF2B2000F023FF388825F00105B6
:10599000301AC0F3072000F02FFF3888134FC0F1F2
:1059A0003F00C0B200F028FF38882544301AC0F309
:1059B000072000F021FF3888C0F13F00C0B200F09E
:1059C0001BFF2C2000F004FFAC4207D1362000F072
:1059D000FFFEBDE8F840282000F00EBF34F8020BAF
:1059E000FFF752FFF0E700BF7209002074090020A2
:1059F00070B5049E03FB02F5FFF764FE2C2000F057
:105A0000E7FE0024A54200D170BD36F81400FFF770
:105A10003BFF0134F6E70000014B1B689B6A184707
:105A2000C0000020014B1B68DB6A1847C000002043
:105A3000014B1860704700BF78090020014B586087
:105A4000704700BF78090020014B9860704700BF85
:105A500078090020084B73B51B6805469E6BFFF75D
:105A6000DBFF0446FFF7DEFF00210346224608461F
:105A70000095B04702B070BDC0000020084B10B5C3
:105A80001B6800241B6898474FF6FF70054B064AB9
:105A9000C3E900409A60FFF7DDFF204610BD00BF5C
:105AA000C00000207809002018000020024B1B686D
:105AB0005B6903B118477047C0000020104B2DE907
:105AC000F0411B6806461C6A0F461546A4B11346F2
:105AD0000A4601460B48A446BDE8F04100886047ED
