:020000040800F2
:100000000050002099540008655300086753000809
:10001000695300086B5300086D530008000000008E
:100020000000000000000000000000006F53000806
:100030007153000800000000735300087553000856
:10004000E1540008E1540008E1540008E1540008BC
:10005000E1540008E15400088D4D0008E154000807
:10006000E1540008E1540008934D0008E1540008F1
:10007000E1540008E1540008A96400084D64000838
:10008000E1540008E1540008E1540008E15400087C
:10009000E1540008E1540008E1540008994D0008BB
:1000A000E1540008E1540008E1540008E15400085C
:1000B000E1540008E1540008E1540008E15400084C
:1000C000E1540008E1540008E1540008E15400083C
:1000D000E1540008E1540008E1540008E15400082C
:1000E000E1540008E1540008E15400080000000059
:1000F0000000000000000000000000000000000000
:0C01000000000000000000005FF808F1A3
:1001100010B5054C237833B9044B13B10448AFF341
:1001200000800123237010BD30010020000000007A
:10013000C49E000808B5034B1BB103490348AFF345
:10014000008008BD0000000034010020C49E0008AB
:1001500081F0004102E000BF83F0004330B54FEA78
:1001600041044FEA430594EA050F08BF90EA020FE5
:100170001FBF54EA000C55EA020C7FEA645C7FEA78
:10018000655C00F0E2804FEA5454D4EB5555B8BF9B
:100190006D420CDD2C4480EA020281EA030382EA0C
:1001A000000083EA010180EA020281EA0303362D9E
:1001B00088BF30BD11F0004F4FEA01314FF4801C71
:1001C0004CEA113102D0404261EB410113F0004F83
:1001D0004FEA03334CEA133302D0524263EB43033A
:1001E00094EA050F00F0A780A4F10104D5F1200ED8
:1001F0000DDB02FA0EFC22FA05F2801841F1000133
:1002000003FA0EF2801843FA05F359410EE0A5F106
:1002100020050EF1200E012A03FA0EFC28BF4CF037
:10022000020C43FA05F3C01851EBE37101F00045ED
:1002300007D54FF0000EDCF1000C7EEB00006EEBFA
:100240000101B1F5801F1BD3B1F5001F0CD3490884
:100250005FEA30004FEA3C0C04F101044FEA4452DB
:1002600012F5800F80F09A80BCF1004F08BF5FEA62
:10027000500C50F1000041EB045141EA050130BD42
:100280005FEA4C0C404141EB0101013C28BFB1F554
:10029000801FE9D291F0000F04BF01460020B1FA9F
:1002A00081F308BF2033A3F10B03B3F120020CDA72
:1002B0000C3208DD02F1140CC2F10C0201FA0CF050
:1002C00021FA02F10CE002F11402D8BFC2F1200CB5
:1002D00001FA02F120FA0CFCDCBF41EA0C0190406B
:1002E000E41AA2BF01EB0451294330BD6FEA0404B4
:1002F0001F3C1CDA0C340EDC04F11404C4F120029F
:1003000020FA04F001FA02F340EA030021FA04F3B0
:1003100045EA030130BDC4F10C04C4F1200220FA07
:1003200002F001FA04F340EA0300294630BD21FA45
:1003300004F0294630BD94F0000F83F4801306BF0B
:1003400081F480110134013D4EE77FEA645C18BFFF
:100350007FEA655C29D094EA050F08BF90EA020F96
:1003600005D054EA000C04BF1946104630BD91EA8E
:10037000030F1EBF0021002030BD5FEA545C05D191
:100380004000494128BF41F0004130BD14F58004D0
:100390003CBF01F5801130BD01F0004545F0FE4144
:1003A00041F470014FF0000030BD7FEA645C1ABF79
:1003B000194610467FEA655C1CBF0B46024650EAB0
:1003C000013406BF52EA033591EA030F41F40021DC
:1003D00030BD00BF90F0000F04BF0021704730B562
:1003E0004FF4806404F132044FF000054FF0000137
:1003F00050E700BF90F0000F04BF0021704730B5F8
:100400004FF4806404F1320410F0004548BF4042CC
:100410004FF000013EE700BF42004FEAE2014FEA21
:1004200031014FEA02701FBF12F07F4393F07F4FFC
:1004300081F06051704732F07F4208BF704793F0FF
:100440007F4F04BF41F40021704730B54FF4607412
:1004500001F0004521F000411CE700BF50EA010215
:1004600008BF704730B54FF000050AE050EA0102BE
:1004700008BF704730B511F0004502D5404261EB2E
:1004800041014FF4806404F132045FEA915C3FF46F
:10049000D8AE4FF003025FEADC0C18BF03325FEA0C
:1004A000DC0C18BF033202EBDC02C2F1200300FABD
:1004B00003FC20FA02F001FA03FE40EA0E0021FAE2
:1004C00002F11444BDE600BF70B54FF0FF0C4CF4D0
:1004D000E06C1CEA11541DBF1CEA135594EA0C0F82
:1004E00095EA0C0F00F0DEF82C4481EA030621EABD
:1004F0004C5123EA4C5350EA013518BF52EA0335F8
:1005000041F4801143F4801338D0A0FB02CE4FF0A9
:100510000005E1FB02E506F00042E0FB03E54FF0D9
:100520000006E1FB03569CF0000F18BF4EF0010ED1
:10053000A4F1FF04B6F5007F64F5407404D25FEACD
:100540004E0E6D4146EB060642EAC62141EA555180
:100550004FEAC52040EA5E504FEACE2EB4F1FD0CC2
:1005600088BFBCF5E06F1ED8BEF1004F08BF5FEA40
:10057000500E50F1000041EB045170BD06F00046F2
:1005800046EA010140EA020081EA0301B4EB5C049F
:10059000C2BFD4EB0C0541EA045170BD41F4801197
:1005A0004FF0000E013C00F3AB8014F1360FDEBFBC
:1005B000002001F0004170BDC4F10004203C35DA98
:1005C0000C341BDC04F11404C4F1200500FA05F31B
:1005D00020FA04F001FA05F240EA020001F00042BC
:1005E00021F0004110EBD37021FA04F642EB060132
:1005F0005EEA430E08BF20EAD37070BDC4F10C045C
:10060000C4F1200500FA04F320FA05F001FA04F21F
:1006100040EA020001F0004110EBD37041F100010B
:100620005EEA430E08BF20EAD37070BDC4F1200516
:1006300000FA05F24EEA020E20FA04F301FA05F27E
:1006400043EA020321FA04F001F0004121FA04F226
:1006500020EA020000EBD3705EEA430E08BF20EAF6
:10066000D37070BD94F0000F0FD101F00046400030
:1006700041EB010111F4801F08BF013CF7D041EAB2
:10068000060195F0000F18BF704703F000465200B6
:1006900043EB030313F4801F08BF013DF7D043EA87
:1006A0000603704794EA0C0F0CEA135518BF95EA3D
:1006B0000C0F0CD050EA410618BF52EA4306D1D1C4
:1006C00081EA030101F000414FF0000070BD50EAE3
:1006D000410606BF1046194652EA430619D094EA6D
:1006E0000C0F02D150EA013613D195EA0C0F05D157
:1006F00052EA03361CBF104619460AD181EA0301AB
:1007000001F0004141F0FE4141F470014FF0000062
:1007100070BD41F0FE4141F4780170BD70B54FF0FD
:10072000FF0C4CF4E06C1CEA11541DBF1CEA13557D
:1007300094EA0C0F95EA0C0F00F0A7F8A4EB05045F
:1007400081EA030E52EA03354FEA013100F0888056
:100750004FEA03334FF0805545EA131343EA12631F
:100760004FEA022245EA111545EA10654FEA0026D4
:100770000EF000419D4208BF964244F1FD0404F58D
:10078000407402D25B084FEA3202B61A65EB0305E9
:100790005B084FEA32024FF480104FF4002CB6EBA6
:1007A000020E75EB030E22BFB61A754640EA0C0026
:1007B0005B084FEA3202B6EB020E75EB030E22BF66
:1007C000B61A754640EA5C005B084FEA3202B6EBA7
:1007D000020E75EB030E22BFB61A754640EA9C0066
:1007E0005B084FEA3202B6EB020E75EB030E22BF36
:1007F000B61A754640EADC0055EA060E18D04FEAF4
:10080000051545EA16754FEA06164FEAC30343EA93
:1008100052734FEAC2025FEA1C1CC0D111F4801F60
:100820000BD141EA00014FF000004FF0004CB6E759
:1008300011F4801F04BF01430020B4F1FD0C88BFF8
:10084000BCF5E06F3FF6AFAEB5EB030C04BFB6EB03
:10085000020C5FEA500C50F1000041EB045170BDF6
:100860000EF0004E4EEA113114EB5C04C2BFD4EB23
:100870000C0541EA045170BD41F480114FF0000EA7
:10088000013C90E645EA060E8DE60CEA135594EA23
:100890000C0F08BF95EA0C0F3FF43BAF94EA0C0F26
:1008A0000AD150EA01347FF434AF95EA0C0F7FF49B
:1008B00025AF104619462CE795EA0C0F06D152EAEF
:1008C00003353FF4FDAE1046194622E750EA4106D3
:1008D00018BF52EA43067FF4C5AE50EA41047FF4E4
:1008E0000DAF52EA43057FF4EBAE12E74FEA410247
:1008F000B2F1E04324BFB3F5001CDCF1FE5C0DD97E
:1009000001F0004C4FEAC0024CEA5070B2F1004FC7
:1009100040EB830008BF20F00100704711F0804FCA
:1009200021D113F13872BCBF01F00040704741F48F
:1009300080114FEA5252C2F11802C2F1200C10FA93
:100940000CF320FA02F018BF40F001004FEAC12377
:100950004FEAD32303FA0CFC40EA0C0023FA02F31B
:100960004FEA4303CCE77FEA625307D150EA0133F1
:100970001EBF4FF0FE4040F44000704701F00040C1
:1009800040F0FE4040F40000704700BF80F000409F
:1009900002E000BF81F0004142001FBF5FEA410357
:1009A00092EA030F7FEA226C7FEA236C6AD04FEA57
:1009B0001262D2EB1363C1BFD2184140484041409C
:1009C000B8BF5B42192B88BF704710F0004F40F44E
:1009D000000020F07F4018BF404211F0004F41F46A
:1009E000000121F07F4118BF494292EA030F3FD036
:1009F000A2F1010241FA03FC10EB0C00C3F1200349
:100A000001FA03F100F0004302D5494260EB4000D7
:100A1000B0F5000F13D3B0F1807F06D340084FEA42
:100A2000310102F10102FE2A51D2B1F1004F40EB37
:100A3000C25008BF20F0010040EA0300704749009F
:100A400040EB0000013A28BFB0F5000FEDD2B0FA3C
:100A500080FCACF1080CB2EB0C0200FA0CF0AABF5F
:100A600000EBC25052421843BCBFD04018437047FD
:100A700092F0000F81F4000106BF80F40000013203
:100A8000013BB5E74FEA41037FEA226C18BF7FEADA
:100A9000236C21D092EA030F04D092F0000F08BF1C
:100AA0000846704790EA010F1CBF0020704712F003
:100AB0007F4F04D1400028BF40F00040704712F142
:100AC00000723CBF00F50000704700F0004343F0A7
:100AD000FE4040F4000070477FEA226216BF0846DD
:100AE0007FEA23630146420206BF5FEA412390EAA0
:100AF000010F40F4800070474FF0000304E000BF96
:100B000010F0004348BF40425FEA000C08BF704746
:100B100043F0964301464FF000001CE050EA01020A
:100B200008BF70474FF000030AE000BF50EA01021F
:100B300008BF704711F0004302D5404261EB41010C
:100B40005FEA010C02BF84460146002043F0B64331
:100B500008BFA3F18053A3F50003BCFA8CF2083A56
:100B6000A3EBC25310DB01FA02FC634400FA02FC5F
:100B7000C2F12002BCF1004F20FA02F243EB020066
:100B800008BF20F00100704702F1200201FA02FCC8
:100B9000C2F1200250EA4C0021FA02F243EB0200BB
:100BA00008BF20EADC7070474FF0FF0C1CEAD052FF
:100BB0001EBF1CEAD15392EA0C0F93EA0C0F6FD0C0
:100BC0001A4480EA010C400218BF5FEA41211ED09E
:100BD0004FF0006343EA501043EA5111A0FB01318A
:100BE0000CF00040B1F5000F3EBF490041EAD3715F
:100BF0005B0040EA010062F17F02FD2A1DD8B3F1DB
:100C0000004F40EBC25008BF20F00100704790F049
:100C1000000F0CF0004C08BF49024CEA502040EA9B
:100C200051207F3AC2BFD2F1FF0340EAC250704761
:100C300040F400004FF00003013A5DDC12F1190F9F
:100C4000DCBF00F000407047C2F10002410021FA11
:100C500002F1C2F1200200FA02FC5FEA310040F129
:100C6000000053EA4C0308BF20EADC70704792F0A2
:100C7000000F00F0004C02BF400010F4000F013ADA
:100C8000F9D040EA0C0093F0000F01F0004C02BFD5
:100C9000490011F4000F013BF9D041EA0C018FE744
:100CA0000CEAD15392EA0C0F18BF93EA0C0F0AD04A
:100CB00030F0004C18BF31F0004CD8D180EA010070
:100CC00000F00040704790F0000F17BF90F0004F09
:100CD000084691F0000F91F0004F14D092EA0C0FEB
:100CE00001D142020FD193EA0C0F03D14B0218BF7E
:100CF000084608D180EA010000F0004040F0FE40C4
:100D000040F40000704740F0FE4040F4400070475F
:100D10004FF0FF0C1CEAD0521EBF1CEAD15392EADE
:100D20000C0F93EA0C0F69D0A2EB030280EA010CCE
:100D300049024FEA402037D04FF0805343EA111167
:100D400043EA10130CF000408B4238BF5B0042F1C5
:100D50007D024FF4000C8B4224BF5B1A40EA0C006A
:100D6000B3EB510F24BFA3EB510340EA5C00B3EB9C
:100D7000910F24BFA3EB910340EA9C00B3EBD10F8A
:100D800024BFA3EBD10340EADC001B0118BF5FEADC
:100D90001C1CE0D1FD2A3FF650AF8B4240EBC25005
:100DA00008BF20F0010070470CF0004C4CEA5020C6
:100DB0007F32C2BFD2F1FF0340EAC250704740F415
:100DC00000004FF00003013A37E792F0000F00F007
:100DD000004C02BF400010F4000F013AF9D040EA85
:100DE0000C0093F0000F01F0004C02BF490011F419
:100DF000000F013BF9D041EA0C0195E70CEAD15311
:100E000092EA0C0F08D142027FF47DAF93EA0C0FF7
:100E10007FF470AF084676E793EA0C0F04D14B02DB
:100E20003FF44CAF08466EE730F0004C18BF31F08D
:100E3000004CCAD130F000427FF45CAF31F0004387
:100E40007FF43CAF5FE700BF4FEA4002B2F1FE4FD4
:100E50000FD34FF09E03B3EB12620DD94FEA00237C
:100E600043F0004310F0004F23FA02F018BF404255
:100E700070474FF00000704712F1610F01D142023C
:100E800005D110F0004008BF6FF0004070474FF0F0
:100E9000000070477047000038B5094C05462046F1
:100EA00005F0CCFE6421204605F05EFD204605F0ED
:100EB00007FE28602046BDE8384005F0C5BF00BFEA
:100EC000A0080020002307B56846CDE90033FFF7EE
:100ED000E3FF40F6E440009B5843000B800080B2E3
:100EE00003B05DF804FB08B5FFF7ECFF42F65C3396
:100EF000B0FBF3F000EB800000EB8000800000F01E
:100F0000FC0008BD70B50446124808F095F9124877
:100F100008F018FA114B2022236123601023A380CC
:100F20000F4B0026236223638023A3860D4BA282EE
:100F300023640123A284A4F8443004F10805583442
:100F4000284601F091F9103505F80C6CAC42F7D148
:100F500070BD00BF202501082F25010800100140A9
:100F600000080140000C01402DE9F0412021044619
:100F70008CB0A14806F0E6F9A04D2B7883420DD045
:100F800020219D4806F0DEF9287004F1180001F0D8
:100F90006FF918B91E219A4801F062F904F10805A9
:100FA0002E464FF0010804F15807284601F062F977
:100FB000284601F06DF958B135F8041C55F8080CB5
:100FC00006F0C0F908B985F80480284601F04CF90C
:100FD0001035BD42E9D10023022701258DF80430E8
:100FE0008DF80730237F8DF805708DF80650002BA3
:100FF00052D0B4F84410206C06F0A4F990B904F172
:101000004805284601F034F910B1284601F02CF9C2
:101010007C4808F011F97C4808F094F907238DF812
:10102000043007E0774808F007F9784808F08AF9B3
:101030008DF8047001F074FA01A901F0C7FA94F870
:101040004C30EBB1A18A206906F07CF9002840F011
:101050008A8004F11805284601F00AF910B12846E3
:1010600001F002F9674808F0E7F8694808F06AF902
:1010700007238DF8043001F053FA01A901F0A6FA14
:1010800000232373237784F82C3084F83C3084F8D1
:101090004C300CB0BDE8F081237BFBB1B4F84410B8
:1010A000206C06F04FF980B904F14805284601F09C
:1010B000DFF810B1284601F0D7F8524808F0BCF824
:1010C000544808F03FF90623A9E74E4808F0B4F861
:1010D000514808F037F98DF80450ABE794F82C30FC
:1010E000F3B1B4F84410206C06F02CF980B904F187
:1010F0004805284601F0BCF810B1284601F0B4F8C4
:10110000404808F099F8454808F01CF9082386E79C
:101110003C4808F091F8424808F014F903237EE7B0
:1011200094F83C30002B8AD0B4F84410206C06F0C0
:1011300009F980B904F14805284601F099F810B181
:10114000284601F091F82F4808F076F8354808F065
:10115000F9F8092363E72B4808F06EF8324808F0E5
:10116000F1F804235BE7A188206806F0EBF870B97A
:10117000304601F07DF810B1304601F075F8214895
:1011800008F05AF8294808F0DDF8062371E7A18C29
:10119000206A06F0D7F880B904F12805284601F046
:1011A00067F810B1284601F05FF8164808F044F8D7
:1011B0001F4808F0C7F808235BE7A18E206B06F0F4
:1011C000C1F880B904F13805284601F051F810B192
:1011D000284601F049F80B4808F02EF8154808F0A9
:1011E000B1F8092345E7074808F026F8124808F047
:1011F000A9F805233DE700BF0010014020000020B2
:1012000064010020202501084C25010866250108FD
:10121000FA2501087825010890250108A025010874
:10122000BA250108CC250108E72501081426010884
:101230002C26010846260108612601080122022108
:10124000014806F085B800BF0010014000220221CD
:10125000014806F07DB800BF00100140802210B5A3
:101260004FF400744FF48073028184844FF48052F1
:101270004FF480648382104B0286A0F84C40A0F8A3
:1012800068204FF400444FF400620361436003623E
:1012900083644366836500230849A0F85C20C1622B
:1012A000A0F84040C16300F170020376037300F8B8
:1012B0001C3B9042F9D110BD0010014000080140D4
:1012C000F8B504460226012700F1700521896068FF
:1012D00006F038F8B0FA80F040092073A18A20693E
:1012E00006F030F800280CBF012300232376237B6F
:1012F00007D0002B18BF3B4623701C34A542E5D114
:10130000F8BD002BF9D12670F7E7FFF7D9BF000031
:101310001C235843024B185C431E584258417047E7
:101320009C0100201C235843024B185C831E58422A
:10133000584170479C01002010B5044600F044FA63
:101340002046CC2100F09AFA2046BDE81040442106
:1013500000F094BA2DE9FF410B780746282B0C4684
:10136000164603D0002004B0BDE8F08100F06BFA0F
:101370000028F7D0384600F027FA2146384600F01A
:1013800013FB01ADBE21384600F078FA0924A846C7
:10139000384600F083FA013C14F0FF0405F8010B15
:1013A000F6D10821404600F00CFB9DF80C3083423A
:1013B00050D1BDF80480384600F006FA18F4004F0A
:1013C00018BFC8F100089DF8083018BF1FFA88F848
:1013D000C3F341134FEA181707F0700214BF012539
:1013E000254648F30717022B03F1090147EA0207D4
:1013F00022D00C2927D00A2917D0C8F3C000FFF744
:101400007FFB4FF07C51FFF7CFFB04463846FFF7D8
:1014100077FB2146FFF7C0FA01461DB10020FFF718
:10142000B9FA0146012031609DE7C8F38100FFF75A
:1014300067FB4FF07A51E6E7C8F34200FFF760FB25
:101440004FF07851DFE708F00F00FFF759FB4FF03E
:101450007651D8E7204686E732232DE9F047224D22
:10146000064622482B80FFF767FF642005F06AFAE2
:101470001E4C204600F0E7F948B12B8883B10027C5
:10148000DFF86CA0DFF86C80DFF860901DE00A20C8
:1014900005F058FA2B88013B9BB22B80002BE8D13A
:1014A000134B1B78B3B10022124B1A7312E0642065
:1014B000240105F047FA04F1080244442146484655
:1014C0004244FFF747FF013720739AF80030FCB21F
:1014D000A342ECD8074B28889B68003818BF01202E
:1014E0003360BDE8F08700BF0C020020100200202E
:1014F00021000020280200202DE9F8430B78044643
:10150000282B0E4691465CD100F05EF9314620460C
:1015100000F04AFABE21204600F0B0F9204600F063
:10152000BDF9204600F0BAF9204600F0B7F9804630
:10153000204600F0B3F90746204600F0AFF9B9F1B4
:10154000090F054626D100F09F05204600F03CF922
:101550003146204600F028FA4E21204600F08EF950
:101560004146204600F08AF93946204600F086F9C7
:101570002946204600F082F9204600F025F9314640
:10158000204600F011FA2046482100F077F90120AA
:10159000BDE8F883B9F10A0F04D100F0BF0545F0AA
:1015A0002005D2E7B9F10B0F04D100F0DF0545F0BB
:1015B0004005CAE7B9F10C0F04BF40F06005EDB279
:1015C000C3E70020E4E770B50B780446282B0D46EE
:1015D0003DD100F0F9F82946204600F0E5F9BE219A
:1015E000204600F04BF9204600F058F9204600F064
:1015F00055F9204600F052F9204600F04FF92046F8
:1016000000F04CF90646204600F0DEF82946204658
:1016100000F0CAF94E21204600F030F97D21204625
:1016200000F02CF9C921204600F028F93146204667
:1016300000F024F9204600F0C7F82946204600F0C3
:10164000B3F92046482100F019F9012070BD0020AF
:10165000FCE700002DE9F84305242C4F2C4E2D4DBE
:1016600040223946304600F089F8002340F6B7386A
:101670002B7005F061F9404514D9304600F07BF934
:10168000DFF89490DFF8948089F8000099F8003032
:1016900063B92A78EAB9013C14F0FF04E0D120468E
:1016A000BDE8F883642005F04DF9E2E7642005F019
:1016B00049F9297830460131C9B22970013908EB5E
:1016C000011100F073F9304600F05BF989F8000071
:1016D000DCE71C46DFF844800D4FE6B2322008EB11
:1016E000061605F02FF90C2231463846FFF704FFA5
:1016F000322005F027F931463846FFF764FF013400
:101700002A78E3B29A42E8D80120C9E700080140EC
:1017100010020020210000202402002028020020C6
:101720000022034B1B685A625A6A8242FCD97047F6
:1017300024090020838802681B04136170471FB5C9
:101740000023CDE9013303230393838869460068AE
:10175000009305F01DFD05B05DF804FB1FB51122D7
:101760000023CDE90123032303938388694600689E
:10177000009305F00DFD05B05DF804FB70B504465F
:101780000E4615460F4806F03FFE20462660A5800F
:10179000FFF7E4FF2368A2884FF47A701A6105F01E
:1017A000D1F82046FFF7C6FF4FF47A7005F0CAF86B
:1017B0002368A2884FF4FA60BDE870401A6105F012
:1017C000C1B800BF2409002010B50446FFF7B2FFDE
:1017D000FFF7C4FF4FF4F070FFF7A2FF1420FFF7EC
:1017E0009FFF2046FFF7ABFF4620FFF799FFA18838
:1017F000206805F0A7FD01464FF4CD70FFF790FF7C
:10180000084610BD10B5044689B1FFF793FFFFF7F6
:10181000A5FF0A20FFF784FF2046FFF790FF37203F
:10182000FFF77EFF2046BDE81040FFF788BFFFF7B7
:1018300081FFFFF793FF4120FFF772FF2046FFF77C
:101840007EFF0520ECE710B50446FFF773FFFFF7B6
:1018500085FF0220FFF764FF2046FFF770FF0A2094
:10186000FFF75EFFA188206805F06CFD014632207D
:10187000FFF756FF081E18BF012010BD70B50646C1
:101880000D460924013C14F0FF0400D170BD05F0A1
:1018900001013046FFF7B6FF6D08F3E770B5064665
:1018A00009250024013D15F0FF0501D1204670BD3A
:1018B0003046FFF7C8FF640844EAC014E4B2F1E719
:1018C0002DE9F047037A04460E461BB9FFF77CFF6B
:1018D000054620B10020E0802072BDE8F087012796
:1018E00031462046FFF7CAFFA9463E462046FFF78D
:1018F000AAFF804682462046FFF7A5FFB8F1010FF8
:101900000FD1012816D1402EE4D984F80690B9F100
:10191000000F01D101232372637A002BDAD001205A
:10192000DBE762198045537A21D1A179B14217D9F9
:101930003B4216D04FF0010A6219537A3B4353726F
:10194000514620467F00FFF75DFF013617F0FF0785
:10195000F6B2CBD10135EDB2082DD4D00127C5E7C1
:10196000E8D0082E00D8E6714FF0000AB14623EA0D
:1019700007035372E4E70022F021C2800272FFF7EE
:101980009FBFF021FFF79CBF70B50C46552106465E
:10199000FFF774FF651E073415F8011F3046FFF787
:1019A0006DFFA542F8D170BDFFF7EEBF00F109034E
:1019B0000139113013F8012B834201F8012FF9D1BD
:1019C000704703460144002030B58B4200D130BD42
:1019D000082213F8014B80EA040515F0010F4FEAC5
:1019E000500018BF80F08C0002F1FF3218BFC0B267
:1019F00012F0FF024FEA5404EDD1E6E710B50446B9
:101A00000846114600F014FA00232060237110BD2F
:101A10000079704770B50E4604220546006800F054
:101A2000B1FAF278044622B12868311D00F0AAFA12
:101A3000044624B92B7901332B71204670BD054D26
:101A4000286807F0F9FB044807F07CFCE86907F018
:101A5000F3FBF2E7240000207426010870B5047936
:101A600005460E467CB10422006800F0B3FAF27815
:101A7000044622B12868311D00F0ACFA044624B9AE
:101A80002B79013B2B71204670BD054D286807F06E
:101A9000D3FB044807F056FCE86907F0CDFBF2E7FA
:101AA00024000020922601080023F0B587B002939D
:101AB00001230F4613490446CDE90413164605F0E9
:101AC0006BFA01A902A805F00FFB08B103F05AFB5D
:101AD00005F074FA002505F05FFAAE4204DC05F06B
:101AE0006DFA002007B0F0BD00232146022057F810
:101AF000252005F097FA10B904340135EDE703F01D
:101B000041FBEAE700FC01080A4601460148FFF7ED
:101B1000CBBF00BF00FC01084FF6FF7310B5401AA1
:101B2000013A0C5892B29A4241F8044BF8D110BDD8
:101B30000A4601460148FFF7EFBF00BF00FC01085D
:101B400010B500248AB01C22214603A8CDE9014427
:101B500006F0A0FF4F234FF080422048C0E9002349
:101B600013238460C0E90334846106F0D9FC08B112
:101B700003F008FB194801A9CDE9014406F0C2FEB3
:101B800008B103F0FFFA00226023144803A9CDE94D
:101B900003320592079206F01BFD08B103F0F2FA3A
:101BA00004220E4803A906F013FD08B103F0EAFA77
:101BB00008220A4803A906F00BFD08B103F0E2FA77
:101BC0000C2206480DEB020106F002FD08B103F0FD
:101BD000D9FA024803F08EFB0AB010BD380200208B
:101BE00010B500248AB01C22214603A8CDE9014487
:101BF00006F050FF4F234FF080422048C0E90023F9
:101C000013238460C0E90334846106F089FC08B1C1
:101C100003F0B8FA194801A9CDE9014406F072FEB3
:101C200008B103F0AFFA00226023144803A9CDE9FC
:101C300003320592079206F0CBFC08B103F0A2FA3A
:101C400004220E4803A906F0C3FC08B103F09AFA77
:101C500008220A4803A906F0BBFC08B103F092FA77
:101C60000C2206480DEB020106F0B2FC08B103F0AD
:101C700089FA024803F03EFB0AB010BD8002002042
:101C800038B50422002408200C210A4B0A4DC3E970
:101C90000142C3E90742094AC3E90401C3E90A0151
:101CA0001D60DD609A615A62FFF74AFFBDE8384067
:101CB000FFF796BFC80200208002002038020020F3
:101CC0002DE9F0410C2646430F4F044607EB06086A
:101CD0000D46B859D8F8081006F012FEBB59D8F8CE
:101CE00004101B6839B95D630C2044433859BDE8C2
:101CF000F04106F0C7BD042901D19D63F4E708292E
:101D00000CBFDD631D64EFE7C80200202DE9F04140
:101D10000C2646430F4F044607EB06080D46B859FC
:101D2000D8F8041006F0ECFDBB59D8F808101B6871
:101D300039B95D630C2044433859BDE8F04106F0E1
:101D4000A1BD042901D19D63F4E708290CBFDD631F
:101D50001D64EFE7C802002070B50C244443064D13
:101D60002E19B168285906F0CBFD71682859BDE8D5
:101D7000704006F0C5BD00BFC80200204FF0E02251
:101D8000D2F8FC3D43F08073C2F8FC3D4FF0604256
:101D9000D2F8003E43F00103C2F8003E704730B570
:101DA000002304464FF060420846834200DB30BD0A
:101DB000D2F8801ECD0707D5D2F8001EC90703D57B
:101DC000E15C156815B111700133EEE700BFF8E76B
:101DD00008461146FFF7E3BF08B528B94E21074B67
:101DE000074A084806F0BCFD037C2BB983684068AD
:101DF0001B1A5842584108BD0020FCE7DE260108A6
:101E0000AA270108E126010808B528B98921054B50
:101E1000054A064806F0A4FD00230374C0E9013317
:101E200008BD00BFDE26010887270108E12601085A
:101E300070B50D46064600B129B969210D4B0E4A11
:101E40000E4806F08DFD142006F0E4FD044618B996
:101E50006C210B4B084AF3E70660C560FFF7D4FF1F
:101E60002046FFF7B9FF18B97221064B024AE7E78F
:101E7000204670BD0B27010899270108E1260108BB
:101E8000DE2601081A27010808B5034628B997215C
:101E9000074B084A084806F063FD1A7CC06832B94F
:101EA000D3E901239A4236BF8018D01AC01A08BD60
:101EB000DE2601080C280108E126010810B50446B9
:101EC00028B9BE21044B054A054806F049FDFFF735
:101ED000DBFFE368181A10BDDE260108F1270108B0
:101EE000E126010808B508B103682BB9CA210F4BD8
:101EF0000F4A104806F034FD42689954037CC168CB
:101F000033B182680132B2FBF1F301FB132282602C
:101F100043680133B3FBF1F201FB12338268436083
:101F2000D21A53425341037408BD00BF332701083E
:101F3000E1270108E126010870B50D46044610B1FD
:101F400009B106682EB9DA210B4B0C4A0C4806F091
:101F500007FDFFF741FF68B9A368F35C2B70A36826
:101F6000E2680133B3FBF2F12074012002FB11336C
:101F7000A36070BD0020FCE744270108D1270108B9
:101F8000E1260108F8B50C461546064608B1036877
:101F90002BB9F3210C4B0D4A0D4806F0E1FC077CF0
:101FA00077B9FFF78BFFA8420CD32544AC4201D18F
:101FB0003846F8BD304614F8011BFFF793FFF5E7EC
:101FC0000127F5E70227F3E733270108BF270108B8
:101FD000E126010870B50C46064638B103682BB1FE
:101FE00021B18D18AC4208D1002070BD40F215110E
:101FF000064B074A074806F0B3FC21463046FFF778
:102000009BFF01340028EDD10320EEE75D27010896
:1020100076270108E12601087FB5002364218DF8A9
:1020200017300123CDE901310DF11701024600916E
:102030000448D12105F0B2FC9DF8170007B05DF807
:1020400004FB00BFD00800207FB501238DF81710D6
:102050006421CDE901310DF11701024600910448D8
:10206000D02105F00BFC002007B05DF804FB00BF99
:10207000D0080020002108B50846FFF7E5FFBDE8BD
:1020800008400020FFF7C8BF0A22B0FBF2F302FBB2
:10209000130000EB0310C0B2704784B038B504AC35
:1020A00084E80F00002108469DF81450FFF7CCFF8C
:1020B0009DF81600FFF7E8FF01460020FFF7C4FF78
:1020C0009DF81500FFF7E0FF01460120FFF7BCFF78
:1020D0002846FFF7D9FF9DF82140014654B99DF8E5
:1020E0002030022B0BBF40F0600101F0DF01C9B2CC
:1020F00041F040010220FFF7A7FF9DF81C00FFF709
:10210000C3FF01460320FFF79FFF9DF81E00FFF766
:10211000BBFF01460420FFF797FF9DF81200FFF771
:10212000B3FF01460520FFF78FFF9DF81000FFF772
:10213000ABFFBDE83840014604B00620FFF784BF7E
:10214000030903EB830300F00F0000EB4300C0B270
:10215000704710B504460020FFF75EFF00F07F00D7
:10216000FFF7EEFFA0710120FFF756FFFFF7E8FF32
:1021700060710220FFF750FF00F01F00FFF7E0FF43
:1021800020710320FFF748FFFFF7DAFFA08104204A
:10219000FFF742FFFFF7D4FFE0810320FFF73CFF8A
:1021A000FFF7CEFFE0700520FFF736FFFFF7C8FF0F
:1021B000A0700620FFF730FFFFF7C2FF208002204B
:1021C000FFF72AFF00F02000FFF7BAFF002814BF36
:1021D00002230123237410BD014B1B681B681847A1
:1021E0005000002084B013B504AC84E80F00074B06
:1021F0001C68BDF82030ADF8003004AB64680FCB2C
:10220000A04702B0BDE8104004B070475000002065
:10221000014B1B689B6818475000002000B589B02F
:1022200003A8FFF7F5FF9DF81C000A490A4B9DF82B
:102230001120012818BF0B46BDF81A10CDE9002364
:1022400006489DF810309DF80E2006F0F5FF09B005
:102250005DF804FB28280108252801082B2801081F
:10226000012301804380704700230380438070472F
:10227000807870470246807848B1138813B90123EB
:10228000D3707047013B9BB21380002BF7D070478F
:10229000C0787047014B1870704700BFF8020020EB
:1022A000014B1878704700BFF80200200120FFF7AB
:1022B000F1BF000008B5FFF7F3FFD0B10D48FEF7FE
:1022C00053FE0D48FFF721F801F002FF02F012FD66
:1022D00000F0E0FC00F0E6FD00F0D0F900F0C2FBF9
:1022E00000F036FC00F06FFCBDE808400020FFF76E
:1022F000D1BF08BD4C0100209C0100200048704760
:10230000F9020020024B00EB40001844704700BF68
:10231000FF02002038B50025032304460372C37270
:10232000837343744571857145720573C5730548A0
:1023300006F082FF044807F005F80123657023705A
:10234000A57038BD702801087F2801082DE9F047E5
:1023500003780446012B40F0A4808778012F4BD1ED
:10236000C178037901EB4106064496F80780B37102
:1023700008F1FF33012B5B4801F1010507D806F096
:102380005BFF42462946584806F056FF06E006F035
:1023900053FF2946554806F04FFF37720023A370BC
:1023A00025460127DFF83C81DFF84491DFF844A19E
:1023B0007E1EF6B23046FEF7B5FF002838D0304614
:1023C000FEF7A6FFA0BB0323EB712B7A002B43D0B3
:1023D000032B68D1EB79032B36D100232B72012319
:1023E0004046AB7106F028FF3946504606F024FF00
:1023F0003046FFF7B1FC2FE0022FD1D1C17801EBBD
:1024000041060644F7793748FB1E012B01F101050F
:1024100005D806F011FF3A4629463748B4E706F0DA
:102420000BFF2946354806F007FF03233372B5E753
:102430003046FEF777FF0028C7D13046FEF768FF29
:102440000028C2D00123BFE7042B05D004230A21B2
:102450003046EB71FFF75AFC0137052F05F10305F4
:10246000A6D104F069FA264D2B68C01AB0F5FA6FB0
:1024700017D904F061FA286001251A4E214FDFF8C0
:102480008880231D05EB45029B5C022B21D1304641
:1024900006F0D2FE2946404606F0CEFE0135052D57
:1024A000EFD1BDE8F087012BD6D1EB79012B07D115
:1024B000002340462B7206F0BFFE3946484695E79A
:1024C000022BC9D00A213046FFF7FAFB0223EB7139
:1024D000C2E7042BE2D1304606F0AEFE294638466C
:1024E000DAE700BF7028010896280108C42801080F
:1024F000552901082E290108E128010810290108A1
:102500000C030020A32901087A2901080B785A1E20
:10251000012A04D883700B79C3704B79037170471B
:10252000004870471003002070B505780446012D5F
:1025300002D0022D38D070BD63783030012B2DD100
:102540000226251D2946FFF789FAA3792680013B3B
:10255000052B09D8DFE803F00308100A161C01F068
:10256000B7FD294602F0D5FB6670E4E700F086F877
:10257000294600F07BFAF7E7FFF7C0FE2946FFF790
:10258000C5FFF1E700F086FB294600F08FFCEBE782
:1025900000F0A0FA294600F0A5FAE5E7FFF738FABF
:1025A0000028C8D06570C6E74378022B04BF01231A
:1025B0000380C0E710B5C822044603493030FFF756
:1025C0001DFA0123238010BD4803002038B58B7805
:1025D0000C46013B062B08D84B78013B062B04D850
:1025E000BDE838403030FFF715BA064D286806F0D0
:1025F00023FEA2786178044806F01EFEE86906F022
:102600001BFE38BD24000020CD29010810B504466A
:10261000094806F011FE094806F094FE01232370D4
:10262000002304F11A002371237648F6B801BDE8AF
:102630001040FFF715BE00BFF2290108FC29010870
:10264000042300B58DB08DF8053003238DF80630D6
:1026500002238DF8073001238DF808108DF809301A
:102660008DF80400FFF75CFF01A9FFF7AFFF0DB085
:102670005DF804FB004870473004002000487047B4
:1026800010040020F8B500F12006C4220021044601
:10269000304606F0FFF9344806F0CEFD334806F028
:1026A00051FE02F0E5FE03780546002B53D00246AA
:1026B000C43092F84430013B012B22D8134600214C
:1026C0009F7E1F2F1DD8DF7E0C2F1AD8DF7D0C2F89
:1026D00017D81F7D0C2F14D80131062903F10803E8
:1026E000EED131328242E4D11F4806F0A5FD2048E8
:1026F00006F028FEC422304605F1140106F0A2F9C6
:1027000029E0194806F098FD1A4806F01BFE01263C
:1027100021460022022504F1C4070B46002081F85F
:1027200050600130062883F8262083F8272083F89C
:10273000232083F8242083F8255083F8202083F871
:10274000212083F8225003F10803EAD13131B94244
:10275000E3D102F063FE00232046A4F8E430BDE894
:10276000F840FFF753BF00BFF2290108142A0108FF
:10277000972A0108452A01082DE9F04F03780446FD
:10278000012B91B008D0023B012B00F24A8111B01D
:10279000BDE8F04FFFF73ABF0579012D75D1A2488A
:1027A00006F04AFDA14806F0CDFD002602239E4812
:1027B00023702671267606F03FFD9D4806F0C2FD87
:1027C000E37A8DF83D60ADF83A30237B84F8E5502C
:1027D0008DF82E302389ADF83030A37A8DF83C3057
:1027E000BDF83C30ADF800300BAB0FCBFFF7FAFC77
:1027F000FFF714FD04F11A00FFF74AFD002800F06E
:10280000108100260BA8FFF703FD9DF83A3086489B
:1028100008939DF82E30DFF81CA209939DF8303004
:10282000DFF8048205939DF8313006939DF83C3023
:10283000079306F001FDDDE90812079B7E485AF870
:1028400023300193069B0093059B06F0F5FC04F1F1
:10285000300304935FFA86FB5846FFF753FD037875
:102860000746022B06F1010644D1404606F0E4FC7F
:1028700031467A78714806F0DFFC049B042E03F1A0
:1028800031030493E6D1204681E7022DB2D1664898
:1028900006F0D2FC6A4806F055FD0323312223706E
:1028A0000023207C666902FB004000F120053146D0
:1028B00028462371237606F0B5F830B95A4806F059
:1028C000BBFC604806F03EFD94E7574806F0B4FCB8
:1028D0005D4806F037FD3146284606F1300351F8D1
:1028E000042B994240F8042BF9D10B78037002F0C5
:1028F00095FD7FE7049BDFF85491A3F13005049B1D
:1029000093F82030012B19D195F82630089A93427C
:1029100004D195F82730099A93420FD0404606F02B
:102920008BFC3146D9F80020494806F085FC049B11
:1029300008359D4209F10409E1D19EE795F8203060
:10294000059A93422BD195F82130069A934226D1CD
:1029500095F82230079A934221D1404606F06CFC4C
:10296000D9F8001095F8273095F82620039195F8AE
:10297000251038485AF82110029195F8211001913C
:1029800095F820100091314606F056FC7B78032B19
:1029900037D1BB78ABBB59460120FFF751FE95F804
:1029A0002330059A9342C2D195F82430069A934277
:1029B000BDD195F82530079A9342B8D1404606F02C
:1029C0003BFCD9F8001095F8273095F826200391A4
:1029D00095F8251020485AF82110029195F82410F6
:1029E000019195F823100091314606F025FC7B7883
:1029F000012B0ED1BB7863B959460220FFF720FEA8
:102A000095E7404606F018FC3146144806F014FCE1
:102A1000C5E7404606F010FC3146114806F00CFCB4
:102A200085E711B0BDE8F08FF2290108CD2A010831
:102A3000ED2A0108540000202B2801087C2B0108F6
:102A4000152B0108352B0108622B010860000020BE
:102A5000AB2B0108DD2B0108602C0108362C010886
:102A6000BA2C01081A30FFF705BC00002DE9F0412F
:102A700091F800800546B8F1010F0C461BD100F11A
:102A800008070E1D3146384605F0CCFF38B90F480F
:102A900006F0D2FBBDE8F0410D4806F053BC3146CC
:102AA00085F80480143451F8043BA14247F8043BF4
:102AB000F9D1BDE8F081B8F1020FFAD180F80480B5
:102AC0000B6943610B7B0374F3E700BFF229010834
:102AD000E42C0108004870470005002000487047BA
:102AE0000C0500200B785A1E062A98BFC370704749
:102AF00010B5FEF7E7F9074B1C881880844294BF95
:102B000003240424FEF7EFF913288CBF204602208B
:102B100010BD00BF10050020012310B50370002375
:102B200083710446FFF7E4FFA070FEF7CBF9A080A5
:102B3000FEF7D9F9A378E070022B08BFA37104F166
:102B4000080044F62061BDE81040FFF789BB000093
:102B50000048704712050020FFF7DEBF38B5037844
:102B60000446012B02D0022B25D038BD837900F119
:102B70000805022B15D1037000238371FFF7B8FFFE
:102B8000A070FEF79FF9A080FEF7ADF9322888BF4C
:102B90000323E07044F62061284688BFA371FFF745
:102BA0005FFB2846FFF774FB0028DED02046BDE817
:102BB0003840FFF7B1BF8379032B01D1FFF7ACFF9A
:102BC00004F10800EEE70830FFF754BB10B50446E7
:102BD000084806F031FB084806F0B4FB01232370D7
:102BE0000023201DA3704EF66021BDE81040FFF7C2
:102BF00037BB00BF942D0108A12D0108026983682D
:102C0000407B012808D1191D91420CDB043B934203
:102C1000D4BF00200120704703F10901914201DB7C
:102C2000093BF4E70120704713B5437B0446012BB1
:102C300001A80FD1FEF710FC0198FEF705F92061FD
:102C40000F4806F0F9FA21690E4802B0BDE81040BD
:102C500006F0F2BAFEF700FC0B490198FDF7A4FF5D
:102C60000A49FEF755F84FF08441FDF795FEFEF74F
:102C7000EBF82061024806F0DFFA21690448E4E736
:102C8000942D0108BD2D0108000010410000A04056
:102C9000E52D0108004870472005002000487047D6
:102CA0002805002038B503780446012B02D0022BFA
:102CB0004ED038BD051D2846FFF7EAFA0028F8D0A7
:102CC0002046FFF7B1FF2046FFF798FF20B3237B94
:102CD0002846012B32D1FFF7C7FA334806F0ACFA89
:102CE000324806F02FFB022323700023A370637B7E
:102CF0002269012BA3681BD1191F8A4213DA022310
:102D0000A3704EF660212846FFF7AAFA264806F07F
:102D100093FA274806F016FB2846BDE838404EF6E1
:102D20006021FFF79DBA04339A42EADD0323E7E707
:102D3000A3F109018A42E2DB0933F5E7FFF794FAD0
:102D40002046FFF743FF184806F076FA1948E1E7F6
:102D50008378022B1FD1FEF779FA134806F06CFA3C
:102D6000154806F0EFFA0023A370251D2846FFF74B
:102D70008FFA00289DD02046FFF756FF2046FFF728
:102D80003DFF0028C8D12846FFF76EFA2046BDE86F
:102D90003840FFF71BBF032BE7D1FEF74FFA02487D
:102DA00006F04AFA0548DCE7942D0108102E0108C8
:102DB0002C2E0108532E01087B2E0108A22E01089B
:102DC00038B505462C4806F037FA2C4806F0BAFA12
:102DD00002F04EFB03780446002B3ED0037A013B01
:102DE000012B3AD8437A013B012B36D8224806F012
:102DF00023FA234806F0A6FA1F4806F01DFA214AD6
:102E0000214B217A214801290CBF1146194606F0B1
:102E100013FA194806F010FA1D4B1E4A617A1E4833
:102E200001290CBF1146194606F006FA124806F0B1
:102E300003FA6168194806F0FFF9237A2B73637A65
:102E40006B736368AB602846FFF7EEFEFEF7FEF992
:102E50002846BDE83840FFF7B9BE074806F0ECF950
:102E60000F4806F06FFA1423AB6040F20113AB81F8
:102E700002F0D4FAE7E700BF942D0108142A0108F4
:102E8000EB2E0108C92E0108D02E0108222F0108BF
:102E9000E02E0108D82E01083C2F0108502F010810
:102EA000632F01080430FFF7E5B9000038B50B784F
:102EB000012B32D10A7A531E012B22D84B7A5C1E89
:102EC000012C1ED84C688568A5420BD185890989DB
:102ED0008D4207D1114806F0AFF9BDE838401048DF
:102EE00006F030BA01214373C170846002730B484D
:102EF00006F0A2F90B4806F025FABDE8384002F0CA
:102F00008DBA094C206806F097F9084806F01AFABD
:102F1000E069BDE8384006F08FB938BD942D01084E
:102F2000942F0108C52F010824000020DF2F01087D
:102F300042684188008802F067BE10B504464FF62B
:102F4000FF7002F03DFD2088E388A288618802F0CE
:102F500073FFBDE81040002002F032BD10B50446FA
:102F6000084602F02DFD2088E388A288618802F0DF
:102F700063FFBDE81040002002F022BD70B5164688
:102F80000D460446184602F01BFD304602F024FDB3
:102F90002A4661882088032302F000FF044802F0DB
:102FA0001BFDBDE870404FF6FF7002F00FBD00BF83
:102FB0001800002070B504460E461546104602F073
:102FC000FFFC20882B463246618803F067F8BDE895
:102FD00070404FF6FF7002F0F9BC10B50446084689
:102FE00002F0EEFC2088E388A288618802F07AFD76
:102FF000BDE81040002002F0E3BC10B504460846CE
:1030000002F0DEFC20886188072202F023FFBDE881
:103010001040002002F0D4BC0D4A0E4B026102F1B8
:103020001012C0E9082382610B490C4A4361C0E9D0
:1030300000120B4AC3618260D3F81620103AC28195
:10304000D3F81230183B8381064B8362704700BF70
:1030500072011A0070D700086E010A00600051006A
:103060008301220092012C0011B11030FFF760BFE4
:10307000FFF763BF2DE9F7438B780446012B0D461C
:1030800015D11F21FFF7A9FF04F108073846FFF704
:1030900054FF2B78022B18D0032B19D0012B4FD1C2
:1030A00004F1180003B0BDE8F043FFF741BF4FF64D
:1030B000FF7002F085FC2088E388A288618802F016
:1030C00011FD002002F07CFCDEE704F12000E9E7BE
:1030D000A089FDF78FF96D78804628468946FDF76F
:1030E00089F900221E4BFDF719FB0B4602464946A3
:1030F0004046FDF7E9F9FDF7F9FB002681462A462F
:103100001849684600968DF8046006F033F9484681
:10311000FDF79AFE6B1E0F2BB4F80C80A08112D81D
:103120004FF478413846FFF719FF334669460E4A97
:1031300004F12800FFF722FF5FFA88F8A4F80C805A
:1031400003B0BDE8F083A5F11103342B02D84FF68C
:10315000E071E7E7463D1E2DEED84FF4FC61E1E754
:103160000000594089300108000000200F2303802F
:103170000A2343805123C380842383801323038144
:103180000E2343814923C3817C238381322383829D
:103190001923C382704700002DE9FF410023044634
:1031A00000938DF8043081B319460830FFF715FFFE
:1031B0000125174EDFF85C80174F328823890021E4
:1031C000134423827288638904F1100013446382DC
:1031D000FFF703FF238A2A460F33ADF80830638ACE
:1031E000414604336846ADF80A30013506F0C2F8AE
:1031F00000233A46694602A8FFF7C0FE052D06F1F6
:103200000406DAD104B0BDE8F081FFF796FEF9E7D5
:103210001C31010876310108000000207FB50D4601
:1032200001210446FFF7B8FFAB78012B2FD11F21F6
:103230002046FFF7D2FE1D4EEB78012B25D1697891
:103240001B4B228933F8210003EB810302445B8886
:10325000228262891F211344638204F11000FFF768
:10326000BCFE238A6A780F33ADF80830638A1149AF
:10327000043301326846ADF80A3006F07BF81F23AC
:103280003246694602A8FFF779FE04B070BD4FF6DA
:10329000FF7002F095FBE388A2886188208802F025
:1032A00021FC002002F08CFB034EC5E7100000203B
:1032B0001C31010876310108080000201323038027
:1032C000622343804FF4DD738380D823C3804FF49F
:1032D000CE73038189234381242383811223C381F5
:1032E00083232DE9F0414FF0B50C98464FF0A10E25
:1032F000EE274FF486764FF4907540F2591440F261
:10330000771140F2491243824383438443854386C5
:103310004387A0F84A30A0F8423021339BB2934251
:10332000A0F81080A0F818E0A0F820C00785068655
:103330000587A0F84840A0F8401000F14000E2D115
:10334000BDE8F0812DE9F3470646002979D0002138
:10335000FFF743FE002106F10800FFF73EFE0025BF
:103360003A4C3B4FA288338868461344ADF800308E
:10337000E288738854F8081B1344ADF802303A46CB
:1033800000230135FFF7FAFD042DEBD12127DFF8EB
:10339000C4902F4DDFF8C08006F1100433882A4610
:1033A0000233ADF80030738868463B4459F8041B7B
:1033B000ADF802300023FFF7E1FDDFF8A0A02046C2
:1033C00000232A462649FFF7D9FD04F1080000230F
:1033D0002A464146FFF7D2FD04F1100000232A4699
:1033E000DAF80410FFF7CAFD04F1180000232A469A
:1033F0001B49FFF7C3FD04F1200000232A46414684
:10340000FFF7BCFD04F1280000232A46DAF8041077
:10341000FFF7B4FD213704F1380000232A46114993
:10342000FFF7ACFDBFB204F1300000232A4641464D
:10343000FFF7A4FDE72F04F14004AFD102B0BDE8CF
:10344000F08702B0BDE8F047FFF777BD2C310108E7
:10345000000000204C310108923001085400002087
:103460008E3001089530010873B591F83430054667
:10347000012B4B780C4614BF00261F26082B00F2A8
:10348000A880DFE803F005182839495966768600D8
:103490000B78684601EBC3039A78514905F06AFF3F
:1034A0003346694620784F4A05EB80101030FFF70D
:1034B00065FD02B070BD0B78684601EBC303DA7896
:1034C000474905F057FF2078334605EB80106946E1
:1034D000444A1830EBE733460878424A01EBC0040F
:1034E0002479414905EB801051F82410203002B0B6
:1034F000BDE87040FFF742BD0B78684601EBC3039F
:103500005A79374905F036FF2078334605EB8010AD
:103510006946344A2830CAE70B78684601EBC30392
:103520009A792F4905F026FF2078334605EB801065
:1035300069462C4A3030BAE70878334601EBC004BC
:10354000E479294905EB8010264A51F824103830D7
:10355000CDE70B78684601EBC3031A7A204905F0E2
:1035600009FF2078334605EB801069461D4A483034
:103570009DE70B78684601EBC3035A7A184905F0BA
:10358000F9FE2078334601306946164A05EB801073
:103590008DE731460830FFF720FD2B89684601335F
:1035A000ADF800306B890133ADF80230AB89023BD6
:1035B000ADF80430EB89023BADF8063094F83230B8
:1035C000022B0CBF4FF4FC614FF6FF71FFF7C6FCF6
:1035D0006FE7064802B0BDE8704005F02DBE00BFA1
:1035E0009930010800000020540000209E3001089E
:1035F00011230380742343804FF4DD738380A12360
:10360000C3804323038191234381438240F23313D8
:103610000383BA23D022438340F2651302820385D9
:103620004FF4CB72A6230284438543847047000085
:1036300010B5044629B3002214490830FFF7BAFC3C
:1036400004F1100000221249FFF7B4FC04F1180045
:103650000023104A1049FFF791FC04F128000023D1
:103660000C4A0E49FFF78AFC04F1200008490023A8
:10367000084AFFF783FC2046BDE810400021FFF711
:10368000ACBCBDE81040FFF758BC00BFC930010812
:10369000CD300108100000208B2D0108D03001082A
:1036A00073B50C46CB790546012B8B7914BF0026E8
:1036B0001F26012B0CBF1F210021FFF78EFC237852
:1036C000013B042B0FD8DFE803F003101A29340064
:1036D00062781D49684605F04DFE3246694605F19F
:1036E0000800FFF767FC02B070BDA2781649684673
:1036F00005F040FE3246694605F11000F1E7E27838
:10370000124B684653F8221005F054FE33466946C2
:103710000F4A05F11800FFF731FCE4E722790A4966
:10372000684605F027FE33466946094A05F1280038
:10373000F1E762790449684605F01CFE33466946A4
:10374000034A05F12000E6E7993001085400002003
:1037500010000020084B094AC360094BDFF824C061
:10376000C0E90023084B8360084BC0E906C3084B3F
:103770000362084B0361704780110108A5000B002C
:103780005A005100B8001600A6000F0006003100D4
:10379000BA004700C900240037B50446B9B325462E
:1037A0000830FFF7C5FB238B00210133ADF8003053
:1037B000638B04F118000133ADF80230A38B023B98
:1037C000ADF80430E38B023BADF80630FFF705FCA3
:1037D000002002F0F5F80822618C35F8200F02F085
:1037E0009DF9002002F0ECF828464FF6FF71FFF734
:1037F00004FC68464FF6FF71FFF7B0FB0023064A52
:10380000064904F11000FFF7B9FB03B030BD03B067
:10381000BDE83040FFF791BB08000020D43001081C
:103820002DE9FF410E46CB784FF6FF71012B08BF03
:103830001F210446FFF7D1FB3378012B5FD1E08BCA
:10384000FCF7D8FD757896F80280064628460F46A4
:10385000FCF7D0FD2EA3D3E90023FCF75FFF02465F
:103860000B4630463946FCF72FFEFDF73FF80023A4
:10387000074600938DF80430274B2A4653F828302A
:103880002649684605F076FD3846FDF7DDFAB8F1C1
:10389000010F80B2E68BE08334D1A5F11403312B04
:1038A00032D9463D1E2D8CBF1F254FF47845238B02
:1038B00002380133ADF80830638B04F1200701337F
:1038C000ADF80A30A38B4FF6FF71023BADF80E0046
:1038D0003846ADF80C30FFF790FB4FF6FF7102A8A9
:1038E000FFF73CFB29463846FFF787FBF6B200237B
:1038F00069460B4A04F11000FFF740FBE68304B071
:10390000BDE8F0811F25D2E74FF6E075CFE700BF95
:103910000000000000C0584010310108D8300108F4
:10392000080000200F4A104B1049C0E90023104B3B
:10393000104AC0E902134FF01413DFF83CC0C0E98D
:10394000062302F54812C0E908237D32C0E90A23A4
:10395000C0E904C3094A0A4BC0E90C23094B0364BC
:10396000704700BF11007400BA01A100F7008C007D
:103970004A0028002401B500A101B5001600880006
:10398000B0011E0015018C0030B504468FB000292F
:1039900000F0898000250388454A1933ADF80030CE
:1039A0004388444918336846ADF802302B460195E8
:1039B000FFF7E4FA238802A81933ADF808306388CA
:1039C0003B4A4633ADF80A303B492B460395FFF797
:1039D000D5FA238804A81933ADF810306388344A27
:1039E0007733ADF8123035492B460595FFF7C6FA07
:1039F000238806A8A033ADF818306388304A4633D0
:103A0000ADF81A302F492B460795FFF7B7FA2388F0
:103A100008A803F59B73ADF820306388284A463325
:103A2000ADF8223028492B460995FFF7A7FA2388DD
:103A30000AA8C833ADF828306388214A7733ADF837
:103A40002A3022492B460B95FFF798FA23881C4A07
:103A500003F5A573ADF8303063880CA87733ADF863
:103A600032301B492B460D95FFF788FA294604F1A1
:103A70002800FFF7B2FA294604F12000FFF7ADFA5B
:103A8000294604F11000FFF7A8FA294604F11800AE
:103A9000FFF7A3FA2B460A4A0E4904F14000FFF74C
:103AA0006DFA0FB030BD0FB0BDE83040FFF745BA3A
:103AB00008000020FC2F01080D3001081430010817
:103AC00000000020203001082B30010833300108AD
:103AD00036300108D4300108F0B54B7B0D46012B80
:103AE00008BF1F260B7B0EBF37464FF6FF76002719
:103AF000012B0CBF1F21002187B00446FFF76DFA90
:103B00002B78022B1DD0032B6CD0012B17D163888F
:103B100031461433638604F13000FFF75EFA2A7AE7
:103B2000544B684653F8223053496A6805F022FC2A
:103B30003B466946514A04F14000FFF71FFA07B0BF
:103B4000F0BD638831463D33638604F13000FFF7F2
:103B500044FA238B0133ADF80830638B0133ADF8A1
:103B60000A30A38B023BADF80C30E38B023BADF87F
:103B70000E30238A0133ADF81030638A0133ADF87B
:103B80001230A38A023BADF81430E38A023BADF851
:103B900016302B7A012B17D102A8FFF7CEF900219E
:103BA00004F11000FFF719FA4FF4FC6104A8FFF7C5
:103BB000D5F92A7A2F4B684653F822302E496A6885
:103BC00005F0D8FB0023B4E7022BF2D104A8FFF7DD
:103BD000B4F9002104F11800FFF7FFF94FF4FC617C
:103BE00002A8E4E7638831466F33638604F130004E
:103BF000FFF7F3F9238C0133ADF80830638C013300
:103C0000ADF80A30A38C023BADF80C30E38C023BDC
:103C1000ADF80E30238D0133ADF81030638D0133D4
:103C2000ADF81230A38D023BADF81430E38D023BAA
:103C3000ADF816306B7A012B0DD104A8FFF77DF992
:103C4000002104F12000FFF7C8F94FF4FC6102A83D
:103C5000FFF784F973E7022B7FF471AF02A8FFF737
:103C60006CF9002104F12800FFF7B7F94FF4FC616B
:103C700004A8EDE710310108D83001080800002041
:103C8000044B054AC360054BC0E90023044B836025
:103C9000704700BF00FB000809010B004000510005
:103CA0001201140011B10830FFF742B9FFF745B90E
:103CB0000B784FF6FF71012B08BF1F21FFF78DB95D
:103CC00011230380742343804FF4DD738380A12389
:103CD00030B5C3809D2543230584038205853923A0
:103CE000F8259C24F621402203830586512305876D
:103CF0004FF4A975448241838282C3824484418502
:103D00008284C384448641878286C386A0F840505B
:103D1000A0F84240A0F84850A0F84A10A0F844206B
:103D2000A0F8463030BD000037B50446002944D025
:103D300000250021FFF751F92388224A6433ADF8AA
:103D40000030638868460F33ADF802301E492B46B9
:103D50000195FFF713F9294604F11000FFF73DF92B
:103D6000294604F12000FFF738F9294604F1400004
:103D7000FFF733F9294604F13000FFF72EF92B46FF
:103D800004F118000F4A1149FFF7F8F82B4604F127
:103D900028000C4A0E49FFF7F1F82B4604F14800C1
:103DA000084A0C49FFF7EAF82B46064A0A4904F18B
:103DB0003800FFF7E3F803B030BD03B0BDE8304092
:103DC000FFF7BBB808000020DF300108EF30010822
:103DD000F6300108FC3001080231010870B50D46CB
:103DE0008B780446012B2B7818BF002103F1FF3399
:103DF00008BF1F21042B27D8DFE803F0030819248C
:103E000004001030BDE87040FFF7E7B82030FFF73E
:103E1000E4F82B7904F128002BB90C4A0C49BDE8D1
:103E20007040FFF7ABB80023084A0A49F7E7303083
:103E3000FFF7D3F86B7904F13800002BF3D1034A74
:103E40000549ECE74030DDE770BD00BF0800002009
:103E5000F6300108073101080231010811230380FF
:103E6000742343804FF4DD738380A123C3802F2309
:103E70000381B0234381704711B10021FFF7ADB832
:103E8000FFF75BB80023024A0830FFF777B800BF9E
:103E90001000002003780B2B8EBF01230133DBB20F
:103EA000037070470378012B92BF0C2303F1FF339B
:103EB000DBB203707047000010B50446FEF7EEFE5B
:103EC000012384F82130836804F1210184F8223031
:103ED0004379034884F82330BDE81040FFF7A0BCC5
:103EE000F4070020F0B50446012587B001A8FEF7CD
:103EF0008FF9BDF81230104E84F85E309DF8063010
:103F000004F15A0784F85F309DF8083084F85B307C
:103F10009DF8093084F85C309DF8143084F85D30E9
:103F200084F85A50394630460135FFF7B9FB062D63
:103F3000F6D107B0F0BD00BF6405002001210023C9
:103F400010B50446017043801248FFF771FB03234C
:103F5000114A237713781148591C11706422B3FB5E
:103F6000F2F102FB113304F11C016377FFF782F8D1
:103F70002046FFF7A1FF2046FFF7B4FF201D4FF4B6
:103F80007A71FEF76DF904F10800BDE81040FEF704
:103F90006BB900BF640500201C0800203405002018
:103FA00070B504230025044694B00370294645806B
:103FB0002748FFF73DFB01212648FFF75DFF607EA4
:103FC000FEF7A0F9012603238DF8245002258DF871
:103FD00025608DF826308DF827504378DA1EB242DE
:103FE0002AD8627E1C49324401A805F0C3F98DF835
:103FF0002460637E8DF829508DF82830FEF790FA02
:1040000009A9FEF7E3FA01A91248FFF73BFF607E1A
:10401000FEF778F9437804F11801237601230F485D
:10402000E376FFF7FBF840F6B83104F10C0014B06A
:10403000BDE87040FEF714B9013B012BE3D8627E66
:104040000749013201A805F095F98DF82450D0E711
:10405000640500203C07002064310108940500201D
:104060007931010890F87C200B46042A24D8DFE837
:1040700002F0030910161C00837600F118010F48A6
:10408000FFF7CCB880F8243000F121010C48FFF78D
:10409000C7BB01460B4801F81F3FFFF709BE8377F6
:1040A00000F11C010848FEF7E5BF80F8603000F120
:1040B0005A010648FFF7F4BA704700BF9405002084
:1040C000F40700204C070020340500206405002080
:1040D00000487047200800202DE9F8430446DFF827
:1040E0007490DFF8748048461C4FFEF795FF1C4E15
:1040F0004046FFF73BF81B4D3846FFF72BFB304699
:10410000FFF7BEFD2846FFF773FA1748FFF7D6F80A
:104110001648FFF7A3FE1648FFF704FC1548FFF703
:10412000CFFD48460121FEF79FFF40460121FFF7E2
:1041300033F838460121FFF72FFB30460121FFF706
:10414000B1FD28460121FFF773FA2046BDE8F84388
:10415000FFF7F4BE3405002094050020F40700208A
:104160004C07002064050020AC0500203C0700201F
:10417000AC0700205C0700202DE9F04303780446DB
:10418000013B8DB0072B00F24781DFE813F00800F8
:104190003C04F902D20468014002E4049D058378DE
:1041A00000F10805002B00F00881033B062B00F20C
:1041B0000281DFE813F0070007002A0048014E01E2
:1041C000500152010221FFF74DFFA378032B13D1B9
:1041D00094F87C3073B1013B84F87C300121204697
:1041E000FFF740FF94F87C10B54805F025F841F240
:1041F0008831DDE00423EFE7042BEFD194F87C3025
:10420000032B8CBF00230133E6E790F87C30042BAE
:1042100000F2D180DFE813F0050019006000B8005B
:104220000301877E012F40F0C680002602214680D0
:104230000170FFF717FFA34884F87C606676E77685
:1042400004F11801FEF7EAFFD1E790F82470012F7E
:1042500040F0B18007234FF000090370A0F80290EE
:1042600000F16C06FEF71AFD804649469648FFF7B6
:10427000DFF939469548FFF787FB98F80530314656
:1042800084F8743098F80430904884F87530D8F881
:1042900000304FF00208236784F8798084F86C704E
:1042A000FFF71AFC3146894884F86C80FFF714FC4C
:1042B0000323314684F86C308448FFF70DFC40F24C
:1042C00001133146814884F87C7084F86C70A4F83E
:1042D0007830FFF701FC8AE790F81F80B8F1010FF2
:1042E00069D106230021037041807948FFF7A0F9C6
:1042F0004FF0020941467748FFF716FDFEF7EEFB47
:1043000084F8639084F86490C37804F1620684F8BA
:1043100068300378074684F867304378314684F87C
:10432000663083786B4884F8653084F86280FFF7E4
:1043300055FD3146674884F86290FFF74FFD03232F
:10434000314684F862306348FFF748FD0423314664
:1043500084F862305F48FFF741FD0523314684F859
:1043600062305C48FFF73AFD84F87C8084F8639003
:1043700084F86480FB783146564884F8683084F8C5
:104380006280FFF72BFD32E7867F012E13D10823D1
:104390000021037041804E48FEF7D4FF31464E485D
:1043A000FFF76AFD4D494C48FFF76CFD4FF4FA6189
:1043B0002846FDF755FF0023A370261D3046FDF764
:1043C00067FFD8B14FF47A713046FDF749FF0323F8
:1043D000434A237713784348591C11706422B3FB76
:1043E000F2F102FB113304F11C016377FEF742FE88
:1043F0002046FFF777FD2046FFF75EFD2846FDF7D4
:1044000047FF48B102212046FFF72CFE2846FDF762
:104410002BFF042384F87C300DB0BDE8F08390F8C6
:104420006030012BC7D105220270002280F87C3059
:10443000428080F85A3080F8613000F15A012248F9
:10444000FFF72EF9D3E6002320466376FFF7A8FD99
:10445000B1E70123F8E70223F6E70323F4E78378C3
:1044600000F10805A3B1042B0DD8022B00F15A0668
:104470003AD890F87C20013A042A4FD8DFE802F0BD
:104480005F698E7C9700052B00F09B800023A37052
:104490002846FDF7FDFE0028BED000210C48FEF79F
:1044A00051FF94F87C3084F85A30022384F861304C
:1044B00084F8603020460DB0BDE8F043FFF73EBD04
:1044C0008E3101089405002064050020AC0700200F
:1044D000AC0500205C0700203C070020A631010845
:1044E0001C080020340500200223314680F861308A
:1044F000B048FFF7D5F8A27894F87C30032A17D19A
:10450000012B94BF052303F1FF3384F87C3094F82A
:104510007C3084F85A30012384F861303146A54854
:10452000FFF7BEF841F288312846FDF799FEADE766
:10453000042AECD1042B8CBF01230133E5E7012BC6
:1045400000F15B0002D1FFF7A5FCE7E7FFF7AAFC4B
:10455000E4E7012B90F85C2009D13A2A03D8013214
:1045600084F85C20DAE7002384F85C30D6E70AB1EF
:10457000013AF5E73B23F7E7012B90F85E2005D1E0
:104580001D2A08D8013284F85E20C7E7012A01D924
:10459000013AF8E71E2384F85E30BFE790F85D30FB
:1045A000012B0CBF0223012380F85D30B6E7012BFD
:1045B00000F15F0002D1FFF775FCAFE7FFF76AFC7F
:1045C000ACE700217C48FEF7BDFE01217B48FFF7E8
:1045D00053FC7B497948FFF755FC01238DF80430E3
:1045E0008DF8053004238DF806301023D4F85B00D5
:1045F0008DF8073094F85F3002908DF80C30FDF79D
:104600008FFF01A9FDF7E2FF4FF4FA618CE7837891
:1046100000F1080653B1042B04D8022B23D841F231
:1046200088317CE0052B46D00023A3703046FDF78F
:104630002FFE00283FF4F0AE022504F1620161482C
:1046400084F8635084F86450FFF7C8FB04F11F013D
:104650005D48E57784F82050FFF72AFB0021594890
:10466000FFF762FB26E7022300F1620580F8643061
:1046700029465448FFF7B2FBA27894F87C30032A0D
:1046800012D1012B94BF052303F1FF3384F87C3052
:10469000012384F8643094F87C302946494884F832
:1046A0006230FFF79BFBBAE7042AF1D1042B8CBFE1
:1046B00001230133EAE700F16207FEF70FFA012355
:1046C0008DF80530062300228DF8063094F87C30F2
:1046D0008DF80420013B042B35D8DFE803F02436A5
:1046E000434E0300012539463648FFF777FB9DF816
:1046F000043023B1FEF7EEF901A9FEF7F3F9002D1E
:104700008DD000212F48FFF70FFB01212B48FFF729
:10471000B3FB2E492948FFF7B5FB4FF4FA61304649
:10472000FDF79EFD80E794F86850002D0CBF012333
:10473000002384F8683003D102238DF80430D2E7D7
:1047400003238DF804300025CDE794F86630002B64
:104750000CBF0123002384F8663001D00623F0E764
:104760000723EEE794F86730002B0CBF01230023EA
:1047700084F86730F4D00423E3E784F86520E2E7A7
:10478000837800F1080643B3042B21D8022B00F1F3
:10479000250537D890F87C20082A00F29880DFE8B9
:1047A00012F07E008900A400B100BD00D400E10039
:1047B000F500030164050020AC0500203C07002043
:1047C000B43101085C0700204C070020CD310108FE
:1047D000052B00F0F2800023A3703046FDF758FD52
:1047E00000283FF419AE0223AA48E37604F1180129
:1047F000FEF714FD3046FDF737FD0021A648FEF711
:10480000A1FD57E60223294680F85930A248FEF759
:104810002BFEA378032B23D194F87C30E3B1013B2A
:10482000DBB284F87C3084F826300123294684F8F2
:1048300059309948FEF718FE94F87C30082B05D1C2
:1048400094F8253053B1013B84F8253041F288318A
:104850003046FDF705FDBEE70823E2E70523F3E751
:10486000042BF3D194F87C302946072B8EBF00230C
:104870000133DBB284F87C3084F82630012386488B
:1048800084F85930FEF7F0FD94F87C30082BDDD128
:1048900094F82530042B8CBF00230133D4E790F823
:1048A0002500012B05EBC00000F1020033D1FFF71A
:1048B000F1FA0CE090F82510012B00EBC10191F802
:1048C00028200DD13A2A07D8013281F8282029461C
:1048D0007148FEF7C9FDB9E7002381F82830F6E7F3
:1048E0000AB1013AF1E73B23F7E790F8253000EBF6
:1048F000C30393F82920012A0CBF0222012283F866
:104900002920E4E790F82500012B4FEAC00000F1D0
:1049100005002844CAE7FFF7C5FAD8E790F8251044
:10492000012B00EBC10191F82B2009D13A2A03D8C1
:10493000013281F82B20CAE7002381F82B30C6E72B
:104940000AB1013AF5E73B23F7E790F8253000EB91
:10495000C30393F82C20012A0CBF0222012283F802
:104960002C20B4E790F82510012B00EBC10191F841
:104970002D2005D11D2A06D8013281F82D20A6E769
:104980001D2AF9D9012381F82D30A0E790F82500E0
:10499000012B05EBC00000F1090002D1FFF782FAFC
:1049A00095E7FFF777FA92E790F85730012B0CBFA5
:1049B0000223012380F8573089E700213648FEF7AB
:1049C000C1FC01213548FFF757FA35493348FFF755
:1049D00059FA02238DF8043001238DF805300423A1
:1049E0008DF8063010238DF80730637E8DF8103077
:1049F00004F127030593FDF793FD01A9FDF7E6FDFB
:104A00004FF4FA6124E78378042B26D8022B26D9A9
:104A100090F87C3000F11805437602232946C376CE
:104A20001C48FEF7FBFBA27894F87C30032A2DD1BA
:104A3000013B03F0030384F87C3094F87C30294672
:104A4000637601231348E376FEF7E8FB41F28831F1
:104A500004F10800FDF704FC01E0052B22D0A37847
:104A60000BB10023A37004F108052846FDF710FCE4
:104A700000283FF4D1AC02230648E37604F1180184
:104A8000FEF7CCFB2846FDF7EFFB13E5042AD4D153
:104A90000133CEE794050020AC0500203C07002040
:104AA000E4310108C57E012DD9D103230021037013
:104AB00041808948FEF7BCFD29468848FEF742FC44
:104AC000FDF7D8FD3122637E04F1250702FB0300C8
:104AD00004F1270300F1300250F8041B904243F820
:104AE000041BF9D100254FF002080278DFF8EC91A1
:104AF0001A70002684F8265084F8598084F82560BE
:104B0000394648460136FEF7AFFC062EF6D1013590
:104B1000092DEED1002384F87C3084F8253084F808
:104B20002630012339466D4884F85930FEF79CFC45
:104B30008CE70C30FDF7ACFB00283FF46DAC002196
:104B40006748FFF799F902236648E37604F11801F4
:104B5000FEF764FBAEE4877800F1080527B3042F65
:104B60001ED8022F00F16C0639D80223314680F896
:104B700079305D48FEF7B0FFA27894F87C30022AC5
:104B800071D1012B94BF032303F1FF3384F87C30F0
:104B900094F87C3084F86C30012384F8793030E06C
:104BA000052F69D00023A3702846FDF771FB00286C
:104BB0003FF432AC94F87C3004F1210184F86C307D
:104BC00040F20223A4F878300223484884F82430C5
:104BD000FEF726FE00214448FEF7D6FE6AE490F870
:104BE0007C20022A1CD0032A34D0012A09D1032FA9
:104BF00090F870300FD1622B8CBF0023013384F802
:104C0000703031463848FEF767FF41F28831284658
:104C1000FDF726FBC6E70BB1013BF0E76323EEE7A8
:104C200090F87410036F012909D1052103EBC30328
:104C300093FBF1F32033036780F87420E1E7092246
:104C4000203B03EB830393FBF2F30367012380F81C
:104C50007430D6E790F87530022B0CBF0123022385
:104C600080F87530CDE7012A92D1022B01D80133AB
:104C70008CE784F87C208BE700211B48FEF784FE3C
:104C800001211748FFF7F8F819491548FFF7FAF816
:104C900001238DF804308DF805300C238DF8073092
:104CA00094F875308DF806708DF80C30236F0293F0
:104CB00094F874308DF80D30FDF732FC01A9FDF742
:104CC00085FC4FF4FA61A2E70830FDF7E1FA00280D
:104CD0003FF4A2AB91E500BF64050020AC050020C5
:104CE0003C07002094050020AC070020F4070020BA
:104CF000FA31010810B504460430FDF7BBFA04F19F
:104D00000800FDF7B7FA04F10C00BDE81040FDF70C
:104D1000B1BA4B78022B04BF0B7883707047000048
:104D2000202808B522D004D801280CD0102815D08E
:104D300008BD8028FCD11148FDF79AFA0028F7D168
:104D40001E210E4806E00E48FDF792FA0028EFD12A
:104D50001E210B48BDE80840FDF782BA0948FDF75F
:104D600087FA0028E4D11E210648F3E70648FDF73C
:104D70007FFA0028DCD11E210348EBE784010020E4
:104D8000940100205401002074010020012002F051
:104D9000E5BA102002F0E2BA08B5202002F0DEFAEF
:104DA000BDE80840802002F0D9BA0000F0B599B003
:104DB00001F0A4FD1422002110A803F06BFE1422C0
:104DC000002109A803F066FE1022002105A803F0C7
:104DD00061FE02244FF480330122CDE91543CDE971
:104DE0000E234FF400130EA81292179302F014FF33
:104DF00008B100F0C7F90F23CDE9093400230221DF
:104E000009A8CDE90B330D9303F0DCF808B100F0ED
:104E1000B9F9022305934FF4004305A8079303F063
:104E200093F908B100F0AEF9974D1022002109A8BE
:104E300003F030FEAB69022743F01003AB6101269B
:104E4000AB69002203F010030293029BAB690221BD
:104E500043F02003AB61AB698C4803F0200303935C
:104E6000039BAB69002443F00403AB61AB6903F01F
:104E700004030493049BAB6943F00803AB61AB6983
:104E800003F008030593059B02F062FA002240F646
:104E90005F717F4802F05CFA00224FF4E0517D48D8
:104EA00002F056FA794809A9CDE90976CDE90B77E0
:104EB00002F06EF90C23754809A9CDE909340B9469
:104EC00002F066F940F65F73714809A9CDE9093629
:104ED000CDE90B4702F05CF94FF4E0536D4809A9A6
:104EE000CDE90936CDE90B4702F052F94FF4FC53F6
:104EF00066480EA90E93CDE90F44119402F048F9CB
:104F00004FF4805362480EA9CDE90E34109402F09C
:104F10003FF94FF400435E480EA9CDE90E341094DA
:104F200002F036F930235C4F584809A9CDE909371A
:104F30000B9402F02DF92023544809A9CDE9093436
:104F40000B9402F025F9A023514809A9CDE90937AE
:104F50000B9402F01DF909A94E48CDE909670B949D
:104F600002F016F9062001F0CDFF172001F0CAFF6C
:104F70000A2001F0C7FF4948494BCDE90E440360C0
:104F80004FF460231094846004730475C36144601B
:104F9000066101F0DBFE08B100F0F4F80A23CDE968
:104FA0000E3600233D480EA9109301F08DFD08B187
:104FB00000F0E8F800226B69114643F001036B61D1
:104FC0006B690E2003F001030193019B01F068FF60
:104FD0000E2001F097FF00220F20114601F060FF24
:104FE0000F2001F08FFF2F4C2F48304B4FF48042A1
:104FF000C0E900430023C0E90233C0E90423C0E94B
:105000000633036202F092FB08B100F0BBF8FCF734
:10501000B5FE00F0FBFCD020FDF7DEF8FBF73AFF11
:10502000FCF72EFE102200210EA803F033FD4722CC
:105030001F4820490023C0E900124FF6FF72CDE956
:105040000933C0E9032383608023836103F03CFAC2
:1050500008B100F097F84FF4805315480EA90E934D
:1050600003F01BFB08B100F08DF80023104809A9DC
:10507000CDE9093303F046FC08B100F083F819B01C
:10508000BDE8F040FCF7E6BA001002400010014015
:1050900000080140000C014000002110A008002081
:1050A0000024014000540040D0080020A0860100E8
:1050B00024090020000400402DE9F843FFF776FEA4
:1050C000274804F03FF9274804F03CF926492748CF
:1050D00004F0B2F82649274804F0AEF8204804F05E
:1050E00031F92548FBF70EFF2448FCF7B7F8FDF728
:1050F00017FA0746FDF75EFAFEF7EAFF8146FEF76C
:10510000EBFFFDF7C7FD8046FDF75AFEFDF7B6FA47
:105110000646FDF7B7FAFDF7F1F80546FDF7FAF890
:10512000FDF716FD0446FDF717FD02F0E7FF014607
:10513000134804F081F84846FFF71EF84046FDF793
:10514000B1FD3846FDF7F0F93046FDF715FB28466E
:10515000FDF7FCF82046FDF701FDFDF7ABF8EAE7A7
:105160000F3201083A320108533201086232010855
:105170007D320108893201084C0100209C01002089
:105180009832010872B6FEE70E4B82B09A6942F07F
:1051900001029A619A6902F001020092009ADA69AA
:1051A00042F08052DA61DB69074A03F080530193D1
:1051B000019B536823F0E06343F00073536002B037
:1051C000704700BF001002400000014010B50446C7
:1051D00086B01022002102A803F05CFC2268104B6C
:1051E0009A421BD103F56C439A690E4842F400724F
:1051F0009A619A6902A902F400720092009A9A696F
:1052000042F010029A619B69012203F0100301939E
:10521000019B0323CDE9022301F0BAFF06B010BDC4
:10522000002401400010014010B5044686B0102251
:10523000002102A803F02EFC2268114B9A421CD1D7
:10524000104CC022A369104843F00803A361A3696E
:1052500002A903F008030093009B1223CDE9022367
:105260000323059301F094FFE36943F40013E36122
:10527000E36903F400130193019B06B010BD00BF66
:105280000054004000100240000C01400368164A20
:1052900084B093420BD1154B9A6942F400629A6133
:1052A0009B6903F400630193019B04B07047B3F161
:1052B000804F0BD103F50433DA6942F00102DA6161
:1052C000DB6903F001030293029BEEE7084A934275
:1052D000EBD1064BDA6942F00202DA61DB6903F0D6
:1052E00002030393039BE0E7002C014000100240FF
:1052F0000004004010B5044686B01022002102A828
:1053000003F0C8FB2368144A934215D1134B9A69E2
:1053100042F004029A619B6903F004030093009B2E
:105320004FF47063029302230D4802A9039305937F
:1053300001F02EFF06B010BDB3F1804FFAD103F596
:1053400004339A6942F004029A619B6903F00403F2
:105350000193019B0F23E5E7002C01400010024060
:1053600000080140FEE7FEE7FEE7FEE7FEE77047C4
:105370007047704708B5FCF799FFBDE8084001F099
:10538000CFBA0120704708B503F008FB162303606D
:105390004FF0FF3008BD08B503F000FB1623036093
:1053A000FEE770B50D4614460E46731B9C4201DCA9
:1053B000204670BDAFF3008006F8010BF5E74FF013
:1053C000FF3070474FF4005300204B6070470120BE
:1053D00070470020704700000B4A0346116810B563
:1053E00009B90A491160106809490A4C0344091BAC
:1053F0008B4206D903F0D2FA0C2303604FF0FF3042
:1054000010BD1360FCE700BF6C090020100F0020E6
:1054100000500020000400007047000000B5124852
:10542000B7B003F009FF114803F08CFF01238DF89A
:105430000030FDF733FC02460068516801AB03C33E
:1054400090681860FDF74AFB03680493FDF712F9B2
:10545000C422014605A803F0F5FA37216846FCF797
:1054600053FB37B05DF804FBCA320108DF32010894
:1054700010B50648064C03F0DFFE064803F062FF55
:1054800020463721FCF754FB204610BDCA320108E4
:1054900070090020063301080C480D490D4A00230D
:1054A00002E0D458C4500433C4188C42F9D30A4AD9
:1054B0000A4C002301E013600432A242FBD3FFF741
:1054C000ABFF03F083FAFFF7F7FD70470000002001
:1054D000300100203434010830010020100F00207A
:1054E000FEE74FF4F07070474FF4A0707047000073
:1054F00010B53D4C2378DA070AD443F001029B072C
:10550000227001D401F0B4F8237843F00203237031
:10551000692001F0A1F8012001F022F9052001F035
:105520009BF80F22E020314901F05EF90F22E120C3
:105530002F4901F059F902222E49C02001F054F9F7
:10554000052001F089F8C12001F00AF9412001F09D
:105550001BF9052001F080F803222749C52001F03E
:1055600043F9052001F078F83A2001F0F9F86620B7
:1055700001F00AF9B02001F0F3F8802001F004F9FD
:10558000B12001F0EDF8A02001F0FEF8B42001F008
:10559000E7F8022001F0F8F802221849B62001F0DD
:1055A00023F9E92001F0DCF8002001F0EDF80422F5
:1055B0001349F72001F018F9052001F04DF81120EA
:1055C00001F0CEF8782001F047F8292001F0C8F862
:1055D000052001F041F8362001F0C2F8BDE8104086
:1055E000282001F0D1B800BF480A0020E09E000842
:1055F000F09E000830330108009F00083333010893
:105600003633010870B505460C462E0A2A2001F0F3
:10561000A7F8EDB2304601F0B7F8284601F0B4F82B
:10562000304601F0B1F8284601F0AEF8250A2B20EB
:1056300001F096F8E4B2284601F0A6F8204601F001
:10564000A3F8284601F0A0F82046BDE8704001F01C
:105650009BB800002DE9F8431F46054616460C4648
:105660001A4B07F1FF391980194B01EB09022A2067
:105670001A805FFA85F801F073F8280A01F084F8BF
:105680003544404601F080F8681EC0F3072001F061
:105690007BF8701E4044C0B201F076F82B2001F078
:1056A0005FF8E5B2200A01F06FF8284601F06CF8C7
:1056B000E0190138C0F3072001F066F805EB090096
:1056C000C0B2BDE8F84301F05FB800BF540A002043
:1056D000520A002008B5112001F042F8BDE8084048
:1056E000012000F0BBBF08B5102001F039F8BDE87B
:1056F0000840002000F0B2BF002307B501930B4B18
:105700001B780BB9FFF7F4FE00230322042001A944
:1057100001F09CF8019A064B49F28840B3EB420F26
:1057200018BF002003B05DF804FB00BF480A00204A
:105730005480660073B505460C462E0A2A2001F0F7
:105740000FF8EDB2304601F01FF8284601F01CF8C2
:10575000304601F019F8284601F016F8250A2B20EA
:1057600000F0FEFFE4B2284601F00EF8204601F0FA
:105770000BF8284601F008F8204601F005F801234F
:105780002E201A460DF1060101F07AF8BDF8060048
:1057900002B070BD70B51D461446049EFFF75AFF57
:1057A000314605FB04F2BDE8704001232E2001F0D4
:1057B00067B8000038B5164C054663888B4202D1A5
:1057C000E38893420AD0E280C2F5F072521A6180F7
:1057D000A280332003220F4901F01EF8A2886842FC
:1057E00090FBF2F302FB1300638881B200044ABF0E
:1057F000D218C9188918238809B2994207D089B2EA
:1058000021800122BDE83840372000F0D1BF38BDEB
:105810004A0A00204C0A002010B50446001200F08D
:10582000F80000F0B1FFE01000F0FC0000F0ACFF69
:10583000E00000F0F800BDE8104000F0A5BFF8B5AA
:1058400005460C4616462F0A2A2000F089FFEDB2C5
:10585000384600F099FF284600F096FF384600F0E1
:1058600093FF284600F090FF250A2B2000F078FFD8
:10587000E4B2284600F088FF204600F085FF284665
:1058800000F082FF204600F07FFF2C2000F068FF30
:105890003046BDE8F840FFF7BFBF70B515461C465F
:1058A000BDF81060FFF7D6FE2C2000F059FF6C43C6
:1058B00004B970BD3046FFF7AFFF013CF8E713B500
:1058C00004460846009411461A460123FFF7E5FFF7
:1058D00002B010BD13B504460846009411460122DB
:1058E000FFF7DBFF02B010BDF8B540F23F16558858
:1058F000938854899189ADB2A4B244EA014445EA3F
:10590000034536201C4F2D1B144400F029FF68204E
:1059100000F03AFF2B2000F023FF388825F0010526
:10592000301AC0F3072000F02FFF3888134FC0F162
:105930003F00C0B200F028FF38882544301AC0F379
:10594000072000F021FF3888C0F13F00C0B200F00E
:105950001BFF2C2000F004FFAC4207D1362000F0E2
:10596000FFFEBDE8F840282000F00EBF34F8020B1F
:10597000FFF752FFF0E700BF520A0020540A002050
:1059800070B5049E03FB02F5FFF764FE2C2000F0C7
:10599000E7FE0024A54200D170BD36F81400FFF7E1
:1059A0003BFF0134F6E70000014B1B689B6A184778
:1059B000C0000020014B1B68DB6A1847C0000020B4
:1059C000014B1860704700BF580A0020014B586017
:1059D000704700BF580A0020014B9860704700BF15
:1059E000580A0020084B73B51B6805469E6BFFF7ED
:1059F000DBFF0446FFF7DEFF002103462246084690
:105A00000095B04702B070BDC0000020084B10B533
:105A10001B6800241B6898474FF6FF70054B064A29
:105A2000C3E900409A60FFF7DDFF204610BD00BFCC
:105A3000C0000020580A002018000020024B1B68FC
:105A40005B6903B118477047C0000020104B2DE977
:105A5000F0411B6806461C6A0F461546A4B1134662
:105A60000A4601460B48A446BDE8F041008860475D
:105A700030193946B8F8002080B2FFF7DFFF013453
:105A8000AC42F5D3BDE8F081DFF80880F8E700BF4D
:105A9000C0000020580A0020104B2DE9F0411B687F
:105AA00006465C6A0F461546A4B113460A460146EF
:105AB0000B48A446BDE8F0410088604739193046DC
:105AC000B8F8002089B2FFF7B9FF0134AC42F5D332
:105AD000BDE8F081DFF80880F8E700BFC0000020D3
